{
  "contractName": "APICalls",
  "abi": [
    {
      "constant": true,
      "inputs": [],
      "name": "safeWithdrawAmount",
      "outputs": [
        {
          "name": "",
          "type": "uint256"
        }
      ],
      "payable": false,
      "stateMutability": "view",
      "type": "function"
    },
    {
      "constant": true,
      "inputs": [],
      "name": "saleFee",
      "outputs": [
        {
          "name": "",
          "type": "uint256"
        }
      ],
      "payable": false,
      "stateMutability": "view",
      "type": "function"
    },
    {
      "constant": true,
      "inputs": [],
      "name": "version",
      "outputs": [
        {
          "name": "",
          "type": "uint256"
        }
      ],
      "payable": false,
      "stateMutability": "view",
      "type": "function"
    },
    {
      "constant": true,
      "inputs": [],
      "name": "tokenReward",
      "outputs": [
        {
          "name": "",
          "type": "uint256"
        }
      ],
      "payable": false,
      "stateMutability": "view",
      "type": "function"
    },
    {
      "constant": true,
      "inputs": [],
      "name": "defaultBuyerLastPaidAt",
      "outputs": [
        {
          "name": "",
          "type": "uint256"
        }
      ],
      "payable": false,
      "stateMutability": "view",
      "type": "function"
    },
    {
      "constant": true,
      "inputs": [],
      "name": "tokenContractAddress",
      "outputs": [
        {
          "name": "",
          "type": "address"
        }
      ],
      "payable": false,
      "stateMutability": "view",
      "type": "function"
    },
    {
      "constant": true,
      "inputs": [],
      "name": "owner",
      "outputs": [
        {
          "name": "",
          "type": "address"
        }
      ],
      "payable": false,
      "stateMutability": "view",
      "type": "function"
    },
    {
      "constant": true,
      "inputs": [],
      "name": "relayContractAddress",
      "outputs": [
        {
          "name": "",
          "type": "address"
        }
      ],
      "payable": false,
      "stateMutability": "view",
      "type": "function"
    },
    {
      "constant": false,
      "inputs": [
        {
          "name": "newOwner",
          "type": "address"
        }
      ],
      "name": "transferOwnership",
      "outputs": [],
      "payable": false,
      "stateMutability": "nonpayable",
      "type": "function"
    },
    {
      "inputs": [],
      "payable": false,
      "stateMutability": "nonpayable",
      "type": "constructor"
    },
    {
      "anonymous": false,
      "inputs": [
        {
          "indexed": false,
          "name": "apiId",
          "type": "uint256"
        },
        {
          "indexed": true,
          "name": "sellerAddress",
          "type": "address"
        },
        {
          "indexed": true,
          "name": "buyerAddress",
          "type": "address"
        },
        {
          "indexed": false,
          "name": "pricePerCall",
          "type": "uint256"
        },
        {
          "indexed": false,
          "name": "numCalls",
          "type": "uint256"
        },
        {
          "indexed": false,
          "name": "totalPrice",
          "type": "uint256"
        },
        {
          "indexed": false,
          "name": "reportingAddress",
          "type": "address"
        }
      ],
      "name": "LogAPICallsMade",
      "type": "event"
    },
    {
      "anonymous": false,
      "inputs": [
        {
          "indexed": false,
          "name": "apiId",
          "type": "uint256"
        },
        {
          "indexed": true,
          "name": "sellerAddress",
          "type": "address"
        },
        {
          "indexed": false,
          "name": "totalPrice",
          "type": "uint256"
        },
        {
          "indexed": false,
          "name": "rewardedTokens",
          "type": "uint256"
        },
        {
          "indexed": false,
          "name": "networkFee",
          "type": "uint256"
        }
      ],
      "name": "LogAPICallsPaid",
      "type": "event"
    },
    {
      "anonymous": false,
      "inputs": [
        {
          "indexed": true,
          "name": "buyerAddress",
          "type": "address"
        },
        {
          "indexed": false,
          "name": "apiId",
          "type": "uint256"
        },
        {
          "indexed": false,
          "name": "amount",
          "type": "uint256"
        },
        {
          "indexed": false,
          "name": "causedAnOverdraft",
          "type": "bool"
        }
      ],
      "name": "LogSpendCredits",
      "type": "event"
    },
    {
      "anonymous": false,
      "inputs": [
        {
          "indexed": true,
          "name": "buyerAddress",
          "type": "address"
        },
        {
          "indexed": false,
          "name": "amount",
          "type": "uint256"
        }
      ],
      "name": "LogDepositCredits",
      "type": "event"
    },
    {
      "anonymous": false,
      "inputs": [
        {
          "indexed": true,
          "name": "buyerAddress",
          "type": "address"
        },
        {
          "indexed": false,
          "name": "amount",
          "type": "uint256"
        }
      ],
      "name": "LogWithdrawCredits",
      "type": "event"
    },
    {
      "anonymous": false,
      "inputs": [
        {
          "indexed": true,
          "name": "previousOwner",
          "type": "address"
        },
        {
          "indexed": true,
          "name": "newOwner",
          "type": "address"
        }
      ],
      "name": "OwnershipTransferred",
      "type": "event"
    },
    {
      "constant": false,
      "inputs": [
        {
          "name": "tokenAddress",
          "type": "address"
        },
        {
          "name": "tokens",
          "type": "uint256"
        }
      ],
      "name": "transferAnyERC20Token",
      "outputs": [
        {
          "name": "success",
          "type": "bool"
        }
      ],
      "payable": false,
      "stateMutability": "nonpayable",
      "type": "function"
    },
    {
      "constant": false,
      "inputs": [
        {
          "name": "amount",
          "type": "uint256"
        }
      ],
      "name": "withdrawEther",
      "outputs": [],
      "payable": false,
      "stateMutability": "nonpayable",
      "type": "function"
    },
    {
      "constant": false,
      "inputs": [
        {
          "name": "_withdrawAddress",
          "type": "address"
        }
      ],
      "name": "setWithdrawAddress",
      "outputs": [],
      "payable": false,
      "stateMutability": "nonpayable",
      "type": "function"
    },
    {
      "constant": false,
      "inputs": [
        {
          "name": "_usageReportingAddress",
          "type": "address"
        }
      ],
      "name": "setUsageReportingAddress",
      "outputs": [],
      "payable": false,
      "stateMutability": "nonpayable",
      "type": "function"
    },
    {
      "constant": false,
      "inputs": [
        {
          "name": "_relayContractAddress",
          "type": "address"
        }
      ],
      "name": "setRelayContractAddress",
      "outputs": [],
      "payable": false,
      "stateMutability": "nonpayable",
      "type": "function"
    },
    {
      "constant": false,
      "inputs": [
        {
          "name": "_tokenContractAddress",
          "type": "address"
        }
      ],
      "name": "setTokenContractAddress",
      "outputs": [],
      "payable": false,
      "stateMutability": "nonpayable",
      "type": "function"
    },
    {
      "constant": false,
      "inputs": [
        {
          "name": "_tokenReward",
          "type": "uint256"
        }
      ],
      "name": "setTokenReward",
      "outputs": [],
      "payable": false,
      "stateMutability": "nonpayable",
      "type": "function"
    },
    {
      "constant": false,
      "inputs": [
        {
          "name": "_saleFee",
          "type": "uint256"
        }
      ],
      "name": "setSaleFee",
      "outputs": [],
      "payable": false,
      "stateMutability": "nonpayable",
      "type": "function"
    },
    {
      "constant": false,
      "inputs": [
        {
          "name": "_defaultBuyerLastPaidAt",
          "type": "uint256"
        }
      ],
      "name": "setDefaultBuyerLastPaidAt",
      "outputs": [],
      "payable": false,
      "stateMutability": "nonpayable",
      "type": "function"
    },
    {
      "constant": false,
      "inputs": [
        {
          "name": "apiId",
          "type": "uint256"
        },
        {
          "name": "numCalls",
          "type": "uint256"
        },
        {
          "name": "buyerAddress",
          "type": "address"
        }
      ],
      "name": "reportUsage",
      "outputs": [],
      "payable": false,
      "stateMutability": "nonpayable",
      "type": "function"
    },
    {
      "constant": false,
      "inputs": [
        {
          "name": "apiId",
          "type": "uint256"
        },
        {
          "name": "buyerAddress",
          "type": "address"
        }
      ],
      "name": "paySellerForBuyer",
      "outputs": [],
      "payable": false,
      "stateMutability": "nonpayable",
      "type": "function"
    },
    {
      "constant": false,
      "inputs": [
        {
          "name": "apiId",
          "type": "uint256"
        }
      ],
      "name": "paySeller",
      "outputs": [],
      "payable": false,
      "stateMutability": "nonpayable",
      "type": "function"
    },
    {
      "constant": true,
      "inputs": [
        {
          "name": "apiId",
          "type": "uint256"
        },
        {
          "name": "buyerAddress",
          "type": "address"
        }
      ],
      "name": "buyerLastPaidAt",
      "outputs": [
        {
          "name": "",
          "type": "uint256"
        }
      ],
      "payable": false,
      "stateMutability": "view",
      "type": "function"
    },
    {
      "constant": true,
      "inputs": [
        {
          "name": "addr",
          "type": "address"
        }
      ],
      "name": "buyerInfoOf",
      "outputs": [
        {
          "name": "overdrafted",
          "type": "bool"
        },
        {
          "name": "lifetimeOverdraftCount",
          "type": "uint256"
        },
        {
          "name": "credits",
          "type": "uint256"
        },
        {
          "name": "lifetimeCreditsUsed",
          "type": "uint256"
        },
        {
          "name": "lifetimeExceededApprovalAmountCount",
          "type": "uint256"
        }
      ],
      "payable": false,
      "stateMutability": "view",
      "type": "function"
    },
    {
      "constant": true,
      "inputs": [
        {
          "name": "addr",
          "type": "address"
        }
      ],
      "name": "creditsBalanceOf",
      "outputs": [
        {
          "name": "",
          "type": "uint256"
        }
      ],
      "payable": false,
      "stateMutability": "view",
      "type": "function"
    },
    {
      "constant": false,
      "inputs": [
        {
          "name": "to",
          "type": "address"
        }
      ],
      "name": "addCredits",
      "outputs": [],
      "payable": true,
      "stateMutability": "payable",
      "type": "function"
    },
    {
      "constant": false,
      "inputs": [
        {
          "name": "amount",
          "type": "uint256"
        }
      ],
      "name": "withdrawCredits",
      "outputs": [],
      "payable": false,
      "stateMutability": "nonpayable",
      "type": "function"
    },
    {
      "constant": true,
      "inputs": [
        {
          "name": "apiId",
          "type": "uint256"
        },
        {
          "name": "index",
          "type": "uint256"
        }
      ],
      "name": "nonzeroAddressesElementForApi",
      "outputs": [
        {
          "name": "",
          "type": "address"
        }
      ],
      "payable": false,
      "stateMutability": "view",
      "type": "function"
    },
    {
      "constant": true,
      "inputs": [
        {
          "name": "apiId",
          "type": "uint256"
        }
      ],
      "name": "nonzeroAddressesLengthForApi",
      "outputs": [
        {
          "name": "",
          "type": "uint256"
        }
      ],
      "payable": false,
      "stateMutability": "view",
      "type": "function"
    },
    {
      "constant": true,
      "inputs": [
        {
          "name": "apiId",
          "type": "uint256"
        },
        {
          "name": "buyerAddress",
          "type": "address"
        }
      ],
      "name": "amountOwedForApiForBuyer",
      "outputs": [
        {
          "name": "",
          "type": "uint256"
        }
      ],
      "payable": false,
      "stateMutability": "view",
      "type": "function"
    },
    {
      "constant": true,
      "inputs": [
        {
          "name": "apiId",
          "type": "uint256"
        }
      ],
      "name": "totalOwedForApi",
      "outputs": [
        {
          "name": "",
          "type": "uint256"
        }
      ],
      "payable": false,
      "stateMutability": "view",
      "type": "function"
    },
    {
      "constant": true,
      "inputs": [
        {
          "name": "apiId",
          "type": "uint256"
        },
        {
          "name": "buyerAddress",
          "type": "address"
        }
      ],
      "name": "approvedAmount",
      "outputs": [
        {
          "name": "",
          "type": "uint256"
        }
      ],
      "payable": false,
      "stateMutability": "view",
      "type": "function"
    },
    {
      "constant": false,
      "inputs": [
        {
          "name": "apiId",
          "type": "uint256"
        },
        {
          "name": "buyerAddress",
          "type": "address"
        },
        {
          "name": "newAmount",
          "type": "uint256"
        }
      ],
      "name": "approveAmount",
      "outputs": [],
      "payable": false,
      "stateMutability": "nonpayable",
      "type": "function"
    },
    {
      "constant": false,
      "inputs": [
        {
          "name": "apiId",
          "type": "uint256"
        },
        {
          "name": "buyerAddress",
          "type": "address"
        },
        {
          "name": "newAmount",
          "type": "uint256"
        },
        {
          "name": "firstUseTime",
          "type": "uint256"
        }
      ],
      "name": "approveAmountAndSetFirstUseTime",
      "outputs": [],
      "payable": false,
      "stateMutability": "nonpayable",
      "type": "function"
    },
    {
      "constant": true,
      "inputs": [
        {
          "name": "apiId",
          "type": "uint256"
        },
        {
          "name": "buyerAddress",
          "type": "address"
        }
      ],
      "name": "buyerExceededApprovedAmount",
      "outputs": [
        {
          "name": "",
          "type": "bool"
        }
      ],
      "payable": false,
      "stateMutability": "view",
      "type": "function"
    }
  ],
  "bytecode": "0x6060604052341561000f57600080fd5b336000806101000a81548173ffffffffffffffffffffffffffffffffffffffff021916908373ffffffffffffffffffffffffffffffffffffffff160217905550600160068190555068056bc75e2d63100000600181905550600a60028190555062093a8060038190555033600860006101000a81548173ffffffffffffffffffffffffffffffffffffffff021916908373ffffffffffffffffffffffffffffffffffffffff16021790555033600960006101000a81548173ffffffffffffffffffffffffffffffffffffffff021916908373ffffffffffffffffffffffffffffffffffffffff1602179055506135418061010a6000396000f3006060604052600436106101ac576000357c0100000000000000000000000000000000000000000000000000000000900463ffffffff16806306b05238146101b157806309ed1782146101da5780630ac5f441146101fd578063178021e31461023f5780631a0c83f8146102685780632d2bcd37146102be57806335e4d30f146102f75780633ab1a494146103635780633bed33ce1461039c57806344e2f9ad146103bf5780634797debe1461042c5780634ecc6eab146104805780634fe01d38146104a357806354fd4d50146104c657806368302467146104ef57806368aafcd9146105125780636905877a1461054b5780636e66f6e9146105825780636ea96bcd146105ab57806382edaf94146105d457806388065236146106295780638da5cb5b1461067f5780638eee1cd6146106d45780638f49ccf41461072e578063a38b68cb14610779578063b23d4854146107b0578063bdcafc55146107e9578063c216c0d31461080c578063cbd3faef1461083a578063dc39d06d14610890578063dfa93d64146108ea578063f2fde38b1461093f578063f44b43f814610978578063f9854bfc146109c3575b600080fd5b34156101bc57600080fd5b6101c4610a10565b6040518082815260200191505060405180910390f35b34156101e557600080fd5b6101fb6004808035906020019091905050610a16565b005b341561020857600080fd5b61023d600480803590602001909190803573ffffffffffffffffffffffffffffffffffffffff16906020019091905050610b1d565b005b341561024a57600080fd5b610252610e3b565b6040518082815260200191505060405180910390f35b341561027357600080fd5b6102a8600480803590602001909190803573ffffffffffffffffffffffffffffffffffffffff16906020019091905050610e41565b6040518082815260200191505060405180910390f35b34156102c957600080fd5b6102f5600480803573ffffffffffffffffffffffffffffffffffffffff16906020019091905050610ea4565b005b341561030257600080fd5b6103216004808035906020019091908035906020019091905050610f7f565b604051808273ffffffffffffffffffffffffffffffffffffffff1673ffffffffffffffffffffffffffffffffffffffff16815260200191505060405180910390f35b341561036e57600080fd5b61039a600480803573ffffffffffffffffffffffffffffffffffffffff16906020019091905050610fdd565b005b34156103a757600080fd5b6103bd60048080359060200190919050506110b8565b005b34156103ca57600080fd5b6103f6600480803573ffffffffffffffffffffffffffffffffffffffff169060200190919050506111cb565b60405180861515151581526020018581526020018481526020018381526020018281526020019550505050505060405180910390f35b341561043757600080fd5b61047e600480803590602001909190803573ffffffffffffffffffffffffffffffffffffffff1690602001909190803590602001909190803590602001909190505061124f565b005b341561048b57600080fd5b6104a1600480803590602001909190505061143b565b005b34156104ae57600080fd5b6104c460048080359060200190919050506114a0565b005b34156104d157600080fd5b6104d9611505565b6040518082815260200191505060405180910390f35b34156104fa57600080fd5b610510600480803590602001909190505061150b565b005b341561051d57600080fd5b610549600480803573ffffffffffffffffffffffffffffffffffffffff1690602001909190505061184d565b005b341561055657600080fd5b61056c6004808035906020019091905050611928565b6040518082815260200191505060405180910390f35b341561058d57600080fd5b610595611a10565b6040518082815260200191505060405180910390f35b34156105b657600080fd5b6105be611a16565b6040518082815260200191505060405180910390f35b34156105df57600080fd5b6105e7611a1c565b604051808273ffffffffffffffffffffffffffffffffffffffff1673ffffffffffffffffffffffffffffffffffffffff16815260200191505060405180910390f35b341561063457600080fd5b610669600480803590602001909190803573ffffffffffffffffffffffffffffffffffffffff16906020019091905050611a42565b6040518082815260200191505060405180910390f35b341561068a57600080fd5b610692611aa0565b604051808273ffffffffffffffffffffffffffffffffffffffff1673ffffffffffffffffffffffffffffffffffffffff16815260200191505060405180910390f35b34156106df57600080fd5b610714600480803590602001909190803573ffffffffffffffffffffffffffffffffffffffff16906020019091905050611ac5565b604051808215151515815260200191505060405180910390f35b341561073957600080fd5b610777600480803590602001909190803590602001909190803573ffffffffffffffffffffffffffffffffffffffff16906020019091905050611b30565b005b341561078457600080fd5b61079a6004808035906020019091905050611fd7565b6040518082815260200191505060405180910390f35b34156107bb57600080fd5b6107e7600480803573ffffffffffffffffffffffffffffffffffffffff16906020019091905050611fff565b005b34156107f457600080fd5b61080a60048080359060200190919050506120da565b005b610838600480803573ffffffffffffffffffffffffffffffffffffffff1690602001909190505061213f565b005b341561084557600080fd5b61087a600480803590602001909190803573ffffffffffffffffffffffffffffffffffffffff169060200190919050506121f3565b6040518082815260200191505060405180910390f35b341561089b57600080fd5b6108d0600480803573ffffffffffffffffffffffffffffffffffffffff16906020019091908035906020019091905050612256565b604051808215151515815260200191505060405180910390f35b34156108f557600080fd5b6108fd6123a2565b604051808273ffffffffffffffffffffffffffffffffffffffff1673ffffffffffffffffffffffffffffffffffffffff16815260200191505060405180910390f35b341561094a57600080fd5b610976600480803573ffffffffffffffffffffffffffffffffffffffff169060200190919050506123c8565b005b341561098357600080fd5b6109c1600480803590602001909190803573ffffffffffffffffffffffffffffffffffffffff1690602001909190803590602001909190505061251d565b005b34156109ce57600080fd5b6109fa600480803573ffffffffffffffffffffffffffffffffffffffff1690602001909190505061265a565b6040518082815260200191505060405180910390f35b60075481565b6000600b60003373ffffffffffffffffffffffffffffffffffffffff1673ffffffffffffffffffffffffffffffffffffffff168152602001908152602001600020905081816002015410151515610a6c57600080fd5b610a838282600201546126ab90919063ffffffff16565b81600201819055503373ffffffffffffffffffffffffffffffffffffffff166108fc839081150290604051600060405180830381858888f193505050501515610acb57600080fd5b3373ffffffffffffffffffffffffffffffffffffffff167f8320a4c3c11a89c7523cf703d3e175d919c423fb9c2408e2249d3196a1489156836040518082815260200191505060405180910390a25050565b600080600080600080600080600080600460009054906101000a900473ffffffffffffffffffffffffffffffffffffffff1699508973ffffffffffffffffffffffffffffffffffffffff166376b69d776000604051602001526040518163ffffffff167c0100000000000000000000000000000000000000000000000000000000028152600401602060405180830381600087803b1515610bbd57600080fd5b6102c65a03f11515610bce57600080fd5b5050506040518051905098508897508773ffffffffffffffffffffffffffffffffffffffff1663261ac2798d6000604051608001526040518263ffffffff167c010000000000000000000000000000000000000000000000000000000002815260040180828152602001915050608060405180830381600087803b1515610c5457600080fd5b6102c65a03f11515610c6557600080fd5b50505060405180519060200180519060200180519060200180519050809750819850829950839a505050505060008714158015610ca757506000866000191614155b8015610cb857506000856000191614155b8015610cf15750600073ffffffffffffffffffffffffffffffffffffffff168473ffffffffffffffffffffffffffffffffffffffff1614155b1515610cfc57600080fd5b610d068c8c6126c4565b92506000831415610d1657610e2d565b610d516064610d43600254610d356064886128dd90919063ffffffff16565b61291890919063ffffffff16565b61291890919063ffffffff16565b9150610d6682846126ab90919063ffffffff16565b9050816007600082825401925050819055508373ffffffffffffffffffffffffffffffffffffffff167f5b430a575759cc9db812e031edf08ea2ab9974b0811d9cc0b851642cd0713b278d85600154866040518085815260200184815260200183815260200182815260200194505050505060405180910390a2610dec84600154612933565b8373ffffffffffffffffffffffffffffffffffffffff166108fc829081150290604051600060405180830381858888f193505050501515610e2c57600080fd5b5b505050505050505050505050565b60025481565b600080600a600085815260200190815260200160002090508060020160008473ffffffffffffffffffffffffffffffffffffffff1673ffffffffffffffffffffffffffffffffffffffff1681526020019081526020016000205491505092915050565b6000809054906101000a900473ffffffffffffffffffffffffffffffffffffffff1673ffffffffffffffffffffffffffffffffffffffff163373ffffffffffffffffffffffffffffffffffffffff16141515610eff57600080fd5b600073ffffffffffffffffffffffffffffffffffffffff168173ffffffffffffffffffffffffffffffffffffffff1614151515610f3b57600080fd5b80600460006101000a81548173ffffffffffffffffffffffffffffffffffffffff021916908373ffffffffffffffffffffffffffffffffffffffff16021790555050565b600080600a600085815260200190815260200160002090508060010183815481101515610fa857fe5b906000526020600020900160009054906101000a900473ffffffffffffffffffffffffffffffffffffffff1691505092915050565b6000809054906101000a900473ffffffffffffffffffffffffffffffffffffffff1673ffffffffffffffffffffffffffffffffffffffff163373ffffffffffffffffffffffffffffffffffffffff1614151561103857600080fd5b600073ffffffffffffffffffffffffffffffffffffffff168173ffffffffffffffffffffffffffffffffffffffff161415151561107457600080fd5b80600860006101000a81548173ffffffffffffffffffffffffffffffffffffffff021916908373ffffffffffffffffffffffffffffffffffffffff16021790555050565b600860009054906101000a900473ffffffffffffffffffffffffffffffffffffffff1673ffffffffffffffffffffffffffffffffffffffff163373ffffffffffffffffffffffffffffffffffffffff1614151561111457600080fd5b3073ffffffffffffffffffffffffffffffffffffffff1631811115151561113a57600080fd5b600754811115151561114b57600080fd5b611160816007546126ab90919063ffffffff16565b600781905550600860009054906101000a900473ffffffffffffffffffffffffffffffffffffffff1673ffffffffffffffffffffffffffffffffffffffff166108fc829081150290604051600060405180830381858888f1935050505015156111c857600080fd5b50565b600080600080600080600b60008873ffffffffffffffffffffffffffffffffffffffff1673ffffffffffffffffffffffffffffffffffffffff16815260200190815260200160002090508060000160009054906101000a900460ff169550806001015494508060020154935080600301549250806006015491505091939590929450565b600080600073ffffffffffffffffffffffffffffffffffffffff168573ffffffffffffffffffffffffffffffffffffffff1614158015611290575060008614155b151561129b57600080fd5b8473ffffffffffffffffffffffffffffffffffffffff163373ffffffffffffffffffffffffffffffffffffffff1614806113225750600960009054906101000a900473ffffffffffffffffffffffffffffffffffffffff1673ffffffffffffffffffffffffffffffffffffffff163373ffffffffffffffffffffffffffffffffffffffff16145b151561132d57600080fd5b600a6000878152602001908152602001600020915060008260020160008773ffffffffffffffffffffffffffffffffffffffff1673ffffffffffffffffffffffffffffffffffffffff1681526020019081526020016000205414151561139257600080fd5b828260020160008773ffffffffffffffffffffffffffffffffffffffff1673ffffffffffffffffffffffffffffffffffffffff16815260200190815260200160002081905550600b60008673ffffffffffffffffffffffffffffffffffffffff1673ffffffffffffffffffffffffffffffffffffffff16815260200190815260200160002090508381600401600088815260200190815260200160002081905550505050505050565b6000809054906101000a900473ffffffffffffffffffffffffffffffffffffffff1673ffffffffffffffffffffffffffffffffffffffff163373ffffffffffffffffffffffffffffffffffffffff1614151561149657600080fd5b8060038190555050565b6000809054906101000a900473ffffffffffffffffffffffffffffffffffffffff1673ffffffffffffffffffffffffffffffffffffffff163373ffffffffffffffffffffffffffffffffffffffff161415156114fb57600080fd5b8060018190555050565b60065481565b600080600080600080600080600080600080600460009054906101000a900473ffffffffffffffffffffffffffffffffffffffff169b508b73ffffffffffffffffffffffffffffffffffffffff166376b69d776000604051602001526040518163ffffffff167c0100000000000000000000000000000000000000000000000000000000028152600401602060405180830381600087803b15156115ae57600080fd5b6102c65a03f115156115bf57600080fd5b505050604051805190509a508a99508973ffffffffffffffffffffffffffffffffffffffff1663261ac2798e6000604051608001526040518263ffffffff167c010000000000000000000000000000000000000000000000000000000002815260040180828152602001915050608060405180830381600087803b151561164557600080fd5b6102c65a03f1151561165657600080fd5b50505060405180519060200180519060200180519060200180519050809950819a50829b50839c50505050506000891415801561169857506000886000191614155b80156116a957506000876000191614155b80156116e25750600073ffffffffffffffffffffffffffffffffffffffff168673ffffffffffffffffffffffffffffffffffffffff1614155b15156116ed57600080fd5b60009450600093506116fe8d612cb4565b809550819650505060008514156117145761183e565b61174f606461174160025461173360648a6128dd90919063ffffffff16565b61291890919063ffffffff16565b61291890919063ffffffff16565b925061176483866126ab90919063ffffffff16565b91508260076000828254019250508190555061178b846001546128dd90919063ffffffff16565b90508573ffffffffffffffffffffffffffffffffffffffff167f5b430a575759cc9db812e031edf08ea2ab9974b0811d9cc0b851642cd0713b278e8784876040518085815260200184815260200183815260200182815260200194505050505060405180910390a26117fd8682612933565b8573ffffffffffffffffffffffffffffffffffffffff166108fc839081150290604051600060405180830381858888f19350505050151561183d57600080fd5b5b50505050505050505050505050565b6000809054906101000a900473ffffffffffffffffffffffffffffffffffffffff1673ffffffffffffffffffffffffffffffffffffffff163373ffffffffffffffffffffffffffffffffffffffff161415156118a857600080fd5b600073ffffffffffffffffffffffffffffffffffffffff168173ffffffffffffffffffffffffffffffffffffffff16141515156118e457600080fd5b80600960006101000a81548173ffffffffffffffffffffffffffffffffffffffff021916908373ffffffffffffffffffffffffffffffffffffffff16021790555050565b600080600080600080600a6000888152602001908152602001600020945060009350600092505b8460010180549050831015611a0357846001018381548110151561196f57fe5b906000526020600020900160009054906101000a900473ffffffffffffffffffffffffffffffffffffffff1691508460000160008373ffffffffffffffffffffffffffffffffffffffff1673ffffffffffffffffffffffffffffffffffffffff1681526020019081526020016000205490506119f4818561304490919063ffffffff16565b9350828060010193505061194f565b8395505050505050919050565b60015481565b60035481565b600560009054906101000a900473ffffffffffffffffffffffffffffffffffffffff1681565b6000600b60008373ffffffffffffffffffffffffffffffffffffffff1673ffffffffffffffffffffffffffffffffffffffff168152602001908152602001600020600401600084815260200190815260200160002054905092915050565b6000809054906101000a900473ffffffffffffffffffffffffffffffffffffffff1681565b6000600b60008373ffffffffffffffffffffffffffffffffffffffff1673ffffffffffffffffffffffffffffffffffffffff168152602001908152602001600020600501600084815260200190815260200160002060009054906101000a900460ff16905092915050565b6000806000806000806000806000600460009054906101000a900473ffffffffffffffffffffffffffffffffffffffff1698508873ffffffffffffffffffffffffffffffffffffffff166376b69d776000604051602001526040518163ffffffff167c0100000000000000000000000000000000000000000000000000000000028152600401602060405180830381600087803b1515611bcf57600080fd5b6102c65a03f11515611be057600080fd5b5050506040518051905097508796508673ffffffffffffffffffffffffffffffffffffffff1663261ac2798d6000604051608001526040518263ffffffff167c010000000000000000000000000000000000000000000000000000000002815260040180828152602001915050608060405180830381600087803b1515611c6657600080fd5b6102c65a03f11515611c7757600080fd5b5050506040518051906020018051906020018051906020018051905080965081975082985083995050505050600073ffffffffffffffffffffffffffffffffffffffff168373ffffffffffffffffffffffffffffffffffffffff1614151515611cdf57600080fd5b8273ffffffffffffffffffffffffffffffffffffffff163373ffffffffffffffffffffffffffffffffffffffff161480611d665750600960009054906101000a900473ffffffffffffffffffffffffffffffffffffffff1673ffffffffffffffffffffffffffffffffffffffff163373ffffffffffffffffffffffffffffffffffffffff16145b1515611d7157600080fd5b6000856000191614158015611d8b57506000846000191614155b1515611d9657600080fd5b611da98b876128dd90919063ffffffff16565b9150600082111515611dba57600080fd5b600a60008d8152602001908152602001600020905060008160000160008c73ffffffffffffffffffffffffffffffffffffffff1673ffffffffffffffffffffffffffffffffffffffff168152602001908152602001600020541415611e7f57806001018054806001018281611e2f91906133b7565b916000526020600020900160008c909190916101000a81548173ffffffffffffffffffffffffffffffffffffffff021916908373ffffffffffffffffffffffffffffffffffffffff160217905550505b611ed3828260000160008d73ffffffffffffffffffffffffffffffffffffffff1673ffffffffffffffffffffffffffffffffffffffff1681526020019081526020016000205461304490919063ffffffff16565b8160000160008c73ffffffffffffffffffffffffffffffffffffffff1673ffffffffffffffffffffffffffffffffffffffff168152602001908152602001600020819055508973ffffffffffffffffffffffffffffffffffffffff168373ffffffffffffffffffffffffffffffffffffffff167fe000b526d00ac563daef41443c79e488cc5350a03b076e3ec9c924c649315d958e898f8733604051808681526020018581526020018481526020018381526020018273ffffffffffffffffffffffffffffffffffffffff1673ffffffffffffffffffffffffffffffffffffffff1681526020019550505050505060405180910390a3505050505050505050505050565b600080600a600084815260200190815260200160002090508060010180549050915050919050565b6000809054906101000a900473ffffffffffffffffffffffffffffffffffffffff1673ffffffffffffffffffffffffffffffffffffffff163373ffffffffffffffffffffffffffffffffffffffff1614151561205a57600080fd5b600073ffffffffffffffffffffffffffffffffffffffff168173ffffffffffffffffffffffffffffffffffffffff161415151561209657600080fd5b80600560006101000a81548173ffffffffffffffffffffffffffffffffffffffff021916908373ffffffffffffffffffffffffffffffffffffffff16021790555050565b6000809054906101000a900473ffffffffffffffffffffffffffffffffffffffff1673ffffffffffffffffffffffffffffffffffffffff163373ffffffffffffffffffffffffffffffffffffffff1614151561213557600080fd5b8060028190555050565b6000600b60008373ffffffffffffffffffffffffffffffffffffffff1673ffffffffffffffffffffffffffffffffffffffff168152602001908152602001600020905061219934826002015461304490919063ffffffff16565b81600201819055508173ffffffffffffffffffffffffffffffffffffffff167f86f8e33b41070d06fb89c32da953989505fce79d2f2de15c71992c57e8e75339346040518082815260200191505060405180910390a25050565b600080600a600085815260200190815260200160002090508060000160008473ffffffffffffffffffffffffffffffffffffffff1673ffffffffffffffffffffffffffffffffffffffff1681526020019081526020016000205491505092915050565b60008060009054906101000a900473ffffffffffffffffffffffffffffffffffffffff1673ffffffffffffffffffffffffffffffffffffffff163373ffffffffffffffffffffffffffffffffffffffff161415156122b357600080fd5b8273ffffffffffffffffffffffffffffffffffffffff1663a9059cbb6000809054906101000a900473ffffffffffffffffffffffffffffffffffffffff16846000604051602001526040518363ffffffff167c0100000000000000000000000000000000000000000000000000000000028152600401808373ffffffffffffffffffffffffffffffffffffffff1673ffffffffffffffffffffffffffffffffffffffff16815260200182815260200192505050602060405180830381600087803b151561237f57600080fd5b6102c65a03f1151561239057600080fd5b50505060405180519050905092915050565b600460009054906101000a900473ffffffffffffffffffffffffffffffffffffffff1681565b6000809054906101000a900473ffffffffffffffffffffffffffffffffffffffff1673ffffffffffffffffffffffffffffffffffffffff163373ffffffffffffffffffffffffffffffffffffffff1614151561242357600080fd5b600073ffffffffffffffffffffffffffffffffffffffff168173ffffffffffffffffffffffffffffffffffffffff161415151561245f57600080fd5b8073ffffffffffffffffffffffffffffffffffffffff166000809054906101000a900473ffffffffffffffffffffffffffffffffffffffff1673ffffffffffffffffffffffffffffffffffffffff167f8be0079c531659141344cd1fd0a4f28419497f9722a3daafe3b4186f6b6457e060405160405180910390a3806000806101000a81548173ffffffffffffffffffffffffffffffffffffffff021916908373ffffffffffffffffffffffffffffffffffffffff16021790555050565b60008073ffffffffffffffffffffffffffffffffffffffff168373ffffffffffffffffffffffffffffffffffffffff161415801561255c575060008414155b151561256757600080fd5b8273ffffffffffffffffffffffffffffffffffffffff163373ffffffffffffffffffffffffffffffffffffffff1614806125ee5750600960009054906101000a900473ffffffffffffffffffffffffffffffffffffffff1673ffffffffffffffffffffffffffffffffffffffff163373ffffffffffffffffffffffffffffffffffffffff16145b15156125f957600080fd5b600b60008473ffffffffffffffffffffffffffffffffffffffff1673ffffffffffffffffffffffffffffffffffffffff1681526020019081526020016000209050818160040160008681526020019081526020016000208190555050505050565b600080600b60008473ffffffffffffffffffffffffffffffffffffffff1673ffffffffffffffffffffffffffffffffffffffff16815260200190815260200160002090508060020154915050919050565b60008282111515156126b957fe5b818303905092915050565b600080600080600080600080600a60008b815260200190815260200160002096508660000160008a73ffffffffffffffffffffffffffffffffffffffff1673ffffffffffffffffffffffffffffffffffffffff1681526020019081526020016000205495508660020160008a73ffffffffffffffffffffffffffffffffffffffff1673ffffffffffffffffffffffffffffffffffffffff168152602001908152602001600020549450600085141561277e57600354420394505b8442039350859250600091506000905061279a8a8a8689613062565b80925081935050506127b582876126ab90919063ffffffff16565b9250828760000160008b73ffffffffffffffffffffffffffffffffffffffff1673ffffffffffffffffffffffffffffffffffffffff16815260200190815260200160002081905550600083141515612812576128118a8a61322b565b5b600082141561282457600097506128d0565b8873ffffffffffffffffffffffffffffffffffffffff167f2917b46ea0b473a61e5205f9790f64817088b9a82eb47ca1256e2c3302826d6c8b84846040518084815260200183815260200182151515158152602001935050505060405180910390a2428760020160008b73ffffffffffffffffffffffffffffffffffffffff1673ffffffffffffffffffffffffffffffffffffffff168152602001908152602001600020819055508197505b5050505050505092915050565b60008060008414156128f25760009150612911565b828402905082848281151561290357fe5b0414151561290d57fe5b8091505b5092915050565b600080828481151561292657fe5b0490508091505092915050565b600080600080600560009054906101000a900473ffffffffffffffffffffffffffffffffffffffff1693508373ffffffffffffffffffffffffffffffffffffffff16638da5cb5b6000604051602001526040518163ffffffff167c0100000000000000000000000000000000000000000000000000000000028152600401602060405180830381600087803b15156129ca57600080fd5b6102c65a03f115156129db57600080fd5b5050506040518051905092508373ffffffffffffffffffffffffffffffffffffffff166370a08231846000604051602001526040518263ffffffff167c0100000000000000000000000000000000000000000000000000000000028152600401808273ffffffffffffffffffffffffffffffffffffffff1673ffffffffffffffffffffffffffffffffffffffff168152602001915050602060405180830381600087803b1515612a8a57600080fd5b6102c65a03f11515612a9b57600080fd5b5050506040518051905091508373ffffffffffffffffffffffffffffffffffffffff1663dd62ed3e84306000604051602001526040518363ffffffff167c0100000000000000000000000000000000000000000000000000000000028152600401808373ffffffffffffffffffffffffffffffffffffffff1673ffffffffffffffffffffffffffffffffffffffff1681526020018273ffffffffffffffffffffffffffffffffffffffff1673ffffffffffffffffffffffffffffffffffffffff16815260200192505050602060405180830381600087803b1515612b7e57600080fd5b6102c65a03f11515612b8f57600080fd5b505050604051805190509050848210158015612bab5750848110155b15612cac578373ffffffffffffffffffffffffffffffffffffffff166323b872dd8488886000604051602001526040518463ffffffff167c0100000000000000000000000000000000000000000000000000000000028152600401808473ffffffffffffffffffffffffffffffffffffffff1673ffffffffffffffffffffffffffffffffffffffff1681526020018373ffffffffffffffffffffffffffffffffffffffff1673ffffffffffffffffffffffffffffffffffffffff1681526020018281526020019350505050602060405180830381600087803b1515612c8f57600080fd5b6102c65a03f11515612ca057600080fd5b50505060405180519050505b505050505050565b600080600080612cc26133e3565b600080600080600080600080600a60008f81526020019081526020016000209a504299508a600101805480602002602001604051908101604052809291908181526020018280548015612d6a57602002820191906000526020600020905b8160009054906101000a900473ffffffffffffffffffffffffffffffffffffffff1673ffffffffffffffffffffffffffffffffffffffff1681526020019060010190808311612d20575b505050505098506000604051805910612d805750595b90808252806020026020018201604052508b6001019080519060200190612da89291906133f7565b50600097505b8851881015613034578888815181101515612dc557fe5b9060200190602002015196508a60000160008873ffffffffffffffffffffffffffffffffffffffff1673ffffffffffffffffffffffffffffffffffffffff1681526020019081526020016000205495508a60020160008873ffffffffffffffffffffffffffffffffffffffff1673ffffffffffffffffffffffffffffffffffffffff1681526020019081526020016000205494506000851415612e6a57600354420394505b848a0393508592506000915060009050612e868e888689613062565b8092508193505050612ea1828e61304490919063ffffffff16565b9c50612eb682876126ab90919063ffffffff16565b9250828b60000160008973ffffffffffffffffffffffffffffffffffffffff1673ffffffffffffffffffffffffffffffffffffffff16815260200190815260200160002081905550600083141515612f6e578a6001018054806001018281612f1e91906133b7565b9160005260206000209001600089909190916101000a81548173ffffffffffffffffffffffffffffffffffffffff021916908373ffffffffffffffffffffffffffffffffffffffff160217905550505b600082141515613027578673ffffffffffffffffffffffffffffffffffffffff167f2917b46ea0b473a61e5205f9790f64817088b9a82eb47ca1256e2c3302826d6c8f84846040518084815260200183815260200182151515158152602001935050505060405180910390a2428b60020160008973ffffffffffffffffffffffffffffffffffffffff1673ffffffffffffffffffffffffffffffffffffffff1681526020019081526020016000208190555060018c019b505b8780600101985050612dae565b5050505050505050505050915091565b600080828401905083811015151561305857fe5b8091505092915050565b6000806000806000600b60008973ffffffffffffffffffffffffffffffffffffffff1673ffffffffffffffffffffffffffffffffffffffff16815260200190815260200160002092508260040160008a81526020019081526020016000205491506130d687836128dd90919063ffffffff16565b905085836002015410151561318f576000935060008360000160006101000a81548160ff02191690831515021790555085811015156131455760008360050160008b815260200190815260200160002060006101000a81548160ff02191690831515021790555085945061318a565b60018360050160008b815260200190815260200160002060006101000a81548160ff021916908315150217905550600183600601600082825401925050819055508094505b6131e1565b6001935060018360000160006101000a81548160ff021916908315150217905550600183600101600082825401925050819055508083600201541015156131d8578094506131e0565b826002015494505b5b6131f88584600201546126ab90919063ffffffff16565b836002018190555061321785846003015461304490919063ffffffff16565b836003018190555050505094509492505050565b6000806000600a6000868152602001908152602001600020925060009150600090505b600183600101805490500381101561338a578373ffffffffffffffffffffffffffffffffffffffff16836001018281548110151561328857fe5b906000526020600020900160009054906101000a900473ffffffffffffffffffffffffffffffffffffffff1673ffffffffffffffffffffffffffffffffffffffff1614156132d557600191505b60011515821515141561337d5782600101600182018154811015156132f657fe5b906000526020600020900160009054906101000a900473ffffffffffffffffffffffffffffffffffffffff16836001018281548110151561333357fe5b906000526020600020900160006101000a81548173ffffffffffffffffffffffffffffffffffffffff021916908373ffffffffffffffffffffffffffffffffffffffff1602179055505b808060010191505061324e565b6001151582151514156133b057826001018054809190600190036133ae9190613481565b505b5050505050565b8154818355818115116133de578183600052602060002091820191016133dd91906134ad565b5b505050565b602060405190810160405280600081525090565b828054828255906000526020600020908101928215613470579160200282015b8281111561346f5782518260006101000a81548173ffffffffffffffffffffffffffffffffffffffff021916908373ffffffffffffffffffffffffffffffffffffffff16021790555091602001919060010190613417565b5b50905061347d91906134d2565b5090565b8154818355818115116134a8578183600052602060002091820191016134a791906134ad565b5b505050565b6134cf91905b808211156134cb5760008160009055506001016134b3565b5090565b90565b61351291905b8082111561350e57600081816101000a81549073ffffffffffffffffffffffffffffffffffffffff0219169055506001016134d8565b5090565b905600a165627a7a7230582012187601a1679f122275a1f7b027c536b82a55baa9f5692c4ba9be1f141f86ff0029",
  "source": "pragma solidity 0.4.19;\n\nimport \"zeppelin-solidity/contracts/ownership/Ownable.sol\";\nimport \"./Relay.sol\";\nimport \"./APIRegistry.sol\";\nimport \"./DeconetToken.sol\";\nimport \"zeppelin-solidity/contracts/token/ERC20/ERC20.sol\";\n\n\n// ----------------------------------------------------------------------------\n// Records api calls and payment for them\n// ----------------------------------------------------------------------------\ncontract APICalls is Ownable {\n  using SafeMath for uint;\n\n  // the amount rewarded to a seller for selling api calls per buyer\n  uint public tokenReward;\n\n  // the fee this contract takes from every sale.  expressed as percent.  so a value of 3 indicates a 3% txn fee\n  uint public saleFee;\n\n  // if the buyer has never paid, we need to pick a date for when they probably started using the API.  This is in seconds and will be subtracted from \"now\"\n  uint public defaultBuyerLastPaidAt;\n\n  // address of the relay contract which holds the address of the registry contract.\n  address public relayContractAddress;\n\n  // the token address\n  address public tokenContractAddress;\n\n  // this contract version\n  uint public version;\n\n  // the amount that can be safely withdrawn from the contract\n  uint public safeWithdrawAmount;\n\n  // the address that is authorized to withdraw eth\n  address private withdrawAddress;\n\n  // the address that is authorized to report usage on behalf of deconet\n  address private usageReportingAddress;\n\n  // maps apiId to a APIBalance which stores how much each address owes\n  mapping(uint => APIBalance) internal owed;\n\n  // maps buyer addresses to whether or not accounts are overdrafted and more\n  mapping(address => BuyerInfo) internal buyers;\n\n  struct APIBalance {\n    // maps address -> amount owed in wei\n    mapping(address => uint) amounts;\n    // basically a list of keys for the above map\n    address[] nonzeroAddresses;\n    // maps address -> tiemstamp of when buyer last paid\n    mapping(address => uint) buyerLastPaidAt;\n  }\n\n  struct BuyerInfo {\n    // whether or not the account is overdrafted or not\n    bool overdrafted;\n    // total number of overdrafts, ever\n    uint lifetimeOverdraftCount;\n    // credits on file with this contract (wei)\n    uint credits;\n    // total amount of credits used / spent, ever (wei)\n    uint lifetimeCreditsUsed;\n    // maps apiId to approved spending balance for each API per second.\n    mapping(uint => uint) approvedAmounts;\n    // maps apiId to whether or not the user has exceeded their approved amount\n    mapping(uint => bool) exceededApprovedAmount;\n    // total number of times exceededApprovedAmount has happened\n    uint lifetimeExceededApprovalAmountCount;\n  }\n\n  event LogAPICallsMade(\n    uint apiId,\n    address indexed sellerAddress,\n    address indexed buyerAddress,\n    uint pricePerCall,\n    uint numCalls,\n    uint totalPrice,\n    address reportingAddress\n  );\n\n  event LogAPICallsPaid(\n    uint apiId,\n    address indexed sellerAddress,\n    uint totalPrice,\n    uint rewardedTokens,\n    uint networkFee\n  );\n\n  event LogSpendCredits(\n    address indexed buyerAddress,\n    uint apiId,\n    uint amount,\n    bool causedAnOverdraft\n  );\n\n  event LogDepositCredits(\n    address indexed buyerAddress,\n    uint amount\n  );\n\n  event LogWithdrawCredits(\n    address indexed buyerAddress,\n    uint amount\n  );\n\n  // ------------------------------------------------------------------------\n  // Constructor\n  // ------------------------------------------------------------------------\n  function APICalls() public {\n    version = 1;\n\n    // default token reward of 100 tokens.  \n    // token has 18 decimal places so that's why 100 * 10^18\n    tokenReward = 100 * 10**18;\n\n    // default saleFee of 10%\n    saleFee = 10;\n\n    // 604,800 seconds = 1 week.  this is the default for when a user started using an api (1 week ago)\n    defaultBuyerLastPaidAt = 604800;\n\n    // default withdrawAddress is owner\n    withdrawAddress = msg.sender;\n    usageReportingAddress = msg.sender;\n  }\n\n  // ------------------------------------------------------------------------\n  // Owner can transfer out any accidentally sent ERC20 tokens (just in case)\n  // ------------------------------------------------------------------------\n  function transferAnyERC20Token(address tokenAddress, uint tokens) public onlyOwner returns (bool success) {\n    return ERC20(tokenAddress).transfer(owner, tokens);\n  }\n\n  // ------------------------------------------------------------------------\n  // Owner can transfer out any ETH\n  // ------------------------------------------------------------------------\n  function withdrawEther(uint amount) public {\n    require(msg.sender == withdrawAddress);\n    require(amount <= this.balance);\n    require(amount <= safeWithdrawAmount);\n    safeWithdrawAmount = safeWithdrawAmount.sub(amount);\n    withdrawAddress.transfer(amount);\n  }\n\n  // ------------------------------------------------------------------------\n  // Owner can set address of who can withdraw\n  // ------------------------------------------------------------------------\n  function setWithdrawAddress(address _withdrawAddress) public onlyOwner {\n    require(_withdrawAddress != address(0));\n    withdrawAddress = _withdrawAddress;\n  }\n\n  // ------------------------------------------------------------------------\n  // Owner can set address of who can report usage\n  // ------------------------------------------------------------------------\n  function setUsageReportingAddress(address _usageReportingAddress) public onlyOwner {\n    require(_usageReportingAddress != address(0));\n    usageReportingAddress = _usageReportingAddress;\n  }\n\n  // ------------------------------------------------------------------------\n  // Owner can set address of relay contract\n  // ------------------------------------------------------------------------\n  function setRelayContractAddress(address _relayContractAddress) public onlyOwner {\n    require(_relayContractAddress != address(0));\n    relayContractAddress = _relayContractAddress;\n  }\n\n  // ------------------------------------------------------------------------\n  // Owner can set address of token contract\n  // ------------------------------------------------------------------------\n  function setTokenContractAddress(address _tokenContractAddress) public onlyOwner {\n    require(_tokenContractAddress != address(0));\n    tokenContractAddress = _tokenContractAddress;\n  }\n\n  // ------------------------------------------------------------------------\n  // Owner can set token reward\n  // ------------------------------------------------------------------------\n  function setTokenReward(uint _tokenReward) public onlyOwner {\n    tokenReward = _tokenReward;\n  }\n\n  // ------------------------------------------------------------------------\n  // Owner can set the sale fee\n  // ------------------------------------------------------------------------\n  function setSaleFee(uint _saleFee) public onlyOwner {\n    saleFee = _saleFee;\n  }\n\n  // ------------------------------------------------------------------------\n  // Owner can set the default buyer last paid at\n  // ------------------------------------------------------------------------\n  function setDefaultBuyerLastPaidAt(uint _defaultBuyerLastPaidAt) public onlyOwner {\n    defaultBuyerLastPaidAt = _defaultBuyerLastPaidAt;\n  }\n\n  // ------------------------------------------------------------------------\n  // The API owner or the authorized deconet usage reporting address may report usage\n  // ------------------------------------------------------------------------\n  function reportUsage(uint apiId, uint numCalls, address buyerAddress) public {\n    // look up the registry address from relay contract\n    Relay relay = Relay(relayContractAddress);\n    address apiRegistryAddress = relay.apiRegistryContractAddress();\n\n    // get the module info from registry\n    APIRegistry apiRegistry = APIRegistry(apiRegistryAddress);\n\n    uint pricePerCall;\n    bytes32 sellerUsername;\n    bytes32 apiName;\n    address sellerAddress;\n\n    (pricePerCall, sellerUsername, apiName, sellerAddress) = apiRegistry.getApiByIdWithoutDynamics(apiId);\n\n    // // make sure the caller is either the api owner or the deconet reporting address\n    require(sellerAddress != address(0));\n    require(msg.sender == sellerAddress || msg.sender == usageReportingAddress);\n\n    // // make sure the module is actually valid\n    require(sellerUsername != \"\" && apiName != \"\");\n\n    uint totalPrice = pricePerCall.mul(numCalls);\n\n    require(totalPrice > 0);\n\n    APIBalance storage apiBalance = owed[apiId];\n\n    if (apiBalance.amounts[buyerAddress] == 0) {\n      // add buyerAddress to list of addresses with nonzero balance for this api\n      apiBalance.nonzeroAddresses.push(buyerAddress);\n    }\n\n    apiBalance.amounts[buyerAddress] = apiBalance.amounts[buyerAddress].add(totalPrice);\n\n    LogAPICallsMade(\n      apiId,\n      sellerAddress,\n      buyerAddress,\n      pricePerCall,\n      numCalls,\n      totalPrice,\n      msg.sender\n    );\n  }\n\n  function paySellerForBuyer(uint apiId, address buyerAddress) public {\n    // look up the registry address from relay contract\n    Relay relay = Relay(relayContractAddress);\n    address apiRegistryAddress = relay.apiRegistryContractAddress();\n\n    // get the module info from registry\n    APIRegistry apiRegistry = APIRegistry(apiRegistryAddress);\n\n    uint pricePerCall;\n    bytes32 sellerUsername;\n    bytes32 apiName;\n    address sellerAddress;\n\n    (pricePerCall, sellerUsername, apiName, sellerAddress) = apiRegistry.getApiByIdWithoutDynamics(apiId);\n\n    // make sure it's a legit real api\n    require(pricePerCall != 0 && sellerUsername != \"\" && apiName != \"\" && sellerAddress != address(0));\n\n    uint buyerPaid = processSalesForSingleBuyer(apiId, buyerAddress);\n\n    if (buyerPaid == 0) {\n      return; // buyer paid nothing, we are done.\n    }\n\n    // calculate fee and payout\n    // fixed point math at 2 decimal places\n    uint fee = buyerPaid.mul(100).div(saleFee).div(100);\n    uint payout = buyerPaid.sub(fee);\n\n    // log that we stored the fee so we know we can take it out later\n    safeWithdrawAmount += fee;\n\n    LogAPICallsPaid(\n      apiId,\n      sellerAddress,\n      buyerPaid,\n      tokenReward,\n      fee\n    );\n\n    // give seller some tokens for the sale\n    rewardTokens(sellerAddress, tokenReward);\n\n    // transfer seller the eth\n    sellerAddress.transfer(payout);\n  }\n\n  function paySeller(uint apiId) public {\n    // look up the registry address from relay contract\n    Relay relay = Relay(relayContractAddress);\n    address apiRegistryAddress = relay.apiRegistryContractAddress();\n\n    // get the module info from registry\n    APIRegistry apiRegistry = APIRegistry(apiRegistryAddress);\n\n    uint pricePerCall;\n    bytes32 sellerUsername;\n    bytes32 apiName;\n    address sellerAddress;\n\n    (pricePerCall, sellerUsername, apiName, sellerAddress) = apiRegistry.getApiByIdWithoutDynamics(apiId);\n\n    // make sure it's a legit real api\n    require(pricePerCall != 0 && sellerUsername != \"\" && apiName != \"\" && sellerAddress != address(0));\n\n    // calculate totalPayable for the api\n    uint totalPayable = 0;\n    uint totalBuyers = 0;\n    (totalPayable, totalBuyers) = processSalesForAllBuyers(apiId);\n\n    if (totalPayable == 0) {\n      return; // if there's nothing to pay, we are done here.\n    }\n\n    // calculate fee and payout\n    // fixed point math at 2 decimal places\n    uint fee = totalPayable.mul(100).div(saleFee).div(100);\n    uint payout = totalPayable.sub(fee);\n\n    // log that we stored the fee so we know we can take it out later\n    safeWithdrawAmount += fee;\n\n    // we reward token reward on a \"per buyer\" basis.  so multiply the reward to give by the number of actual buyers\n    uint totalTokenReward = tokenReward.mul(totalBuyers);\n\n    LogAPICallsPaid(\n      apiId,\n      sellerAddress,\n      totalPayable,\n      totalTokenReward,\n      fee\n    );\n\n    // give seller some tokens for the sale\n    rewardTokens(sellerAddress, totalTokenReward);\n\n    // transfer seller the eth\n    sellerAddress.transfer(payout);\n  } \n\n  function buyerLastPaidAt(uint apiId, address buyerAddress) public view returns (uint) {\n    APIBalance storage apiBalance = owed[apiId];\n    return apiBalance.buyerLastPaidAt[buyerAddress];\n  }   \n\n  function buyerInfoOf(address addr) public view returns (bool overdrafted, uint lifetimeOverdraftCount, uint credits, uint lifetimeCreditsUsed, uint lifetimeExceededApprovalAmountCount) {\n    BuyerInfo storage buyer = buyers[addr];\n    overdrafted = buyer.overdrafted;\n    lifetimeOverdraftCount = buyer.lifetimeOverdraftCount;\n    credits = buyer.credits;\n    lifetimeCreditsUsed = buyer.lifetimeCreditsUsed;\n    lifetimeExceededApprovalAmountCount = buyer.lifetimeExceededApprovalAmountCount;\n  }\n\n  function creditsBalanceOf(address addr) public view returns (uint) {\n    BuyerInfo storage buyer = buyers[addr];\n    return buyer.credits;\n  }\n\n  function addCredits(address to) public payable {\n    BuyerInfo storage buyer = buyers[to];\n    buyer.credits = buyer.credits.add(msg.value);\n    LogDepositCredits(to, msg.value);\n  }\n\n  function withdrawCredits(uint amount) public {\n    BuyerInfo storage buyer = buyers[msg.sender];\n    require(buyer.credits >= amount);\n    buyer.credits = buyer.credits.sub(amount);\n    msg.sender.transfer(amount);\n    LogWithdrawCredits(msg.sender, amount);\n  }\n\n  function nonzeroAddressesElementForApi(uint apiId, uint index) public view returns (address) {\n    APIBalance storage apiBalance = owed[apiId];\n    return apiBalance.nonzeroAddresses[index];\n  }\n\n  function nonzeroAddressesLengthForApi(uint apiId) public view returns (uint) {\n    APIBalance storage apiBalance = owed[apiId];\n    return apiBalance.nonzeroAddresses.length;\n  }\n\n  function amountOwedForApiForBuyer(uint apiId, address buyerAddress) public view returns (uint) {\n    APIBalance storage apiBalance = owed[apiId];\n\n    return apiBalance.amounts[buyerAddress];\n  }\n\n  function totalOwedForApi(uint apiId) public view returns (uint) {\n    APIBalance storage apiBalance = owed[apiId];\n\n    uint totalOwed = 0;\n    for (uint i = 0; i < apiBalance.nonzeroAddresses.length; i++) {\n      address buyerAddress = apiBalance.nonzeroAddresses[i];\n      uint buyerOwes = apiBalance.amounts[buyerAddress];\n      totalOwed = totalOwed.add(buyerOwes);\n    }\n\n    return totalOwed;\n  }\n\n  function approvedAmount(uint apiId, address buyerAddress) public view returns (uint) {\n    return buyers[buyerAddress].approvedAmounts[apiId];\n  }\n\n  function approveAmount(uint apiId, address buyerAddress, uint newAmount) public {\n    require(buyerAddress != address(0) && apiId != 0);\n\n    // only the buyer or the usage reporing system can change the buyers approval amount\n    require(msg.sender == buyerAddress || msg.sender == usageReportingAddress);\n\n    BuyerInfo storage buyer = buyers[buyerAddress];\n    buyer.approvedAmounts[apiId] = newAmount;\n  }\n\n  // function to let the buyer set their approved amount of wei per second for an api\n  // this function also lets the buyer set the time they last paid for an API if they've never paid that API before.  \n  // this is important because the total amount approved for a given transaction is based on a wei per second spending limit\n  // but the smart contract doesn't know when the buyer started using the API\n  // so with this function, a buyer can et the time they first used the API and the approved amount calculations will be accurate when the seller requests payment.\n  function approveAmountAndSetFirstUseTime(uint apiId, address buyerAddress, uint newAmount, uint firstUseTime) public {\n    require(buyerAddress != address(0) && apiId != 0);\n\n    // only the buyer or the usage reporing system can change the buyers approval amount\n    require(msg.sender == buyerAddress || msg.sender == usageReportingAddress);\n\n    APIBalance storage apiBalance = owed[apiId];\n    require(apiBalance.buyerLastPaidAt[buyerAddress] == 0);\n\n    apiBalance.buyerLastPaidAt[buyerAddress] = firstUseTime;\n    \n    BuyerInfo storage buyer = buyers[buyerAddress];\n    buyer.approvedAmounts[apiId] = newAmount;\n\n  }\n\n  function buyerExceededApprovedAmount(uint apiId, address buyerAddress) public view returns (bool) {\n    return buyers[buyerAddress].exceededApprovedAmount[apiId];\n  }\n\n  function rewardTokens(address toReward, uint amount) private {\n    DeconetToken token = DeconetToken(tokenContractAddress);\n    address tokenOwner = token.owner();\n\n    // check balance of tokenOwner\n    uint tokenOwnerBalance = token.balanceOf(tokenOwner);\n    uint tokenOwnerAllowance = token.allowance(tokenOwner, address(this));\n    if (tokenOwnerBalance >= amount && tokenOwnerAllowance >= amount) {\n      token.transferFrom(tokenOwner, toReward, amount);\n    }\n  }\n\n  function processSalesForSingleBuyer(uint apiId, address buyerAddress) private returns (uint) {\n    APIBalance storage apiBalance = owed[apiId];\n\n    uint buyerOwes = apiBalance.amounts[buyerAddress];\n    uint buyerLastPaidAtTime = apiBalance.buyerLastPaidAt[buyerAddress];\n    if (buyerLastPaidAtTime == 0) {\n      // if buyer has never paid, assume they paid a week ago.  or whatever now - defaultBuyerLastPaidAt is.\n      buyerLastPaidAtTime = now - defaultBuyerLastPaidAt; // default is 604,800 = 7 days of seconds\n    }\n    uint elapsedSecondsSinceLastPayout = now - buyerLastPaidAtTime;\n    uint buyerNowOwes = buyerOwes;\n    uint buyerPaid = 0;\n    bool overdrafted = false;\n\n    (buyerPaid, overdrafted) = chargeBuyer(apiId, buyerAddress, elapsedSecondsSinceLastPayout, buyerOwes);\n\n    buyerNowOwes = buyerOwes.sub(buyerPaid);\n    apiBalance.amounts[buyerAddress] = buyerNowOwes;\n\n    // if the buyer now owes zero, then remove them from nonzeroAddresses\n    if (buyerNowOwes != 0) {\n      removeAddressFromNonzeroBalancesArray(apiId, buyerAddress);\n    }\n    // if the buyer paid nothing, we are done here.\n    if (buyerPaid == 0) {\n      return 0;\n    }\n\n    // log the event\n    LogSpendCredits(buyerAddress, apiId, buyerPaid, overdrafted);\n\n    // log that they paid\n    apiBalance.buyerLastPaidAt[buyerAddress] = now;\n    \n    return buyerPaid;\n  }\n\n  function processSalesForAllBuyers(uint apiId) private returns (uint totalPayable, uint totalBuyers) {\n    APIBalance storage apiBalance = owed[apiId];\n\n    uint currentTime = now;\n    address[] memory oldNonzeroAddresses = apiBalance.nonzeroAddresses;\n    apiBalance.nonzeroAddresses = new address[](0);\n\n    for (uint i = 0; i < oldNonzeroAddresses.length; i++) {\n      address buyerAddress = oldNonzeroAddresses[i];\n      uint buyerOwes = apiBalance.amounts[buyerAddress];\n      uint buyerLastPaidAtTime = apiBalance.buyerLastPaidAt[buyerAddress];\n      if (buyerLastPaidAtTime == 0) {\n        // if buyer has never paid, assume they paid a week ago.  or whatever now - defaultBuyerLastPaidAt is.\n        buyerLastPaidAtTime = now - defaultBuyerLastPaidAt; // default is 604,800 = 7 days of seconds\n      }\n      uint elapsedSecondsSinceLastPayout = currentTime - buyerLastPaidAtTime;\n      uint buyerNowOwes = buyerOwes;\n      uint buyerPaid = 0;\n      bool overdrafted = false;\n\n      (buyerPaid, overdrafted) = chargeBuyer(apiId, buyerAddress, elapsedSecondsSinceLastPayout, buyerOwes);\n\n      totalPayable = totalPayable.add(buyerPaid);\n      buyerNowOwes = buyerOwes.sub(buyerPaid);\n      apiBalance.amounts[buyerAddress] = buyerNowOwes;\n\n      // if the buyer still owes something, make sure we keep them in the nonzeroAddresses array\n      if (buyerNowOwes != 0) {\n        apiBalance.nonzeroAddresses.push(buyerAddress);\n      }\n      // if the buyer paid more than 0, log the spend.\n      if (buyerPaid != 0) {\n        // log the event\n        LogSpendCredits(buyerAddress, apiId, buyerPaid, overdrafted);\n\n        // log that they paid\n        apiBalance.buyerLastPaidAt[buyerAddress] = now;\n\n        // add to total buyer count\n        totalBuyers += 1;\n      }\n    }\n  }\n\n  function chargeBuyer(uint apiId, address buyerAddress, uint elapsedSecondsSinceLastPayout, uint buyerOwes) private returns (uint paid, bool overdrafted) {\n    BuyerInfo storage buyer = buyers[buyerAddress];\n    uint approvedAmountPerSecond = buyer.approvedAmounts[apiId];\n    uint approvedAmountSinceLastPayout = approvedAmountPerSecond.mul(elapsedSecondsSinceLastPayout);\n    \n    // do we have the credits to pay owed?\n    if (buyer.credits >= buyerOwes) {\n      // yay, buyer can pay their debits\n      overdrafted = false;\n      buyer.overdrafted = false;\n\n      // has buyer approved enough to pay what they owe?\n      if (approvedAmountSinceLastPayout >= buyerOwes) {\n        // approved is greater than owed.  \n        // mark as not exceeded approved amount\n        buyer.exceededApprovedAmount[apiId] = false;\n\n        // we can pay the entire debt\n        paid = buyerOwes;\n\n      } else {\n        // they have no approved enough\n        // mark as exceeded\n        buyer.exceededApprovedAmount[apiId] = true;\n        buyer.lifetimeExceededApprovalAmountCount += 1;\n\n        // we can only pay the approved portion of the debt\n        paid = approvedAmountSinceLastPayout;\n      }\n    } else {\n      // buyer spent more than they have.  mark as overdrafted\n      overdrafted = true;\n      buyer.overdrafted = true;\n      buyer.lifetimeOverdraftCount += 1;\n\n      // does buyer have more credits than the amount they've approved?\n      if (buyer.credits >= approvedAmountSinceLastPayout) {\n        // they have enough credits to pay approvedAmountSinceLastPayout, so pay that\n        paid = approvedAmountSinceLastPayout;\n\n      } else {\n        // the don't have enough credits to pay approvedAmountSinceLastPayout\n        // so just pay whatever credits they have\n        paid = buyer.credits;\n      }\n    }\n\n    buyer.credits = buyer.credits.sub(paid);\n    buyer.lifetimeCreditsUsed = buyer.lifetimeCreditsUsed.add(paid);\n  }\n\n  function removeAddressFromNonzeroBalancesArray(uint apiId, address toRemove) private {\n    APIBalance storage apiBalance = owed[apiId];\n\n    bool foundElement = false;\n\n    for (uint i = 0; i < apiBalance.nonzeroAddresses.length-1; i++) {\n      if (apiBalance.nonzeroAddresses[i] == toRemove) {\n        foundElement = true;\n      }\n      if (foundElement == true) {\n        apiBalance.nonzeroAddresses[i] = apiBalance.nonzeroAddresses[i+1];\n      }\n    }\n    if (foundElement == true) {\n      apiBalance.nonzeroAddresses.length--;\n    }\n  }\n}\n",
  "sourcePath": "/Users/chris/Documents/WorkStuff/Deconet/Blockchain/DeconetToken/contracts/APICalls.sol",
  "compiler": {
    "name": "solc",
    "version": "0.4.19+commit.c4cbbb05.Emscripten.clang"
  },
  "schemaVersion": "2.0.0",
  "updatedAt": "2018-04-04T18:42:10.929Z"
}