{
  "contractName": "APICalls",
  "abi": [
    {
      "constant": true,
      "inputs": [],
      "name": "safeWithdrawAmount",
      "outputs": [
        {
          "name": "",
          "type": "uint256"
        }
      ],
      "payable": false,
      "stateMutability": "view",
      "type": "function"
    },
    {
      "constant": true,
      "inputs": [],
      "name": "saleFee",
      "outputs": [
        {
          "name": "",
          "type": "uint256"
        }
      ],
      "payable": false,
      "stateMutability": "view",
      "type": "function"
    },
    {
      "constant": true,
      "inputs": [],
      "name": "version",
      "outputs": [
        {
          "name": "",
          "type": "uint256"
        }
      ],
      "payable": false,
      "stateMutability": "view",
      "type": "function"
    },
    {
      "constant": true,
      "inputs": [],
      "name": "tokenReward",
      "outputs": [
        {
          "name": "",
          "type": "uint256"
        }
      ],
      "payable": false,
      "stateMutability": "view",
      "type": "function"
    },
    {
      "constant": true,
      "inputs": [],
      "name": "defaultBuyerLastPaidAt",
      "outputs": [
        {
          "name": "",
          "type": "uint256"
        }
      ],
      "payable": false,
      "stateMutability": "view",
      "type": "function"
    },
    {
      "constant": true,
      "inputs": [],
      "name": "tokenContractAddress",
      "outputs": [
        {
          "name": "",
          "type": "address"
        }
      ],
      "payable": false,
      "stateMutability": "view",
      "type": "function"
    },
    {
      "constant": true,
      "inputs": [],
      "name": "owner",
      "outputs": [
        {
          "name": "",
          "type": "address"
        }
      ],
      "payable": false,
      "stateMutability": "view",
      "type": "function"
    },
    {
      "constant": true,
      "inputs": [],
      "name": "relayContractAddress",
      "outputs": [
        {
          "name": "",
          "type": "address"
        }
      ],
      "payable": false,
      "stateMutability": "view",
      "type": "function"
    },
    {
      "constant": false,
      "inputs": [
        {
          "name": "newOwner",
          "type": "address"
        }
      ],
      "name": "transferOwnership",
      "outputs": [],
      "payable": false,
      "stateMutability": "nonpayable",
      "type": "function"
    },
    {
      "inputs": [],
      "payable": false,
      "stateMutability": "nonpayable",
      "type": "constructor"
    },
    {
      "anonymous": false,
      "inputs": [
        {
          "indexed": false,
          "name": "apiId",
          "type": "uint256"
        },
        {
          "indexed": true,
          "name": "sellerAddress",
          "type": "address"
        },
        {
          "indexed": true,
          "name": "buyerAddress",
          "type": "address"
        },
        {
          "indexed": false,
          "name": "pricePerCall",
          "type": "uint256"
        },
        {
          "indexed": false,
          "name": "numCalls",
          "type": "uint256"
        },
        {
          "indexed": false,
          "name": "totalPrice",
          "type": "uint256"
        },
        {
          "indexed": false,
          "name": "reportingAddress",
          "type": "address"
        }
      ],
      "name": "LogAPICallsMade",
      "type": "event"
    },
    {
      "anonymous": false,
      "inputs": [
        {
          "indexed": false,
          "name": "apiId",
          "type": "uint256"
        },
        {
          "indexed": true,
          "name": "sellerAddress",
          "type": "address"
        },
        {
          "indexed": false,
          "name": "totalPrice",
          "type": "uint256"
        },
        {
          "indexed": false,
          "name": "rewardedTokens",
          "type": "uint256"
        },
        {
          "indexed": false,
          "name": "networkFee",
          "type": "uint256"
        }
      ],
      "name": "LogAPICallsPaid",
      "type": "event"
    },
    {
      "anonymous": false,
      "inputs": [
        {
          "indexed": true,
          "name": "buyerAddress",
          "type": "address"
        },
        {
          "indexed": false,
          "name": "apiId",
          "type": "uint256"
        },
        {
          "indexed": false,
          "name": "amount",
          "type": "uint256"
        },
        {
          "indexed": false,
          "name": "causedAnOverdraft",
          "type": "bool"
        }
      ],
      "name": "LogSpendCredits",
      "type": "event"
    },
    {
      "anonymous": false,
      "inputs": [
        {
          "indexed": true,
          "name": "buyerAddress",
          "type": "address"
        },
        {
          "indexed": false,
          "name": "amount",
          "type": "uint256"
        }
      ],
      "name": "LogDepositCredits",
      "type": "event"
    },
    {
      "anonymous": false,
      "inputs": [
        {
          "indexed": true,
          "name": "buyerAddress",
          "type": "address"
        },
        {
          "indexed": false,
          "name": "amount",
          "type": "uint256"
        }
      ],
      "name": "LogWithdrawCredits",
      "type": "event"
    },
    {
      "anonymous": false,
      "inputs": [
        {
          "indexed": true,
          "name": "previousOwner",
          "type": "address"
        },
        {
          "indexed": true,
          "name": "newOwner",
          "type": "address"
        }
      ],
      "name": "OwnershipTransferred",
      "type": "event"
    },
    {
      "constant": false,
      "inputs": [
        {
          "name": "tokenAddress",
          "type": "address"
        },
        {
          "name": "tokens",
          "type": "uint256"
        }
      ],
      "name": "transferAnyERC20Token",
      "outputs": [
        {
          "name": "success",
          "type": "bool"
        }
      ],
      "payable": false,
      "stateMutability": "nonpayable",
      "type": "function"
    },
    {
      "constant": false,
      "inputs": [
        {
          "name": "amount",
          "type": "uint256"
        }
      ],
      "name": "withdrawEther",
      "outputs": [],
      "payable": false,
      "stateMutability": "nonpayable",
      "type": "function"
    },
    {
      "constant": false,
      "inputs": [
        {
          "name": "_withdrawAddress",
          "type": "address"
        }
      ],
      "name": "setWithdrawAddress",
      "outputs": [],
      "payable": false,
      "stateMutability": "nonpayable",
      "type": "function"
    },
    {
      "constant": false,
      "inputs": [
        {
          "name": "_usageReportingAddress",
          "type": "address"
        }
      ],
      "name": "setUsageReportingAddress",
      "outputs": [],
      "payable": false,
      "stateMutability": "nonpayable",
      "type": "function"
    },
    {
      "constant": false,
      "inputs": [
        {
          "name": "_relayContractAddress",
          "type": "address"
        }
      ],
      "name": "setRelayContractAddress",
      "outputs": [],
      "payable": false,
      "stateMutability": "nonpayable",
      "type": "function"
    },
    {
      "constant": false,
      "inputs": [
        {
          "name": "_tokenContractAddress",
          "type": "address"
        }
      ],
      "name": "setTokenContractAddress",
      "outputs": [],
      "payable": false,
      "stateMutability": "nonpayable",
      "type": "function"
    },
    {
      "constant": false,
      "inputs": [
        {
          "name": "_tokenReward",
          "type": "uint256"
        }
      ],
      "name": "setTokenReward",
      "outputs": [],
      "payable": false,
      "stateMutability": "nonpayable",
      "type": "function"
    },
    {
      "constant": false,
      "inputs": [
        {
          "name": "_saleFee",
          "type": "uint256"
        }
      ],
      "name": "setSaleFee",
      "outputs": [],
      "payable": false,
      "stateMutability": "nonpayable",
      "type": "function"
    },
    {
      "constant": false,
      "inputs": [
        {
          "name": "_defaultBuyerLastPaidAt",
          "type": "uint256"
        }
      ],
      "name": "setDefaultBuyerLastPaidAt",
      "outputs": [],
      "payable": false,
      "stateMutability": "nonpayable",
      "type": "function"
    },
    {
      "constant": false,
      "inputs": [
        {
          "name": "apiId",
          "type": "uint256"
        },
        {
          "name": "numCalls",
          "type": "uint256"
        },
        {
          "name": "buyerAddress",
          "type": "address"
        }
      ],
      "name": "reportUsage",
      "outputs": [],
      "payable": false,
      "stateMutability": "nonpayable",
      "type": "function"
    },
    {
      "constant": false,
      "inputs": [
        {
          "name": "apiId",
          "type": "uint256"
        },
        {
          "name": "buyerAddress",
          "type": "address"
        }
      ],
      "name": "paySellerForBuyer",
      "outputs": [],
      "payable": false,
      "stateMutability": "nonpayable",
      "type": "function"
    },
    {
      "constant": false,
      "inputs": [
        {
          "name": "apiId",
          "type": "uint256"
        }
      ],
      "name": "paySeller",
      "outputs": [],
      "payable": false,
      "stateMutability": "nonpayable",
      "type": "function"
    },
    {
      "constant": true,
      "inputs": [
        {
          "name": "apiId",
          "type": "uint256"
        },
        {
          "name": "buyerAddress",
          "type": "address"
        }
      ],
      "name": "buyerLastPaidAt",
      "outputs": [
        {
          "name": "",
          "type": "uint256"
        }
      ],
      "payable": false,
      "stateMutability": "view",
      "type": "function"
    },
    {
      "constant": true,
      "inputs": [
        {
          "name": "addr",
          "type": "address"
        }
      ],
      "name": "buyerInfoOf",
      "outputs": [
        {
          "name": "overdrafted",
          "type": "bool"
        },
        {
          "name": "lifetimeOverdraftCount",
          "type": "uint256"
        },
        {
          "name": "credits",
          "type": "uint256"
        },
        {
          "name": "lifetimeCreditsUsed",
          "type": "uint256"
        },
        {
          "name": "lifetimeExceededApprovalAmountCount",
          "type": "uint256"
        }
      ],
      "payable": false,
      "stateMutability": "view",
      "type": "function"
    },
    {
      "constant": true,
      "inputs": [
        {
          "name": "addr",
          "type": "address"
        }
      ],
      "name": "creditsBalanceOf",
      "outputs": [
        {
          "name": "",
          "type": "uint256"
        }
      ],
      "payable": false,
      "stateMutability": "view",
      "type": "function"
    },
    {
      "constant": false,
      "inputs": [
        {
          "name": "to",
          "type": "address"
        }
      ],
      "name": "addCredits",
      "outputs": [],
      "payable": true,
      "stateMutability": "payable",
      "type": "function"
    },
    {
      "constant": false,
      "inputs": [
        {
          "name": "amount",
          "type": "uint256"
        }
      ],
      "name": "withdrawCredits",
      "outputs": [],
      "payable": false,
      "stateMutability": "nonpayable",
      "type": "function"
    },
    {
      "constant": true,
      "inputs": [
        {
          "name": "apiId",
          "type": "uint256"
        },
        {
          "name": "index",
          "type": "uint256"
        }
      ],
      "name": "nonzeroAddressesElementForApi",
      "outputs": [
        {
          "name": "",
          "type": "address"
        }
      ],
      "payable": false,
      "stateMutability": "view",
      "type": "function"
    },
    {
      "constant": true,
      "inputs": [
        {
          "name": "apiId",
          "type": "uint256"
        }
      ],
      "name": "nonzeroAddressesLengthForApi",
      "outputs": [
        {
          "name": "",
          "type": "uint256"
        }
      ],
      "payable": false,
      "stateMutability": "view",
      "type": "function"
    },
    {
      "constant": true,
      "inputs": [
        {
          "name": "apiId",
          "type": "uint256"
        },
        {
          "name": "buyerAddress",
          "type": "address"
        }
      ],
      "name": "amountOwedForApiForBuyer",
      "outputs": [
        {
          "name": "",
          "type": "uint256"
        }
      ],
      "payable": false,
      "stateMutability": "view",
      "type": "function"
    },
    {
      "constant": true,
      "inputs": [
        {
          "name": "apiId",
          "type": "uint256"
        }
      ],
      "name": "totalOwedForApi",
      "outputs": [
        {
          "name": "",
          "type": "uint256"
        }
      ],
      "payable": false,
      "stateMutability": "view",
      "type": "function"
    },
    {
      "constant": true,
      "inputs": [
        {
          "name": "apiId",
          "type": "uint256"
        },
        {
          "name": "buyerAddress",
          "type": "address"
        }
      ],
      "name": "approvedAmount",
      "outputs": [
        {
          "name": "",
          "type": "uint256"
        }
      ],
      "payable": false,
      "stateMutability": "view",
      "type": "function"
    },
    {
      "constant": false,
      "inputs": [
        {
          "name": "apiId",
          "type": "uint256"
        },
        {
          "name": "buyerAddress",
          "type": "address"
        },
        {
          "name": "newAmount",
          "type": "uint256"
        }
      ],
      "name": "approveAmount",
      "outputs": [],
      "payable": false,
      "stateMutability": "nonpayable",
      "type": "function"
    },
    {
      "constant": false,
      "inputs": [
        {
          "name": "apiId",
          "type": "uint256"
        },
        {
          "name": "buyerAddress",
          "type": "address"
        },
        {
          "name": "newAmount",
          "type": "uint256"
        },
        {
          "name": "firstUseTime",
          "type": "uint256"
        }
      ],
      "name": "approveAmountAndSetFirstUseTime",
      "outputs": [],
      "payable": false,
      "stateMutability": "nonpayable",
      "type": "function"
    },
    {
      "constant": true,
      "inputs": [
        {
          "name": "apiId",
          "type": "uint256"
        },
        {
          "name": "buyerAddress",
          "type": "address"
        }
      ],
      "name": "buyerExceededApprovedAmount",
      "outputs": [
        {
          "name": "",
          "type": "bool"
        }
      ],
      "payable": false,
      "stateMutability": "view",
      "type": "function"
    }
  ],
  "bytecode": "0x608060405234801561001057600080fd5b50336000806101000a81548173ffffffffffffffffffffffffffffffffffffffff021916908373ffffffffffffffffffffffffffffffffffffffff160217905550600160068190555068056bc75e2d63100000600181905550600a60028190555062093a8060038190555033600860006101000a81548173ffffffffffffffffffffffffffffffffffffffff021916908373ffffffffffffffffffffffffffffffffffffffff16021790555033600960006101000a81548173ffffffffffffffffffffffffffffffffffffffff021916908373ffffffffffffffffffffffffffffffffffffffff16021790555061374f8061010c6000396000f3006080604052600436106101ac576000357c0100000000000000000000000000000000000000000000000000000000900463ffffffff16806306b05238146101b157806309ed1782146101dc5780630ac5f44114610209578063178021e3146102565780631a0c83f8146102815780632d2bcd37146102e257806335e4d30f146103255780633ab1a4941461039c5780633bed33ce146103df57806344e2f9ad1461040c5780634797debe146104835780634ecc6eab146104e45780634fe01d381461051157806354fd4d501461053e578063683024671461056957806368aafcd9146105965780636905877a146105d95780636e66f6e91461061a5780636ea96bcd1461064557806382edaf941461067057806388065236146106c75780638da5cb5b146107285780638eee1cd61461077f5780638f49ccf4146107e4578063a38b68cb1461083b578063b23d48541461087c578063bdcafc55146108bf578063c216c0d3146108ec578063cbd3faef14610922578063dc39d06d14610983578063dfa93d64146109e8578063f2fde38b14610a3f578063f44b43f814610a82578063f9854bfc14610ad9575b600080fd5b3480156101bd57600080fd5b506101c6610b30565b6040518082815260200191505060405180910390f35b3480156101e857600080fd5b5061020760048036038101908080359060200190929190505050610b36565b005b34801561021557600080fd5b5061025460048036038101908080359060200190929190803573ffffffffffffffffffffffffffffffffffffffff169060200190929190505050610c44565b005b34801561026257600080fd5b5061026b610f92565b6040518082815260200191505060405180910390f35b34801561028d57600080fd5b506102cc60048036038101908080359060200190929190803573ffffffffffffffffffffffffffffffffffffffff169060200190929190505050610f98565b6040518082815260200191505060405180910390f35b3480156102ee57600080fd5b50610323600480360381019080803573ffffffffffffffffffffffffffffffffffffffff169060200190929190505050610ffb565b005b34801561033157600080fd5b5061035a60048036038101908080359060200190929190803590602001909291905050506110d6565b604051808273ffffffffffffffffffffffffffffffffffffffff1673ffffffffffffffffffffffffffffffffffffffff16815260200191505060405180910390f35b3480156103a857600080fd5b506103dd600480360381019080803573ffffffffffffffffffffffffffffffffffffffff169060200190929190505050611133565b005b3480156103eb57600080fd5b5061040a6004803603810190808035906020019092919050505061120e565b005b34801561041857600080fd5b5061044d600480360381019080803573ffffffffffffffffffffffffffffffffffffffff169060200190929190505050611328565b60405180861515151581526020018581526020018481526020018381526020018281526020019550505050505060405180910390f35b34801561048f57600080fd5b506104e260048036038101908080359060200190929190803573ffffffffffffffffffffffffffffffffffffffff16906020019092919080359060200190929190803590602001909291905050506113ac565b005b3480156104f057600080fd5b5061050f60048036038101908080359060200190929190505050611598565b005b34801561051d57600080fd5b5061053c600480360381019080803590602001909291905050506115fd565b005b34801561054a57600080fd5b50610553611662565b6040518082815260200191505060405180910390f35b34801561057557600080fd5b5061059460048036038101908080359060200190929190505050611668565b005b3480156105a257600080fd5b506105d7600480360381019080803573ffffffffffffffffffffffffffffffffffffffff1690602001909291905050506119da565b005b3480156105e557600080fd5b5061060460048036038101908080359060200190929190505050611ab5565b6040518082815260200191505060405180910390f35b34801561062657600080fd5b5061062f611b9c565b6040518082815260200191505060405180910390f35b34801561065157600080fd5b5061065a611ba2565b6040518082815260200191505060405180910390f35b34801561067c57600080fd5b50610685611ba8565b604051808273ffffffffffffffffffffffffffffffffffffffff1673ffffffffffffffffffffffffffffffffffffffff16815260200191505060405180910390f35b3480156106d357600080fd5b5061071260048036038101908080359060200190929190803573ffffffffffffffffffffffffffffffffffffffff169060200190929190505050611bce565b6040518082815260200191505060405180910390f35b34801561073457600080fd5b5061073d611c2c565b604051808273ffffffffffffffffffffffffffffffffffffffff1673ffffffffffffffffffffffffffffffffffffffff16815260200191505060405180910390f35b34801561078b57600080fd5b506107ca60048036038101908080359060200190929190803573ffffffffffffffffffffffffffffffffffffffff169060200190929190505050611c51565b604051808215151515815260200191505060405180910390f35b3480156107f057600080fd5b506108396004803603810190808035906020019092919080359060200190929190803573ffffffffffffffffffffffffffffffffffffffff169060200190929190505050611cbc565b005b34801561084757600080fd5b50610866600480360381019080803590602001909291905050506121a2565b6040518082815260200191505060405180910390f35b34801561088857600080fd5b506108bd600480360381019080803573ffffffffffffffffffffffffffffffffffffffff1690602001909291905050506121ca565b005b3480156108cb57600080fd5b506108ea600480360381019080803590602001909291905050506122a5565b005b610920600480360381019080803573ffffffffffffffffffffffffffffffffffffffff16906020019092919050505061230a565b005b34801561092e57600080fd5b5061096d60048036038101908080359060200190929190803573ffffffffffffffffffffffffffffffffffffffff1690602001909291905050506123be565b6040518082815260200191505060405180910390f35b34801561098f57600080fd5b506109ce600480360381019080803573ffffffffffffffffffffffffffffffffffffffff16906020019092919080359060200190929190505050612421565b604051808215151515815260200191505060405180910390f35b3480156109f457600080fd5b506109fd612585565b604051808273ffffffffffffffffffffffffffffffffffffffff1673ffffffffffffffffffffffffffffffffffffffff16815260200191505060405180910390f35b348015610a4b57600080fd5b50610a80600480360381019080803573ffffffffffffffffffffffffffffffffffffffff1690602001909291905050506125ab565b005b348015610a8e57600080fd5b50610ad760048036038101908080359060200190929190803573ffffffffffffffffffffffffffffffffffffffff16906020019092919080359060200190929190505050612700565b005b348015610ae557600080fd5b50610b1a600480360381019080803573ffffffffffffffffffffffffffffffffffffffff16906020019092919050505061283d565b6040518082815260200191505060405180910390f35b60075481565b6000600b60003373ffffffffffffffffffffffffffffffffffffffff1673ffffffffffffffffffffffffffffffffffffffff168152602001908152602001600020905081816002015410151515610b8c57600080fd5b610ba382826002015461288e90919063ffffffff16565b81600201819055503373ffffffffffffffffffffffffffffffffffffffff166108fc839081150290604051600060405180830381858888f19350505050158015610bf1573d6000803e3d6000fd5b503373ffffffffffffffffffffffffffffffffffffffff167f8320a4c3c11a89c7523cf703d3e175d919c423fb9c2408e2249d3196a1489156836040518082815260200191505060405180910390a25050565b600080600080600080600080600080600460009054906101000a900473ffffffffffffffffffffffffffffffffffffffff1699508973ffffffffffffffffffffffffffffffffffffffff166376b69d776040518163ffffffff167c0100000000000000000000000000000000000000000000000000000000028152600401602060405180830381600087803b158015610cdc57600080fd5b505af1158015610cf0573d6000803e3d6000fd5b505050506040513d6020811015610d0657600080fd5b810190808051906020019092919050505098508897508773ffffffffffffffffffffffffffffffffffffffff1663261ac2798d6040518263ffffffff167c010000000000000000000000000000000000000000000000000000000002815260040180828152602001915050608060405180830381600087803b158015610d8b57600080fd5b505af1158015610d9f573d6000803e3d6000fd5b505050506040513d6080811015610db557600080fd5b8101908080519060200190929190805190602001909291908051906020019092919080519060200190929190505050809750819850829950839a505050505060008714158015610e0a57506000866000191614155b8015610e1b57506000856000191614155b8015610e545750600073ffffffffffffffffffffffffffffffffffffffff168473ffffffffffffffffffffffffffffffffffffffff1614155b1515610e5f57600080fd5b610e698c8c6128a7565b92506000831415610e7957610f84565b610ea16064610e9360025486612ac090919063ffffffff16565b612afb90919063ffffffff16565b9150610eb6828461288e90919063ffffffff16565b9050816007600082825401925050819055508373ffffffffffffffffffffffffffffffffffffffff167f5b430a575759cc9db812e031edf08ea2ab9974b0811d9cc0b851642cd0713b278d85600154866040518085815260200184815260200183815260200182815260200194505050505060405180910390a2610f3c84600154612b16565b8373ffffffffffffffffffffffffffffffffffffffff166108fc829081150290604051600060405180830381858888f19350505050158015610f82573d6000803e3d6000fd5b505b505050505050505050505050565b60025481565b600080600a600085815260200190815260200160002090508060020160008473ffffffffffffffffffffffffffffffffffffffff1673ffffffffffffffffffffffffffffffffffffffff1681526020019081526020016000205491505092915050565b6000809054906101000a900473ffffffffffffffffffffffffffffffffffffffff1673ffffffffffffffffffffffffffffffffffffffff163373ffffffffffffffffffffffffffffffffffffffff1614151561105657600080fd5b600073ffffffffffffffffffffffffffffffffffffffff168173ffffffffffffffffffffffffffffffffffffffff161415151561109257600080fd5b80600460006101000a81548173ffffffffffffffffffffffffffffffffffffffff021916908373ffffffffffffffffffffffffffffffffffffffff16021790555050565b600080600a6000858152602001908152602001600020905080600101838154811015156110ff57fe5b9060005260206000200160009054906101000a900473ffffffffffffffffffffffffffffffffffffffff1691505092915050565b6000809054906101000a900473ffffffffffffffffffffffffffffffffffffffff1673ffffffffffffffffffffffffffffffffffffffff163373ffffffffffffffffffffffffffffffffffffffff1614151561118e57600080fd5b600073ffffffffffffffffffffffffffffffffffffffff168173ffffffffffffffffffffffffffffffffffffffff16141515156111ca57600080fd5b80600860006101000a81548173ffffffffffffffffffffffffffffffffffffffff021916908373ffffffffffffffffffffffffffffffffffffffff16021790555050565b600860009054906101000a900473ffffffffffffffffffffffffffffffffffffffff1673ffffffffffffffffffffffffffffffffffffffff163373ffffffffffffffffffffffffffffffffffffffff1614151561126a57600080fd5b3073ffffffffffffffffffffffffffffffffffffffff1631811115151561129057600080fd5b60075481111515156112a157600080fd5b6112b68160075461288e90919063ffffffff16565b600781905550600860009054906101000a900473ffffffffffffffffffffffffffffffffffffffff1673ffffffffffffffffffffffffffffffffffffffff166108fc829081150290604051600060405180830381858888f19350505050158015611324573d6000803e3d6000fd5b5050565b600080600080600080600b60008873ffffffffffffffffffffffffffffffffffffffff1673ffffffffffffffffffffffffffffffffffffffff16815260200190815260200160002090508060000160009054906101000a900460ff169550806001015494508060020154935080600301549250806006015491505091939590929450565b600080600073ffffffffffffffffffffffffffffffffffffffff168573ffffffffffffffffffffffffffffffffffffffff16141580156113ed575060008614155b15156113f857600080fd5b8473ffffffffffffffffffffffffffffffffffffffff163373ffffffffffffffffffffffffffffffffffffffff16148061147f5750600960009054906101000a900473ffffffffffffffffffffffffffffffffffffffff1673ffffffffffffffffffffffffffffffffffffffff163373ffffffffffffffffffffffffffffffffffffffff16145b151561148a57600080fd5b600a6000878152602001908152602001600020915060008260020160008773ffffffffffffffffffffffffffffffffffffffff1673ffffffffffffffffffffffffffffffffffffffff168152602001908152602001600020541415156114ef57600080fd5b828260020160008773ffffffffffffffffffffffffffffffffffffffff1673ffffffffffffffffffffffffffffffffffffffff16815260200190815260200160002081905550600b60008673ffffffffffffffffffffffffffffffffffffffff1673ffffffffffffffffffffffffffffffffffffffff16815260200190815260200160002090508381600401600088815260200190815260200160002081905550505050505050565b6000809054906101000a900473ffffffffffffffffffffffffffffffffffffffff1673ffffffffffffffffffffffffffffffffffffffff163373ffffffffffffffffffffffffffffffffffffffff161415156115f357600080fd5b8060038190555050565b6000809054906101000a900473ffffffffffffffffffffffffffffffffffffffff1673ffffffffffffffffffffffffffffffffffffffff163373ffffffffffffffffffffffffffffffffffffffff1614151561165857600080fd5b8060018190555050565b60065481565b600080600080600080600080600080600080600460009054906101000a900473ffffffffffffffffffffffffffffffffffffffff169b508b73ffffffffffffffffffffffffffffffffffffffff166376b69d776040518163ffffffff167c0100000000000000000000000000000000000000000000000000000000028152600401602060405180830381600087803b15801561170357600080fd5b505af1158015611717573d6000803e3d6000fd5b505050506040513d602081101561172d57600080fd5b81019080805190602001909291905050509a508a99508973ffffffffffffffffffffffffffffffffffffffff1663261ac2798e6040518263ffffffff167c010000000000000000000000000000000000000000000000000000000002815260040180828152602001915050608060405180830381600087803b1580156117b257600080fd5b505af11580156117c6573d6000803e3d6000fd5b505050506040513d60808110156117dc57600080fd5b8101908080519060200190929190805190602001909291908051906020019092919080519060200190929190505050809950819a50829b50839c50505050506000891415801561183157506000886000191614155b801561184257506000876000191614155b801561187b5750600073ffffffffffffffffffffffffffffffffffffffff168673ffffffffffffffffffffffffffffffffffffffff1614155b151561188657600080fd5b60009450600093506118978d612ef7565b809550819650505060008514156118ad576119cb565b6118d560646118c760025488612ac090919063ffffffff16565b612afb90919063ffffffff16565b92506118ea838661288e90919063ffffffff16565b91508260076000828254019250508190555061191184600154612ac090919063ffffffff16565b90508573ffffffffffffffffffffffffffffffffffffffff167f5b430a575759cc9db812e031edf08ea2ab9974b0811d9cc0b851642cd0713b278e8784876040518085815260200184815260200183815260200182815260200194505050505060405180910390a26119838682612b16565b8573ffffffffffffffffffffffffffffffffffffffff166108fc839081150290604051600060405180830381858888f193505050501580156119c9573d6000803e3d6000fd5b505b50505050505050505050505050565b6000809054906101000a900473ffffffffffffffffffffffffffffffffffffffff1673ffffffffffffffffffffffffffffffffffffffff163373ffffffffffffffffffffffffffffffffffffffff16141515611a3557600080fd5b600073ffffffffffffffffffffffffffffffffffffffff168173ffffffffffffffffffffffffffffffffffffffff1614151515611a7157600080fd5b80600960006101000a81548173ffffffffffffffffffffffffffffffffffffffff021916908373ffffffffffffffffffffffffffffffffffffffff16021790555050565b600080600080600080600a6000888152602001908152602001600020945060009350600092505b8460010180549050831015611b8f578460010183815481101515611afc57fe5b9060005260206000200160009054906101000a900473ffffffffffffffffffffffffffffffffffffffff1691508460000160008373ffffffffffffffffffffffffffffffffffffffff1673ffffffffffffffffffffffffffffffffffffffff168152602001908152602001600020549050611b80818561329590919063ffffffff16565b93508280600101935050611adc565b8395505050505050919050565b60015481565b60035481565b600560009054906101000a900473ffffffffffffffffffffffffffffffffffffffff1681565b6000600b60008373ffffffffffffffffffffffffffffffffffffffff1673ffffffffffffffffffffffffffffffffffffffff168152602001908152602001600020600401600084815260200190815260200160002054905092915050565b6000809054906101000a900473ffffffffffffffffffffffffffffffffffffffff1681565b6000600b60008373ffffffffffffffffffffffffffffffffffffffff1673ffffffffffffffffffffffffffffffffffffffff168152602001908152602001600020600501600084815260200190815260200160002060009054906101000a900460ff16905092915050565b6000806000806000806000806000600460009054906101000a900473ffffffffffffffffffffffffffffffffffffffff1698508873ffffffffffffffffffffffffffffffffffffffff166376b69d776040518163ffffffff167c0100000000000000000000000000000000000000000000000000000000028152600401602060405180830381600087803b158015611d5357600080fd5b505af1158015611d67573d6000803e3d6000fd5b505050506040513d6020811015611d7d57600080fd5b810190808051906020019092919050505097508796508673ffffffffffffffffffffffffffffffffffffffff1663261ac2798d6040518263ffffffff167c010000000000000000000000000000000000000000000000000000000002815260040180828152602001915050608060405180830381600087803b158015611e0257600080fd5b505af1158015611e16573d6000803e3d6000fd5b505050506040513d6080811015611e2c57600080fd5b810190808051906020019092919080519060200190929190805190602001909291908051906020019092919050505080965081975082985083995050505050600073ffffffffffffffffffffffffffffffffffffffff168373ffffffffffffffffffffffffffffffffffffffff1614151515611ea757600080fd5b8273ffffffffffffffffffffffffffffffffffffffff163373ffffffffffffffffffffffffffffffffffffffff161480611f2e5750600960009054906101000a900473ffffffffffffffffffffffffffffffffffffffff1673ffffffffffffffffffffffffffffffffffffffff163373ffffffffffffffffffffffffffffffffffffffff16145b1515611f3957600080fd5b6000856000191614158015611f5357506000846000191614155b1515611f5e57600080fd5b611f718b87612ac090919063ffffffff16565b9150600082111515611f8257600080fd5b600a60008d8152602001908152602001600020905060008160000160008c73ffffffffffffffffffffffffffffffffffffffff1673ffffffffffffffffffffffffffffffffffffffff16815260200190815260200160002054141561204a57806001018a90806001815401808255809150509060018203906000526020600020016000909192909190916101000a81548173ffffffffffffffffffffffffffffffffffffffff021916908373ffffffffffffffffffffffffffffffffffffffff160217905550505b61209e828260000160008d73ffffffffffffffffffffffffffffffffffffffff1673ffffffffffffffffffffffffffffffffffffffff1681526020019081526020016000205461329590919063ffffffff16565b8160000160008c73ffffffffffffffffffffffffffffffffffffffff1673ffffffffffffffffffffffffffffffffffffffff168152602001908152602001600020819055508973ffffffffffffffffffffffffffffffffffffffff168373ffffffffffffffffffffffffffffffffffffffff167fe000b526d00ac563daef41443c79e488cc5350a03b076e3ec9c924c649315d958e898f8733604051808681526020018581526020018481526020018381526020018273ffffffffffffffffffffffffffffffffffffffff1673ffffffffffffffffffffffffffffffffffffffff1681526020019550505050505060405180910390a3505050505050505050505050565b600080600a600084815260200190815260200160002090508060010180549050915050919050565b6000809054906101000a900473ffffffffffffffffffffffffffffffffffffffff1673ffffffffffffffffffffffffffffffffffffffff163373ffffffffffffffffffffffffffffffffffffffff1614151561222557600080fd5b600073ffffffffffffffffffffffffffffffffffffffff168173ffffffffffffffffffffffffffffffffffffffff161415151561226157600080fd5b80600560006101000a81548173ffffffffffffffffffffffffffffffffffffffff021916908373ffffffffffffffffffffffffffffffffffffffff16021790555050565b6000809054906101000a900473ffffffffffffffffffffffffffffffffffffffff1673ffffffffffffffffffffffffffffffffffffffff163373ffffffffffffffffffffffffffffffffffffffff1614151561230057600080fd5b8060028190555050565b6000600b60008373ffffffffffffffffffffffffffffffffffffffff1673ffffffffffffffffffffffffffffffffffffffff168152602001908152602001600020905061236434826002015461329590919063ffffffff16565b81600201819055508173ffffffffffffffffffffffffffffffffffffffff167f86f8e33b41070d06fb89c32da953989505fce79d2f2de15c71992c57e8e75339346040518082815260200191505060405180910390a25050565b600080600a600085815260200190815260200160002090508060000160008473ffffffffffffffffffffffffffffffffffffffff1673ffffffffffffffffffffffffffffffffffffffff1681526020019081526020016000205491505092915050565b60008060009054906101000a900473ffffffffffffffffffffffffffffffffffffffff1673ffffffffffffffffffffffffffffffffffffffff163373ffffffffffffffffffffffffffffffffffffffff1614151561247e57600080fd5b8273ffffffffffffffffffffffffffffffffffffffff1663a9059cbb6000809054906101000a900473ffffffffffffffffffffffffffffffffffffffff16846040518363ffffffff167c0100000000000000000000000000000000000000000000000000000000028152600401808373ffffffffffffffffffffffffffffffffffffffff1673ffffffffffffffffffffffffffffffffffffffff16815260200182815260200192505050602060405180830381600087803b15801561254257600080fd5b505af1158015612556573d6000803e3d6000fd5b505050506040513d602081101561256c57600080fd5b8101908080519060200190929190505050905092915050565b600460009054906101000a900473ffffffffffffffffffffffffffffffffffffffff1681565b6000809054906101000a900473ffffffffffffffffffffffffffffffffffffffff1673ffffffffffffffffffffffffffffffffffffffff163373ffffffffffffffffffffffffffffffffffffffff1614151561260657600080fd5b600073ffffffffffffffffffffffffffffffffffffffff168173ffffffffffffffffffffffffffffffffffffffff161415151561264257600080fd5b8073ffffffffffffffffffffffffffffffffffffffff166000809054906101000a900473ffffffffffffffffffffffffffffffffffffffff1673ffffffffffffffffffffffffffffffffffffffff167f8be0079c531659141344cd1fd0a4f28419497f9722a3daafe3b4186f6b6457e060405160405180910390a3806000806101000a81548173ffffffffffffffffffffffffffffffffffffffff021916908373ffffffffffffffffffffffffffffffffffffffff16021790555050565b60008073ffffffffffffffffffffffffffffffffffffffff168373ffffffffffffffffffffffffffffffffffffffff161415801561273f575060008414155b151561274a57600080fd5b8273ffffffffffffffffffffffffffffffffffffffff163373ffffffffffffffffffffffffffffffffffffffff1614806127d15750600960009054906101000a900473ffffffffffffffffffffffffffffffffffffffff1673ffffffffffffffffffffffffffffffffffffffff163373ffffffffffffffffffffffffffffffffffffffff16145b15156127dc57600080fd5b600b60008473ffffffffffffffffffffffffffffffffffffffff1673ffffffffffffffffffffffffffffffffffffffff1681526020019081526020016000209050818160040160008681526020019081526020016000208190555050505050565b600080600b60008473ffffffffffffffffffffffffffffffffffffffff1673ffffffffffffffffffffffffffffffffffffffff16815260200190815260200160002090508060020154915050919050565b600082821115151561289c57fe5b818303905092915050565b600080600080600080600080600a60008b815260200190815260200160002096508660000160008a73ffffffffffffffffffffffffffffffffffffffff1673ffffffffffffffffffffffffffffffffffffffff1681526020019081526020016000205495508660020160008a73ffffffffffffffffffffffffffffffffffffffff1673ffffffffffffffffffffffffffffffffffffffff168152602001908152602001600020549450600085141561296157600354420394505b8442039350859250600091506000905061297d8a8a86896132b3565b8092508193505050612998828761288e90919063ffffffff16565b9250828760000160008b73ffffffffffffffffffffffffffffffffffffffff1673ffffffffffffffffffffffffffffffffffffffff168152602001908152602001600020819055506000831415156129f5576129f48a8a61347c565b5b6000821415612a075760009750612ab3565b8873ffffffffffffffffffffffffffffffffffffffff167f2917b46ea0b473a61e5205f9790f64817088b9a82eb47ca1256e2c3302826d6c8b84846040518084815260200183815260200182151515158152602001935050505060405180910390a2428760020160008b73ffffffffffffffffffffffffffffffffffffffff1673ffffffffffffffffffffffffffffffffffffffff168152602001908152602001600020819055508197505b5050505050505092915050565b6000806000841415612ad55760009150612af4565b8284029050828482811515612ae657fe5b04141515612af057fe5b8091505b5092915050565b6000808284811515612b0957fe5b0490508091505092915050565b600080600080600560009054906101000a900473ffffffffffffffffffffffffffffffffffffffff1693508373ffffffffffffffffffffffffffffffffffffffff16638da5cb5b6040518163ffffffff167c0100000000000000000000000000000000000000000000000000000000028152600401602060405180830381600087803b158015612ba557600080fd5b505af1158015612bb9573d6000803e3d6000fd5b505050506040513d6020811015612bcf57600080fd5b810190808051906020019092919050505092508373ffffffffffffffffffffffffffffffffffffffff166370a08231846040518263ffffffff167c0100000000000000000000000000000000000000000000000000000000028152600401808273ffffffffffffffffffffffffffffffffffffffff1673ffffffffffffffffffffffffffffffffffffffff168152602001915050602060405180830381600087803b158015612c7d57600080fd5b505af1158015612c91573d6000803e3d6000fd5b505050506040513d6020811015612ca757600080fd5b810190808051906020019092919050505091508373ffffffffffffffffffffffffffffffffffffffff1663dd62ed3e84306040518363ffffffff167c0100000000000000000000000000000000000000000000000000000000028152600401808373ffffffffffffffffffffffffffffffffffffffff1673ffffffffffffffffffffffffffffffffffffffff1681526020018273ffffffffffffffffffffffffffffffffffffffff1673ffffffffffffffffffffffffffffffffffffffff16815260200192505050602060405180830381600087803b158015612d8957600080fd5b505af1158015612d9d573d6000803e3d6000fd5b505050506040513d6020811015612db357600080fd5b81019080805190602001909291905050509050848210158015612dd65750848110155b15612eef578373ffffffffffffffffffffffffffffffffffffffff166323b872dd8488886040518463ffffffff167c0100000000000000000000000000000000000000000000000000000000028152600401808473ffffffffffffffffffffffffffffffffffffffff1673ffffffffffffffffffffffffffffffffffffffff1681526020018373ffffffffffffffffffffffffffffffffffffffff1673ffffffffffffffffffffffffffffffffffffffff1681526020018281526020019350505050602060405180830381600087803b158015612eb257600080fd5b505af1158015612ec6573d6000803e3d6000fd5b505050506040513d6020811015612edc57600080fd5b8101908080519060200190929190505050505b505050505050565b6000806000806060600080600080600080600080600a60008f81526020019081526020016000209a504299508a600101805480602002602001604051908101604052809291908181526020018280548015612fa757602002820191906000526020600020905b8160009054906101000a900473ffffffffffffffffffffffffffffffffffffffff1673ffffffffffffffffffffffffffffffffffffffff1681526020019060010190808311612f5d575b505050505098506000604051908082528060200260200182016040528015612fde5781602001602082028038833980820191505090505b508b6001019080519060200190612ff6929190613605565b50600097505b885188101561328557888881518110151561301357fe5b9060200190602002015196508a60000160008873ffffffffffffffffffffffffffffffffffffffff1673ffffffffffffffffffffffffffffffffffffffff1681526020019081526020016000205495508a60020160008873ffffffffffffffffffffffffffffffffffffffff1673ffffffffffffffffffffffffffffffffffffffff16815260200190815260200160002054945060008514156130b857600354420394505b848a03935085925060009150600090506130d48e8886896132b3565b80925081935050506130ef828e61329590919063ffffffff16565b9c50613104828761288e90919063ffffffff16565b9250828b60000160008973ffffffffffffffffffffffffffffffffffffffff1673ffffffffffffffffffffffffffffffffffffffff168152602001908152602001600020819055506000831415156131bf578a6001018790806001815401808255809150509060018203906000526020600020016000909192909190916101000a81548173ffffffffffffffffffffffffffffffffffffffff021916908373ffffffffffffffffffffffffffffffffffffffff160217905550505b600082141515613278578673ffffffffffffffffffffffffffffffffffffffff167f2917b46ea0b473a61e5205f9790f64817088b9a82eb47ca1256e2c3302826d6c8f84846040518084815260200183815260200182151515158152602001935050505060405180910390a2428b60020160008973ffffffffffffffffffffffffffffffffffffffff1673ffffffffffffffffffffffffffffffffffffffff1681526020019081526020016000208190555060018c019b505b8780600101985050612ffc565b5050505050505050505050915091565b60008082840190508381101515156132a957fe5b8091505092915050565b6000806000806000600b60008973ffffffffffffffffffffffffffffffffffffffff1673ffffffffffffffffffffffffffffffffffffffff16815260200190815260200160002092508260040160008a81526020019081526020016000205491506133278783612ac090919063ffffffff16565b90508583600201541015156133e0576000935060008360000160006101000a81548160ff02191690831515021790555085811015156133965760008360050160008b815260200190815260200160002060006101000a81548160ff0219169083151502179055508594506133db565b60018360050160008b815260200190815260200160002060006101000a81548160ff021916908315150217905550600183600601600082825401925050819055508094505b613432565b6001935060018360000160006101000a81548160ff0219169083151502179055506001836001016000828254019250508190555080836002015410151561342957809450613431565b826002015494505b5b61344985846002015461288e90919063ffffffff16565b836002018190555061346885846003015461329590919063ffffffff16565b836003018190555050505094509492505050565b6000806000600a6000868152602001908152602001600020925060009150600090505b60018360010180549050038110156135d8578373ffffffffffffffffffffffffffffffffffffffff1683600101828154811015156134d957fe5b9060005260206000200160009054906101000a900473ffffffffffffffffffffffffffffffffffffffff1673ffffffffffffffffffffffffffffffffffffffff16141561352557600191505b6001151582151514156135cb57826001016001820181548110151561354657fe5b9060005260206000200160009054906101000a900473ffffffffffffffffffffffffffffffffffffffff16836001018281548110151561358257fe5b9060005260206000200160006101000a81548173ffffffffffffffffffffffffffffffffffffffff021916908373ffffffffffffffffffffffffffffffffffffffff1602179055505b808060010191505061349f565b6001151582151514156135fe57826001018054809190600190036135fc919061368f565b505b5050505050565b82805482825590600052602060002090810192821561367e579160200282015b8281111561367d5782518260006101000a81548173ffffffffffffffffffffffffffffffffffffffff021916908373ffffffffffffffffffffffffffffffffffffffff16021790555091602001919060010190613625565b5b50905061368b91906136bb565b5090565b8154818355818111156136b6578183600052602060002091820191016136b591906136fe565b5b505050565b6136fb91905b808211156136f757600081816101000a81549073ffffffffffffffffffffffffffffffffffffffff0219169055506001016136c1565b5090565b90565b61372091905b8082111561371c576000816000905550600101613704565b5090565b905600a165627a7a723058206561a85a63d0312f2bf13c70ed383b7c10e73bf040d119f7e3946564f059368c0029",
  "source": "pragma solidity 0.4.24;\n\nimport \"zeppelin-solidity/contracts/ownership/Ownable.sol\";\nimport \"./Relay.sol\";\nimport \"./APIRegistry.sol\";\nimport \"./DeconetToken.sol\";\nimport \"zeppelin-solidity/contracts/token/ERC20/ERC20.sol\";\n\n\n// ----------------------------------------------------------------------------\n// Records api calls and payment for them\n// ----------------------------------------------------------------------------\ncontract APICalls is Ownable {\n    using SafeMath for uint;\n\n    // the amount rewarded to a seller for selling api calls per buyer\n    uint public tokenReward;\n\n    // the fee this contract takes from every sale.  expressed as percent.  so a value of 3 indicates a 3% txn fee\n    uint public saleFee;\n\n    // if the buyer has never paid, we need to pick a date for when they probably started using the API.  \n    // This is in seconds and will be subtracted from \"now\"\n    uint public defaultBuyerLastPaidAt;\n\n    // address of the relay contract which holds the address of the registry contract.\n    address public relayContractAddress;\n\n    // the token address\n    address public tokenContractAddress;\n\n    // this contract version\n    uint public version;\n\n    // the amount that can be safely withdrawn from the contract\n    uint public safeWithdrawAmount;\n\n    // the address that is authorized to withdraw eth\n    address private withdrawAddress;\n\n    // the address that is authorized to report usage on behalf of deconet\n    address private usageReportingAddress;\n\n    // maps apiId to a APIBalance which stores how much each address owes\n    mapping(uint => APIBalance) internal owed;\n\n    // maps buyer addresses to whether or not accounts are overdrafted and more\n    mapping(address => BuyerInfo) internal buyers;\n\n    // Stores amounts owed and when buyers last paid on a per-api and per-user basis\n    struct APIBalance {\n        // maps address -> amount owed in wei\n        mapping(address => uint) amounts;\n        // basically a list of keys for the above map\n        address[] nonzeroAddresses;\n        // maps address -> tiemstamp of when buyer last paid\n        mapping(address => uint) buyerLastPaidAt;\n    }\n\n    // Stores basic info about a buyer including their lifetime stats and reputation info\n    struct BuyerInfo {\n        // whether or not the account is overdrafted or not\n        bool overdrafted;\n        // total number of overdrafts, ever\n        uint lifetimeOverdraftCount;\n        // credits on file with this contract (wei)\n        uint credits;\n        // total amount of credits used / spent, ever (wei)\n        uint lifetimeCreditsUsed;\n        // maps apiId to approved spending balance for each API per second.\n        mapping(uint => uint) approvedAmounts;\n        // maps apiId to whether or not the user has exceeded their approved amount\n        mapping(uint => bool) exceededApprovedAmount;\n        // total number of times exceededApprovedAmount has happened\n        uint lifetimeExceededApprovalAmountCount;\n    }\n\n    // Logged when API call usage is reported\n    event LogAPICallsMade(\n        uint apiId,\n        address indexed sellerAddress,\n        address indexed buyerAddress,\n        uint pricePerCall,\n        uint numCalls,\n        uint totalPrice,\n        address reportingAddress\n    );\n\n    // Logged when seller is paid for API calls\n    event LogAPICallsPaid(\n        uint apiId,\n        address indexed sellerAddress,\n        uint totalPrice,\n        uint rewardedTokens,\n        uint networkFee\n    );\n\n    // Logged when the credits from a specific buyer are spent on a specific api\n    event LogSpendCredits(\n        address indexed buyerAddress,\n        uint apiId,\n        uint amount,\n        bool causedAnOverdraft\n    );\n\n    // Logged when a buyer deposits credits\n    event LogDepositCredits(\n        address indexed buyerAddress,\n        uint amount\n    );\n\n    // Logged whena  buyer withdraws credits\n    event LogWithdrawCredits(\n        address indexed buyerAddress,\n        uint amount\n    );\n\n    // ------------------------------------------------------------------------\n    // Constructor\n    // ------------------------------------------------------------------------\n    constructor() public {\n        version = 1;\n\n        // default token reward of 100 tokens.  \n        // token has 18 decimal places so that's why 100 * 10^18\n        tokenReward = 100 * 10**18;\n\n        // default saleFee of 10%\n        saleFee = 10;\n\n        // 604,800 seconds = 1 week.  this is the default for when a user started using an api (1 week ago)\n        defaultBuyerLastPaidAt = 604800;\n\n        // default withdrawAddress is owner\n        withdrawAddress = msg.sender;\n        usageReportingAddress = msg.sender;\n    }\n\n    // ------------------------------------------------------------------------\n    // Owner can transfer out any accidentally sent ERC20 tokens (just in case)\n    // ------------------------------------------------------------------------\n    function transferAnyERC20Token(address tokenAddress, uint tokens) public onlyOwner returns (bool success) {\n        return ERC20(tokenAddress).transfer(owner, tokens);\n    }\n\n    // ------------------------------------------------------------------------\n    // Owner can transfer out any ETH\n    // ------------------------------------------------------------------------\n    function withdrawEther(uint amount) public {\n        require(msg.sender == withdrawAddress);\n        require(amount <= this.balance);\n        require(amount <= safeWithdrawAmount);\n        safeWithdrawAmount = safeWithdrawAmount.sub(amount);\n        withdrawAddress.transfer(amount);\n    }\n\n    // ------------------------------------------------------------------------\n    // Owner can set address of who can withdraw\n    // ------------------------------------------------------------------------\n    function setWithdrawAddress(address _withdrawAddress) public onlyOwner {\n        require(_withdrawAddress != address(0));\n        withdrawAddress = _withdrawAddress;\n    }\n\n    // ------------------------------------------------------------------------\n    // Owner can set address of who can report usage\n    // ------------------------------------------------------------------------\n    function setUsageReportingAddress(address _usageReportingAddress) public onlyOwner {\n        require(_usageReportingAddress != address(0));\n        usageReportingAddress = _usageReportingAddress;\n    }\n\n    // ------------------------------------------------------------------------\n    // Owner can set address of relay contract\n    // ------------------------------------------------------------------------\n    function setRelayContractAddress(address _relayContractAddress) public onlyOwner {\n        require(_relayContractAddress != address(0));\n        relayContractAddress = _relayContractAddress;\n    }\n\n    // ------------------------------------------------------------------------\n    // Owner can set address of token contract\n    // ------------------------------------------------------------------------\n    function setTokenContractAddress(address _tokenContractAddress) public onlyOwner {\n        require(_tokenContractAddress != address(0));\n        tokenContractAddress = _tokenContractAddress;\n    }\n\n    // ------------------------------------------------------------------------\n    // Owner can set token reward\n    // ------------------------------------------------------------------------\n    function setTokenReward(uint _tokenReward) public onlyOwner {\n        tokenReward = _tokenReward;\n    }\n\n    // ------------------------------------------------------------------------\n    // Owner can set the sale fee\n    // ------------------------------------------------------------------------\n    function setSaleFee(uint _saleFee) public onlyOwner {\n        saleFee = _saleFee;\n    }\n\n    // ------------------------------------------------------------------------\n    // Owner can set the default buyer last paid at\n    // ------------------------------------------------------------------------\n    function setDefaultBuyerLastPaidAt(uint _defaultBuyerLastPaidAt) public onlyOwner {\n        defaultBuyerLastPaidAt = _defaultBuyerLastPaidAt;\n    }\n\n    // ------------------------------------------------------------------------\n    // The API owner or the authorized deconet usage reporting address may report usage\n    // ------------------------------------------------------------------------\n    function reportUsage(uint apiId, uint numCalls, address buyerAddress) public {\n        // look up the registry address from relay contract\n        Relay relay = Relay(relayContractAddress);\n        address apiRegistryAddress = relay.apiRegistryContractAddress();\n\n        // get the module info from registry\n        APIRegistry apiRegistry = APIRegistry(apiRegistryAddress);\n\n        uint pricePerCall;\n        bytes32 sellerUsername;\n        bytes32 apiName;\n        address sellerAddress;\n\n        (pricePerCall, sellerUsername, apiName, sellerAddress) = apiRegistry.getApiByIdWithoutDynamics(apiId);\n\n        // make sure the caller is either the api owner or the deconet reporting address\n        require(sellerAddress != address(0));\n        require(msg.sender == sellerAddress || msg.sender == usageReportingAddress);\n\n        // make sure the api is actually valid\n        require(sellerUsername != \"\" && apiName != \"\");\n\n        uint totalPrice = pricePerCall.mul(numCalls);\n\n        require(totalPrice > 0);\n\n        APIBalance storage apiBalance = owed[apiId];\n\n        if (apiBalance.amounts[buyerAddress] == 0) {\n            // add buyerAddress to list of addresses with nonzero balance for this api\n            apiBalance.nonzeroAddresses.push(buyerAddress);\n        }\n\n        apiBalance.amounts[buyerAddress] = apiBalance.amounts[buyerAddress].add(totalPrice);\n\n        emit LogAPICallsMade(\n            apiId,\n            sellerAddress,\n            buyerAddress,\n            pricePerCall,\n            numCalls,\n            totalPrice,\n            msg.sender\n        );\n    }\n\n    // ------------------------------------------------------------------------\n    // Function to pay the seller for a single API buyer.  \n    // Settles reported usage according to credits and approved amounts.\n    // ------------------------------------------------------------------------\n    function paySellerForBuyer(uint apiId, address buyerAddress) public {\n        // look up the registry address from relay contract\n        Relay relay = Relay(relayContractAddress);\n        address apiRegistryAddress = relay.apiRegistryContractAddress();\n\n        // get the module info from registry\n        APIRegistry apiRegistry = APIRegistry(apiRegistryAddress);\n\n        uint pricePerCall;\n        bytes32 sellerUsername;\n        bytes32 apiName;\n        address sellerAddress;\n\n        (pricePerCall, sellerUsername, apiName, sellerAddress) = apiRegistry.getApiByIdWithoutDynamics(apiId);\n\n        // make sure it's a legit real api\n        require(pricePerCall != 0 && sellerUsername != \"\" && apiName != \"\" && sellerAddress != address(0));\n\n        uint buyerPaid = processSalesForSingleBuyer(apiId, buyerAddress);\n\n        if (buyerPaid == 0) {\n            return; // buyer paid nothing, we are done.\n        }\n\n        // calculate fee and payout\n        uint fee = buyerPaid.mul(saleFee).div(100);\n        uint payout = buyerPaid.sub(fee);\n\n        // log that we stored the fee so we know we can take it out later\n        safeWithdrawAmount += fee;\n\n        emit LogAPICallsPaid(\n            apiId,\n            sellerAddress,\n            buyerPaid,\n            tokenReward,\n            fee\n        );\n\n        // give seller some tokens for the sale\n        rewardTokens(sellerAddress, tokenReward);\n\n        // transfer seller the eth\n        sellerAddress.transfer(payout);\n    }\n\n    // ------------------------------------------------------------------------\n    // Function to pay the seller for all buyers with nonzero balance.  \n    // Settles reported usage according to credits and approved amounts.\n    // ------------------------------------------------------------------------\n    function paySeller(uint apiId) public {\n        // look up the registry address from relay contract\n        Relay relay = Relay(relayContractAddress);\n        address apiRegistryAddress = relay.apiRegistryContractAddress();\n\n        // get the module info from registry\n        APIRegistry apiRegistry = APIRegistry(apiRegistryAddress);\n\n        uint pricePerCall;\n        bytes32 sellerUsername;\n        bytes32 apiName;\n        address sellerAddress;\n\n        (pricePerCall, sellerUsername, apiName, sellerAddress) = apiRegistry.getApiByIdWithoutDynamics(apiId);\n\n        // make sure it's a legit real api\n        require(pricePerCall != 0 && sellerUsername != \"\" && apiName != \"\" && sellerAddress != address(0));\n\n        // calculate totalPayable for the api\n        uint totalPayable = 0;\n        uint totalBuyers = 0;\n        (totalPayable, totalBuyers) = processSalesForAllBuyers(apiId);\n\n        if (totalPayable == 0) {\n            return; // if there's nothing to pay, we are done here.\n        }\n\n        // calculate fee and payout\n        uint fee = totalPayable.mul(saleFee).div(100);\n        uint payout = totalPayable.sub(fee);\n\n        // log that we stored the fee so we know we can take it out later\n        safeWithdrawAmount += fee;\n\n        // we reward token reward on a \"per buyer\" basis.  so multiply the reward to give by the number of actual buyers\n        uint totalTokenReward = tokenReward.mul(totalBuyers);\n\n        emit LogAPICallsPaid(\n            apiId,\n            sellerAddress,\n            totalPayable,\n            totalTokenReward,\n            fee\n        );\n\n        // give seller some tokens for the sale\n        rewardTokens(sellerAddress, totalTokenReward);\n\n        // transfer seller the eth\n        sellerAddress.transfer(payout);\n    } \n\n    // ------------------------------------------------------------------------\n    // Let anyone see when the buyer last paid for a given API\n    // ------------------------------------------------------------------------\n    function buyerLastPaidAt(uint apiId, address buyerAddress) public view returns (uint) {\n        APIBalance storage apiBalance = owed[apiId];\n        return apiBalance.buyerLastPaidAt[buyerAddress];\n    }   \n\n    // ------------------------------------------------------------------------\n    // Get buyer info struct for a specific buyer address\n    // ------------------------------------------------------------------------\n    function buyerInfoOf(address addr) \n        public \n        view \n        returns (\n            bool overdrafted, \n            uint lifetimeOverdraftCount, \n            uint credits, \n            uint lifetimeCreditsUsed, \n            uint lifetimeExceededApprovalAmountCount\n        ) \n    {\n        BuyerInfo storage buyer = buyers[addr];\n        overdrafted = buyer.overdrafted;\n        lifetimeOverdraftCount = buyer.lifetimeOverdraftCount;\n        credits = buyer.credits;\n        lifetimeCreditsUsed = buyer.lifetimeCreditsUsed;\n        lifetimeExceededApprovalAmountCount = buyer.lifetimeExceededApprovalAmountCount;\n    }\n\n    // ------------------------------------------------------------------------\n    // Gets the credits balance of a buyer\n    // ------------------------------------------------------------------------\n    function creditsBalanceOf(address addr) public view returns (uint) {\n        BuyerInfo storage buyer = buyers[addr];\n        return buyer.credits;\n    }\n\n    // ------------------------------------------------------------------------\n    // Lets a buyer add credits\n    // ------------------------------------------------------------------------\n    function addCredits(address to) public payable {\n        BuyerInfo storage buyer = buyers[to];\n        buyer.credits = buyer.credits.add(msg.value);\n        emit LogDepositCredits(to, msg.value);\n    }\n\n    // ------------------------------------------------------------------------\n    // Lets a buyer withdraw credits\n    // ------------------------------------------------------------------------\n    function withdrawCredits(uint amount) public {\n        BuyerInfo storage buyer = buyers[msg.sender];\n        require(buyer.credits >= amount);\n        buyer.credits = buyer.credits.sub(amount);\n        msg.sender.transfer(amount);\n        emit LogWithdrawCredits(msg.sender, amount);\n    }\n\n    // ------------------------------------------------------------------------\n    // Get the length of array of buyers who have a nonzero balance for a given API\n    // ------------------------------------------------------------------------\n    function nonzeroAddressesElementForApi(uint apiId, uint index) public view returns (address) {\n        APIBalance storage apiBalance = owed[apiId];\n        return apiBalance.nonzeroAddresses[index];\n    }\n\n    // ------------------------------------------------------------------------\n    // Get an element from the array of buyers who have a nonzero balance for a given API\n    // ------------------------------------------------------------------------\n    function nonzeroAddressesLengthForApi(uint apiId) public view returns (uint) {\n        APIBalance storage apiBalance = owed[apiId];\n        return apiBalance.nonzeroAddresses.length;\n    }\n\n    // ------------------------------------------------------------------------\n    // Get the amount owed for a specific api for a specific buyer\n    // ------------------------------------------------------------------------\n    function amountOwedForApiForBuyer(uint apiId, address buyerAddress) public view returns (uint) {\n        APIBalance storage apiBalance = owed[apiId];\n        return apiBalance.amounts[buyerAddress];\n    }\n\n    // ------------------------------------------------------------------------\n    // Get the total owed for an entire api for all nonzero buyers\n    // ------------------------------------------------------------------------\n    function totalOwedForApi(uint apiId) public view returns (uint) {\n        APIBalance storage apiBalance = owed[apiId];\n\n        uint totalOwed = 0;\n        for (uint i = 0; i < apiBalance.nonzeroAddresses.length; i++) {\n            address buyerAddress = apiBalance.nonzeroAddresses[i];\n            uint buyerOwes = apiBalance.amounts[buyerAddress];\n            totalOwed = totalOwed.add(buyerOwes);\n        }\n\n        return totalOwed;\n    }\n\n    // ------------------------------------------------------------------------\n    // Gets the amount of wei per second a buyer has approved for a specific api\n    // ------------------------------------------------------------------------\n    function approvedAmount(uint apiId, address buyerAddress) public view returns (uint) {\n        return buyers[buyerAddress].approvedAmounts[apiId];\n    }\n\n    // ------------------------------------------------------------------------\n    // Let the buyer set an approved amount of wei per second for a specific api\n    // ------------------------------------------------------------------------\n    function approveAmount(uint apiId, address buyerAddress, uint newAmount) public {\n        require(buyerAddress != address(0) && apiId != 0);\n\n        // only the buyer or the usage reporing system can change the buyers approval amount\n        require(msg.sender == buyerAddress || msg.sender == usageReportingAddress);\n\n        BuyerInfo storage buyer = buyers[buyerAddress];\n        buyer.approvedAmounts[apiId] = newAmount;\n    }\n\n    // ------------------------------------------------------------------------\n    // function to let the buyer set their approved amount of wei per second for an api\n    // this function also lets the buyer set the time they last paid for an API if they've never paid that API before.  \n    // this is important because the total amount approved for a given transaction is based on a wei per second spending limit\n    // but the smart contract doesn't know when the buyer started using the API\n    // so with this function, a buyer can et the time they first used the API and the approved amount calculations will be accurate when the seller requests payment.\n    // ------------------------------------------------------------------------\n    function approveAmountAndSetFirstUseTime(\n        uint apiId, \n        address buyerAddress, \n        uint newAmount, \n        uint firstUseTime\n    ) \n        public \n    {\n        require(buyerAddress != address(0) && apiId != 0);\n\n        // only the buyer or the usage reporing system can change the buyers approval amount\n        require(msg.sender == buyerAddress || msg.sender == usageReportingAddress);\n\n        APIBalance storage apiBalance = owed[apiId];\n        require(apiBalance.buyerLastPaidAt[buyerAddress] == 0);\n\n        apiBalance.buyerLastPaidAt[buyerAddress] = firstUseTime;\n        \n        BuyerInfo storage buyer = buyers[buyerAddress];\n        buyer.approvedAmounts[apiId] = newAmount;\n\n    }\n\n    // ------------------------------------------------------------------------\n    // Gets whether or not a buyer exceeded their approved amount in the last seller payout\n    // ------------------------------------------------------------------------\n    function buyerExceededApprovedAmount(uint apiId, address buyerAddress) public view returns (bool) {\n        return buyers[buyerAddress].exceededApprovedAmount[apiId];\n    }\n\n    // ------------------------------------------------------------------------\n    // Reward user with tokens IF the contract has them in it's allowance\n    // ------------------------------------------------------------------------\n    function rewardTokens(address toReward, uint amount) private {\n        DeconetToken token = DeconetToken(tokenContractAddress);\n        address tokenOwner = token.owner();\n\n        // check balance of tokenOwner\n        uint tokenOwnerBalance = token.balanceOf(tokenOwner);\n        uint tokenOwnerAllowance = token.allowance(tokenOwner, address(this));\n        if (tokenOwnerBalance >= amount && tokenOwnerAllowance >= amount) {\n            token.transferFrom(tokenOwner, toReward, amount);\n        }\n    }\n\n    // ------------------------------------------------------------------------\n    // Process and settle balances for a single buyer for a specific api\n    // ------------------------------------------------------------------------\n    function processSalesForSingleBuyer(uint apiId, address buyerAddress) private returns (uint) {\n        APIBalance storage apiBalance = owed[apiId];\n\n        uint buyerOwes = apiBalance.amounts[buyerAddress];\n        uint buyerLastPaidAtTime = apiBalance.buyerLastPaidAt[buyerAddress];\n        if (buyerLastPaidAtTime == 0) {\n            // if buyer has never paid, assume they paid a week ago.  or whatever now - defaultBuyerLastPaidAt is.\n            buyerLastPaidAtTime = now - defaultBuyerLastPaidAt; // default is 604,800 = 7 days of seconds\n        }\n        uint elapsedSecondsSinceLastPayout = now - buyerLastPaidAtTime;\n        uint buyerNowOwes = buyerOwes;\n        uint buyerPaid = 0;\n        bool overdrafted = false;\n\n        (buyerPaid, overdrafted) = chargeBuyer(apiId, buyerAddress, elapsedSecondsSinceLastPayout, buyerOwes);\n\n        buyerNowOwes = buyerOwes.sub(buyerPaid);\n        apiBalance.amounts[buyerAddress] = buyerNowOwes;\n\n        // if the buyer now owes zero, then remove them from nonzeroAddresses\n        if (buyerNowOwes != 0) {\n            removeAddressFromNonzeroBalancesArray(apiId, buyerAddress);\n        }\n        // if the buyer paid nothing, we are done here.\n        if (buyerPaid == 0) {\n            return 0;\n        }\n\n        // log the event\n        emit LogSpendCredits(buyerAddress, apiId, buyerPaid, overdrafted);\n\n        // log that they paid\n        apiBalance.buyerLastPaidAt[buyerAddress] = now;\n        \n        return buyerPaid;\n    }\n\n    // ------------------------------------------------------------------------\n    // Process and settle balances for all buyers with a nonzero balance for a specific api\n    // ------------------------------------------------------------------------\n    function processSalesForAllBuyers(uint apiId) private returns (uint totalPayable, uint totalBuyers) {\n        APIBalance storage apiBalance = owed[apiId];\n\n        uint currentTime = now;\n        address[] memory oldNonzeroAddresses = apiBalance.nonzeroAddresses;\n        apiBalance.nonzeroAddresses = new address[](0);\n\n        for (uint i = 0; i < oldNonzeroAddresses.length; i++) {\n            address buyerAddress = oldNonzeroAddresses[i];\n            uint buyerOwes = apiBalance.amounts[buyerAddress];\n            uint buyerLastPaidAtTime = apiBalance.buyerLastPaidAt[buyerAddress];\n            if (buyerLastPaidAtTime == 0) {\n                // if buyer has never paid, assume they paid a week ago.  or whatever now - defaultBuyerLastPaidAt is.\n                buyerLastPaidAtTime = now - defaultBuyerLastPaidAt; // default is 604,800 = 7 days of seconds\n            }\n            uint elapsedSecondsSinceLastPayout = currentTime - buyerLastPaidAtTime;\n            uint buyerNowOwes = buyerOwes;\n            uint buyerPaid = 0;\n            bool overdrafted = false;\n\n            (buyerPaid, overdrafted) = chargeBuyer(apiId, buyerAddress, elapsedSecondsSinceLastPayout, buyerOwes);\n\n            totalPayable = totalPayable.add(buyerPaid);\n            buyerNowOwes = buyerOwes.sub(buyerPaid);\n            apiBalance.amounts[buyerAddress] = buyerNowOwes;\n\n            // if the buyer still owes something, make sure we keep them in the nonzeroAddresses array\n            if (buyerNowOwes != 0) {\n                apiBalance.nonzeroAddresses.push(buyerAddress);\n            }\n            // if the buyer paid more than 0, log the spend.\n            if (buyerPaid != 0) {\n                // log the event\n                emit LogSpendCredits(buyerAddress, apiId, buyerPaid, overdrafted);\n\n                // log that they paid\n                apiBalance.buyerLastPaidAt[buyerAddress] = now;\n\n                // add to total buyer count\n                totalBuyers += 1;\n            }\n        }\n    }\n\n    // ------------------------------------------------------------------------\n    // given a specific buyer, api, and the amount they owe, we need to figure out how much to pay\n    // the final amount paid is based on the chart below:\n    // if credits >= approved >= owed then pay owed\n    // if credits >= owed > approved then pay approved and mark as exceeded approved amount\n    // if owed > credits >= approved then pay approved and mark as overdrafted\n    // if owed > approved > credits then pay credits and mark as overdrafted\n    // ------------------------------------------------------------------------\n    function chargeBuyer(\n        uint apiId, \n        address buyerAddress, \n        uint elapsedSecondsSinceLastPayout, \n        uint buyerOwes\n    ) \n        private \n        returns (\n            uint paid, \n            bool overdrafted\n        ) \n    {\n        BuyerInfo storage buyer = buyers[buyerAddress];\n        uint approvedAmountPerSecond = buyer.approvedAmounts[apiId];\n        uint approvedAmountSinceLastPayout = approvedAmountPerSecond.mul(elapsedSecondsSinceLastPayout);\n        \n        // do we have the credits to pay owed?\n        if (buyer.credits >= buyerOwes) {\n            // yay, buyer can pay their debits\n            overdrafted = false;\n            buyer.overdrafted = false;\n\n            // has buyer approved enough to pay what they owe?\n            if (approvedAmountSinceLastPayout >= buyerOwes) {\n                // approved is greater than owed.  \n                // mark as not exceeded approved amount\n                buyer.exceededApprovedAmount[apiId] = false;\n\n                // we can pay the entire debt\n                paid = buyerOwes;\n\n            } else {\n                // they have no approved enough\n                // mark as exceeded\n                buyer.exceededApprovedAmount[apiId] = true;\n                buyer.lifetimeExceededApprovalAmountCount += 1;\n\n                // we can only pay the approved portion of the debt\n                paid = approvedAmountSinceLastPayout;\n            }\n        } else {\n            // buyer spent more than they have.  mark as overdrafted\n            overdrafted = true;\n            buyer.overdrafted = true;\n            buyer.lifetimeOverdraftCount += 1;\n\n            // does buyer have more credits than the amount they've approved?\n            if (buyer.credits >= approvedAmountSinceLastPayout) {\n                // they have enough credits to pay approvedAmountSinceLastPayout, so pay that\n                paid = approvedAmountSinceLastPayout;\n\n            } else {\n                // the don't have enough credits to pay approvedAmountSinceLastPayout\n                // so just pay whatever credits they have\n                paid = buyer.credits;\n            }\n        }\n\n        buyer.credits = buyer.credits.sub(paid);\n        buyer.lifetimeCreditsUsed = buyer.lifetimeCreditsUsed.add(paid);\n    }\n\n    function removeAddressFromNonzeroBalancesArray(uint apiId, address toRemove) private {\n        APIBalance storage apiBalance = owed[apiId];\n\n        bool foundElement = false;\n\n        for (uint i = 0; i < apiBalance.nonzeroAddresses.length-1; i++) {\n            if (apiBalance.nonzeroAddresses[i] == toRemove) {\n                foundElement = true;\n            }\n            if (foundElement == true) {\n                apiBalance.nonzeroAddresses[i] = apiBalance.nonzeroAddresses[i+1];\n            }\n        }\n        if (foundElement == true) {\n            apiBalance.nonzeroAddresses.length--;\n        }\n    }\n}\n",
  "sourcePath": "/Users/chris/Documents/WorkStuff/Deconet/Blockchain/DeconetToken/contracts/APICalls.sol",
  "compiler": {
    "name": "solc",
    "version": "0.4.24+commit.e67f0147.Emscripten.clang"
  },
  "schemaVersion": "2.0.1",
  "updatedAt": "2018-07-21T01:38:51.782Z"
}