{
  "contractName": "APICalls",
  "abi": [
    {
      "constant": true,
      "inputs": [],
      "name": "saleFee",
      "outputs": [
        {
          "name": "",
          "type": "uint256"
        }
      ],
      "payable": false,
      "stateMutability": "view",
      "type": "function"
    },
    {
      "constant": true,
      "inputs": [],
      "name": "version",
      "outputs": [
        {
          "name": "",
          "type": "uint256"
        }
      ],
      "payable": false,
      "stateMutability": "view",
      "type": "function"
    },
    {
      "constant": true,
      "inputs": [],
      "name": "tokenReward",
      "outputs": [
        {
          "name": "",
          "type": "uint256"
        }
      ],
      "payable": false,
      "stateMutability": "view",
      "type": "function"
    },
    {
      "constant": true,
      "inputs": [],
      "name": "tokenContractAddress",
      "outputs": [
        {
          "name": "",
          "type": "address"
        }
      ],
      "payable": false,
      "stateMutability": "view",
      "type": "function"
    },
    {
      "constant": true,
      "inputs": [],
      "name": "owner",
      "outputs": [
        {
          "name": "",
          "type": "address"
        }
      ],
      "payable": false,
      "stateMutability": "view",
      "type": "function"
    },
    {
      "constant": true,
      "inputs": [],
      "name": "relayContractAddress",
      "outputs": [
        {
          "name": "",
          "type": "address"
        }
      ],
      "payable": false,
      "stateMutability": "view",
      "type": "function"
    },
    {
      "constant": false,
      "inputs": [
        {
          "name": "newOwner",
          "type": "address"
        }
      ],
      "name": "transferOwnership",
      "outputs": [],
      "payable": false,
      "stateMutability": "nonpayable",
      "type": "function"
    },
    {
      "inputs": [],
      "payable": false,
      "stateMutability": "nonpayable",
      "type": "constructor"
    },
    {
      "anonymous": false,
      "inputs": [
        {
          "indexed": false,
          "name": "apiId",
          "type": "uint256"
        },
        {
          "indexed": true,
          "name": "sellerAddress",
          "type": "address"
        },
        {
          "indexed": true,
          "name": "buyerAddress",
          "type": "address"
        },
        {
          "indexed": false,
          "name": "pricePerCall",
          "type": "uint256"
        },
        {
          "indexed": false,
          "name": "numCalls",
          "type": "uint256"
        },
        {
          "indexed": false,
          "name": "totalPrice",
          "type": "uint256"
        },
        {
          "indexed": false,
          "name": "reportingAddress",
          "type": "address"
        }
      ],
      "name": "LogAPICallsMade",
      "type": "event"
    },
    {
      "anonymous": false,
      "inputs": [
        {
          "indexed": false,
          "name": "apiId",
          "type": "uint256"
        },
        {
          "indexed": true,
          "name": "sellerAddress",
          "type": "address"
        },
        {
          "indexed": false,
          "name": "totalPrice",
          "type": "uint256"
        },
        {
          "indexed": false,
          "name": "rewardedTokens",
          "type": "uint256"
        },
        {
          "indexed": false,
          "name": "networkFee",
          "type": "uint256"
        }
      ],
      "name": "LogAPICallsPaid",
      "type": "event"
    },
    {
      "anonymous": false,
      "inputs": [
        {
          "indexed": true,
          "name": "buyerAddress",
          "type": "address"
        },
        {
          "indexed": false,
          "name": "apiId",
          "type": "uint256"
        },
        {
          "indexed": false,
          "name": "amount",
          "type": "uint256"
        },
        {
          "indexed": false,
          "name": "causedAnOverdraft",
          "type": "bool"
        }
      ],
      "name": "LogSpendCredits",
      "type": "event"
    },
    {
      "anonymous": false,
      "inputs": [
        {
          "indexed": true,
          "name": "buyerAddress",
          "type": "address"
        },
        {
          "indexed": false,
          "name": "amount",
          "type": "uint256"
        }
      ],
      "name": "LogDepositCredits",
      "type": "event"
    },
    {
      "anonymous": false,
      "inputs": [
        {
          "indexed": true,
          "name": "buyerAddress",
          "type": "address"
        },
        {
          "indexed": false,
          "name": "amount",
          "type": "uint256"
        }
      ],
      "name": "LogWithdrawCredits",
      "type": "event"
    },
    {
      "anonymous": false,
      "inputs": [
        {
          "indexed": true,
          "name": "previousOwner",
          "type": "address"
        },
        {
          "indexed": true,
          "name": "newOwner",
          "type": "address"
        }
      ],
      "name": "OwnershipTransferred",
      "type": "event"
    },
    {
      "constant": false,
      "inputs": [
        {
          "name": "tokenAddress",
          "type": "address"
        },
        {
          "name": "tokens",
          "type": "uint256"
        }
      ],
      "name": "transferAnyERC20Token",
      "outputs": [
        {
          "name": "success",
          "type": "bool"
        }
      ],
      "payable": false,
      "stateMutability": "nonpayable",
      "type": "function"
    },
    {
      "constant": false,
      "inputs": [
        {
          "name": "amount",
          "type": "uint256"
        }
      ],
      "name": "withdrawEther",
      "outputs": [],
      "payable": false,
      "stateMutability": "nonpayable",
      "type": "function"
    },
    {
      "constant": false,
      "inputs": [
        {
          "name": "_withdrawAddress",
          "type": "address"
        }
      ],
      "name": "setWithdrawAddress",
      "outputs": [],
      "payable": false,
      "stateMutability": "nonpayable",
      "type": "function"
    },
    {
      "constant": false,
      "inputs": [
        {
          "name": "_usageReportingAddress",
          "type": "address"
        }
      ],
      "name": "setUsageReportingAddress",
      "outputs": [],
      "payable": false,
      "stateMutability": "nonpayable",
      "type": "function"
    },
    {
      "constant": false,
      "inputs": [
        {
          "name": "_relayContractAddress",
          "type": "address"
        }
      ],
      "name": "setRelayContractAddress",
      "outputs": [],
      "payable": false,
      "stateMutability": "nonpayable",
      "type": "function"
    },
    {
      "constant": false,
      "inputs": [
        {
          "name": "_tokenContractAddress",
          "type": "address"
        }
      ],
      "name": "setTokenContractAddress",
      "outputs": [],
      "payable": false,
      "stateMutability": "nonpayable",
      "type": "function"
    },
    {
      "constant": false,
      "inputs": [
        {
          "name": "_tokenReward",
          "type": "uint256"
        }
      ],
      "name": "setTokenReward",
      "outputs": [],
      "payable": false,
      "stateMutability": "nonpayable",
      "type": "function"
    },
    {
      "constant": false,
      "inputs": [
        {
          "name": "_saleFee",
          "type": "uint256"
        }
      ],
      "name": "setSaleFee",
      "outputs": [],
      "payable": false,
      "stateMutability": "nonpayable",
      "type": "function"
    },
    {
      "constant": false,
      "inputs": [
        {
          "name": "apiId",
          "type": "uint256"
        },
        {
          "name": "numCalls",
          "type": "uint256"
        },
        {
          "name": "buyerAddress",
          "type": "address"
        }
      ],
      "name": "reportUsage",
      "outputs": [],
      "payable": false,
      "stateMutability": "nonpayable",
      "type": "function"
    },
    {
      "constant": false,
      "inputs": [
        {
          "name": "apiId",
          "type": "uint256"
        },
        {
          "name": "buyerAddress",
          "type": "address"
        }
      ],
      "name": "paySellerForBuyer",
      "outputs": [],
      "payable": false,
      "stateMutability": "nonpayable",
      "type": "function"
    },
    {
      "constant": false,
      "inputs": [
        {
          "name": "apiId",
          "type": "uint256"
        }
      ],
      "name": "paySeller",
      "outputs": [],
      "payable": false,
      "stateMutability": "nonpayable",
      "type": "function"
    },
    {
      "constant": true,
      "inputs": [
        {
          "name": "addr",
          "type": "address"
        }
      ],
      "name": "buyerInfoOf",
      "outputs": [
        {
          "name": "overdrafted",
          "type": "bool"
        },
        {
          "name": "lifetimeOverdraftCount",
          "type": "uint256"
        },
        {
          "name": "credits",
          "type": "uint256"
        },
        {
          "name": "lifetimeCreditsUsed",
          "type": "uint256"
        },
        {
          "name": "lifetimeExceededApprovalAmountCount",
          "type": "uint256"
        }
      ],
      "payable": false,
      "stateMutability": "view",
      "type": "function"
    },
    {
      "constant": true,
      "inputs": [
        {
          "name": "addr",
          "type": "address"
        }
      ],
      "name": "creditsBalanceOf",
      "outputs": [
        {
          "name": "",
          "type": "uint256"
        }
      ],
      "payable": false,
      "stateMutability": "view",
      "type": "function"
    },
    {
      "constant": false,
      "inputs": [
        {
          "name": "to",
          "type": "address"
        }
      ],
      "name": "addCredits",
      "outputs": [],
      "payable": true,
      "stateMutability": "payable",
      "type": "function"
    },
    {
      "constant": false,
      "inputs": [
        {
          "name": "amount",
          "type": "uint256"
        }
      ],
      "name": "withdrawCredits",
      "outputs": [],
      "payable": false,
      "stateMutability": "nonpayable",
      "type": "function"
    },
    {
      "constant": true,
      "inputs": [
        {
          "name": "apiId",
          "type": "uint256"
        },
        {
          "name": "index",
          "type": "uint256"
        }
      ],
      "name": "nonzeroAddressesElementForApi",
      "outputs": [
        {
          "name": "",
          "type": "address"
        }
      ],
      "payable": false,
      "stateMutability": "view",
      "type": "function"
    },
    {
      "constant": true,
      "inputs": [
        {
          "name": "apiId",
          "type": "uint256"
        }
      ],
      "name": "nonzeroAddressesLengthForApi",
      "outputs": [
        {
          "name": "",
          "type": "uint256"
        }
      ],
      "payable": false,
      "stateMutability": "view",
      "type": "function"
    },
    {
      "constant": true,
      "inputs": [
        {
          "name": "apiId",
          "type": "uint256"
        }
      ],
      "name": "totalOwedForApi",
      "outputs": [
        {
          "name": "",
          "type": "uint256"
        }
      ],
      "payable": false,
      "stateMutability": "view",
      "type": "function"
    },
    {
      "constant": true,
      "inputs": [
        {
          "name": "apiId",
          "type": "uint256"
        },
        {
          "name": "buyerAddress",
          "type": "address"
        }
      ],
      "name": "approvedAmount",
      "outputs": [
        {
          "name": "",
          "type": "uint256"
        }
      ],
      "payable": false,
      "stateMutability": "view",
      "type": "function"
    },
    {
      "constant": false,
      "inputs": [
        {
          "name": "apiId",
          "type": "uint256"
        },
        {
          "name": "buyerAddress",
          "type": "address"
        },
        {
          "name": "newAmount",
          "type": "uint256"
        }
      ],
      "name": "approveAmount",
      "outputs": [],
      "payable": false,
      "stateMutability": "nonpayable",
      "type": "function"
    },
    {
      "constant": true,
      "inputs": [
        {
          "name": "apiId",
          "type": "uint256"
        },
        {
          "name": "buyerAddress",
          "type": "address"
        }
      ],
      "name": "buyerExceededApprovedAmount",
      "outputs": [
        {
          "name": "",
          "type": "bool"
        }
      ],
      "payable": false,
      "stateMutability": "view",
      "type": "function"
    }
  ],
  "bytecode": "0x6060604052341561000f57600080fd5b336000806101000a81548173ffffffffffffffffffffffffffffffffffffffff021916908373ffffffffffffffffffffffffffffffffffffffff160217905550600160058190555068056bc75e2d63100000600181905550600a60028190555033600660006101000a81548173ffffffffffffffffffffffffffffffffffffffff021916908373ffffffffffffffffffffffffffffffffffffffff16021790555033600860006101000a81548173ffffffffffffffffffffffffffffffffffffffff021916908373ffffffffffffffffffffffffffffffffffffffff160217905550613027806101006000396000f30060606040526004361061016a576000357c0100000000000000000000000000000000000000000000000000000000900463ffffffff16806309ed17821461016f5780630ac5f44114610192578063178021e3146101d45780632d2bcd37146101fd57806335e4d30f146102365780633ab1a494146102a25780633bed33ce146102db57806344e2f9ad146102fe5780634fe01d381461036b57806354fd4d501461038e57806368302467146103b757806368aafcd9146103da5780636905877a146104135780636e66f6e91461044a57806382edaf941461047357806388065236146104c85780638da5cb5b1461051e5780638eee1cd6146105735780638f49ccf4146105cd578063a38b68cb14610618578063b23d48541461064f578063bdcafc5514610688578063c216c0d3146106ab578063dc39d06d146106d9578063dfa93d6414610733578063f2fde38b14610788578063f44b43f8146107c1578063f9854bfc1461080c575b600080fd5b341561017a57600080fd5b6101906004808035906020019091905050610859565b005b341561019d57600080fd5b6101d2600480803590602001909190803573ffffffffffffffffffffffffffffffffffffffff16906020019091905050610960565b005b34156101df57600080fd5b6101e7610c6f565b6040518082815260200191505060405180910390f35b341561020857600080fd5b610234600480803573ffffffffffffffffffffffffffffffffffffffff16906020019091905050610c75565b005b341561024157600080fd5b6102606004808035906020019091908035906020019091905050610d50565b604051808273ffffffffffffffffffffffffffffffffffffffff1673ffffffffffffffffffffffffffffffffffffffff16815260200191505060405180910390f35b34156102ad57600080fd5b6102d9600480803573ffffffffffffffffffffffffffffffffffffffff16906020019091905050610dae565b005b34156102e657600080fd5b6102fc6004808035906020019091905050610e89565b005b341561030957600080fd5b610335600480803573ffffffffffffffffffffffffffffffffffffffff16906020019091905050610f9c565b60405180861515151581526020018581526020018481526020018381526020018281526020019550505050505060405180910390f35b341561037657600080fd5b61038c6004808035906020019091905050611020565b005b341561039957600080fd5b6103a1611085565b6040518082815260200191505060405180910390f35b34156103c257600080fd5b6103d8600480803590602001909190505061108b565b005b34156103e557600080fd5b610411600480803573ffffffffffffffffffffffffffffffffffffffff169060200190919050506113be565b005b341561041e57600080fd5b6104346004808035906020019091905050611499565b6040518082815260200191505060405180910390f35b341561045557600080fd5b61045d611581565b6040518082815260200191505060405180910390f35b341561047e57600080fd5b610486611587565b604051808273ffffffffffffffffffffffffffffffffffffffff1673ffffffffffffffffffffffffffffffffffffffff16815260200191505060405180910390f35b34156104d357600080fd5b610508600480803590602001909190803573ffffffffffffffffffffffffffffffffffffffff169060200190919050506115ad565b6040518082815260200191505060405180910390f35b341561052957600080fd5b61053161160b565b604051808273ffffffffffffffffffffffffffffffffffffffff1673ffffffffffffffffffffffffffffffffffffffff16815260200191505060405180910390f35b341561057e57600080fd5b6105b3600480803590602001909190803573ffffffffffffffffffffffffffffffffffffffff16906020019091905050611630565b604051808215151515815260200191505060405180910390f35b34156105d857600080fd5b610616600480803590602001909190803590602001909190803573ffffffffffffffffffffffffffffffffffffffff1690602001909190505061169b565b005b341561062357600080fd5b6106396004808035906020019091905050611b42565b6040518082815260200191505060405180910390f35b341561065a57600080fd5b610686600480803573ffffffffffffffffffffffffffffffffffffffff16906020019091905050611b6a565b005b341561069357600080fd5b6106a96004808035906020019091905050611c45565b005b6106d7600480803573ffffffffffffffffffffffffffffffffffffffff16906020019091905050611caa565b005b34156106e457600080fd5b610719600480803573ffffffffffffffffffffffffffffffffffffffff16906020019091908035906020019091905050611d5e565b604051808215151515815260200191505060405180910390f35b341561073e57600080fd5b610746611eaa565b604051808273ffffffffffffffffffffffffffffffffffffffff1673ffffffffffffffffffffffffffffffffffffffff16815260200191505060405180910390f35b341561079357600080fd5b6107bf600480803573ffffffffffffffffffffffffffffffffffffffff16906020019091905050611ed0565b005b34156107cc57600080fd5b61080a600480803590602001909190803573ffffffffffffffffffffffffffffffffffffffff16906020019091908035906020019091905050612025565b005b341561081757600080fd5b610843600480803573ffffffffffffffffffffffffffffffffffffffff16906020019091905050612162565b6040518082815260200191505060405180910390f35b6000600a60003373ffffffffffffffffffffffffffffffffffffffff1673ffffffffffffffffffffffffffffffffffffffff1681526020019081526020016000209050818160020154101515156108af57600080fd5b6108c68282600201546121b390919063ffffffff16565b81600201819055503373ffffffffffffffffffffffffffffffffffffffff166108fc839081150290604051600060405180830381858888f19350505050151561090e57600080fd5b3373ffffffffffffffffffffffffffffffffffffffff167f8320a4c3c11a89c7523cf703d3e175d919c423fb9c2408e2249d3196a1489156836040518082815260200191505060405180910390a25050565b600080600080600080600080600080600360009054906101000a900473ffffffffffffffffffffffffffffffffffffffff1699508973ffffffffffffffffffffffffffffffffffffffff166376b69d776000604051602001526040518163ffffffff167c0100000000000000000000000000000000000000000000000000000000028152600401602060405180830381600087803b1515610a0057600080fd5b6102c65a03f11515610a1157600080fd5b5050506040518051905098508897508773ffffffffffffffffffffffffffffffffffffffff1663261ac2798d6000604051608001526040518263ffffffff167c010000000000000000000000000000000000000000000000000000000002815260040180828152602001915050608060405180830381600087803b1515610a9757600080fd5b6102c65a03f11515610aa857600080fd5b50505060405180519060200180519060200180519060200180519050809750819850829950839a505050505060008714158015610aea57506000866000191614155b8015610afb57506000856000191614155b8015610b345750600073ffffffffffffffffffffffffffffffffffffffff168473ffffffffffffffffffffffffffffffffffffffff1614155b1515610b3f57600080fd5b610b498c8c6121cc565b9250610b866064610b78600254610b6a6064886123d490919063ffffffff16565b61240f90919063ffffffff16565b61240f90919063ffffffff16565b9150610b9b82846121b390919063ffffffff16565b9050816007600082825401925050819055508373ffffffffffffffffffffffffffffffffffffffff167f5b430a575759cc9db812e031edf08ea2ab9974b0811d9cc0b851642cd0713b278d85600154866040518085815260200184815260200183815260200182815260200194505050505060405180910390a2610c218460015461242a565b8373ffffffffffffffffffffffffffffffffffffffff166108fc829081150290604051600060405180830381858888f193505050501515610c6157600080fd5b505050505050505050505050565b60025481565b6000809054906101000a900473ffffffffffffffffffffffffffffffffffffffff1673ffffffffffffffffffffffffffffffffffffffff163373ffffffffffffffffffffffffffffffffffffffff16141515610cd057600080fd5b600073ffffffffffffffffffffffffffffffffffffffff168173ffffffffffffffffffffffffffffffffffffffff1614151515610d0c57600080fd5b80600360006101000a81548173ffffffffffffffffffffffffffffffffffffffff021916908373ffffffffffffffffffffffffffffffffffffffff16021790555050565b6000806009600085815260200190815260200160002090508060010183815481101515610d7957fe5b906000526020600020900160009054906101000a900473ffffffffffffffffffffffffffffffffffffffff1691505092915050565b6000809054906101000a900473ffffffffffffffffffffffffffffffffffffffff1673ffffffffffffffffffffffffffffffffffffffff163373ffffffffffffffffffffffffffffffffffffffff16141515610e0957600080fd5b600073ffffffffffffffffffffffffffffffffffffffff168173ffffffffffffffffffffffffffffffffffffffff1614151515610e4557600080fd5b80600660006101000a81548173ffffffffffffffffffffffffffffffffffffffff021916908373ffffffffffffffffffffffffffffffffffffffff16021790555050565b600660009054906101000a900473ffffffffffffffffffffffffffffffffffffffff1673ffffffffffffffffffffffffffffffffffffffff163373ffffffffffffffffffffffffffffffffffffffff16141515610ee557600080fd5b3073ffffffffffffffffffffffffffffffffffffffff16318111151515610f0b57600080fd5b6007548111151515610f1c57600080fd5b610f31816007546121b390919063ffffffff16565b600781905550600660009054906101000a900473ffffffffffffffffffffffffffffffffffffffff1673ffffffffffffffffffffffffffffffffffffffff166108fc829081150290604051600060405180830381858888f193505050501515610f9957600080fd5b50565b600080600080600080600a60008873ffffffffffffffffffffffffffffffffffffffff1673ffffffffffffffffffffffffffffffffffffffff16815260200190815260200160002090508060000160009054906101000a900460ff169550806001015494508060020154935080600301549250806006015491505091939590929450565b6000809054906101000a900473ffffffffffffffffffffffffffffffffffffffff1673ffffffffffffffffffffffffffffffffffffffff163373ffffffffffffffffffffffffffffffffffffffff1614151561107b57600080fd5b8060018190555050565b60055481565b600080600080600080600080600080600080600360009054906101000a900473ffffffffffffffffffffffffffffffffffffffff169b508b73ffffffffffffffffffffffffffffffffffffffff166376b69d776000604051602001526040518163ffffffff167c0100000000000000000000000000000000000000000000000000000000028152600401602060405180830381600087803b151561112e57600080fd5b6102c65a03f1151561113f57600080fd5b505050604051805190509a508a99508973ffffffffffffffffffffffffffffffffffffffff1663261ac2798e6000604051608001526040518263ffffffff167c010000000000000000000000000000000000000000000000000000000002815260040180828152602001915050608060405180830381600087803b15156111c557600080fd5b6102c65a03f115156111d657600080fd5b50505060405180519060200180519060200180519060200180519050809950819a50829b50839c50505050506000891415801561121857506000886000191614155b801561122957506000876000191614155b80156112625750600073ffffffffffffffffffffffffffffffffffffffff168673ffffffffffffffffffffffffffffffffffffffff1614155b151561126d57600080fd5b600094506000935061127e8d6127ab565b80955081965050506112c160646112b36002546112a560648a6123d490919063ffffffff16565b61240f90919063ffffffff16565b61240f90919063ffffffff16565b92506112d683866121b390919063ffffffff16565b9150826007600082825401925050819055506112fd846001546123d490919063ffffffff16565b90508573ffffffffffffffffffffffffffffffffffffffff167f5b430a575759cc9db812e031edf08ea2ab9974b0811d9cc0b851642cd0713b278e8784876040518085815260200184815260200183815260200182815260200194505050505060405180910390a261136f868261242a565b8573ffffffffffffffffffffffffffffffffffffffff166108fc839081150290604051600060405180830381858888f1935050505015156113af57600080fd5b50505050505050505050505050565b6000809054906101000a900473ffffffffffffffffffffffffffffffffffffffff1673ffffffffffffffffffffffffffffffffffffffff163373ffffffffffffffffffffffffffffffffffffffff1614151561141957600080fd5b600073ffffffffffffffffffffffffffffffffffffffff168173ffffffffffffffffffffffffffffffffffffffff161415151561145557600080fd5b80600860006101000a81548173ffffffffffffffffffffffffffffffffffffffff021916908373ffffffffffffffffffffffffffffffffffffffff16021790555050565b60008060008060008060096000888152602001908152602001600020945060009350600092505b84600101805490508310156115745784600101838154811015156114e057fe5b906000526020600020900160009054906101000a900473ffffffffffffffffffffffffffffffffffffffff1691508460000160008373ffffffffffffffffffffffffffffffffffffffff1673ffffffffffffffffffffffffffffffffffffffff1681526020019081526020016000205490506115658185612b2a90919063ffffffff16565b935082806001019350506114c0565b8395505050505050919050565b60015481565b600460009054906101000a900473ffffffffffffffffffffffffffffffffffffffff1681565b6000600a60008373ffffffffffffffffffffffffffffffffffffffff1673ffffffffffffffffffffffffffffffffffffffff168152602001908152602001600020600401600084815260200190815260200160002054905092915050565b6000809054906101000a900473ffffffffffffffffffffffffffffffffffffffff1681565b6000600a60008373ffffffffffffffffffffffffffffffffffffffff1673ffffffffffffffffffffffffffffffffffffffff168152602001908152602001600020600501600084815260200190815260200160002060009054906101000a900460ff16905092915050565b6000806000806000806000806000600360009054906101000a900473ffffffffffffffffffffffffffffffffffffffff1698508873ffffffffffffffffffffffffffffffffffffffff166376b69d776000604051602001526040518163ffffffff167c0100000000000000000000000000000000000000000000000000000000028152600401602060405180830381600087803b151561173a57600080fd5b6102c65a03f1151561174b57600080fd5b5050506040518051905097508796508673ffffffffffffffffffffffffffffffffffffffff1663261ac2798d6000604051608001526040518263ffffffff167c010000000000000000000000000000000000000000000000000000000002815260040180828152602001915050608060405180830381600087803b15156117d157600080fd5b6102c65a03f115156117e257600080fd5b5050506040518051906020018051906020018051906020018051905080965081975082985083995050505050600073ffffffffffffffffffffffffffffffffffffffff168373ffffffffffffffffffffffffffffffffffffffff161415151561184a57600080fd5b8273ffffffffffffffffffffffffffffffffffffffff163373ffffffffffffffffffffffffffffffffffffffff1614806118d15750600860009054906101000a900473ffffffffffffffffffffffffffffffffffffffff1673ffffffffffffffffffffffffffffffffffffffff163373ffffffffffffffffffffffffffffffffffffffff16145b15156118dc57600080fd5b60008560001916141580156118f657506000846000191614155b151561190157600080fd5b6119148b876123d490919063ffffffff16565b915060008211151561192557600080fd5b600960008d8152602001908152602001600020905060008160000160008c73ffffffffffffffffffffffffffffffffffffffff1673ffffffffffffffffffffffffffffffffffffffff1681526020019081526020016000205414156119ea5780600101805480600101828161199a9190612e9d565b916000526020600020900160008c909190916101000a81548173ffffffffffffffffffffffffffffffffffffffff021916908373ffffffffffffffffffffffffffffffffffffffff160217905550505b611a3e828260000160008d73ffffffffffffffffffffffffffffffffffffffff1673ffffffffffffffffffffffffffffffffffffffff16815260200190815260200160002054612b2a90919063ffffffff16565b8160000160008c73ffffffffffffffffffffffffffffffffffffffff1673ffffffffffffffffffffffffffffffffffffffff168152602001908152602001600020819055508973ffffffffffffffffffffffffffffffffffffffff168373ffffffffffffffffffffffffffffffffffffffff167fe000b526d00ac563daef41443c79e488cc5350a03b076e3ec9c924c649315d958e898f8733604051808681526020018581526020018481526020018381526020018273ffffffffffffffffffffffffffffffffffffffff1673ffffffffffffffffffffffffffffffffffffffff1681526020019550505050505060405180910390a3505050505050505050505050565b6000806009600084815260200190815260200160002090508060010180549050915050919050565b6000809054906101000a900473ffffffffffffffffffffffffffffffffffffffff1673ffffffffffffffffffffffffffffffffffffffff163373ffffffffffffffffffffffffffffffffffffffff16141515611bc557600080fd5b600073ffffffffffffffffffffffffffffffffffffffff168173ffffffffffffffffffffffffffffffffffffffff1614151515611c0157600080fd5b80600460006101000a81548173ffffffffffffffffffffffffffffffffffffffff021916908373ffffffffffffffffffffffffffffffffffffffff16021790555050565b6000809054906101000a900473ffffffffffffffffffffffffffffffffffffffff1673ffffffffffffffffffffffffffffffffffffffff163373ffffffffffffffffffffffffffffffffffffffff16141515611ca057600080fd5b8060028190555050565b6000600a60008373ffffffffffffffffffffffffffffffffffffffff1673ffffffffffffffffffffffffffffffffffffffff1681526020019081526020016000209050611d04348260020154612b2a90919063ffffffff16565b81600201819055508173ffffffffffffffffffffffffffffffffffffffff167f86f8e33b41070d06fb89c32da953989505fce79d2f2de15c71992c57e8e75339346040518082815260200191505060405180910390a25050565b60008060009054906101000a900473ffffffffffffffffffffffffffffffffffffffff1673ffffffffffffffffffffffffffffffffffffffff163373ffffffffffffffffffffffffffffffffffffffff16141515611dbb57600080fd5b8273ffffffffffffffffffffffffffffffffffffffff1663a9059cbb6000809054906101000a900473ffffffffffffffffffffffffffffffffffffffff16846000604051602001526040518363ffffffff167c0100000000000000000000000000000000000000000000000000000000028152600401808373ffffffffffffffffffffffffffffffffffffffff1673ffffffffffffffffffffffffffffffffffffffff16815260200182815260200192505050602060405180830381600087803b1515611e8757600080fd5b6102c65a03f11515611e9857600080fd5b50505060405180519050905092915050565b600360009054906101000a900473ffffffffffffffffffffffffffffffffffffffff1681565b6000809054906101000a900473ffffffffffffffffffffffffffffffffffffffff1673ffffffffffffffffffffffffffffffffffffffff163373ffffffffffffffffffffffffffffffffffffffff16141515611f2b57600080fd5b600073ffffffffffffffffffffffffffffffffffffffff168173ffffffffffffffffffffffffffffffffffffffff1614151515611f6757600080fd5b8073ffffffffffffffffffffffffffffffffffffffff166000809054906101000a900473ffffffffffffffffffffffffffffffffffffffff1673ffffffffffffffffffffffffffffffffffffffff167f8be0079c531659141344cd1fd0a4f28419497f9722a3daafe3b4186f6b6457e060405160405180910390a3806000806101000a81548173ffffffffffffffffffffffffffffffffffffffff021916908373ffffffffffffffffffffffffffffffffffffffff16021790555050565b60008073ffffffffffffffffffffffffffffffffffffffff168373ffffffffffffffffffffffffffffffffffffffff1614158015612064575060008414155b151561206f57600080fd5b8273ffffffffffffffffffffffffffffffffffffffff163373ffffffffffffffffffffffffffffffffffffffff1614806120f65750600860009054906101000a900473ffffffffffffffffffffffffffffffffffffffff1673ffffffffffffffffffffffffffffffffffffffff163373ffffffffffffffffffffffffffffffffffffffff16145b151561210157600080fd5b600a60008473ffffffffffffffffffffffffffffffffffffffff1673ffffffffffffffffffffffffffffffffffffffff1681526020019081526020016000209050818160040160008681526020019081526020016000208190555050505050565b600080600a60008473ffffffffffffffffffffffffffffffffffffffff1673ffffffffffffffffffffffffffffffffffffffff16815260200190815260200160002090508060020154915050919050565b60008282111515156121c157fe5b818303905092915050565b600080600080600080600080600960008b815260200190815260200160002096508660000160008a73ffffffffffffffffffffffffffffffffffffffff1673ffffffffffffffffffffffffffffffffffffffff1681526020019081526020016000205495508660020160008a73ffffffffffffffffffffffffffffffffffffffff1673ffffffffffffffffffffffffffffffffffffffff168152602001908152602001600020549450844203935085925060009150600090506122918a8a8689612b48565b80925081935050506122ac82876121b390919063ffffffff16565b9250828760000160008b73ffffffffffffffffffffffffffffffffffffffff1673ffffffffffffffffffffffffffffffffffffffff16815260200190815260200160002081905550600083141515612309576123088a8a612d11565b5b600082141561231b57600097506123c7565b8873ffffffffffffffffffffffffffffffffffffffff167f2917b46ea0b473a61e5205f9790f64817088b9a82eb47ca1256e2c3302826d6c8b84846040518084815260200183815260200182151515158152602001935050505060405180910390a2428760020160008b73ffffffffffffffffffffffffffffffffffffffff1673ffffffffffffffffffffffffffffffffffffffff168152602001908152602001600020819055508197505b5050505050505092915050565b60008060008414156123e95760009150612408565b82840290508284828115156123fa57fe5b0414151561240457fe5b8091505b5092915050565b600080828481151561241d57fe5b0490508091505092915050565b600080600080600460009054906101000a900473ffffffffffffffffffffffffffffffffffffffff1693508373ffffffffffffffffffffffffffffffffffffffff16638da5cb5b6000604051602001526040518163ffffffff167c0100000000000000000000000000000000000000000000000000000000028152600401602060405180830381600087803b15156124c157600080fd5b6102c65a03f115156124d257600080fd5b5050506040518051905092508373ffffffffffffffffffffffffffffffffffffffff166370a08231846000604051602001526040518263ffffffff167c0100000000000000000000000000000000000000000000000000000000028152600401808273ffffffffffffffffffffffffffffffffffffffff1673ffffffffffffffffffffffffffffffffffffffff168152602001915050602060405180830381600087803b151561258157600080fd5b6102c65a03f1151561259257600080fd5b5050506040518051905091508373ffffffffffffffffffffffffffffffffffffffff1663dd62ed3e84306000604051602001526040518363ffffffff167c0100000000000000000000000000000000000000000000000000000000028152600401808373ffffffffffffffffffffffffffffffffffffffff1673ffffffffffffffffffffffffffffffffffffffff1681526020018273ffffffffffffffffffffffffffffffffffffffff1673ffffffffffffffffffffffffffffffffffffffff16815260200192505050602060405180830381600087803b151561267557600080fd5b6102c65a03f1151561268657600080fd5b5050506040518051905090508482101580156126a25750848110155b156127a3578373ffffffffffffffffffffffffffffffffffffffff166323b872dd8488886000604051602001526040518463ffffffff167c0100000000000000000000000000000000000000000000000000000000028152600401808473ffffffffffffffffffffffffffffffffffffffff1673ffffffffffffffffffffffffffffffffffffffff1681526020018373ffffffffffffffffffffffffffffffffffffffff1673ffffffffffffffffffffffffffffffffffffffff1681526020018281526020019350505050602060405180830381600087803b151561278657600080fd5b6102c65a03f1151561279757600080fd5b50505060405180519050505b505050505050565b6000806000806127b9612ec9565b600080600080600080600080600960008f81526020019081526020016000209a504299508a60010180548060200260200160405190810160405280929190818152602001828054801561286157602002820191906000526020600020905b8160009054906101000a900473ffffffffffffffffffffffffffffffffffffffff1673ffffffffffffffffffffffffffffffffffffffff1681526020019060010190808311612817575b5050505050985060006040518059106128775750595b90808252806020026020018201604052508b600101908051906020019061289f929190612edd565b50600097505b8851881015612b1a5788888151811015156128bc57fe5b9060200190602002015196508a60000160008873ffffffffffffffffffffffffffffffffffffffff1673ffffffffffffffffffffffffffffffffffffffff1681526020019081526020016000205495508a60020160008873ffffffffffffffffffffffffffffffffffffffff1673ffffffffffffffffffffffffffffffffffffffff168152602001908152602001600020549450848a039350859250600091506000905061296c8e888689612b48565b8092508193505050612987828e612b2a90919063ffffffff16565b9c5061299c82876121b390919063ffffffff16565b9250828b60000160008973ffffffffffffffffffffffffffffffffffffffff1673ffffffffffffffffffffffffffffffffffffffff16815260200190815260200160002081905550600083141515612a54578a6001018054806001018281612a049190612e9d565b9160005260206000209001600089909190916101000a81548173ffffffffffffffffffffffffffffffffffffffff021916908373ffffffffffffffffffffffffffffffffffffffff160217905550505b600082141515612b0d578673ffffffffffffffffffffffffffffffffffffffff167f2917b46ea0b473a61e5205f9790f64817088b9a82eb47ca1256e2c3302826d6c8f84846040518084815260200183815260200182151515158152602001935050505060405180910390a2428b60020160008973ffffffffffffffffffffffffffffffffffffffff1673ffffffffffffffffffffffffffffffffffffffff1681526020019081526020016000208190555060018c019b505b87806001019850506128a5565b5050505050505050505050915091565b6000808284019050838110151515612b3e57fe5b8091505092915050565b6000806000806000600a60008973ffffffffffffffffffffffffffffffffffffffff1673ffffffffffffffffffffffffffffffffffffffff16815260200190815260200160002092508260040160008a8152602001908152602001600020549150612bbc87836123d490919063ffffffff16565b9050858360020154101515612c75576000935060008360000160006101000a81548160ff0219169083151502179055508581101515612c2b5760008360050160008b815260200190815260200160002060006101000a81548160ff021916908315150217905550859450612c70565b60018360050160008b815260200190815260200160002060006101000a81548160ff021916908315150217905550600183600601600082825401925050819055508094505b612cc7565b6001935060018360000160006101000a81548160ff02191690831515021790555060018360010160008282540192505081905550808360020154101515612cbe57809450612cc6565b826002015494505b5b612cde8584600201546121b390919063ffffffff16565b8360020181905550612cfd858460030154612b2a90919063ffffffff16565b836003018190555050505094509492505050565b600080600060096000868152602001908152602001600020925060009150600090505b6001836001018054905003811015612e70578373ffffffffffffffffffffffffffffffffffffffff168360010182815481101515612d6e57fe5b906000526020600020900160009054906101000a900473ffffffffffffffffffffffffffffffffffffffff1673ffffffffffffffffffffffffffffffffffffffff161415612dbb57600191505b600115158215151415612e63578260010160018201815481101515612ddc57fe5b906000526020600020900160009054906101000a900473ffffffffffffffffffffffffffffffffffffffff168360010182815481101515612e1957fe5b906000526020600020900160006101000a81548173ffffffffffffffffffffffffffffffffffffffff021916908373ffffffffffffffffffffffffffffffffffffffff1602179055505b8080600101915050612d34565b600115158215151415612e965782600101805480919060019003612e949190612f67565b505b5050505050565b815481835581811511612ec457818360005260206000209182019101612ec39190612f93565b5b505050565b602060405190810160405280600081525090565b828054828255906000526020600020908101928215612f56579160200282015b82811115612f555782518260006101000a81548173ffffffffffffffffffffffffffffffffffffffff021916908373ffffffffffffffffffffffffffffffffffffffff16021790555091602001919060010190612efd565b5b509050612f639190612fb8565b5090565b815481835581811511612f8e57818360005260206000209182019101612f8d9190612f93565b5b505050565b612fb591905b80821115612fb1576000816000905550600101612f99565b5090565b90565b612ff891905b80821115612ff457600081816101000a81549073ffffffffffffffffffffffffffffffffffffffff021916905550600101612fbe565b5090565b905600a165627a7a7230582067ff3c2af30d566a00106a3eb3db291355fe19f7cab09baab5e901e9da7807c80029",
  "source": "pragma solidity 0.4.19;\n\nimport \"zeppelin-solidity/contracts/ownership/Ownable.sol\";\nimport \"./Relay.sol\";\nimport \"./APIRegistry.sol\";\nimport \"./DeconetToken.sol\";\nimport \"zeppelin-solidity/contracts/token/ERC20/ERC20.sol\";\n\n\n// ----------------------------------------------------------------------------\n// Records api calls and payment for them\n// ----------------------------------------------------------------------------\ncontract APICalls is Ownable {\n  using SafeMath for uint;\n\n  // the amount rewarded to a seller for selling api calls\n  uint public tokenReward;\n\n  // the fee this contract takes from every sale.  expressed as percent.  so a value of 3 indicates a 3% txn fee\n  uint public saleFee;\n\n  // address of the relay contract which holds the address of the registry contract.\n  address public relayContractAddress;\n\n  // the token address\n  address public tokenContractAddress;\n\n  // this contract version\n  uint public version;\n\n  // the address that is authorized to withdraw eth\n  address private withdrawAddress;\n\n  // the amount that can be safely withdrawn from the contract\n  uint private safeWithdrawAmount;\n\n  // the address that is authorized to report usage on behalf of deconet\n  address private usageReportingAddress;\n\n  // maps apiId to a APIBalance which stores how much each address owes\n  mapping(uint => APIBalance) internal owed;\n\n  // maps buyer addresses to whether or not accounts are overdrafted and more\n  mapping(address => BuyerInfo) internal buyers;\n\n  struct APIBalance {\n    // maps address -> amount owed in wei\n    mapping(address => uint) amounts;\n    // basically a list of keys for the above map\n    address[] nonzeroAddresses;\n    // maps address -> tiemstamp of when buyer last paid\n    mapping(address => uint) buyerLastPaidAt;\n  }\n\n  struct BuyerInfo {\n    // whether or not the account is overdrafted or not\n    bool overdrafted;\n    // total number of overdrafts, ever\n    uint lifetimeOverdraftCount;\n    // credits on file with this contract (wei)\n    uint credits;\n    // total amount of credits used / spent, ever (wei)\n    uint lifetimeCreditsUsed;\n    // maps apiId to approved spending balance for each API per second.\n    mapping(uint => uint) approvedAmounts;\n    // maps apiId to whether or not the user has exceeded their approved amount\n    mapping(uint => bool) exceededApprovedAmount;\n    // total number of times exceededApprovedAmount has happened\n    uint lifetimeExceededApprovalAmountCount;\n  }\n\n  event LogAPICallsMade(\n    uint apiId,\n    address indexed sellerAddress,\n    address indexed buyerAddress,\n    uint pricePerCall,\n    uint numCalls,\n    uint totalPrice,\n    address reportingAddress\n  );\n\n  event LogAPICallsPaid(\n    uint apiId,\n    address indexed sellerAddress,\n    uint totalPrice,\n    uint rewardedTokens,\n    uint networkFee\n  );\n\n  event LogSpendCredits(\n    address indexed buyerAddress,\n    uint apiId,\n    uint amount,\n    bool causedAnOverdraft\n  );\n\n  event LogDepositCredits(\n    address indexed buyerAddress,\n    uint amount\n  );\n\n  event LogWithdrawCredits(\n    address indexed buyerAddress,\n    uint amount\n  );\n\n  // ------------------------------------------------------------------------\n  // Constructor\n  // ------------------------------------------------------------------------\n  function APICalls() public {\n    version = 1;\n\n    // default token reward of 100 tokens.  \n    // token has 18 decimal places so that's why 100 * 10^18\n    tokenReward = 100 * 10**18;\n\n    // default saleFee of 10%\n    saleFee = 10;\n\n    // default withdrawAddress is owner\n    withdrawAddress = msg.sender;\n    usageReportingAddress = msg.sender;\n  }\n\n  // ------------------------------------------------------------------------\n  // Owner can transfer out any accidentally sent ERC20 tokens (just in case)\n  // ------------------------------------------------------------------------\n  function transferAnyERC20Token(address tokenAddress, uint tokens) public onlyOwner returns (bool success) {\n    return ERC20(tokenAddress).transfer(owner, tokens);\n  }\n\n  // ------------------------------------------------------------------------\n  // Owner can transfer out any ETH\n  // ------------------------------------------------------------------------\n  function withdrawEther(uint amount) public {\n    require(msg.sender == withdrawAddress);\n    require(amount <= this.balance);\n    require(amount <= safeWithdrawAmount);\n    safeWithdrawAmount = safeWithdrawAmount.sub(amount);\n    withdrawAddress.transfer(amount);\n  }\n\n  // ------------------------------------------------------------------------\n  // Owner can set address of who can withdraw\n  // ------------------------------------------------------------------------\n  function setWithdrawAddress(address _withdrawAddress) public onlyOwner {\n    require(_withdrawAddress != address(0));\n    withdrawAddress = _withdrawAddress;\n  }\n\n  // ------------------------------------------------------------------------\n  // Owner can set address of who can report usage\n  // ------------------------------------------------------------------------\n  function setUsageReportingAddress(address _usageReportingAddress) public onlyOwner {\n    require(_usageReportingAddress != address(0));\n    usageReportingAddress = _usageReportingAddress;\n  }\n\n  // ------------------------------------------------------------------------\n  // Owner can set address of relay contract\n  // ------------------------------------------------------------------------\n  function setRelayContractAddress(address _relayContractAddress) public onlyOwner {\n    require(_relayContractAddress != address(0));\n    relayContractAddress = _relayContractAddress;\n  }\n\n  // ------------------------------------------------------------------------\n  // Owner can set address of token contract\n  // ------------------------------------------------------------------------\n  function setTokenContractAddress(address _tokenContractAddress) public onlyOwner {\n    require(_tokenContractAddress != address(0));\n    tokenContractAddress = _tokenContractAddress;\n  }\n\n  // ------------------------------------------------------------------------\n  // Owner can set token reward\n  // ------------------------------------------------------------------------\n  function setTokenReward(uint _tokenReward) public onlyOwner {\n    tokenReward = _tokenReward;\n  }\n\n  // ------------------------------------------------------------------------\n  // Owner can set the sale fee\n  // ------------------------------------------------------------------------\n  function setSaleFee(uint _saleFee) public onlyOwner {\n    saleFee = _saleFee;\n  }\n\n  // ------------------------------------------------------------------------\n  // The API owner or the authorized deconet usage reporting address may report usage\n  // ------------------------------------------------------------------------\n  function reportUsage(uint apiId, uint numCalls, address buyerAddress) public {\n    // look up the registry address from relay contract\n    Relay relay = Relay(relayContractAddress);\n    address apiRegistryAddress = relay.apiRegistryContractAddress();\n\n    // get the module info from registry\n    APIRegistry apiRegistry = APIRegistry(apiRegistryAddress);\n\n    uint pricePerCall;\n    bytes32 sellerUsername;\n    bytes32 apiName;\n    address sellerAddress;\n\n    (pricePerCall, sellerUsername, apiName, sellerAddress) = apiRegistry.getApiByIdWithoutDynamics(apiId);\n\n    // // make sure the caller is either the api owner or the deconet reporting address\n    require(sellerAddress != address(0));\n    require(msg.sender == sellerAddress || msg.sender == usageReportingAddress);\n\n    // // make sure the module is actually valid\n    require(sellerUsername != \"\" && apiName != \"\");\n\n    uint totalPrice = pricePerCall.mul(numCalls);\n\n    require(totalPrice > 0);\n\n    APIBalance storage apiBalance = owed[apiId];\n\n    if (apiBalance.amounts[buyerAddress] == 0) {\n      // add buyerAddress to list of addresses with nonzero balance for this api\n      apiBalance.nonzeroAddresses.push(buyerAddress);\n    }\n\n    apiBalance.amounts[buyerAddress] = apiBalance.amounts[buyerAddress].add(totalPrice);\n\n    LogAPICallsMade(\n      apiId,\n      sellerAddress,\n      buyerAddress,\n      pricePerCall,\n      numCalls,\n      totalPrice,\n      msg.sender\n    );\n  }\n\n  function paySellerForBuyer(uint apiId, address buyerAddress) public {\n    // look up the registry address from relay contract\n    Relay relay = Relay(relayContractAddress);\n    address apiRegistryAddress = relay.apiRegistryContractAddress();\n\n    // get the module info from registry\n    APIRegistry apiRegistry = APIRegistry(apiRegistryAddress);\n\n    uint pricePerCall;\n    bytes32 sellerUsername;\n    bytes32 apiName;\n    address sellerAddress;\n\n    (pricePerCall, sellerUsername, apiName, sellerAddress) = apiRegistry.getApiByIdWithoutDynamics(apiId);\n\n    // make sure it's a legit real api\n    require(pricePerCall != 0 && sellerUsername != \"\" && apiName != \"\" && sellerAddress != address(0));\n\n    uint buyerPaid = processSalesForSingleBuyer(apiId, buyerAddress);\n\n    // calculate fee and payout\n    // fixed point math at 2 decimal places\n    uint fee = buyerPaid.mul(100).div(saleFee).div(100);\n    uint payout = buyerPaid.sub(fee);\n\n    // log that we stored the fee so we know we can take it out later\n    safeWithdrawAmount += fee;\n\n    LogAPICallsPaid(\n      apiId,\n      sellerAddress,\n      buyerPaid,\n      tokenReward,\n      fee\n    );\n\n    // give seller some tokens for the sale\n    rewardTokens(sellerAddress, tokenReward);\n\n    // transfer seller the eth\n    sellerAddress.transfer(payout);\n  }\n\n  function paySeller(uint apiId) public {\n    // look up the registry address from relay contract\n    Relay relay = Relay(relayContractAddress);\n    address apiRegistryAddress = relay.apiRegistryContractAddress();\n\n    // get the module info from registry\n    APIRegistry apiRegistry = APIRegistry(apiRegistryAddress);\n\n    uint pricePerCall;\n    bytes32 sellerUsername;\n    bytes32 apiName;\n    address sellerAddress;\n\n    (pricePerCall, sellerUsername, apiName, sellerAddress) = apiRegistry.getApiByIdWithoutDynamics(apiId);\n\n    // make sure it's a legit real api\n    require(pricePerCall != 0 && sellerUsername != \"\" && apiName != \"\" && sellerAddress != address(0));\n\n    // calculate totalPayable for the api\n    uint totalPayable = 0;\n    uint totalBuyers = 0;\n    (totalPayable, totalBuyers) = processSalesForAllBuyers(apiId);\n\n    // calculate fee and payout\n    // fixed point math at 2 decimal places\n    uint fee = totalPayable.mul(100).div(saleFee).div(100);\n    uint payout = totalPayable.sub(fee);\n\n    // log that we stored the fee so we know we can take it out later\n    safeWithdrawAmount += fee;\n\n    // we reward token reward on a \"per buyer\" basis.  so multiply the reward to give by the number of actual buyers\n    uint totalTokenReward = tokenReward.mul(totalBuyers);\n\n    LogAPICallsPaid(\n      apiId,\n      sellerAddress,\n      totalPayable,\n      totalTokenReward,\n      fee\n    );\n\n    // give seller some tokens for the sale\n    rewardTokens(sellerAddress, totalTokenReward);\n\n    // transfer seller the eth\n    sellerAddress.transfer(payout);\n  }    \n\n  function buyerInfoOf(address addr) public view returns (bool overdrafted, uint lifetimeOverdraftCount, uint credits, uint lifetimeCreditsUsed, uint lifetimeExceededApprovalAmountCount) {\n    BuyerInfo storage buyer = buyers[addr];\n    overdrafted = buyer.overdrafted;\n    lifetimeOverdraftCount = buyer.lifetimeOverdraftCount;\n    credits = buyer.credits;\n    lifetimeCreditsUsed = buyer.lifetimeCreditsUsed;\n    lifetimeExceededApprovalAmountCount = buyer.lifetimeExceededApprovalAmountCount;\n  }\n\n  function creditsBalanceOf(address addr) public view returns (uint) {\n    BuyerInfo storage buyer = buyers[addr];\n    return buyer.credits;\n  }\n\n  function addCredits(address to) public payable {\n    BuyerInfo storage buyer = buyers[to];\n    buyer.credits = buyer.credits.add(msg.value);\n    LogDepositCredits(to, msg.value);\n  }\n\n  function withdrawCredits(uint amount) public {\n    BuyerInfo storage buyer = buyers[msg.sender];\n    require(buyer.credits >= amount);\n    buyer.credits = buyer.credits.sub(amount);\n    msg.sender.transfer(amount);\n    LogWithdrawCredits(msg.sender, amount);\n  }\n\n  function nonzeroAddressesElementForApi(uint apiId, uint index) public view returns (address) {\n    APIBalance storage apiBalance = owed[apiId];\n    return apiBalance.nonzeroAddresses[index];\n  }\n\n  function nonzeroAddressesLengthForApi(uint apiId) public view returns (uint) {\n    APIBalance storage apiBalance = owed[apiId];\n    return apiBalance.nonzeroAddresses.length;\n  }\n\n  function totalOwedForApi(uint apiId) public view returns (uint) {\n    APIBalance storage apiBalance = owed[apiId];\n\n    uint totalOwed = 0;\n    for (uint i = 0; i < apiBalance.nonzeroAddresses.length; i++) {\n      address buyerAddress = apiBalance.nonzeroAddresses[i];\n      uint buyerOwes = apiBalance.amounts[buyerAddress];\n      totalOwed = totalOwed.add(buyerOwes);\n    }\n\n    return totalOwed;\n  }\n\n  function approvedAmount(uint apiId, address buyerAddress) public view returns (uint) {\n    return buyers[buyerAddress].approvedAmounts[apiId];\n  }\n\n  function approveAmount(uint apiId, address buyerAddress, uint newAmount) public {\n    require(buyerAddress != address(0) && apiId != 0);\n\n    // only the buyer or the usage reporing system can change the buyers approval amount\n    require(msg.sender == buyerAddress || msg.sender == usageReportingAddress);\n\n    BuyerInfo storage buyer = buyers[buyerAddress];\n    buyer.approvedAmounts[apiId] = newAmount;\n  }\n\n  function buyerExceededApprovedAmount(uint apiId, address buyerAddress) public view returns (bool) {\n    return buyers[buyerAddress].exceededApprovedAmount[apiId];\n  }\n\n  function rewardTokens(address toReward, uint amount) private {\n    DeconetToken token = DeconetToken(tokenContractAddress);\n    address tokenOwner = token.owner();\n\n    // check balance of tokenOwner\n    uint tokenOwnerBalance = token.balanceOf(tokenOwner);\n    uint tokenOwnerAllowance = token.allowance(tokenOwner, address(this));\n    if (tokenOwnerBalance >= amount && tokenOwnerAllowance >= amount) {\n      token.transferFrom(tokenOwner, toReward, amount);\n    }\n  }\n\n  function processSalesForSingleBuyer(uint apiId, address buyerAddress) private returns (uint) {\n    APIBalance storage apiBalance = owed[apiId];\n\n    uint buyerOwes = apiBalance.amounts[buyerAddress];\n    uint buyerLastPaidAt = apiBalance.buyerLastPaidAt[buyerAddress];\n    uint elapsedSecondsSinceLastPayout = now - buyerLastPaidAt;\n    uint buyerNowOwes = buyerOwes;\n    uint buyerPaid = 0;\n    bool overdrafted = false;\n\n    (buyerPaid, overdrafted) = chargeBuyer(apiId, buyerAddress, elapsedSecondsSinceLastPayout, buyerOwes);\n\n    buyerNowOwes = buyerOwes.sub(buyerPaid);\n    apiBalance.amounts[buyerAddress] = buyerNowOwes;\n\n    // if the buyer now owes zero, then remove them from nonzeroAddresses\n    if (buyerNowOwes != 0) {\n      removeAddressFromNonzeroBalancesArray(apiId, buyerAddress);\n    }\n    // if the buyer paid nothing, we are done here.\n    if (buyerPaid == 0) {\n      return 0;\n    }\n\n    // log the event\n    LogSpendCredits(buyerAddress, apiId, buyerPaid, overdrafted);\n\n    // log that they paid\n    apiBalance.buyerLastPaidAt[buyerAddress] = now;\n    \n    return buyerPaid;\n  }\n\n  function processSalesForAllBuyers(uint apiId) private returns (uint totalPayable, uint totalBuyers) {\n    APIBalance storage apiBalance = owed[apiId];\n\n    uint currentTime = now;\n    address[] memory oldNonzeroAddresses = apiBalance.nonzeroAddresses;\n    apiBalance.nonzeroAddresses = new address[](0);\n\n    for (uint i = 0; i < oldNonzeroAddresses.length; i++) {\n      address buyerAddress = oldNonzeroAddresses[i];\n      uint buyerOwes = apiBalance.amounts[buyerAddress];\n      uint buyerLastPaidAt = apiBalance.buyerLastPaidAt[buyerAddress];\n      uint elapsedSecondsSinceLastPayout = currentTime - buyerLastPaidAt;\n      uint buyerNowOwes = buyerOwes;\n      uint buyerPaid = 0;\n      bool overdrafted = false;\n\n      (buyerPaid, overdrafted) = chargeBuyer(apiId, buyerAddress, elapsedSecondsSinceLastPayout, buyerOwes);\n\n      totalPayable = totalPayable.add(buyerPaid);\n      buyerNowOwes = buyerOwes.sub(buyerPaid);\n      apiBalance.amounts[buyerAddress] = buyerNowOwes;\n\n      // if the buyer still owes something, make sure we keep them in the nonzeroAddresses array\n      if (buyerNowOwes != 0) {\n        apiBalance.nonzeroAddresses.push(buyerAddress);\n      }\n      // if the buyer paid more than 0, log the spend.\n      if (buyerPaid != 0) {\n        // log the event\n        LogSpendCredits(buyerAddress, apiId, buyerPaid, overdrafted);\n\n        // log that they paid\n        apiBalance.buyerLastPaidAt[buyerAddress] = now;\n\n        // add to total buyer count\n        totalBuyers += 1;\n      }\n    }\n  }\n\n  function chargeBuyer(uint apiId, address buyerAddress, uint elapsedSecondsSinceLastPayout, uint buyerOwes) private returns (uint paid, bool overdrafted) {\n    BuyerInfo storage buyer = buyers[buyerAddress];\n    uint approvedAmountPerSecond = buyer.approvedAmounts[apiId];\n    uint approvedAmountSinceLastPayout = approvedAmountPerSecond.mul(elapsedSecondsSinceLastPayout);\n    \n    // do we have the credits to pay owed?\n    if (buyer.credits >= buyerOwes) {\n      // yay, buyer can pay their debits\n      overdrafted = false;\n      buyer.overdrafted = false;\n\n      // has buyer approved enough to pay what they owe?\n      if (approvedAmountSinceLastPayout >= buyerOwes) {\n        // approved is greater than owed.  \n        // mark as not exceeded approved amount\n        buyer.exceededApprovedAmount[apiId] = false;\n\n        // we can pay the entire debt\n        paid = buyerOwes;\n\n      } else {\n        // they have no approved enough\n        // mark as exceeded\n        buyer.exceededApprovedAmount[apiId] = true;\n        buyer.lifetimeExceededApprovalAmountCount += 1;\n\n        // we can only pay the approved portion of the debt\n        paid = approvedAmountSinceLastPayout;\n      }\n    } else {\n      // buyer spent more than they have.  mark as overdrafted\n      overdrafted = true;\n      buyer.overdrafted = true;\n      buyer.lifetimeOverdraftCount += 1;\n\n      // does buyer have more credits than the amount they've approved?\n      if (buyer.credits >= approvedAmountSinceLastPayout) {\n        // they have enough credits to pay approvedAmountSinceLastPayout, so pay that\n        paid = approvedAmountSinceLastPayout;\n\n      } else {\n        // the don't have enough credits to pay approvedAmountSinceLastPayout\n        // so just pay whatever credits they have\n        paid = buyer.credits;\n      }\n    }\n\n    buyer.credits = buyer.credits.sub(paid);\n    buyer.lifetimeCreditsUsed = buyer.lifetimeCreditsUsed.add(paid);\n  }\n\n  function removeAddressFromNonzeroBalancesArray(uint apiId, address toRemove) private {\n    APIBalance storage apiBalance = owed[apiId];\n\n    bool foundElement = false;\n\n    for (uint i = 0; i < apiBalance.nonzeroAddresses.length-1; i++) {\n      if (apiBalance.nonzeroAddresses[i] == toRemove) {\n        foundElement = true;\n      }\n      if (foundElement == true) {\n        apiBalance.nonzeroAddresses[i] = apiBalance.nonzeroAddresses[i+1];\n      }\n    }\n    if (foundElement == true) {\n      apiBalance.nonzeroAddresses.length--;\n    }\n  }\n}\n",
  "sourcePath": "/Users/chris/Documents/WorkStuff/Deconet/Blockchain/DeconetToken/contracts/APICalls.sol",
  "compiler": {
    "name": "solc",
    "version": "0.4.19+commit.c4cbbb05.Emscripten.clang"
  },
  "schemaVersion": "2.0.0",
  "updatedAt": "2018-04-03T00:05:24.003Z"
}