{
  "contractName": "APICalls",
  "abi": [
    {
      "constant": true,
      "inputs": [],
      "name": "saleFee",
      "outputs": [
        {
          "name": "",
          "type": "uint256"
        }
      ],
      "payable": false,
      "stateMutability": "view",
      "type": "function"
    },
    {
      "constant": true,
      "inputs": [],
      "name": "version",
      "outputs": [
        {
          "name": "",
          "type": "uint256"
        }
      ],
      "payable": false,
      "stateMutability": "view",
      "type": "function"
    },
    {
      "constant": true,
      "inputs": [],
      "name": "tokenReward",
      "outputs": [
        {
          "name": "",
          "type": "uint256"
        }
      ],
      "payable": false,
      "stateMutability": "view",
      "type": "function"
    },
    {
      "constant": true,
      "inputs": [],
      "name": "tokenContractAddress",
      "outputs": [
        {
          "name": "",
          "type": "address"
        }
      ],
      "payable": false,
      "stateMutability": "view",
      "type": "function"
    },
    {
      "constant": true,
      "inputs": [],
      "name": "owner",
      "outputs": [
        {
          "name": "",
          "type": "address"
        }
      ],
      "payable": false,
      "stateMutability": "view",
      "type": "function"
    },
    {
      "constant": true,
      "inputs": [],
      "name": "relayContractAddress",
      "outputs": [
        {
          "name": "",
          "type": "address"
        }
      ],
      "payable": false,
      "stateMutability": "view",
      "type": "function"
    },
    {
      "constant": false,
      "inputs": [
        {
          "name": "newOwner",
          "type": "address"
        }
      ],
      "name": "transferOwnership",
      "outputs": [],
      "payable": false,
      "stateMutability": "nonpayable",
      "type": "function"
    },
    {
      "inputs": [],
      "payable": false,
      "stateMutability": "nonpayable",
      "type": "constructor"
    },
    {
      "anonymous": false,
      "inputs": [
        {
          "indexed": false,
          "name": "apiId",
          "type": "uint256"
        },
        {
          "indexed": true,
          "name": "sellerAddress",
          "type": "address"
        },
        {
          "indexed": true,
          "name": "buyerAddress",
          "type": "address"
        },
        {
          "indexed": false,
          "name": "pricePerCall",
          "type": "uint256"
        },
        {
          "indexed": false,
          "name": "numCalls",
          "type": "uint256"
        },
        {
          "indexed": false,
          "name": "totalPrice",
          "type": "uint256"
        },
        {
          "indexed": false,
          "name": "reportingAddress",
          "type": "address"
        }
      ],
      "name": "LogAPICallsMade",
      "type": "event"
    },
    {
      "anonymous": false,
      "inputs": [
        {
          "indexed": false,
          "name": "apiId",
          "type": "uint256"
        },
        {
          "indexed": true,
          "name": "sellerAddress",
          "type": "address"
        },
        {
          "indexed": false,
          "name": "totalPrice",
          "type": "uint256"
        },
        {
          "indexed": false,
          "name": "rewardedTokens",
          "type": "uint256"
        },
        {
          "indexed": false,
          "name": "networkFee",
          "type": "uint256"
        }
      ],
      "name": "LogAPICallsPaid",
      "type": "event"
    },
    {
      "anonymous": false,
      "inputs": [
        {
          "indexed": true,
          "name": "buyerAddress",
          "type": "address"
        },
        {
          "indexed": false,
          "name": "amount",
          "type": "uint256"
        }
      ],
      "name": "LogDepositCredits",
      "type": "event"
    },
    {
      "anonymous": false,
      "inputs": [
        {
          "indexed": true,
          "name": "buyerAddress",
          "type": "address"
        },
        {
          "indexed": false,
          "name": "amount",
          "type": "uint256"
        }
      ],
      "name": "LogWithdrawCredits",
      "type": "event"
    },
    {
      "anonymous": false,
      "inputs": [
        {
          "indexed": true,
          "name": "previousOwner",
          "type": "address"
        },
        {
          "indexed": true,
          "name": "newOwner",
          "type": "address"
        }
      ],
      "name": "OwnershipTransferred",
      "type": "event"
    },
    {
      "constant": false,
      "inputs": [],
      "name": "withdrawEther",
      "outputs": [],
      "payable": false,
      "stateMutability": "nonpayable",
      "type": "function"
    },
    {
      "constant": false,
      "inputs": [
        {
          "name": "_withdrawlAddress",
          "type": "address"
        }
      ],
      "name": "setWithdrawlAddress",
      "outputs": [],
      "payable": false,
      "stateMutability": "nonpayable",
      "type": "function"
    },
    {
      "constant": false,
      "inputs": [
        {
          "name": "_usageReportingAddress",
          "type": "address"
        }
      ],
      "name": "setUsageReportingAddress",
      "outputs": [],
      "payable": false,
      "stateMutability": "nonpayable",
      "type": "function"
    },
    {
      "constant": false,
      "inputs": [
        {
          "name": "_relayContractAddress",
          "type": "address"
        }
      ],
      "name": "setRelayContractAddress",
      "outputs": [],
      "payable": false,
      "stateMutability": "nonpayable",
      "type": "function"
    },
    {
      "constant": false,
      "inputs": [
        {
          "name": "_tokenContractAddress",
          "type": "address"
        }
      ],
      "name": "setTokenContractAddress",
      "outputs": [],
      "payable": false,
      "stateMutability": "nonpayable",
      "type": "function"
    },
    {
      "constant": false,
      "inputs": [
        {
          "name": "_tokenReward",
          "type": "uint256"
        }
      ],
      "name": "setTokenReward",
      "outputs": [],
      "payable": false,
      "stateMutability": "nonpayable",
      "type": "function"
    },
    {
      "constant": false,
      "inputs": [
        {
          "name": "_saleFee",
          "type": "uint256"
        }
      ],
      "name": "setSaleFee",
      "outputs": [],
      "payable": false,
      "stateMutability": "nonpayable",
      "type": "function"
    },
    {
      "constant": false,
      "inputs": [
        {
          "name": "apiId",
          "type": "uint256"
        },
        {
          "name": "numCalls",
          "type": "uint256"
        },
        {
          "name": "buyerAddress",
          "type": "address"
        }
      ],
      "name": "reportUsage",
      "outputs": [],
      "payable": false,
      "stateMutability": "nonpayable",
      "type": "function"
    },
    {
      "constant": false,
      "inputs": [
        {
          "name": "apiId",
          "type": "uint256"
        }
      ],
      "name": "paySeller",
      "outputs": [],
      "payable": false,
      "stateMutability": "nonpayable",
      "type": "function"
    },
    {
      "constant": true,
      "inputs": [
        {
          "name": "addr",
          "type": "address"
        }
      ],
      "name": "buyerInfoOf",
      "outputs": [
        {
          "name": "overdrafted",
          "type": "bool"
        },
        {
          "name": "lifetimeOverdraftCount",
          "type": "uint256"
        },
        {
          "name": "credits",
          "type": "uint256"
        },
        {
          "name": "lifetimeCreditsUsed",
          "type": "uint256"
        }
      ],
      "payable": false,
      "stateMutability": "view",
      "type": "function"
    },
    {
      "constant": true,
      "inputs": [
        {
          "name": "addr",
          "type": "address"
        }
      ],
      "name": "creditsBalanceOf",
      "outputs": [
        {
          "name": "",
          "type": "uint256"
        }
      ],
      "payable": false,
      "stateMutability": "view",
      "type": "function"
    },
    {
      "constant": false,
      "inputs": [
        {
          "name": "to",
          "type": "address"
        }
      ],
      "name": "addCredits",
      "outputs": [],
      "payable": true,
      "stateMutability": "payable",
      "type": "function"
    },
    {
      "constant": false,
      "inputs": [
        {
          "name": "amount",
          "type": "uint256"
        }
      ],
      "name": "withdrawCredits",
      "outputs": [],
      "payable": false,
      "stateMutability": "nonpayable",
      "type": "function"
    },
    {
      "constant": true,
      "inputs": [
        {
          "name": "apiId",
          "type": "uint256"
        },
        {
          "name": "index",
          "type": "uint256"
        }
      ],
      "name": "nonzeroAddressesElementForApi",
      "outputs": [
        {
          "name": "",
          "type": "address"
        }
      ],
      "payable": false,
      "stateMutability": "view",
      "type": "function"
    },
    {
      "constant": true,
      "inputs": [
        {
          "name": "apiId",
          "type": "uint256"
        }
      ],
      "name": "nonzeroAddressesLengthForApi",
      "outputs": [
        {
          "name": "",
          "type": "uint256"
        }
      ],
      "payable": false,
      "stateMutability": "view",
      "type": "function"
    },
    {
      "constant": true,
      "inputs": [
        {
          "name": "apiId",
          "type": "uint256"
        }
      ],
      "name": "totalOwedForApi",
      "outputs": [
        {
          "name": "",
          "type": "uint256"
        }
      ],
      "payable": false,
      "stateMutability": "view",
      "type": "function"
    }
  ],
  "bytecode": "0x6060604052341561000f57600080fd5b336000806101000a81548173ffffffffffffffffffffffffffffffffffffffff021916908373ffffffffffffffffffffffffffffffffffffffff160217905550600160058190555068056bc75e2d63100000600181905550600a60028190555033600660006101000a81548173ffffffffffffffffffffffffffffffffffffffff021916908373ffffffffffffffffffffffffffffffffffffffff16021790555033600760006101000a81548173ffffffffffffffffffffffffffffffffffffffff021916908373ffffffffffffffffffffffffffffffffffffffff16021790555061211c806101006000396000f300606060405260043610610133576000357c0100000000000000000000000000000000000000000000000000000000900463ffffffff16806309ed178214610138578063178021e31461015b5780632d2bcd371461018457806335e4d30f146101bd57806344e2f9ad146102295780634fe01d381461028f57806354fd4d50146102b257806368302467146102db57806368aafcd9146102fe5780636905877a146103375780636e66f6e91461036e5780637362377b1461039757806382edaf94146103ac5780638da5cb5b146104015780638f49ccf414610456578063a38b68cb146104a1578063b23d4854146104d8578063bdcafc5514610511578063c216c0d314610534578063dfa93d6414610562578063f2fde38b146105b7578063f4efa3e6146105f0578063f9854bfc14610629575b600080fd5b341561014357600080fd5b6101596004808035906020019091905050610676565b005b341561016657600080fd5b61016e61077d565b6040518082815260200191505060405180910390f35b341561018f57600080fd5b6101bb600480803573ffffffffffffffffffffffffffffffffffffffff16906020019091905050610783565b005b34156101c857600080fd5b6101e76004808035906020019091908035906020019091905050610822565b604051808273ffffffffffffffffffffffffffffffffffffffff1673ffffffffffffffffffffffffffffffffffffffff16815260200191505060405180910390f35b341561023457600080fd5b610260600480803573ffffffffffffffffffffffffffffffffffffffff16906020019091905050610880565b604051808515151515815260200184815260200183815260200182815260200194505050505060405180910390f35b341561029a57600080fd5b6102b060048080359060200190919050506108fa565b005b34156102bd57600080fd5b6102c561095f565b6040518082815260200191505060405180910390f35b34156102e657600080fd5b6102fc6004808035906020019091905050610965565b005b341561030957600080fd5b610335600480803573ffffffffffffffffffffffffffffffffffffffff16906020019091905050610c5f565b005b341561034257600080fd5b6103586004808035906020019091905050610cfe565b6040518082815260200191505060405180910390f35b341561037957600080fd5b610381610de6565b6040518082815260200191505060405180910390f35b34156103a257600080fd5b6103aa610dec565b005b34156103b757600080fd5b6103bf610ec3565b604051808273ffffffffffffffffffffffffffffffffffffffff1673ffffffffffffffffffffffffffffffffffffffff16815260200191505060405180910390f35b341561040c57600080fd5b610414610ee9565b604051808273ffffffffffffffffffffffffffffffffffffffff1673ffffffffffffffffffffffffffffffffffffffff16815260200191505060405180910390f35b341561046157600080fd5b61049f600480803590602001909190803590602001909190803573ffffffffffffffffffffffffffffffffffffffff16906020019091905050610f0e565b005b34156104ac57600080fd5b6104c260048080359060200190919050506113b5565b6040518082815260200191505060405180910390f35b34156104e357600080fd5b61050f600480803573ffffffffffffffffffffffffffffffffffffffff169060200190919050506113dd565b005b341561051c57600080fd5b610532600480803590602001909190505061147c565b005b610560600480803573ffffffffffffffffffffffffffffffffffffffff169060200190919050506114e1565b005b341561056d57600080fd5b610575611595565b604051808273ffffffffffffffffffffffffffffffffffffffff1673ffffffffffffffffffffffffffffffffffffffff16815260200191505060405180910390f35b34156105c257600080fd5b6105ee600480803573ffffffffffffffffffffffffffffffffffffffff169060200190919050506115bb565b005b34156105fb57600080fd5b610627600480803573ffffffffffffffffffffffffffffffffffffffff16906020019091905050611710565b005b341561063457600080fd5b610660600480803573ffffffffffffffffffffffffffffffffffffffff169060200190919050506117af565b6040518082815260200191505060405180910390f35b6000600960003373ffffffffffffffffffffffffffffffffffffffff1673ffffffffffffffffffffffffffffffffffffffff1681526020019081526020016000209050818160020154101515156106cc57600080fd5b6106e382826002015461180090919063ffffffff16565b81600201819055503373ffffffffffffffffffffffffffffffffffffffff166108fc839081150290604051600060405180830381858888f19350505050151561072b57600080fd5b3373ffffffffffffffffffffffffffffffffffffffff167f8320a4c3c11a89c7523cf703d3e175d919c423fb9c2408e2249d3196a1489156836040518082815260200191505060405180910390a25050565b60025481565b6000809054906101000a900473ffffffffffffffffffffffffffffffffffffffff1673ffffffffffffffffffffffffffffffffffffffff163373ffffffffffffffffffffffffffffffffffffffff161415156107de57600080fd5b80600360006101000a81548173ffffffffffffffffffffffffffffffffffffffff021916908373ffffffffffffffffffffffffffffffffffffffff16021790555050565b600080600860008581526020019081526020016000209050806001018381548110151561084b57fe5b906000526020600020900160009054906101000a900473ffffffffffffffffffffffffffffffffffffffff1691505092915050565b6000806000806000600960008773ffffffffffffffffffffffffffffffffffffffff1673ffffffffffffffffffffffffffffffffffffffff16815260200190815260200160002090508060000160009054906101000a900460ff169450806001015493508060020154925080600301549150509193509193565b6000809054906101000a900473ffffffffffffffffffffffffffffffffffffffff1673ffffffffffffffffffffffffffffffffffffffff163373ffffffffffffffffffffffffffffffffffffffff1614151561095557600080fd5b8060018190555050565b60055481565b600080600080600080600080600080600360009054906101000a900473ffffffffffffffffffffffffffffffffffffffff1699508973ffffffffffffffffffffffffffffffffffffffff166376b69d776000604051602001526040518163ffffffff167c0100000000000000000000000000000000000000000000000000000000028152600401602060405180830381600087803b1515610a0557600080fd5b6102c65a03f11515610a1657600080fd5b5050506040518051905098508897508773ffffffffffffffffffffffffffffffffffffffff1663261ac2798c6000604051608001526040518263ffffffff167c010000000000000000000000000000000000000000000000000000000002815260040180828152602001915050608060405180830381600087803b1515610a9c57600080fd5b6102c65a03f11515610aad57600080fd5b50505060405180519060200180519060200180519060200180519050809750819850829950839a505050505060008714158015610aef57506000866000191614155b8015610b0057506000856000191614155b8015610b395750600073ffffffffffffffffffffffffffffffffffffffff168473ffffffffffffffffffffffffffffffffffffffff1614155b1515610b4457600080fd5b610b4d8b611819565b9250610b8a6064610b7c600254610b6e606488611bc490919063ffffffff16565b611bff90919063ffffffff16565b611bff90919063ffffffff16565b9150610b9f828461180090919063ffffffff16565b90508373ffffffffffffffffffffffffffffffffffffffff167f5b430a575759cc9db812e031edf08ea2ab9974b0811d9cc0b851642cd0713b278c85600154866040518085815260200184815260200183815260200182815260200194505050505060405180910390a2610c1284611c1a565b8373ffffffffffffffffffffffffffffffffffffffff166108fc829081150290604051600060405180830381858888f193505050501515610c5257600080fd5b5050505050505050505050565b6000809054906101000a900473ffffffffffffffffffffffffffffffffffffffff1673ffffffffffffffffffffffffffffffffffffffff163373ffffffffffffffffffffffffffffffffffffffff16141515610cba57600080fd5b80600760006101000a81548173ffffffffffffffffffffffffffffffffffffffff021916908373ffffffffffffffffffffffffffffffffffffffff16021790555050565b60008060008060008060086000888152602001908152602001600020945060009350600092505b8460010180549050831015610dd9578460010183815481101515610d4557fe5b906000526020600020900160009054906101000a900473ffffffffffffffffffffffffffffffffffffffff1691508460000160008373ffffffffffffffffffffffffffffffffffffffff1673ffffffffffffffffffffffffffffffffffffffff168152602001908152602001600020549050610dca8185611fa090919063ffffffff16565b93508280600101935050610d25565b8395505050505050919050565b60015481565b600660009054906101000a900473ffffffffffffffffffffffffffffffffffffffff1673ffffffffffffffffffffffffffffffffffffffff163373ffffffffffffffffffffffffffffffffffffffff16141515610e4857600080fd5b600660009054906101000a900473ffffffffffffffffffffffffffffffffffffffff1673ffffffffffffffffffffffffffffffffffffffff166108fc3073ffffffffffffffffffffffffffffffffffffffff16319081150290604051600060405180830381858888f193505050501515610ec157600080fd5b565b600460009054906101000a900473ffffffffffffffffffffffffffffffffffffffff1681565b6000809054906101000a900473ffffffffffffffffffffffffffffffffffffffff1681565b6000806000806000806000806000600360009054906101000a900473ffffffffffffffffffffffffffffffffffffffff1698508873ffffffffffffffffffffffffffffffffffffffff166376b69d776000604051602001526040518163ffffffff167c0100000000000000000000000000000000000000000000000000000000028152600401602060405180830381600087803b1515610fad57600080fd5b6102c65a03f11515610fbe57600080fd5b5050506040518051905097508796508673ffffffffffffffffffffffffffffffffffffffff1663261ac2798d6000604051608001526040518263ffffffff167c010000000000000000000000000000000000000000000000000000000002815260040180828152602001915050608060405180830381600087803b151561104457600080fd5b6102c65a03f1151561105557600080fd5b5050506040518051906020018051906020018051906020018051905080965081975082985083995050505050600073ffffffffffffffffffffffffffffffffffffffff168373ffffffffffffffffffffffffffffffffffffffff16141515156110bd57600080fd5b8273ffffffffffffffffffffffffffffffffffffffff163373ffffffffffffffffffffffffffffffffffffffff1614806111445750600760009054906101000a900473ffffffffffffffffffffffffffffffffffffffff1673ffffffffffffffffffffffffffffffffffffffff163373ffffffffffffffffffffffffffffffffffffffff16145b151561114f57600080fd5b600085600019161415801561116957506000846000191614155b151561117457600080fd5b6111878b87611bc490919063ffffffff16565b915060008211151561119857600080fd5b600860008d8152602001908152602001600020905060008160000160008c73ffffffffffffffffffffffffffffffffffffffff1673ffffffffffffffffffffffffffffffffffffffff16815260200190815260200160002054141561125d5780600101805480600101828161120d9190611fbe565b916000526020600020900160008c909190916101000a81548173ffffffffffffffffffffffffffffffffffffffff021916908373ffffffffffffffffffffffffffffffffffffffff160217905550505b6112b1828260000160008d73ffffffffffffffffffffffffffffffffffffffff1673ffffffffffffffffffffffffffffffffffffffff16815260200190815260200160002054611fa090919063ffffffff16565b8160000160008c73ffffffffffffffffffffffffffffffffffffffff1673ffffffffffffffffffffffffffffffffffffffff168152602001908152602001600020819055508973ffffffffffffffffffffffffffffffffffffffff168373ffffffffffffffffffffffffffffffffffffffff167fe000b526d00ac563daef41443c79e488cc5350a03b076e3ec9c924c649315d958e898f8733604051808681526020018581526020018481526020018381526020018273ffffffffffffffffffffffffffffffffffffffff1673ffffffffffffffffffffffffffffffffffffffff1681526020019550505050505060405180910390a3505050505050505050505050565b6000806008600084815260200190815260200160002090508060010180549050915050919050565b6000809054906101000a900473ffffffffffffffffffffffffffffffffffffffff1673ffffffffffffffffffffffffffffffffffffffff163373ffffffffffffffffffffffffffffffffffffffff1614151561143857600080fd5b80600460006101000a81548173ffffffffffffffffffffffffffffffffffffffff021916908373ffffffffffffffffffffffffffffffffffffffff16021790555050565b6000809054906101000a900473ffffffffffffffffffffffffffffffffffffffff1673ffffffffffffffffffffffffffffffffffffffff163373ffffffffffffffffffffffffffffffffffffffff161415156114d757600080fd5b8060028190555050565b6000600960008373ffffffffffffffffffffffffffffffffffffffff1673ffffffffffffffffffffffffffffffffffffffff168152602001908152602001600020905061153b348260020154611fa090919063ffffffff16565b81600201819055508173ffffffffffffffffffffffffffffffffffffffff167f86f8e33b41070d06fb89c32da953989505fce79d2f2de15c71992c57e8e75339346040518082815260200191505060405180910390a25050565b600360009054906101000a900473ffffffffffffffffffffffffffffffffffffffff1681565b6000809054906101000a900473ffffffffffffffffffffffffffffffffffffffff1673ffffffffffffffffffffffffffffffffffffffff163373ffffffffffffffffffffffffffffffffffffffff1614151561161657600080fd5b600073ffffffffffffffffffffffffffffffffffffffff168173ffffffffffffffffffffffffffffffffffffffff161415151561165257600080fd5b8073ffffffffffffffffffffffffffffffffffffffff166000809054906101000a900473ffffffffffffffffffffffffffffffffffffffff1673ffffffffffffffffffffffffffffffffffffffff167f8be0079c531659141344cd1fd0a4f28419497f9722a3daafe3b4186f6b6457e060405160405180910390a3806000806101000a81548173ffffffffffffffffffffffffffffffffffffffff021916908373ffffffffffffffffffffffffffffffffffffffff16021790555050565b6000809054906101000a900473ffffffffffffffffffffffffffffffffffffffff1673ffffffffffffffffffffffffffffffffffffffff163373ffffffffffffffffffffffffffffffffffffffff1614151561176b57600080fd5b80600660006101000a81548173ffffffffffffffffffffffffffffffffffffffff021916908373ffffffffffffffffffffffffffffffffffffffff16021790555050565b600080600960008473ffffffffffffffffffffffffffffffffffffffff1673ffffffffffffffffffffffffffffffffffffffff16815260200190815260200160002090508060020154915050919050565b600082821115151561180e57fe5b818303905092915050565b6000806000611826611fea565b6000806000806000600860008b8152602001908152602001600020975060009650876001018054806020026020016040519081016040528092919081815260200182805480156118cb57602002820191906000526020600020905b8160009054906101000a900473ffffffffffffffffffffffffffffffffffffffff1673ffffffffffffffffffffffffffffffffffffffff1681526020019060010190808311611881575b5050505050955060006040518059106118e15750595b9080825280602002602001820160405250886001019080519060200190611909929190611ffe565b50600094505b8551851015611bb457858581518110151561192657fe5b906020019060200201519350600960008573ffffffffffffffffffffffffffffffffffffffff1673ffffffffffffffffffffffffffffffffffffffff16815260200190815260200160002092508760000160008573ffffffffffffffffffffffffffffffffffffffff1673ffffffffffffffffffffffffffffffffffffffff1681526020019081526020016000205491508183600201540390506000811215611b05576119e0836002015488611fa090919063ffffffff16565b96506119f983600201548361180090919063ffffffff16565b8860000160008673ffffffffffffffffffffffffffffffffffffffff1673ffffffffffffffffffffffffffffffffffffffff16815260200190815260200160002081905550876001018054806001018281611a549190611fbe565b9160005260206000209001600086909190916101000a81548173ffffffffffffffffffffffffffffffffffffffff021916908373ffffffffffffffffffffffffffffffffffffffff16021790555050611abe83600201548460030154611fa090919063ffffffff16565b83600301819055506000836002018190555060018360000160006101000a81548160ff02191690831515021790555060018360010160008282540192505081905550611ba7565b611b188288611fa090919063ffffffff16565b965060008860000160008673ffffffffffffffffffffffffffffffffffffffff1673ffffffffffffffffffffffffffffffffffffffff1681526020019081526020016000208190555080836002018190555060008360000160006101000a81548160ff021916908315150217905550611b9e828460030154611fa090919063ffffffff16565b83600301819055505b848060010195505061190f565b8698505050505050505050919050565b6000806000841415611bd95760009150611bf8565b8284029050828482811515611bea57fe5b04141515611bf457fe5b8091505b5092915050565b6000808284811515611c0d57fe5b0490508091505092915050565b600080600080600460009054906101000a900473ffffffffffffffffffffffffffffffffffffffff1693508373ffffffffffffffffffffffffffffffffffffffff16638da5cb5b6000604051602001526040518163ffffffff167c0100000000000000000000000000000000000000000000000000000000028152600401602060405180830381600087803b1515611cb157600080fd5b6102c65a03f11515611cc257600080fd5b5050506040518051905092508373ffffffffffffffffffffffffffffffffffffffff166370a08231846000604051602001526040518263ffffffff167c0100000000000000000000000000000000000000000000000000000000028152600401808273ffffffffffffffffffffffffffffffffffffffff1673ffffffffffffffffffffffffffffffffffffffff168152602001915050602060405180830381600087803b1515611d7157600080fd5b6102c65a03f11515611d8257600080fd5b5050506040518051905091508373ffffffffffffffffffffffffffffffffffffffff1663dd62ed3e84306000604051602001526040518363ffffffff167c0100000000000000000000000000000000000000000000000000000000028152600401808373ffffffffffffffffffffffffffffffffffffffff1673ffffffffffffffffffffffffffffffffffffffff1681526020018273ffffffffffffffffffffffffffffffffffffffff1673ffffffffffffffffffffffffffffffffffffffff16815260200192505050602060405180830381600087803b1515611e6557600080fd5b6102c65a03f11515611e7657600080fd5b5050506040518051905090506001548210158015611e9657506001548110155b15611f99578373ffffffffffffffffffffffffffffffffffffffff166323b872dd84876001546000604051602001526040518463ffffffff167c0100000000000000000000000000000000000000000000000000000000028152600401808473ffffffffffffffffffffffffffffffffffffffff1673ffffffffffffffffffffffffffffffffffffffff1681526020018373ffffffffffffffffffffffffffffffffffffffff1673ffffffffffffffffffffffffffffffffffffffff1681526020018281526020019350505050602060405180830381600087803b1515611f7c57600080fd5b6102c65a03f11515611f8d57600080fd5b50505060405180519050505b5050505050565b6000808284019050838110151515611fb457fe5b8091505092915050565b815481835581811511611fe557818360005260206000209182019101611fe49190612088565b5b505050565b602060405190810160405280600081525090565b828054828255906000526020600020908101928215612077579160200282015b828111156120765782518260006101000a81548173ffffffffffffffffffffffffffffffffffffffff021916908373ffffffffffffffffffffffffffffffffffffffff1602179055509160200191906001019061201e565b5b50905061208491906120ad565b5090565b6120aa91905b808211156120a657600081600090555060010161208e565b5090565b90565b6120ed91905b808211156120e957600081816101000a81549073ffffffffffffffffffffffffffffffffffffffff0219169055506001016120b3565b5090565b905600a165627a7a72305820a8f9a25043688dc7105034690f5871b6e267ece46fd6b6a8ca68f2f5bda570790029",
  "source": "pragma solidity 0.4.19;\n\nimport \"zeppelin-solidity/contracts/ownership/Ownable.sol\";\nimport \"./Relay.sol\";\nimport \"./APIRegistry.sol\";\nimport \"./DeconetToken.sol\";\n\n\n// ----------------------------------------------------------------------------\n// Records api calls and payment for them\n// ----------------------------------------------------------------------------\ncontract APICalls is Ownable {\n  using SafeMath for uint;\n\n  // the amount rewarded to a seller for selling api calls\n  uint public tokenReward;\n\n  // the fee this contract takes from every sale.  expressed as percent.  so a value of 3 indicates a 3% txn fee\n  uint public saleFee;\n\n  // address of the relay contract which holds the address of the registry contract.\n  address public relayContractAddress;\n\n  // the token address\n  address public tokenContractAddress;\n\n  // this contract version\n  uint public version;\n\n  // the address that is authorized to withdraw eth\n  address private withdrawlAddress;\n\n  // the address that is authorized to report usage on behalf of deconet\n  address private usageReportingAddress;\n\n  // maps apiId to a APIBalance which stores how much each address owes\n  mapping(uint => APIBalance) internal owed;\n\n  // maps buyer addresses to whether or not accounts are overdrafted and more\n  mapping(address => BuyerInfo) internal buyers;\n\n  struct APIBalance {\n    // maps address -> amount owed in wei\n    mapping(address => uint) amounts;\n    // basically a list of keys for the above map\n    address[] nonzeroAddresses;\n  }\n\n  struct BuyerInfo {\n    // whether or not the account is overdrafted or not\n    bool overdrafted;\n    // total number of overdrafts, ever\n    uint lifetimeOverdraftCount;\n    // credits on file with this contract (wei)\n    uint credits;\n    // total amount of credits used / spent, ever (wei)\n    uint lifetimeCreditsUsed;\n  }\n\n  event LogAPICallsMade(\n    uint apiId,\n    address indexed sellerAddress,\n    address indexed buyerAddress,\n    uint pricePerCall,\n    uint numCalls,\n    uint totalPrice,\n    address reportingAddress\n  );\n\n  event LogAPICallsPaid(\n    uint apiId,\n    address indexed sellerAddress,\n    uint totalPrice,\n    uint rewardedTokens,\n    uint networkFee\n  );\n\n  event LogDepositCredits(\n    address indexed buyerAddress,\n    uint amount\n  );\n\n  event LogWithdrawCredits(\n    address indexed buyerAddress,\n    uint amount\n  );\n\n  // ------------------------------------------------------------------------\n  // Constructor\n  // ------------------------------------------------------------------------\n  function APICalls() public {\n    version = 1;\n\n    // default token reward of 100 tokens.  \n    // token has 18 decimal places so that's why 100 * 10^18\n    tokenReward = 100 * 10**18;\n\n    // default saleFee of 10%\n    saleFee = 10;\n\n    // default withdrawlAddress is owner\n    withdrawlAddress = msg.sender;\n    usageReportingAddress = msg.sender;\n  }\n\n  // ------------------------------------------------------------------------\n  // Owner can transfer out any ETH\n  // ------------------------------------------------------------------------\n  function withdrawEther() public {\n    require(msg.sender == withdrawlAddress);\n    withdrawlAddress.transfer(this.balance);\n  }\n\n  // ------------------------------------------------------------------------\n  // Owner can set address of who can withdraw\n  // ------------------------------------------------------------------------\n  function setWithdrawlAddress(address _withdrawlAddress) public onlyOwner {\n    withdrawlAddress = _withdrawlAddress;\n  }\n\n  // ------------------------------------------------------------------------\n  // Owner can set address of who can report usage\n  // ------------------------------------------------------------------------\n  function setUsageReportingAddress(address _usageReportingAddress) public onlyOwner {\n    usageReportingAddress = _usageReportingAddress;\n  }\n\n  // ------------------------------------------------------------------------\n  // Owner can set address of relay contract\n  // ------------------------------------------------------------------------\n  function setRelayContractAddress(address _relayContractAddress) public onlyOwner {\n    relayContractAddress = _relayContractAddress;\n  }\n\n  // ------------------------------------------------------------------------\n  // Owner can set address of token contract\n  // ------------------------------------------------------------------------\n  function setTokenContractAddress(address _tokenContractAddress) public onlyOwner {\n    tokenContractAddress = _tokenContractAddress;\n  }\n\n  // ------------------------------------------------------------------------\n  // Owner can set token reward\n  // ------------------------------------------------------------------------\n  function setTokenReward(uint _tokenReward) public onlyOwner {\n    tokenReward = _tokenReward;\n  }\n\n  // ------------------------------------------------------------------------\n  // Owner can set the sale fee\n  // ------------------------------------------------------------------------\n  function setSaleFee(uint _saleFee) public onlyOwner {\n    saleFee = _saleFee;\n  }\n\n  // ------------------------------------------------------------------------\n  // The API owner or the authorized deconet usage reporting address may report usage\n  // ------------------------------------------------------------------------\n  function reportUsage(uint apiId, uint numCalls, address buyerAddress) public {\n    // look up the registry address from relay contract\n    Relay relay = Relay(relayContractAddress);\n    address apiRegistryAddress = relay.apiRegistryContractAddress();\n\n    // get the module info from registry\n    APIRegistry apiRegistry = APIRegistry(apiRegistryAddress);\n\n    uint pricePerCall;\n    bytes32 sellerUsername;\n    bytes32 apiName;\n    address sellerAddress;\n\n    (pricePerCall, sellerUsername, apiName, sellerAddress) = apiRegistry.getApiByIdWithoutDynamics(apiId);\n\n    // // make sure the caller is either the api owner or the deconet reporting address\n    require(sellerAddress != address(0));\n    require(msg.sender == sellerAddress || msg.sender == usageReportingAddress);\n\n    // // make sure the module is actually valid\n    require(sellerUsername != \"\" && apiName != \"\");\n\n    uint totalPrice = pricePerCall.mul(numCalls);\n\n    require(totalPrice > 0);\n\n    APIBalance storage apiBalance = owed[apiId];\n\n    if (apiBalance.amounts[buyerAddress] == 0) {\n      // add buyerAddress to list of addresses with nonzero balance for this api\n      apiBalance.nonzeroAddresses.push(buyerAddress);\n    }\n\n    apiBalance.amounts[buyerAddress] = apiBalance.amounts[buyerAddress].add(totalPrice);\n\n    LogAPICallsMade(\n      apiId,\n      sellerAddress,\n      buyerAddress,\n      pricePerCall,\n      numCalls,\n      totalPrice,\n      msg.sender\n    );\n  }\n\n  function paySeller(uint apiId) public {\n    // look up the registry address from relay contract\n    Relay relay = Relay(relayContractAddress);\n    address apiRegistryAddress = relay.apiRegistryContractAddress();\n\n    // get the module info from registry\n    APIRegistry apiRegistry = APIRegistry(apiRegistryAddress);\n\n    uint pricePerCall;\n    bytes32 sellerUsername;\n    bytes32 apiName;\n    address sellerAddress;\n\n    (pricePerCall, sellerUsername, apiName, sellerAddress) = apiRegistry.getApiByIdWithoutDynamics(apiId);\n\n    // make sure it's a legit real api\n    require(pricePerCall != 0 && sellerUsername != \"\" && apiName != \"\" && sellerAddress != address(0));\n\n    // calculate totalPayable for the api\n    uint totalPayable = calculateTotalPayable(apiId);\n    // uint totalPayable = 20000;\n\n    // calculate fee and payout\n    // fixed point math at 2 decimal places\n    uint fee = totalPayable.mul(100).div(saleFee).div(100);\n    uint payout = totalPayable.sub(fee);\n\n    LogAPICallsPaid(\n      apiId,\n      sellerAddress,\n      totalPayable,\n      tokenReward,\n      fee\n    );\n\n    // // give seller some tokens for the sale\n    rewardTokens(sellerAddress);\n\n    // // transfer seller the eth\n    sellerAddress.transfer(payout);\n  }    \n\n  function buyerInfoOf(address addr) public view returns (bool overdrafted, uint lifetimeOverdraftCount, uint credits, uint lifetimeCreditsUsed) {\n    BuyerInfo storage buyer = buyers[addr];\n    overdrafted = buyer.overdrafted;\n    lifetimeOverdraftCount = buyer.lifetimeOverdraftCount;\n    credits = buyer.credits;\n    lifetimeCreditsUsed = buyer.lifetimeCreditsUsed;\n  }\n\n  function creditsBalanceOf(address addr) public view returns (uint) {\n    BuyerInfo storage buyer = buyers[addr];\n    return buyer.credits;\n  }\n\n  function addCredits(address to) public payable {\n    BuyerInfo storage buyer = buyers[to];\n    buyer.credits = buyer.credits.add(msg.value);\n    LogDepositCredits(to, msg.value);\n  }\n\n  function withdrawCredits(uint amount) public {\n    BuyerInfo storage buyer = buyers[msg.sender];\n    require(buyer.credits >= amount);\n    buyer.credits = buyer.credits.sub(amount);\n    msg.sender.transfer(amount);\n    LogWithdrawCredits(msg.sender, amount);\n  }\n\n  function nonzeroAddressesElementForApi(uint apiId, uint index) public view returns (address) {\n    APIBalance storage apiBalance = owed[apiId];\n    return apiBalance.nonzeroAddresses[index];\n  }\n\n  function nonzeroAddressesLengthForApi(uint apiId) public view returns (uint) {\n    APIBalance storage apiBalance = owed[apiId];\n    return apiBalance.nonzeroAddresses.length;\n  }\n\n  function totalOwedForApi(uint apiId) public view returns (uint) {\n    APIBalance storage apiBalance = owed[apiId];\n\n    uint totalOwed = 0;\n    for (uint i = 0; i < apiBalance.nonzeroAddresses.length; i++) {\n      address buyerAddress = apiBalance.nonzeroAddresses[i];\n      uint buyerOwes = apiBalance.amounts[buyerAddress];\n      totalOwed = totalOwed.add(buyerOwes);\n    }\n\n    return totalOwed;\n  }\n\n  function rewardTokens(address toReward) private {\n    DeconetToken token = DeconetToken(tokenContractAddress);\n    address tokenOwner = token.owner();\n\n    // check balance of tokenOwner\n    uint tokenOwnerBalance = token.balanceOf(tokenOwner);\n    uint tokenOwnerAllowance = token.allowance(tokenOwner, address(this));\n    if (tokenOwnerBalance >= tokenReward && tokenOwnerAllowance >= tokenReward) {\n      token.transferFrom(tokenOwner, toReward, tokenReward);\n    }\n  }\n\n  function calculateTotalPayable(uint apiId) private returns (uint) {\n    APIBalance storage apiBalance = owed[apiId];\n\n    uint totalPayable = 0;\n    address[] memory oldNonzeroAddresses = apiBalance.nonzeroAddresses;\n    apiBalance.nonzeroAddresses = new address[](0);\n    for (uint i = 0; i < oldNonzeroAddresses.length; i++) {\n      address buyerAddress = oldNonzeroAddresses[i];\n      BuyerInfo storage buyer = buyers[buyerAddress];\n      uint buyerOwes = apiBalance.amounts[buyerAddress];\n      int creditsAfter = int(buyer.credits) - int(buyerOwes);\n      if (creditsAfter < 0) {\n        // if the buyer doesn't have enough credits to pay the seller the full balance they owe,\n        // just send however much they do have\n        totalPayable = totalPayable.add(buyer.credits);\n\n        // store that the buyer now only owes the difference\n        apiBalance.amounts[buyerAddress] = buyerOwes.sub(buyer.credits);\n\n        // their address still owes money for this api, so keep it in the nonzeroAddresses array\n        apiBalance.nonzeroAddresses.push(buyerAddress);\n\n        // store credits in total credits spent\n        buyer.lifetimeCreditsUsed = buyer.lifetimeCreditsUsed.add(buyer.credits);\n\n        // zero out the buyers credits\n        buyer.credits = 0;\n\n        // mark address as overdrafted so that seller can cut off service\n        buyer.overdrafted = true;\n        buyer.lifetimeOverdraftCount += 1;\n      } else {\n        // add the total owed to the total payable\n        totalPayable = totalPayable.add(buyerOwes);\n\n        // remove the total owed\n        apiBalance.amounts[buyerAddress] = 0;\n\n        // remove the spent credits from the credits map\n        buyer.credits = uint(creditsAfter);\n\n        // mark address as in good standing\n        buyer.overdrafted = false;\n\n        // store credits in total credits spent\n        buyer.lifetimeCreditsUsed = buyer.lifetimeCreditsUsed.add(buyerOwes);\n      }\n    }\n\n    // set list of addresses with nonzero owed amount for api\n    // apiBalance.nonzeroAddresses = newNonzeroAddresses;\n    return totalPayable;\n  }\n}\n",
  "sourcePath": "/Users/chris/Documents/WorkStuff/Deconet/Blockchain/DeconetToken/contracts/APICalls.sol",
  "compiler": {
    "name": "solc",
    "version": "0.4.19+commit.c4cbbb05.Emscripten.clang"
  },
  "schemaVersion": "2.0.0",
  "updatedAt": "2018-03-09T00:32:45.495Z"
}