{
  "contractName": "APICalls",
  "abi": [
    {
      "constant": true,
      "inputs": [],
      "name": "saleFee",
      "outputs": [
        {
          "name": "",
          "type": "uint256"
        }
      ],
      "payable": false,
      "stateMutability": "view",
      "type": "function"
    },
    {
      "constant": true,
      "inputs": [],
      "name": "version",
      "outputs": [
        {
          "name": "",
          "type": "uint256"
        }
      ],
      "payable": false,
      "stateMutability": "view",
      "type": "function"
    },
    {
      "constant": true,
      "inputs": [],
      "name": "tokenReward",
      "outputs": [
        {
          "name": "",
          "type": "uint256"
        }
      ],
      "payable": false,
      "stateMutability": "view",
      "type": "function"
    },
    {
      "constant": true,
      "inputs": [],
      "name": "tokenContractAddress",
      "outputs": [
        {
          "name": "",
          "type": "address"
        }
      ],
      "payable": false,
      "stateMutability": "view",
      "type": "function"
    },
    {
      "constant": true,
      "inputs": [],
      "name": "owner",
      "outputs": [
        {
          "name": "",
          "type": "address"
        }
      ],
      "payable": false,
      "stateMutability": "view",
      "type": "function"
    },
    {
      "constant": true,
      "inputs": [],
      "name": "relayContractAddress",
      "outputs": [
        {
          "name": "",
          "type": "address"
        }
      ],
      "payable": false,
      "stateMutability": "view",
      "type": "function"
    },
    {
      "constant": false,
      "inputs": [
        {
          "name": "newOwner",
          "type": "address"
        }
      ],
      "name": "transferOwnership",
      "outputs": [],
      "payable": false,
      "stateMutability": "nonpayable",
      "type": "function"
    },
    {
      "inputs": [],
      "payable": false,
      "stateMutability": "nonpayable",
      "type": "constructor"
    },
    {
      "anonymous": false,
      "inputs": [
        {
          "indexed": false,
          "name": "apiId",
          "type": "uint256"
        },
        {
          "indexed": true,
          "name": "sellerAddress",
          "type": "address"
        },
        {
          "indexed": true,
          "name": "buyerAddress",
          "type": "address"
        },
        {
          "indexed": false,
          "name": "pricePerCall",
          "type": "uint256"
        },
        {
          "indexed": false,
          "name": "numCalls",
          "type": "uint256"
        },
        {
          "indexed": false,
          "name": "totalPrice",
          "type": "uint256"
        },
        {
          "indexed": false,
          "name": "reportingAddress",
          "type": "address"
        }
      ],
      "name": "APICallsMade",
      "type": "event"
    },
    {
      "anonymous": false,
      "inputs": [
        {
          "indexed": false,
          "name": "apiId",
          "type": "uint256"
        },
        {
          "indexed": true,
          "name": "sellerAddress",
          "type": "address"
        },
        {
          "indexed": false,
          "name": "totalPrice",
          "type": "uint256"
        },
        {
          "indexed": false,
          "name": "rewardedTokens",
          "type": "uint256"
        },
        {
          "indexed": false,
          "name": "networkFee",
          "type": "uint256"
        }
      ],
      "name": "APICallsPaid",
      "type": "event"
    },
    {
      "anonymous": false,
      "inputs": [
        {
          "indexed": false,
          "name": "contractBalance",
          "type": "uint256"
        },
        {
          "indexed": false,
          "name": "totalPayout",
          "type": "uint256"
        },
        {
          "indexed": false,
          "name": "payout",
          "type": "uint256"
        },
        {
          "indexed": false,
          "name": "fee",
          "type": "uint256"
        }
      ],
      "name": "Debug",
      "type": "event"
    },
    {
      "anonymous": false,
      "inputs": [
        {
          "indexed": false,
          "name": "tokenOwnerBalance",
          "type": "uint256"
        },
        {
          "indexed": false,
          "name": "tokenOwnerAllowance",
          "type": "uint256"
        },
        {
          "indexed": false,
          "name": "tokenReward",
          "type": "uint256"
        },
        {
          "indexed": false,
          "name": "sellerAddress",
          "type": "address"
        },
        {
          "indexed": false,
          "name": "tokenContractAddress",
          "type": "address"
        },
        {
          "indexed": false,
          "name": "tokenOwnerAddress",
          "type": "address"
        }
      ],
      "name": "DebugTwo",
      "type": "event"
    },
    {
      "anonymous": false,
      "inputs": [
        {
          "indexed": true,
          "name": "previousOwner",
          "type": "address"
        },
        {
          "indexed": true,
          "name": "newOwner",
          "type": "address"
        }
      ],
      "name": "OwnershipTransferred",
      "type": "event"
    },
    {
      "constant": false,
      "inputs": [],
      "name": "withdrawEther",
      "outputs": [],
      "payable": false,
      "stateMutability": "nonpayable",
      "type": "function"
    },
    {
      "constant": false,
      "inputs": [
        {
          "name": "_withdrawlAddress",
          "type": "address"
        }
      ],
      "name": "setWithdrawlAddress",
      "outputs": [],
      "payable": false,
      "stateMutability": "nonpayable",
      "type": "function"
    },
    {
      "constant": false,
      "inputs": [
        {
          "name": "_usageReportingAddress",
          "type": "address"
        }
      ],
      "name": "setUsageReportingAddress",
      "outputs": [],
      "payable": false,
      "stateMutability": "nonpayable",
      "type": "function"
    },
    {
      "constant": false,
      "inputs": [
        {
          "name": "_relayContractAddress",
          "type": "address"
        }
      ],
      "name": "setRelayContractAddress",
      "outputs": [],
      "payable": false,
      "stateMutability": "nonpayable",
      "type": "function"
    },
    {
      "constant": false,
      "inputs": [
        {
          "name": "_tokenContractAddress",
          "type": "address"
        }
      ],
      "name": "setTokenContractAddress",
      "outputs": [],
      "payable": false,
      "stateMutability": "nonpayable",
      "type": "function"
    },
    {
      "constant": false,
      "inputs": [
        {
          "name": "_tokenReward",
          "type": "uint256"
        }
      ],
      "name": "setTokenReward",
      "outputs": [],
      "payable": false,
      "stateMutability": "nonpayable",
      "type": "function"
    },
    {
      "constant": false,
      "inputs": [
        {
          "name": "_saleFee",
          "type": "uint256"
        }
      ],
      "name": "setSaleFee",
      "outputs": [],
      "payable": false,
      "stateMutability": "nonpayable",
      "type": "function"
    },
    {
      "constant": false,
      "inputs": [
        {
          "name": "apiId",
          "type": "uint256"
        },
        {
          "name": "numCalls",
          "type": "uint256"
        },
        {
          "name": "buyerAddress",
          "type": "address"
        }
      ],
      "name": "reportUsage",
      "outputs": [],
      "payable": false,
      "stateMutability": "nonpayable",
      "type": "function"
    },
    {
      "constant": false,
      "inputs": [
        {
          "name": "apiId",
          "type": "uint256"
        }
      ],
      "name": "paySeller",
      "outputs": [],
      "payable": false,
      "stateMutability": "nonpayable",
      "type": "function"
    },
    {
      "constant": true,
      "inputs": [
        {
          "name": "addr",
          "type": "address"
        }
      ],
      "name": "creditsBalanceOf",
      "outputs": [
        {
          "name": "",
          "type": "uint256"
        }
      ],
      "payable": false,
      "stateMutability": "view",
      "type": "function"
    },
    {
      "constant": false,
      "inputs": [
        {
          "name": "to",
          "type": "address"
        }
      ],
      "name": "addCredits",
      "outputs": [],
      "payable": true,
      "stateMutability": "payable",
      "type": "function"
    },
    {
      "constant": false,
      "inputs": [
        {
          "name": "amount",
          "type": "uint256"
        }
      ],
      "name": "withdrawCredits",
      "outputs": [],
      "payable": false,
      "stateMutability": "nonpayable",
      "type": "function"
    },
    {
      "constant": true,
      "inputs": [
        {
          "name": "apiId",
          "type": "uint256"
        }
      ],
      "name": "totalOwedForApi",
      "outputs": [
        {
          "name": "",
          "type": "uint256"
        }
      ],
      "payable": false,
      "stateMutability": "view",
      "type": "function"
    }
  ],
  "bytecode": "0x6060604052341561000f57600080fd5b336000806101000a81548173ffffffffffffffffffffffffffffffffffffffff021916908373ffffffffffffffffffffffffffffffffffffffff160217905550600160058190555068056bc75e2d63100000600181905550600a60028190555033600660006101000a81548173ffffffffffffffffffffffffffffffffffffffff021916908373ffffffffffffffffffffffffffffffffffffffff16021790555033600760006101000a81548173ffffffffffffffffffffffffffffffffffffffff021916908373ffffffffffffffffffffffffffffffffffffffff1602179055506119af806101006000396000f300606060405260043610610112576000357c0100000000000000000000000000000000000000000000000000000000900463ffffffff16806309ed178214610117578063178021e31461013a5780632d2bcd37146101635780634fe01d381461019c57806354fd4d50146101bf57806368302467146101e857806368aafcd91461020b5780636905877a146102445780636e66f6e91461027b5780637362377b146102a457806382edaf94146102b95780638da5cb5b1461030e5780638f49ccf414610363578063b23d4854146103ae578063bdcafc55146103e7578063c216c0d31461040a578063dfa93d6414610438578063f2fde38b1461048d578063f4efa3e6146104c6578063f9854bfc146104ff575b600080fd5b341561012257600080fd5b610138600480803590602001909190505061054c565b005b341561014557600080fd5b61014d61060a565b6040518082815260200191505060405180910390f35b341561016e57600080fd5b61019a600480803573ffffffffffffffffffffffffffffffffffffffff16906020019091905050610610565b005b34156101a757600080fd5b6101bd60048080359060200190919050506106af565b005b34156101ca57600080fd5b6101d2610714565b6040518082815260200191505060405180910390f35b34156101f357600080fd5b610209600480803590602001909190505061071a565b005b341561021657600080fd5b610242600480803573ffffffffffffffffffffffffffffffffffffffff16906020019091905050610908565b005b341561024f57600080fd5b61026560048080359060200190919050506109a7565b6040518082815260200191505060405180910390f35b341561028657600080fd5b61028e610a8f565b6040518082815260200191505060405180910390f35b34156102af57600080fd5b6102b7610a95565b005b34156102c457600080fd5b6102cc610b6c565b604051808273ffffffffffffffffffffffffffffffffffffffff1673ffffffffffffffffffffffffffffffffffffffff16815260200191505060405180910390f35b341561031957600080fd5b610321610b92565b604051808273ffffffffffffffffffffffffffffffffffffffff1673ffffffffffffffffffffffffffffffffffffffff16815260200191505060405180910390f35b341561036e57600080fd5b6103ac600480803590602001909190803590602001909190803573ffffffffffffffffffffffffffffffffffffffff16906020019091905050610bb7565b005b34156103b957600080fd5b6103e5600480803573ffffffffffffffffffffffffffffffffffffffff1690602001909190505061105e565b005b34156103f257600080fd5b61040860048080359060200190919050506110fd565b005b610436600480803573ffffffffffffffffffffffffffffffffffffffff16906020019091905050611162565b005b341561044357600080fd5b61044b6111c8565b604051808273ffffffffffffffffffffffffffffffffffffffff1673ffffffffffffffffffffffffffffffffffffffff16815260200191505060405180910390f35b341561049857600080fd5b6104c4600480803573ffffffffffffffffffffffffffffffffffffffff169060200190919050506111ee565b005b34156104d157600080fd5b6104fd600480803573ffffffffffffffffffffffffffffffffffffffff16906020019091905050611343565b005b341561050a57600080fd5b610536600480803573ffffffffffffffffffffffffffffffffffffffff169060200190919050506113e2565b6040518082815260200191505060405180910390f35b600080600960003373ffffffffffffffffffffffffffffffffffffffff1673ffffffffffffffffffffffffffffffffffffffff1681526020019081526020016000209150828260020154101515156105a357600080fd5b8290506105bd83836002015461143390919063ffffffff16565b82600201819055503373ffffffffffffffffffffffffffffffffffffffff166108fc829081150290604051600060405180830381858888f19350505050151561060557600080fd5b505050565b60025481565b6000809054906101000a900473ffffffffffffffffffffffffffffffffffffffff1673ffffffffffffffffffffffffffffffffffffffff163373ffffffffffffffffffffffffffffffffffffffff1614151561066b57600080fd5b80600360006101000a81548173ffffffffffffffffffffffffffffffffffffffff021916908373ffffffffffffffffffffffffffffffffffffffff16021790555050565b6000809054906101000a900473ffffffffffffffffffffffffffffffffffffffff1673ffffffffffffffffffffffffffffffffffffffff163373ffffffffffffffffffffffffffffffffffffffff1614151561070a57600080fd5b8060018190555050565b60055481565b6000806000806000806000600360009054906101000a900473ffffffffffffffffffffffffffffffffffffffff1696508673ffffffffffffffffffffffffffffffffffffffff166376b69d776000604051602001526040518163ffffffff167c0100000000000000000000000000000000000000000000000000000000028152600401602060405180830381600087803b15156107b657600080fd5b6102c65a03f115156107c757600080fd5b5050506040518051905095508594508473ffffffffffffffffffffffffffffffffffffffff1663261ac279896000604051608001526040518263ffffffff167c010000000000000000000000000000000000000000000000000000000002815260040180828152602001915050608060405180830381600087803b151561084d57600080fd5b6102c65a03f1151561085e57600080fd5b5050506040518051906020018051906020018051906020018051905080945081955082965083975050505050600084141580156108a057506000836000191614155b80156108b157506000826000191614155b80156108ea5750600073ffffffffffffffffffffffffffffffffffffffff168173ffffffffffffffffffffffffffffffffffffffff1614155b15156108f557600080fd5b6108fe8161144c565b5050505050505050565b6000809054906101000a900473ffffffffffffffffffffffffffffffffffffffff1673ffffffffffffffffffffffffffffffffffffffff163373ffffffffffffffffffffffffffffffffffffffff1614151561096357600080fd5b80600760006101000a81548173ffffffffffffffffffffffffffffffffffffffff021916908373ffffffffffffffffffffffffffffffffffffffff16021790555050565b60008060008060008060086000888152602001908152602001600020945060009350600092505b8460010180549050831015610a825784600101838154811015156109ee57fe5b906000526020600020900160009054906101000a900473ffffffffffffffffffffffffffffffffffffffff1691508460000160008373ffffffffffffffffffffffffffffffffffffffff1673ffffffffffffffffffffffffffffffffffffffff168152602001908152602001600020549050610a7381856118d990919063ffffffff16565b935082806001019350506109ce565b8395505050505050919050565b60015481565b600660009054906101000a900473ffffffffffffffffffffffffffffffffffffffff1673ffffffffffffffffffffffffffffffffffffffff163373ffffffffffffffffffffffffffffffffffffffff16141515610af157600080fd5b600660009054906101000a900473ffffffffffffffffffffffffffffffffffffffff1673ffffffffffffffffffffffffffffffffffffffff166108fc3073ffffffffffffffffffffffffffffffffffffffff16319081150290604051600060405180830381858888f193505050501515610b6a57600080fd5b565b600460009054906101000a900473ffffffffffffffffffffffffffffffffffffffff1681565b6000809054906101000a900473ffffffffffffffffffffffffffffffffffffffff1681565b6000806000806000806000806000600360009054906101000a900473ffffffffffffffffffffffffffffffffffffffff1698508873ffffffffffffffffffffffffffffffffffffffff166376b69d776000604051602001526040518163ffffffff167c0100000000000000000000000000000000000000000000000000000000028152600401602060405180830381600087803b1515610c5657600080fd5b6102c65a03f11515610c6757600080fd5b5050506040518051905097508796508673ffffffffffffffffffffffffffffffffffffffff1663261ac2798d6000604051608001526040518263ffffffff167c010000000000000000000000000000000000000000000000000000000002815260040180828152602001915050608060405180830381600087803b1515610ced57600080fd5b6102c65a03f11515610cfe57600080fd5b5050506040518051906020018051906020018051906020018051905080965081975082985083995050505050600073ffffffffffffffffffffffffffffffffffffffff168373ffffffffffffffffffffffffffffffffffffffff1614151515610d6657600080fd5b8273ffffffffffffffffffffffffffffffffffffffff163373ffffffffffffffffffffffffffffffffffffffff161480610ded5750600760009054906101000a900473ffffffffffffffffffffffffffffffffffffffff1673ffffffffffffffffffffffffffffffffffffffff163373ffffffffffffffffffffffffffffffffffffffff16145b1515610df857600080fd5b6000856000191614158015610e1257506000846000191614155b1515610e1d57600080fd5b610e308b876118f790919063ffffffff16565b9150600082111515610e4157600080fd5b600860008d8152602001908152602001600020905060008160000160008c73ffffffffffffffffffffffffffffffffffffffff1673ffffffffffffffffffffffffffffffffffffffff168152602001908152602001600020541415610f0657806001018054806001018281610eb69190611932565b916000526020600020900160008c909190916101000a81548173ffffffffffffffffffffffffffffffffffffffff021916908373ffffffffffffffffffffffffffffffffffffffff160217905550505b610f5a828260000160008d73ffffffffffffffffffffffffffffffffffffffff1673ffffffffffffffffffffffffffffffffffffffff168152602001908152602001600020546118d990919063ffffffff16565b8160000160008c73ffffffffffffffffffffffffffffffffffffffff1673ffffffffffffffffffffffffffffffffffffffff168152602001908152602001600020819055508973ffffffffffffffffffffffffffffffffffffffff168373ffffffffffffffffffffffffffffffffffffffff167f1cf7e0cf5a8d3539655c0dfa9848ae54983819244fee11dd6ff344d0e545604d8e898f8733604051808681526020018581526020018481526020018381526020018273ffffffffffffffffffffffffffffffffffffffff1673ffffffffffffffffffffffffffffffffffffffff1681526020019550505050505060405180910390a3505050505050505050505050565b6000809054906101000a900473ffffffffffffffffffffffffffffffffffffffff1673ffffffffffffffffffffffffffffffffffffffff163373ffffffffffffffffffffffffffffffffffffffff161415156110b957600080fd5b80600460006101000a81548173ffffffffffffffffffffffffffffffffffffffff021916908373ffffffffffffffffffffffffffffffffffffffff16021790555050565b6000809054906101000a900473ffffffffffffffffffffffffffffffffffffffff1673ffffffffffffffffffffffffffffffffffffffff163373ffffffffffffffffffffffffffffffffffffffff1614151561115857600080fd5b8060028190555050565b6000600960008373ffffffffffffffffffffffffffffffffffffffff1673ffffffffffffffffffffffffffffffffffffffff16815260200190815260200160002090506111bc3482600201546118d990919063ffffffff16565b81600201819055505050565b600360009054906101000a900473ffffffffffffffffffffffffffffffffffffffff1681565b6000809054906101000a900473ffffffffffffffffffffffffffffffffffffffff1673ffffffffffffffffffffffffffffffffffffffff163373ffffffffffffffffffffffffffffffffffffffff1614151561124957600080fd5b600073ffffffffffffffffffffffffffffffffffffffff168173ffffffffffffffffffffffffffffffffffffffff161415151561128557600080fd5b8073ffffffffffffffffffffffffffffffffffffffff166000809054906101000a900473ffffffffffffffffffffffffffffffffffffffff1673ffffffffffffffffffffffffffffffffffffffff167f8be0079c531659141344cd1fd0a4f28419497f9722a3daafe3b4186f6b6457e060405160405180910390a3806000806101000a81548173ffffffffffffffffffffffffffffffffffffffff021916908373ffffffffffffffffffffffffffffffffffffffff16021790555050565b6000809054906101000a900473ffffffffffffffffffffffffffffffffffffffff1673ffffffffffffffffffffffffffffffffffffffff163373ffffffffffffffffffffffffffffffffffffffff1614151561139e57600080fd5b80600660006101000a81548173ffffffffffffffffffffffffffffffffffffffff021916908373ffffffffffffffffffffffffffffffffffffffff16021790555050565b600080600960008473ffffffffffffffffffffffffffffffffffffffff1673ffffffffffffffffffffffffffffffffffffffff16815260200190815260200160002090508060020154915050919050565b600082821115151561144157fe5b818303905092915050565b600080600080600460009054906101000a900473ffffffffffffffffffffffffffffffffffffffff1693508373ffffffffffffffffffffffffffffffffffffffff16638da5cb5b6000604051602001526040518163ffffffff167c0100000000000000000000000000000000000000000000000000000000028152600401602060405180830381600087803b15156114e357600080fd5b6102c65a03f115156114f457600080fd5b5050506040518051905092508373ffffffffffffffffffffffffffffffffffffffff166370a08231846000604051602001526040518263ffffffff167c0100000000000000000000000000000000000000000000000000000000028152600401808273ffffffffffffffffffffffffffffffffffffffff1673ffffffffffffffffffffffffffffffffffffffff168152602001915050602060405180830381600087803b15156115a357600080fd5b6102c65a03f115156115b457600080fd5b5050506040518051905091508373ffffffffffffffffffffffffffffffffffffffff1663dd62ed3e84306000604051602001526040518363ffffffff167c0100000000000000000000000000000000000000000000000000000000028152600401808373ffffffffffffffffffffffffffffffffffffffff1673ffffffffffffffffffffffffffffffffffffffff1681526020018273ffffffffffffffffffffffffffffffffffffffff1673ffffffffffffffffffffffffffffffffffffffff16815260200192505050602060405180830381600087803b151561169757600080fd5b6102c65a03f115156116a857600080fd5b5050506040518051905090507fe5dbc5a5f9a9ce8521784b1bdec50849e41ab6d9c205ae6a1868bf4dd0610038828260015488600460009054906101000a900473ffffffffffffffffffffffffffffffffffffffff1688604051808781526020018681526020018581526020018473ffffffffffffffffffffffffffffffffffffffff1673ffffffffffffffffffffffffffffffffffffffff1681526020018373ffffffffffffffffffffffffffffffffffffffff1673ffffffffffffffffffffffffffffffffffffffff1681526020018273ffffffffffffffffffffffffffffffffffffffff1673ffffffffffffffffffffffffffffffffffffffff168152602001965050505050505060405180910390a160015482101580156117cf57506001548110155b156118d2578373ffffffffffffffffffffffffffffffffffffffff166323b872dd84876001546000604051602001526040518463ffffffff167c0100000000000000000000000000000000000000000000000000000000028152600401808473ffffffffffffffffffffffffffffffffffffffff1673ffffffffffffffffffffffffffffffffffffffff1681526020018373ffffffffffffffffffffffffffffffffffffffff1673ffffffffffffffffffffffffffffffffffffffff1681526020018281526020019350505050602060405180830381600087803b15156118b557600080fd5b6102c65a03f115156118c657600080fd5b50505060405180519050505b5050505050565b60008082840190508381101515156118ed57fe5b8091505092915050565b600080600084141561190c576000915061192b565b828402905082848281151561191d57fe5b0414151561192757fe5b8091505b5092915050565b81548183558181151161195957818360005260206000209182019101611958919061195e565b5b505050565b61198091905b8082111561197c576000816000905550600101611964565b5090565b905600a165627a7a72305820cdb38821a2adc8d6309b4f0ba8ad64535b7a348b91db9af46e5cbf9cc60649520029",
  "source": "pragma solidity 0.4.19;\n\nimport \"zeppelin-solidity/contracts/ownership/Ownable.sol\";\nimport \"./Relay.sol\";\nimport \"./APIRegistry.sol\";\nimport \"./DeconetToken.sol\";\n\n\n// ----------------------------------------------------------------------------\n// Records api calls and payment for them\n// ----------------------------------------------------------------------------\ncontract APICalls is Ownable {\n  using SafeMath for uint;\n\n  // the amount rewarded to a seller for selling api calls\n  uint public tokenReward;\n\n  // the fee this contract takes from every sale.  expressed as percent.  so a value of 3 indicates a 3% txn fee\n  uint public saleFee;\n\n  // address of the relay contract which holds the address of the registry contract.\n  address public relayContractAddress;\n\n  // the token address\n  address public tokenContractAddress;\n\n  // this contract version\n  uint public version;\n\n  // the address that is authorized to withdraw eth\n  address private withdrawlAddress;\n\n  // the address that is authorized to report usage on behalf of deconet\n  address private usageReportingAddress;\n\n  // maps apiId to a APIBalance which stores how much each address owes\n  mapping(uint => APIBalance) internal owed;\n\n  // maps buyer addresses to whether or not accounts are overdrafted and more\n  mapping(address => BuyerInfo) internal buyers;\n\n  struct APIBalance {\n    // maps address -> amount owed in wei\n    mapping(address => uint) amounts;\n    // basically a list of keys for the above map\n    address[] nonzeroAddresses;\n  }\n\n  struct BuyerInfo {\n    // whether or not the account is overdrafted or not\n    bool overdrafted;\n    // total number of overdrafts, ever\n    uint lifetimeOverdraftCount;\n    // credits on file with this contract (wei)\n    uint credits;\n    // total amount of credits used / spent, ever (wei)\n    uint lifetimeCreditsUsed;\n  }\n\n  event APICallsMade(\n    uint apiId,\n    address indexed sellerAddress,\n    address indexed buyerAddress,\n    uint pricePerCall,\n    uint numCalls,\n    uint totalPrice,\n    address reportingAddress\n  );\n\n  event APICallsPaid(\n    uint apiId,\n    address indexed sellerAddress,\n    uint totalPrice,\n    uint rewardedTokens,\n    uint networkFee\n  );\n\n  event Debug(\n    uint contractBalance,\n    uint totalPayout,\n    uint payout,\n    uint fee\n  );\n\n  event DebugTwo(\n    uint tokenOwnerBalance,\n    uint tokenOwnerAllowance,\n    uint tokenReward,\n    address sellerAddress,\n    address tokenContractAddress,\n    address tokenOwnerAddress\n  );\n\n  // ------------------------------------------------------------------------\n  // Constructor\n  // ------------------------------------------------------------------------\n  function APICalls() public {\n    version = 1;\n\n    // default token reward of 100 tokens.  \n    // token has 18 decimal places so that's why 100 * 10^18\n    tokenReward = 100 * 10**18;\n\n    // default saleFee of 10%\n    saleFee = 10;\n\n    // default withdrawlAddress is owner\n    withdrawlAddress = msg.sender;\n    usageReportingAddress = msg.sender;\n  }\n\n  // ------------------------------------------------------------------------\n  // Owner can transfer out any ETH\n  // ------------------------------------------------------------------------\n  function withdrawEther() public {\n    require(msg.sender == withdrawlAddress);\n    withdrawlAddress.transfer(this.balance);\n  }\n\n  // ------------------------------------------------------------------------\n  // Owner can set address of who can withdraw\n  // ------------------------------------------------------------------------\n  function setWithdrawlAddress(address _withdrawlAddress) public onlyOwner {\n    withdrawlAddress = _withdrawlAddress;\n  }\n\n  // ------------------------------------------------------------------------\n  // Owner can set address of who can report usage\n  // ------------------------------------------------------------------------\n  function setUsageReportingAddress(address _usageReportingAddress) public onlyOwner {\n    usageReportingAddress = _usageReportingAddress;\n  }\n\n  // ------------------------------------------------------------------------\n  // Owner can set address of relay contract\n  // ------------------------------------------------------------------------\n  function setRelayContractAddress(address _relayContractAddress) public onlyOwner {\n    relayContractAddress = _relayContractAddress;\n  }\n\n  // ------------------------------------------------------------------------\n  // Owner can set address of token contract\n  // ------------------------------------------------------------------------\n  function setTokenContractAddress(address _tokenContractAddress) public onlyOwner {\n    tokenContractAddress = _tokenContractAddress;\n  }\n\n  // ------------------------------------------------------------------------\n  // Owner can set token reward\n  // ------------------------------------------------------------------------\n  function setTokenReward(uint _tokenReward) public onlyOwner {\n    tokenReward = _tokenReward;\n  }\n\n  // ------------------------------------------------------------------------\n  // Owner can set the sale fee\n  // ------------------------------------------------------------------------\n  function setSaleFee(uint _saleFee) public onlyOwner {\n    saleFee = _saleFee;\n  }\n\n  // ------------------------------------------------------------------------\n  // The API owner or the authorized deconet usage reporting address may report usage\n  // ------------------------------------------------------------------------\n  function reportUsage(uint apiId, uint numCalls, address buyerAddress) public {\n    // look up the registry address from relay contract\n    Relay relay = Relay(relayContractAddress);\n    address apiRegistryAddress = relay.apiRegistryContractAddress();\n\n    // get the module info from registry\n    APIRegistry apiRegistry = APIRegistry(apiRegistryAddress);\n\n    uint pricePerCall;\n    bytes32 sellerUsername;\n    bytes32 apiName;\n    address sellerAddress;\n\n    (pricePerCall, sellerUsername, apiName, sellerAddress) = apiRegistry.getApiByIdWithoutDynamics(apiId);\n\n    // // make sure the caller is either the api owner or the deconet reporting address\n    require(sellerAddress != address(0));\n    require(msg.sender == sellerAddress || msg.sender == usageReportingAddress);\n\n    // // make sure the module is actually valid\n    require(sellerUsername != \"\" && apiName != \"\");\n\n    uint totalPrice = pricePerCall.mul(numCalls);\n\n    require(totalPrice > 0);\n\n    APIBalance storage apiBalance = owed[apiId];\n\n    if (apiBalance.amounts[buyerAddress] == 0) {\n      // add buyerAddress to list of addresses with nonzero balance for this api\n      apiBalance.nonzeroAddresses.push(buyerAddress);\n    }\n\n    apiBalance.amounts[buyerAddress] = apiBalance.amounts[buyerAddress].add(totalPrice);\n\n    APICallsMade(\n      apiId,\n      sellerAddress,\n      buyerAddress,\n      pricePerCall,\n      numCalls,\n      totalPrice,\n      msg.sender\n    );\n  }\n\n  function paySeller(uint apiId) public {\n    // look up the registry address from relay contract\n    Relay relay = Relay(relayContractAddress);\n    address apiRegistryAddress = relay.apiRegistryContractAddress();\n\n    // get the module info from registry\n    APIRegistry apiRegistry = APIRegistry(apiRegistryAddress);\n\n    uint pricePerCall;\n    bytes32 sellerUsername;\n    bytes32 apiName;\n    address sellerAddress;\n\n    (pricePerCall, sellerUsername, apiName, sellerAddress) = apiRegistry.getApiByIdWithoutDynamics(apiId);\n\n    // make sure it's a legit real api\n    require(pricePerCall != 0 && sellerUsername != \"\" && apiName != \"\" && sellerAddress != address(0));\n\n    rewardTokens(sellerAddress);\n\n    // // calculate totalPayable for the api\n    // // uint totalPayable = calculateTotalPayable(apiId);\n    // uint totalPayable = 20000;\n\n    // // calculate fee and payout\n    // // fixed point math at 2 decimal places\n    // uint fee = totalPayable.mul(100).div(saleFee).div(100);\n    // uint payout = totalPayable.sub(fee);\n\n    // Debug(\n    //   this.balance,\n    //   totalPayable,\n    //   payout,\n    //   fee\n    // );\n\n    // APICallsPaid(\n    //   apiId,\n    //   sellerAddress,\n    //   totalPayable,\n    //   tokenReward,\n    //   fee\n    // );\n\n    // // // give seller some tokens for the sale\n    // rewardTokens(sellerAddress);\n\n    // // // transfer seller the eth\n    // sellerAddress.transfer(payout);\n  }\n\n  function creditsBalanceOf(address addr) public view returns (uint) {\n    BuyerInfo storage buyer = buyers[addr];\n    return buyer.credits;\n  }\n\n  function addCredits(address to) public payable {\n    BuyerInfo storage buyer = buyers[to];\n    buyer.credits = buyer.credits.add(msg.value);\n  }\n\n  function withdrawCredits(uint amount) public {\n    BuyerInfo storage buyer = buyers[msg.sender];\n    require(buyer.credits >= amount);\n    uint creditsToSend = amount;\n    buyer.credits = buyer.credits.sub(amount);\n    msg.sender.transfer(creditsToSend);\n  }\n\n  function totalOwedForApi(uint apiId) public view returns (uint) {\n    APIBalance storage apiBalance = owed[apiId];\n\n    uint totalOwed = 0;\n    for (uint i = 0; i < apiBalance.nonzeroAddresses.length; i++) {\n      address buyerAddress = apiBalance.nonzeroAddresses[i];\n      uint buyerOwes = apiBalance.amounts[buyerAddress];\n      totalOwed = totalOwed.add(buyerOwes);\n    }\n\n    return totalOwed;\n  }\n\n  function rewardTokens(address toReward) private {\n    DeconetToken token = DeconetToken(tokenContractAddress);\n    address tokenOwner = token.owner();\n\n    // check balance of tokenOwner\n    uint tokenOwnerBalance = token.balanceOf(tokenOwner);\n    uint tokenOwnerAllowance = token.allowance(tokenOwner, address(this));\n    DebugTwo(\n      tokenOwnerBalance,\n      tokenOwnerAllowance,\n      tokenReward,\n      toReward,\n      tokenContractAddress,\n      tokenOwner\n    );\n    if (tokenOwnerBalance >= tokenReward && tokenOwnerAllowance >= tokenReward) {\n      token.transferFrom(tokenOwner, toReward, tokenReward);\n    }\n  }\n\n  function calculateTotalPayable(uint apiId) private returns (uint) {\n    APIBalance storage apiBalance = owed[apiId];\n\n    uint totalPayable = 0;\n    address[] storage newNonzeroAddresses;\n    for (uint i = 0; i < apiBalance.nonzeroAddresses.length; i++) {\n      address buyerAddress = apiBalance.nonzeroAddresses[i];\n      BuyerInfo storage buyer = buyers[buyerAddress];\n      uint buyerOwes = apiBalance.amounts[buyerAddress];\n      int creditsAfter = int(buyer.credits) - int(buyerOwes);\n      if (creditsAfter < 0) {\n        // if the buyer doesn't have enough credits to pay the seller the full balance they owe,\n        // just send however much they do have\n        totalPayable = totalPayable.add(buyer.credits);\n\n        // store that the buyer now only owes the difference\n        apiBalance.amounts[buyerAddress] = buyerOwes.sub(buyer.credits);\n\n        // their address still owes money for this api, so keep it in the nonzeroAddresses array\n        newNonzeroAddresses.push(buyerAddress);\n\n        // store credits in total credits spent\n        buyer.lifetimeCreditsUsed = buyer.lifetimeCreditsUsed.add(buyer.credits);\n\n        // zero out the buyers credits\n        buyer.credits = 0;\n\n        // mark address as overdrafted so that seller can cut off service\n        buyer.overdrafted = true;\n        buyer.lifetimeOverdraftCount += 1;\n      } else {\n        // add the total owed to the total payable\n        totalPayable = totalPayable.add(buyerOwes);\n\n        // remove the total owed\n        apiBalance.amounts[buyerAddress] = 0;\n\n        // remove the spent credits from the credits map\n        buyer.credits = uint(creditsAfter);\n\n        // mark address as in good standing\n        buyer.overdrafted = false;\n\n        // store credits in total credits spent\n        buyer.lifetimeCreditsUsed = buyer.lifetimeCreditsUsed.add(buyerOwes);\n      }\n    }\n\n    // set list of addresses with nonzero owed amount for api\n    apiBalance.nonzeroAddresses = newNonzeroAddresses;\n    return totalPayable;\n  }\n}\n",
  "sourcePath": "/Users/chris/Documents/WorkStuff/Deconet/Blockchain/DeconetToken/contracts/APICalls.sol",
  "compiler": {
    "name": "solc",
    "version": "0.4.19+commit.c4cbbb05.Emscripten.clang"
  },
  "schemaVersion": "2.0.0",
  "updatedAt": "2018-03-08T03:52:51.407Z"
}