{
  "contractName": "APICalls",
  "abi": [
    {
      "constant": true,
      "inputs": [],
      "name": "saleFee",
      "outputs": [
        {
          "name": "",
          "type": "uint256"
        }
      ],
      "payable": false,
      "stateMutability": "view",
      "type": "function"
    },
    {
      "constant": true,
      "inputs": [],
      "name": "version",
      "outputs": [
        {
          "name": "",
          "type": "uint256"
        }
      ],
      "payable": false,
      "stateMutability": "view",
      "type": "function"
    },
    {
      "constant": true,
      "inputs": [],
      "name": "tokenReward",
      "outputs": [
        {
          "name": "",
          "type": "uint256"
        }
      ],
      "payable": false,
      "stateMutability": "view",
      "type": "function"
    },
    {
      "constant": true,
      "inputs": [],
      "name": "tokenContractAddress",
      "outputs": [
        {
          "name": "",
          "type": "address"
        }
      ],
      "payable": false,
      "stateMutability": "view",
      "type": "function"
    },
    {
      "constant": true,
      "inputs": [],
      "name": "owner",
      "outputs": [
        {
          "name": "",
          "type": "address"
        }
      ],
      "payable": false,
      "stateMutability": "view",
      "type": "function"
    },
    {
      "constant": true,
      "inputs": [],
      "name": "relayContractAddress",
      "outputs": [
        {
          "name": "",
          "type": "address"
        }
      ],
      "payable": false,
      "stateMutability": "view",
      "type": "function"
    },
    {
      "constant": false,
      "inputs": [
        {
          "name": "newOwner",
          "type": "address"
        }
      ],
      "name": "transferOwnership",
      "outputs": [],
      "payable": false,
      "stateMutability": "nonpayable",
      "type": "function"
    },
    {
      "inputs": [],
      "payable": false,
      "stateMutability": "nonpayable",
      "type": "constructor"
    },
    {
      "anonymous": false,
      "inputs": [
        {
          "indexed": false,
          "name": "apiId",
          "type": "uint256"
        },
        {
          "indexed": true,
          "name": "sellerAddress",
          "type": "address"
        },
        {
          "indexed": true,
          "name": "buyerAddress",
          "type": "address"
        },
        {
          "indexed": false,
          "name": "pricePerCall",
          "type": "uint256"
        },
        {
          "indexed": false,
          "name": "numCalls",
          "type": "uint256"
        },
        {
          "indexed": false,
          "name": "totalPrice",
          "type": "uint256"
        },
        {
          "indexed": false,
          "name": "reportingAddress",
          "type": "address"
        }
      ],
      "name": "LogAPICallsMade",
      "type": "event"
    },
    {
      "anonymous": false,
      "inputs": [
        {
          "indexed": false,
          "name": "apiId",
          "type": "uint256"
        },
        {
          "indexed": true,
          "name": "sellerAddress",
          "type": "address"
        },
        {
          "indexed": false,
          "name": "totalPrice",
          "type": "uint256"
        },
        {
          "indexed": false,
          "name": "rewardedTokens",
          "type": "uint256"
        },
        {
          "indexed": false,
          "name": "networkFee",
          "type": "uint256"
        }
      ],
      "name": "LogAPICallsPaid",
      "type": "event"
    },
    {
      "anonymous": false,
      "inputs": [
        {
          "indexed": true,
          "name": "buyerAddress",
          "type": "address"
        },
        {
          "indexed": false,
          "name": "apiId",
          "type": "uint256"
        },
        {
          "indexed": false,
          "name": "amount",
          "type": "uint256"
        },
        {
          "indexed": false,
          "name": "causedAnOverdraft",
          "type": "bool"
        }
      ],
      "name": "LogSpendCredits",
      "type": "event"
    },
    {
      "anonymous": false,
      "inputs": [
        {
          "indexed": true,
          "name": "buyerAddress",
          "type": "address"
        },
        {
          "indexed": false,
          "name": "amount",
          "type": "uint256"
        }
      ],
      "name": "LogDepositCredits",
      "type": "event"
    },
    {
      "anonymous": false,
      "inputs": [
        {
          "indexed": true,
          "name": "buyerAddress",
          "type": "address"
        },
        {
          "indexed": false,
          "name": "amount",
          "type": "uint256"
        }
      ],
      "name": "LogWithdrawCredits",
      "type": "event"
    },
    {
      "anonymous": false,
      "inputs": [
        {
          "indexed": true,
          "name": "previousOwner",
          "type": "address"
        },
        {
          "indexed": true,
          "name": "newOwner",
          "type": "address"
        }
      ],
      "name": "OwnershipTransferred",
      "type": "event"
    },
    {
      "constant": false,
      "inputs": [
        {
          "name": "amount",
          "type": "uint256"
        }
      ],
      "name": "withdrawEther",
      "outputs": [],
      "payable": false,
      "stateMutability": "nonpayable",
      "type": "function"
    },
    {
      "constant": false,
      "inputs": [
        {
          "name": "_withdrawAddress",
          "type": "address"
        }
      ],
      "name": "setWithdrawAddress",
      "outputs": [],
      "payable": false,
      "stateMutability": "nonpayable",
      "type": "function"
    },
    {
      "constant": false,
      "inputs": [
        {
          "name": "_usageReportingAddress",
          "type": "address"
        }
      ],
      "name": "setUsageReportingAddress",
      "outputs": [],
      "payable": false,
      "stateMutability": "nonpayable",
      "type": "function"
    },
    {
      "constant": false,
      "inputs": [
        {
          "name": "_relayContractAddress",
          "type": "address"
        }
      ],
      "name": "setRelayContractAddress",
      "outputs": [],
      "payable": false,
      "stateMutability": "nonpayable",
      "type": "function"
    },
    {
      "constant": false,
      "inputs": [
        {
          "name": "_tokenContractAddress",
          "type": "address"
        }
      ],
      "name": "setTokenContractAddress",
      "outputs": [],
      "payable": false,
      "stateMutability": "nonpayable",
      "type": "function"
    },
    {
      "constant": false,
      "inputs": [
        {
          "name": "_tokenReward",
          "type": "uint256"
        }
      ],
      "name": "setTokenReward",
      "outputs": [],
      "payable": false,
      "stateMutability": "nonpayable",
      "type": "function"
    },
    {
      "constant": false,
      "inputs": [
        {
          "name": "_saleFee",
          "type": "uint256"
        }
      ],
      "name": "setSaleFee",
      "outputs": [],
      "payable": false,
      "stateMutability": "nonpayable",
      "type": "function"
    },
    {
      "constant": false,
      "inputs": [
        {
          "name": "apiId",
          "type": "uint256"
        },
        {
          "name": "numCalls",
          "type": "uint256"
        },
        {
          "name": "buyerAddress",
          "type": "address"
        }
      ],
      "name": "reportUsage",
      "outputs": [],
      "payable": false,
      "stateMutability": "nonpayable",
      "type": "function"
    },
    {
      "constant": false,
      "inputs": [
        {
          "name": "apiId",
          "type": "uint256"
        }
      ],
      "name": "paySeller",
      "outputs": [],
      "payable": false,
      "stateMutability": "nonpayable",
      "type": "function"
    },
    {
      "constant": true,
      "inputs": [
        {
          "name": "addr",
          "type": "address"
        }
      ],
      "name": "buyerInfoOf",
      "outputs": [
        {
          "name": "overdrafted",
          "type": "bool"
        },
        {
          "name": "lifetimeOverdraftCount",
          "type": "uint256"
        },
        {
          "name": "credits",
          "type": "uint256"
        },
        {
          "name": "lifetimeCreditsUsed",
          "type": "uint256"
        }
      ],
      "payable": false,
      "stateMutability": "view",
      "type": "function"
    },
    {
      "constant": true,
      "inputs": [
        {
          "name": "addr",
          "type": "address"
        }
      ],
      "name": "creditsBalanceOf",
      "outputs": [
        {
          "name": "",
          "type": "uint256"
        }
      ],
      "payable": false,
      "stateMutability": "view",
      "type": "function"
    },
    {
      "constant": false,
      "inputs": [
        {
          "name": "to",
          "type": "address"
        }
      ],
      "name": "addCredits",
      "outputs": [],
      "payable": true,
      "stateMutability": "payable",
      "type": "function"
    },
    {
      "constant": false,
      "inputs": [
        {
          "name": "amount",
          "type": "uint256"
        }
      ],
      "name": "withdrawCredits",
      "outputs": [],
      "payable": false,
      "stateMutability": "nonpayable",
      "type": "function"
    },
    {
      "constant": true,
      "inputs": [
        {
          "name": "apiId",
          "type": "uint256"
        },
        {
          "name": "index",
          "type": "uint256"
        }
      ],
      "name": "nonzeroAddressesElementForApi",
      "outputs": [
        {
          "name": "",
          "type": "address"
        }
      ],
      "payable": false,
      "stateMutability": "view",
      "type": "function"
    },
    {
      "constant": true,
      "inputs": [
        {
          "name": "apiId",
          "type": "uint256"
        }
      ],
      "name": "nonzeroAddressesLengthForApi",
      "outputs": [
        {
          "name": "",
          "type": "uint256"
        }
      ],
      "payable": false,
      "stateMutability": "view",
      "type": "function"
    },
    {
      "constant": true,
      "inputs": [
        {
          "name": "apiId",
          "type": "uint256"
        }
      ],
      "name": "totalOwedForApi",
      "outputs": [
        {
          "name": "",
          "type": "uint256"
        }
      ],
      "payable": false,
      "stateMutability": "view",
      "type": "function"
    }
  ],
  "bytecode": "0x6060604052341561000f57600080fd5b336000806101000a81548173ffffffffffffffffffffffffffffffffffffffff021916908373ffffffffffffffffffffffffffffffffffffffff160217905550600160058190555068056bc75e2d63100000600181905550600a60028190555033600660006101000a81548173ffffffffffffffffffffffffffffffffffffffff021916908373ffffffffffffffffffffffffffffffffffffffff16021790555033600860006101000a81548173ffffffffffffffffffffffffffffffffffffffff021916908373ffffffffffffffffffffffffffffffffffffffff16021790555061224f806101006000396000f300606060405260043610610133576000357c0100000000000000000000000000000000000000000000000000000000900463ffffffff16806309ed178214610138578063178021e31461015b5780632d2bcd371461018457806335e4d30f146101bd5780633ab1a494146102295780633bed33ce1461026257806344e2f9ad146102855780634fe01d38146102eb57806354fd4d501461030e578063683024671461033757806368aafcd91461035a5780636905877a146103935780636e66f6e9146103ca57806382edaf94146103f35780638da5cb5b146104485780638f49ccf41461049d578063a38b68cb146104e8578063b23d48541461051f578063bdcafc5514610558578063c216c0d31461057b578063dfa93d64146105a9578063f2fde38b146105fe578063f9854bfc14610637575b600080fd5b341561014357600080fd5b6101596004808035906020019091905050610684565b005b341561016657600080fd5b61016e61078b565b6040518082815260200191505060405180910390f35b341561018f57600080fd5b6101bb600480803573ffffffffffffffffffffffffffffffffffffffff16906020019091905050610791565b005b34156101c857600080fd5b6101e76004808035906020019091908035906020019091905050610830565b604051808273ffffffffffffffffffffffffffffffffffffffff1673ffffffffffffffffffffffffffffffffffffffff16815260200191505060405180910390f35b341561023457600080fd5b610260600480803573ffffffffffffffffffffffffffffffffffffffff1690602001909190505061088e565b005b341561026d57600080fd5b610283600480803590602001909190505061092d565b005b341561029057600080fd5b6102bc600480803573ffffffffffffffffffffffffffffffffffffffff16906020019091905050610a40565b604051808515151515815260200184815260200183815260200182815260200194505050505060405180910390f35b34156102f657600080fd5b61030c6004808035906020019091905050610aba565b005b341561031957600080fd5b610321610b1f565b6040518082815260200191505060405180910390f35b341561034257600080fd5b6103586004808035906020019091905050610b25565b005b341561036557600080fd5b610391600480803573ffffffffffffffffffffffffffffffffffffffff16906020019091905050610e2f565b005b341561039e57600080fd5b6103b46004808035906020019091905050610ece565b6040518082815260200191505060405180910390f35b34156103d557600080fd5b6103dd610fb6565b6040518082815260200191505060405180910390f35b34156103fe57600080fd5b610406610fbc565b604051808273ffffffffffffffffffffffffffffffffffffffff1673ffffffffffffffffffffffffffffffffffffffff16815260200191505060405180910390f35b341561045357600080fd5b61045b610fe2565b604051808273ffffffffffffffffffffffffffffffffffffffff1673ffffffffffffffffffffffffffffffffffffffff16815260200191505060405180910390f35b34156104a857600080fd5b6104e6600480803590602001909190803590602001909190803573ffffffffffffffffffffffffffffffffffffffff16906020019091905050611007565b005b34156104f357600080fd5b61050960048080359060200190919050506114ae565b6040518082815260200191505060405180910390f35b341561052a57600080fd5b610556600480803573ffffffffffffffffffffffffffffffffffffffff169060200190919050506114d6565b005b341561056357600080fd5b6105796004808035906020019091905050611575565b005b6105a7600480803573ffffffffffffffffffffffffffffffffffffffff169060200190919050506115da565b005b34156105b457600080fd5b6105bc61168e565b604051808273ffffffffffffffffffffffffffffffffffffffff1673ffffffffffffffffffffffffffffffffffffffff16815260200191505060405180910390f35b341561060957600080fd5b610635600480803573ffffffffffffffffffffffffffffffffffffffff169060200190919050506116b4565b005b341561064257600080fd5b61066e600480803573ffffffffffffffffffffffffffffffffffffffff16906020019091905050611809565b6040518082815260200191505060405180910390f35b6000600a60003373ffffffffffffffffffffffffffffffffffffffff1673ffffffffffffffffffffffffffffffffffffffff1681526020019081526020016000209050818160020154101515156106da57600080fd5b6106f182826002015461185a90919063ffffffff16565b81600201819055503373ffffffffffffffffffffffffffffffffffffffff166108fc839081150290604051600060405180830381858888f19350505050151561073957600080fd5b3373ffffffffffffffffffffffffffffffffffffffff167f8320a4c3c11a89c7523cf703d3e175d919c423fb9c2408e2249d3196a1489156836040518082815260200191505060405180910390a25050565b60025481565b6000809054906101000a900473ffffffffffffffffffffffffffffffffffffffff1673ffffffffffffffffffffffffffffffffffffffff163373ffffffffffffffffffffffffffffffffffffffff161415156107ec57600080fd5b80600360006101000a81548173ffffffffffffffffffffffffffffffffffffffff021916908373ffffffffffffffffffffffffffffffffffffffff16021790555050565b600080600960008581526020019081526020016000209050806001018381548110151561085957fe5b906000526020600020900160009054906101000a900473ffffffffffffffffffffffffffffffffffffffff1691505092915050565b6000809054906101000a900473ffffffffffffffffffffffffffffffffffffffff1673ffffffffffffffffffffffffffffffffffffffff163373ffffffffffffffffffffffffffffffffffffffff161415156108e957600080fd5b80600660006101000a81548173ffffffffffffffffffffffffffffffffffffffff021916908373ffffffffffffffffffffffffffffffffffffffff16021790555050565b600660009054906101000a900473ffffffffffffffffffffffffffffffffffffffff1673ffffffffffffffffffffffffffffffffffffffff163373ffffffffffffffffffffffffffffffffffffffff1614151561098957600080fd5b3073ffffffffffffffffffffffffffffffffffffffff163181111515156109af57600080fd5b60075481111515156109c057600080fd5b6109d58160075461185a90919063ffffffff16565b600781905550600660009054906101000a900473ffffffffffffffffffffffffffffffffffffffff1673ffffffffffffffffffffffffffffffffffffffff166108fc829081150290604051600060405180830381858888f193505050501515610a3d57600080fd5b50565b6000806000806000600a60008773ffffffffffffffffffffffffffffffffffffffff1673ffffffffffffffffffffffffffffffffffffffff16815260200190815260200160002090508060000160009054906101000a900460ff169450806001015493508060020154925080600301549150509193509193565b6000809054906101000a900473ffffffffffffffffffffffffffffffffffffffff1673ffffffffffffffffffffffffffffffffffffffff163373ffffffffffffffffffffffffffffffffffffffff16141515610b1557600080fd5b8060018190555050565b60055481565b600080600080600080600080600080600360009054906101000a900473ffffffffffffffffffffffffffffffffffffffff1699508973ffffffffffffffffffffffffffffffffffffffff166376b69d776000604051602001526040518163ffffffff167c0100000000000000000000000000000000000000000000000000000000028152600401602060405180830381600087803b1515610bc557600080fd5b6102c65a03f11515610bd657600080fd5b5050506040518051905098508897508773ffffffffffffffffffffffffffffffffffffffff1663261ac2798c6000604051608001526040518263ffffffff167c010000000000000000000000000000000000000000000000000000000002815260040180828152602001915050608060405180830381600087803b1515610c5c57600080fd5b6102c65a03f11515610c6d57600080fd5b50505060405180519060200180519060200180519060200180519050809750819850829950839a505050505060008714158015610caf57506000866000191614155b8015610cc057506000856000191614155b8015610cf95750600073ffffffffffffffffffffffffffffffffffffffff168473ffffffffffffffffffffffffffffffffffffffff1614155b1515610d0457600080fd5b610d0d8b611873565b9250610d4a6064610d3c600254610d2e606488611cf790919063ffffffff16565b611d3290919063ffffffff16565b611d3290919063ffffffff16565b9150610d5f828461185a90919063ffffffff16565b9050816007600082825401925050819055508373ffffffffffffffffffffffffffffffffffffffff167f5b430a575759cc9db812e031edf08ea2ab9974b0811d9cc0b851642cd0713b278c85600154866040518085815260200184815260200183815260200182815260200194505050505060405180910390a2610de284611d4d565b8373ffffffffffffffffffffffffffffffffffffffff166108fc829081150290604051600060405180830381858888f193505050501515610e2257600080fd5b5050505050505050505050565b6000809054906101000a900473ffffffffffffffffffffffffffffffffffffffff1673ffffffffffffffffffffffffffffffffffffffff163373ffffffffffffffffffffffffffffffffffffffff16141515610e8a57600080fd5b80600860006101000a81548173ffffffffffffffffffffffffffffffffffffffff021916908373ffffffffffffffffffffffffffffffffffffffff16021790555050565b60008060008060008060096000888152602001908152602001600020945060009350600092505b8460010180549050831015610fa9578460010183815481101515610f1557fe5b906000526020600020900160009054906101000a900473ffffffffffffffffffffffffffffffffffffffff1691508460000160008373ffffffffffffffffffffffffffffffffffffffff1673ffffffffffffffffffffffffffffffffffffffff168152602001908152602001600020549050610f9a81856120d390919063ffffffff16565b93508280600101935050610ef5565b8395505050505050919050565b60015481565b600460009054906101000a900473ffffffffffffffffffffffffffffffffffffffff1681565b6000809054906101000a900473ffffffffffffffffffffffffffffffffffffffff1681565b6000806000806000806000806000600360009054906101000a900473ffffffffffffffffffffffffffffffffffffffff1698508873ffffffffffffffffffffffffffffffffffffffff166376b69d776000604051602001526040518163ffffffff167c0100000000000000000000000000000000000000000000000000000000028152600401602060405180830381600087803b15156110a657600080fd5b6102c65a03f115156110b757600080fd5b5050506040518051905097508796508673ffffffffffffffffffffffffffffffffffffffff1663261ac2798d6000604051608001526040518263ffffffff167c010000000000000000000000000000000000000000000000000000000002815260040180828152602001915050608060405180830381600087803b151561113d57600080fd5b6102c65a03f1151561114e57600080fd5b5050506040518051906020018051906020018051906020018051905080965081975082985083995050505050600073ffffffffffffffffffffffffffffffffffffffff168373ffffffffffffffffffffffffffffffffffffffff16141515156111b657600080fd5b8273ffffffffffffffffffffffffffffffffffffffff163373ffffffffffffffffffffffffffffffffffffffff16148061123d5750600860009054906101000a900473ffffffffffffffffffffffffffffffffffffffff1673ffffffffffffffffffffffffffffffffffffffff163373ffffffffffffffffffffffffffffffffffffffff16145b151561124857600080fd5b600085600019161415801561126257506000846000191614155b151561126d57600080fd5b6112808b87611cf790919063ffffffff16565b915060008211151561129157600080fd5b600960008d8152602001908152602001600020905060008160000160008c73ffffffffffffffffffffffffffffffffffffffff1673ffffffffffffffffffffffffffffffffffffffff1681526020019081526020016000205414156113565780600101805480600101828161130691906120f1565b916000526020600020900160008c909190916101000a81548173ffffffffffffffffffffffffffffffffffffffff021916908373ffffffffffffffffffffffffffffffffffffffff160217905550505b6113aa828260000160008d73ffffffffffffffffffffffffffffffffffffffff1673ffffffffffffffffffffffffffffffffffffffff168152602001908152602001600020546120d390919063ffffffff16565b8160000160008c73ffffffffffffffffffffffffffffffffffffffff1673ffffffffffffffffffffffffffffffffffffffff168152602001908152602001600020819055508973ffffffffffffffffffffffffffffffffffffffff168373ffffffffffffffffffffffffffffffffffffffff167fe000b526d00ac563daef41443c79e488cc5350a03b076e3ec9c924c649315d958e898f8733604051808681526020018581526020018481526020018381526020018273ffffffffffffffffffffffffffffffffffffffff1673ffffffffffffffffffffffffffffffffffffffff1681526020019550505050505060405180910390a3505050505050505050505050565b6000806009600084815260200190815260200160002090508060010180549050915050919050565b6000809054906101000a900473ffffffffffffffffffffffffffffffffffffffff1673ffffffffffffffffffffffffffffffffffffffff163373ffffffffffffffffffffffffffffffffffffffff1614151561153157600080fd5b80600460006101000a81548173ffffffffffffffffffffffffffffffffffffffff021916908373ffffffffffffffffffffffffffffffffffffffff16021790555050565b6000809054906101000a900473ffffffffffffffffffffffffffffffffffffffff1673ffffffffffffffffffffffffffffffffffffffff163373ffffffffffffffffffffffffffffffffffffffff161415156115d057600080fd5b8060028190555050565b6000600a60008373ffffffffffffffffffffffffffffffffffffffff1673ffffffffffffffffffffffffffffffffffffffff16815260200190815260200160002090506116343482600201546120d390919063ffffffff16565b81600201819055508173ffffffffffffffffffffffffffffffffffffffff167f86f8e33b41070d06fb89c32da953989505fce79d2f2de15c71992c57e8e75339346040518082815260200191505060405180910390a25050565b600360009054906101000a900473ffffffffffffffffffffffffffffffffffffffff1681565b6000809054906101000a900473ffffffffffffffffffffffffffffffffffffffff1673ffffffffffffffffffffffffffffffffffffffff163373ffffffffffffffffffffffffffffffffffffffff1614151561170f57600080fd5b600073ffffffffffffffffffffffffffffffffffffffff168173ffffffffffffffffffffffffffffffffffffffff161415151561174b57600080fd5b8073ffffffffffffffffffffffffffffffffffffffff166000809054906101000a900473ffffffffffffffffffffffffffffffffffffffff1673ffffffffffffffffffffffffffffffffffffffff167f8be0079c531659141344cd1fd0a4f28419497f9722a3daafe3b4186f6b6457e060405160405180910390a3806000806101000a81548173ffffffffffffffffffffffffffffffffffffffff021916908373ffffffffffffffffffffffffffffffffffffffff16021790555050565b600080600a60008473ffffffffffffffffffffffffffffffffffffffff1673ffffffffffffffffffffffffffffffffffffffff16815260200190815260200160002090508060020154915050919050565b600082821115151561186857fe5b818303905092915050565b600080600061188061211d565b6000806000806000600960008b81526020019081526020016000209750600096508760010180548060200260200160405190810160405280929190818152602001828054801561192557602002820191906000526020600020905b8160009054906101000a900473ffffffffffffffffffffffffffffffffffffffff1673ffffffffffffffffffffffffffffffffffffffff16815260200190600101908083116118db575b50505050509550600060405180591061193b5750595b9080825280602002602001820160405250886001019080519060200190611963929190612131565b50600094505b8551851015611ce757858581518110151561198057fe5b906020019060200201519350600a60008573ffffffffffffffffffffffffffffffffffffffff1673ffffffffffffffffffffffffffffffffffffffff16815260200190815260200160002092508760000160008573ffffffffffffffffffffffffffffffffffffffff1673ffffffffffffffffffffffffffffffffffffffff1681526020019081526020016000205491508183600201540390506000811215611bd557611a3a8360020154886120d390919063ffffffff16565b9650611a5383600201548361185a90919063ffffffff16565b8860000160008673ffffffffffffffffffffffffffffffffffffffff1673ffffffffffffffffffffffffffffffffffffffff16815260200190815260200160002081905550876001018054806001018281611aae91906120f1565b9160005260206000209001600086909190916101000a81548173ffffffffffffffffffffffffffffffffffffffff021916908373ffffffffffffffffffffffffffffffffffffffff16021790555050611b18836002015484600301546120d390919063ffffffff16565b836003018190555060008360020154141515611b96578373ffffffffffffffffffffffffffffffffffffffff167f2917b46ea0b473a61e5205f9790f64817088b9a82eb47ca1256e2c3302826d6c8b856002015460016040518084815260200183815260200182151515158152602001935050505060405180910390a25b6000836002018190555060018360000160006101000a81548160ff02191690831515021790555060018360010160008282540192505081905550611cda565b611be882886120d390919063ffffffff16565b965060008860000160008673ffffffffffffffffffffffffffffffffffffffff1673ffffffffffffffffffffffffffffffffffffffff1681526020019081526020016000208190555080836002018190555060008360000160006101000a81548160ff021916908315150217905550611c6e8284600301546120d390919063ffffffff16565b83600301819055508373ffffffffffffffffffffffffffffffffffffffff167f2917b46ea0b473a61e5205f9790f64817088b9a82eb47ca1256e2c3302826d6c8b8460006040518084815260200183815260200182151515158152602001935050505060405180910390a25b8480600101955050611969565b8698505050505050505050919050565b6000806000841415611d0c5760009150611d2b565b8284029050828482811515611d1d57fe5b04141515611d2757fe5b8091505b5092915050565b6000808284811515611d4057fe5b0490508091505092915050565b600080600080600460009054906101000a900473ffffffffffffffffffffffffffffffffffffffff1693508373ffffffffffffffffffffffffffffffffffffffff16638da5cb5b6000604051602001526040518163ffffffff167c0100000000000000000000000000000000000000000000000000000000028152600401602060405180830381600087803b1515611de457600080fd5b6102c65a03f11515611df557600080fd5b5050506040518051905092508373ffffffffffffffffffffffffffffffffffffffff166370a08231846000604051602001526040518263ffffffff167c0100000000000000000000000000000000000000000000000000000000028152600401808273ffffffffffffffffffffffffffffffffffffffff1673ffffffffffffffffffffffffffffffffffffffff168152602001915050602060405180830381600087803b1515611ea457600080fd5b6102c65a03f11515611eb557600080fd5b5050506040518051905091508373ffffffffffffffffffffffffffffffffffffffff1663dd62ed3e84306000604051602001526040518363ffffffff167c0100000000000000000000000000000000000000000000000000000000028152600401808373ffffffffffffffffffffffffffffffffffffffff1673ffffffffffffffffffffffffffffffffffffffff1681526020018273ffffffffffffffffffffffffffffffffffffffff1673ffffffffffffffffffffffffffffffffffffffff16815260200192505050602060405180830381600087803b1515611f9857600080fd5b6102c65a03f11515611fa957600080fd5b5050506040518051905090506001548210158015611fc957506001548110155b156120cc578373ffffffffffffffffffffffffffffffffffffffff166323b872dd84876001546000604051602001526040518463ffffffff167c0100000000000000000000000000000000000000000000000000000000028152600401808473ffffffffffffffffffffffffffffffffffffffff1673ffffffffffffffffffffffffffffffffffffffff1681526020018373ffffffffffffffffffffffffffffffffffffffff1673ffffffffffffffffffffffffffffffffffffffff1681526020018281526020019350505050602060405180830381600087803b15156120af57600080fd5b6102c65a03f115156120c057600080fd5b50505060405180519050505b5050505050565b60008082840190508381101515156120e757fe5b8091505092915050565b8154818355818115116121185781836000526020600020918201910161211791906121bb565b5b505050565b602060405190810160405280600081525090565b8280548282559060005260206000209081019282156121aa579160200282015b828111156121a95782518260006101000a81548173ffffffffffffffffffffffffffffffffffffffff021916908373ffffffffffffffffffffffffffffffffffffffff16021790555091602001919060010190612151565b5b5090506121b791906121e0565b5090565b6121dd91905b808211156121d95760008160009055506001016121c1565b5090565b90565b61222091905b8082111561221c57600081816101000a81549073ffffffffffffffffffffffffffffffffffffffff0219169055506001016121e6565b5090565b905600a165627a7a7230582042760d614f8e554097163de2b02e80abddfacebcbe1f05318a40684aa7e580000029",
  "source": "pragma solidity 0.4.19;\n\nimport \"zeppelin-solidity/contracts/ownership/Ownable.sol\";\nimport \"./Relay.sol\";\nimport \"./APIRegistry.sol\";\nimport \"./DeconetToken.sol\";\n\n\n// ----------------------------------------------------------------------------\n// Records api calls and payment for them\n// ----------------------------------------------------------------------------\ncontract APICalls is Ownable {\n  using SafeMath for uint;\n\n  // the amount rewarded to a seller for selling api calls\n  uint public tokenReward;\n\n  // the fee this contract takes from every sale.  expressed as percent.  so a value of 3 indicates a 3% txn fee\n  uint public saleFee;\n\n  // address of the relay contract which holds the address of the registry contract.\n  address public relayContractAddress;\n\n  // the token address\n  address public tokenContractAddress;\n\n  // this contract version\n  uint public version;\n\n  // the address that is authorized to withdraw eth\n  address private withdrawAddress;\n\n  // the amount that can be safely withdrawn from the contract\n  uint private safeWithdrawAmount;\n\n  // the address that is authorized to report usage on behalf of deconet\n  address private usageReportingAddress;\n\n  // maps apiId to a APIBalance which stores how much each address owes\n  mapping(uint => APIBalance) internal owed;\n\n  // maps buyer addresses to whether or not accounts are overdrafted and more\n  mapping(address => BuyerInfo) internal buyers;\n\n  struct APIBalance {\n    // maps address -> amount owed in wei\n    mapping(address => uint) amounts;\n    // basically a list of keys for the above map\n    address[] nonzeroAddresses;\n  }\n\n  struct BuyerInfo {\n    // whether or not the account is overdrafted or not\n    bool overdrafted;\n    // total number of overdrafts, ever\n    uint lifetimeOverdraftCount;\n    // credits on file with this contract (wei)\n    uint credits;\n    // total amount of credits used / spent, ever (wei)\n    uint lifetimeCreditsUsed;\n  }\n\n  event LogAPICallsMade(\n    uint apiId,\n    address indexed sellerAddress,\n    address indexed buyerAddress,\n    uint pricePerCall,\n    uint numCalls,\n    uint totalPrice,\n    address reportingAddress\n  );\n\n  event LogAPICallsPaid(\n    uint apiId,\n    address indexed sellerAddress,\n    uint totalPrice,\n    uint rewardedTokens,\n    uint networkFee\n  );\n\n  event LogSpendCredits(\n    address indexed buyerAddress,\n    uint apiId,\n    uint amount,\n    bool causedAnOverdraft\n  );\n\n  event LogDepositCredits(\n    address indexed buyerAddress,\n    uint amount\n  );\n\n  event LogWithdrawCredits(\n    address indexed buyerAddress,\n    uint amount\n  );\n\n  // ------------------------------------------------------------------------\n  // Constructor\n  // ------------------------------------------------------------------------\n  function APICalls() public {\n    version = 1;\n\n    // default token reward of 100 tokens.  \n    // token has 18 decimal places so that's why 100 * 10^18\n    tokenReward = 100 * 10**18;\n\n    // default saleFee of 10%\n    saleFee = 10;\n\n    // default withdrawAddress is owner\n    withdrawAddress = msg.sender;\n    usageReportingAddress = msg.sender;\n  }\n\n  // ------------------------------------------------------------------------\n  // Owner can transfer out any ETH\n  // ------------------------------------------------------------------------\n  function withdrawEther(uint amount) public {\n    require(msg.sender == withdrawAddress);\n    require(amount <= this.balance);\n    require(amount <= safeWithdrawAmount);\n    safeWithdrawAmount = safeWithdrawAmount.sub(amount);\n    withdrawAddress.transfer(amount);\n  }\n\n  // ------------------------------------------------------------------------\n  // Owner can set address of who can withdraw\n  // ------------------------------------------------------------------------\n  function setWithdrawAddress(address _withdrawAddress) public onlyOwner {\n    withdrawAddress = _withdrawAddress;\n  }\n\n  // ------------------------------------------------------------------------\n  // Owner can set address of who can report usage\n  // ------------------------------------------------------------------------\n  function setUsageReportingAddress(address _usageReportingAddress) public onlyOwner {\n    usageReportingAddress = _usageReportingAddress;\n  }\n\n  // ------------------------------------------------------------------------\n  // Owner can set address of relay contract\n  // ------------------------------------------------------------------------\n  function setRelayContractAddress(address _relayContractAddress) public onlyOwner {\n    relayContractAddress = _relayContractAddress;\n  }\n\n  // ------------------------------------------------------------------------\n  // Owner can set address of token contract\n  // ------------------------------------------------------------------------\n  function setTokenContractAddress(address _tokenContractAddress) public onlyOwner {\n    tokenContractAddress = _tokenContractAddress;\n  }\n\n  // ------------------------------------------------------------------------\n  // Owner can set token reward\n  // ------------------------------------------------------------------------\n  function setTokenReward(uint _tokenReward) public onlyOwner {\n    tokenReward = _tokenReward;\n  }\n\n  // ------------------------------------------------------------------------\n  // Owner can set the sale fee\n  // ------------------------------------------------------------------------\n  function setSaleFee(uint _saleFee) public onlyOwner {\n    saleFee = _saleFee;\n  }\n\n  // ------------------------------------------------------------------------\n  // The API owner or the authorized deconet usage reporting address may report usage\n  // ------------------------------------------------------------------------\n  function reportUsage(uint apiId, uint numCalls, address buyerAddress) public {\n    // look up the registry address from relay contract\n    Relay relay = Relay(relayContractAddress);\n    address apiRegistryAddress = relay.apiRegistryContractAddress();\n\n    // get the module info from registry\n    APIRegistry apiRegistry = APIRegistry(apiRegistryAddress);\n\n    uint pricePerCall;\n    bytes32 sellerUsername;\n    bytes32 apiName;\n    address sellerAddress;\n\n    (pricePerCall, sellerUsername, apiName, sellerAddress) = apiRegistry.getApiByIdWithoutDynamics(apiId);\n\n    // // make sure the caller is either the api owner or the deconet reporting address\n    require(sellerAddress != address(0));\n    require(msg.sender == sellerAddress || msg.sender == usageReportingAddress);\n\n    // // make sure the module is actually valid\n    require(sellerUsername != \"\" && apiName != \"\");\n\n    uint totalPrice = pricePerCall.mul(numCalls);\n\n    require(totalPrice > 0);\n\n    APIBalance storage apiBalance = owed[apiId];\n\n    if (apiBalance.amounts[buyerAddress] == 0) {\n      // add buyerAddress to list of addresses with nonzero balance for this api\n      apiBalance.nonzeroAddresses.push(buyerAddress);\n    }\n\n    apiBalance.amounts[buyerAddress] = apiBalance.amounts[buyerAddress].add(totalPrice);\n\n    LogAPICallsMade(\n      apiId,\n      sellerAddress,\n      buyerAddress,\n      pricePerCall,\n      numCalls,\n      totalPrice,\n      msg.sender\n    );\n  }\n\n  function paySeller(uint apiId) public {\n    // look up the registry address from relay contract\n    Relay relay = Relay(relayContractAddress);\n    address apiRegistryAddress = relay.apiRegistryContractAddress();\n\n    // get the module info from registry\n    APIRegistry apiRegistry = APIRegistry(apiRegistryAddress);\n\n    uint pricePerCall;\n    bytes32 sellerUsername;\n    bytes32 apiName;\n    address sellerAddress;\n\n    (pricePerCall, sellerUsername, apiName, sellerAddress) = apiRegistry.getApiByIdWithoutDynamics(apiId);\n\n    // make sure it's a legit real api\n    require(pricePerCall != 0 && sellerUsername != \"\" && apiName != \"\" && sellerAddress != address(0));\n\n    // calculate totalPayable for the api\n    uint totalPayable = calculateTotalPayable(apiId);\n    // uint totalPayable = 20000;\n\n    // calculate fee and payout\n    // fixed point math at 2 decimal places\n    uint fee = totalPayable.mul(100).div(saleFee).div(100);\n    uint payout = totalPayable.sub(fee);\n\n    // log that we stored the fee so we know we can take it out later\n    safeWithdrawAmount += fee;\n\n    LogAPICallsPaid(\n      apiId,\n      sellerAddress,\n      totalPayable,\n      tokenReward,\n      fee\n    );\n\n    // // give seller some tokens for the sale\n    rewardTokens(sellerAddress);\n\n    // // transfer seller the eth\n    sellerAddress.transfer(payout);\n  }    \n\n  function buyerInfoOf(address addr) public view returns (bool overdrafted, uint lifetimeOverdraftCount, uint credits, uint lifetimeCreditsUsed) {\n    BuyerInfo storage buyer = buyers[addr];\n    overdrafted = buyer.overdrafted;\n    lifetimeOverdraftCount = buyer.lifetimeOverdraftCount;\n    credits = buyer.credits;\n    lifetimeCreditsUsed = buyer.lifetimeCreditsUsed;\n  }\n\n  function creditsBalanceOf(address addr) public view returns (uint) {\n    BuyerInfo storage buyer = buyers[addr];\n    return buyer.credits;\n  }\n\n  function addCredits(address to) public payable {\n    BuyerInfo storage buyer = buyers[to];\n    buyer.credits = buyer.credits.add(msg.value);\n    LogDepositCredits(to, msg.value);\n  }\n\n  function withdrawCredits(uint amount) public {\n    BuyerInfo storage buyer = buyers[msg.sender];\n    require(buyer.credits >= amount);\n    buyer.credits = buyer.credits.sub(amount);\n    msg.sender.transfer(amount);\n    LogWithdrawCredits(msg.sender, amount);\n  }\n\n  function nonzeroAddressesElementForApi(uint apiId, uint index) public view returns (address) {\n    APIBalance storage apiBalance = owed[apiId];\n    return apiBalance.nonzeroAddresses[index];\n  }\n\n  function nonzeroAddressesLengthForApi(uint apiId) public view returns (uint) {\n    APIBalance storage apiBalance = owed[apiId];\n    return apiBalance.nonzeroAddresses.length;\n  }\n\n  function totalOwedForApi(uint apiId) public view returns (uint) {\n    APIBalance storage apiBalance = owed[apiId];\n\n    uint totalOwed = 0;\n    for (uint i = 0; i < apiBalance.nonzeroAddresses.length; i++) {\n      address buyerAddress = apiBalance.nonzeroAddresses[i];\n      uint buyerOwes = apiBalance.amounts[buyerAddress];\n      totalOwed = totalOwed.add(buyerOwes);\n    }\n\n    return totalOwed;\n  }\n\n  function rewardTokens(address toReward) private {\n    DeconetToken token = DeconetToken(tokenContractAddress);\n    address tokenOwner = token.owner();\n\n    // check balance of tokenOwner\n    uint tokenOwnerBalance = token.balanceOf(tokenOwner);\n    uint tokenOwnerAllowance = token.allowance(tokenOwner, address(this));\n    if (tokenOwnerBalance >= tokenReward && tokenOwnerAllowance >= tokenReward) {\n      token.transferFrom(tokenOwner, toReward, tokenReward);\n    }\n  }\n\n  function calculateTotalPayable(uint apiId) private returns (uint) {\n    APIBalance storage apiBalance = owed[apiId];\n\n    uint totalPayable = 0;\n    address[] memory oldNonzeroAddresses = apiBalance.nonzeroAddresses;\n    apiBalance.nonzeroAddresses = new address[](0);\n    for (uint i = 0; i < oldNonzeroAddresses.length; i++) {\n      address buyerAddress = oldNonzeroAddresses[i];\n      BuyerInfo storage buyer = buyers[buyerAddress];\n      uint buyerOwes = apiBalance.amounts[buyerAddress];\n      int creditsAfter = int(buyer.credits) - int(buyerOwes);\n      if (creditsAfter < 0) {\n        // if the buyer doesn't have enough credits to pay the seller the full balance they owe,\n        // just send however much they do have\n        totalPayable = totalPayable.add(buyer.credits);\n\n        // store that the buyer now only owes the difference\n        apiBalance.amounts[buyerAddress] = buyerOwes.sub(buyer.credits);\n\n        // their address still owes money for this api, so keep it in the nonzeroAddresses array\n        apiBalance.nonzeroAddresses.push(buyerAddress);\n\n        // store credits in total credits spent\n        buyer.lifetimeCreditsUsed = buyer.lifetimeCreditsUsed.add(buyer.credits);\n\n        if (buyer.credits != 0) {\n          // log the event\n          LogSpendCredits(buyerAddress, apiId, buyer.credits, true);\n        }\n\n        // zero out the buyers credits\n        buyer.credits = 0;\n\n        // mark address as overdrafted so that seller can cut off service\n        buyer.overdrafted = true;\n        buyer.lifetimeOverdraftCount += 1;\n      } else {\n        // add the total owed to the total payable\n        totalPayable = totalPayable.add(buyerOwes);\n\n        // remove the total owed\n        apiBalance.amounts[buyerAddress] = 0;\n\n        // remove the spent credits from the credits map\n        buyer.credits = uint(creditsAfter);\n\n        // mark address as in good standing\n        buyer.overdrafted = false;\n\n        // store credits in total credits spent\n        buyer.lifetimeCreditsUsed = buyer.lifetimeCreditsUsed.add(buyerOwes);\n\n        // log the event\n        LogSpendCredits(buyerAddress, apiId, buyerOwes, false);\n      }\n    }\n\n    // set list of addresses with nonzero owed amount for api\n    // apiBalance.nonzeroAddresses = newNonzeroAddresses;\n    return totalPayable;\n  }\n}\n",
  "sourcePath": "/Users/chris/Documents/WorkStuff/Deconet/Blockchain/DeconetToken/contracts/APICalls.sol",
  "compiler": {
    "name": "solc",
    "version": "0.4.19+commit.c4cbbb05.Emscripten.clang"
  },
  "schemaVersion": "2.0.0",
  "updatedAt": "2018-03-10T01:07:29.433Z"
}