{
  "contractName": "APIRegistry",
  "abi": [
    {
      "constant": true,
      "inputs": [],
      "name": "numApis",
      "outputs": [
        {
          "name": "",
          "type": "uint256"
        }
      ],
      "payable": false,
      "stateMutability": "view",
      "type": "function"
    },
    {
      "constant": true,
      "inputs": [],
      "name": "version",
      "outputs": [
        {
          "name": "",
          "type": "uint256"
        }
      ],
      "payable": false,
      "stateMutability": "view",
      "type": "function"
    },
    {
      "constant": true,
      "inputs": [],
      "name": "owner",
      "outputs": [
        {
          "name": "",
          "type": "address"
        }
      ],
      "payable": false,
      "stateMutability": "view",
      "type": "function"
    },
    {
      "constant": true,
      "inputs": [
        {
          "name": "",
          "type": "uint256"
        }
      ],
      "name": "apis",
      "outputs": [
        {
          "name": "pricePerCall",
          "type": "uint256"
        },
        {
          "name": "sellerUsername",
          "type": "bytes32"
        },
        {
          "name": "apiName",
          "type": "bytes32"
        },
        {
          "name": "sellerAddress",
          "type": "address"
        },
        {
          "name": "hostname",
          "type": "string"
        },
        {
          "name": "docsUrl",
          "type": "string"
        }
      ],
      "payable": false,
      "stateMutability": "view",
      "type": "function"
    },
    {
      "constant": false,
      "inputs": [
        {
          "name": "newOwner",
          "type": "address"
        }
      ],
      "name": "transferOwnership",
      "outputs": [],
      "payable": false,
      "stateMutability": "nonpayable",
      "type": "function"
    },
    {
      "inputs": [],
      "payable": false,
      "stateMutability": "nonpayable",
      "type": "constructor"
    },
    {
      "anonymous": false,
      "inputs": [
        {
          "indexed": true,
          "name": "previousOwner",
          "type": "address"
        },
        {
          "indexed": true,
          "name": "newOwner",
          "type": "address"
        }
      ],
      "name": "OwnershipTransferred",
      "type": "event"
    },
    {
      "constant": false,
      "inputs": [
        {
          "name": "tokenAddress",
          "type": "address"
        },
        {
          "name": "tokens",
          "type": "uint256"
        }
      ],
      "name": "transferAnyERC20Token",
      "outputs": [
        {
          "name": "success",
          "type": "bool"
        }
      ],
      "payable": false,
      "stateMutability": "nonpayable",
      "type": "function"
    },
    {
      "constant": false,
      "inputs": [
        {
          "name": "pricePerCall",
          "type": "uint256"
        },
        {
          "name": "sellerUsername",
          "type": "bytes32"
        },
        {
          "name": "apiName",
          "type": "bytes32"
        },
        {
          "name": "hostname",
          "type": "string"
        },
        {
          "name": "docsUrl",
          "type": "string"
        }
      ],
      "name": "listApi",
      "outputs": [],
      "payable": false,
      "stateMutability": "nonpayable",
      "type": "function"
    },
    {
      "constant": true,
      "inputs": [
        {
          "name": "hostname",
          "type": "string"
        }
      ],
      "name": "getApiId",
      "outputs": [
        {
          "name": "",
          "type": "uint256"
        }
      ],
      "payable": false,
      "stateMutability": "view",
      "type": "function"
    },
    {
      "constant": true,
      "inputs": [
        {
          "name": "apiId",
          "type": "uint256"
        }
      ],
      "name": "getApiByIdWithoutDynamics",
      "outputs": [
        {
          "name": "pricePerCall",
          "type": "uint256"
        },
        {
          "name": "sellerUsername",
          "type": "bytes32"
        },
        {
          "name": "apiName",
          "type": "bytes32"
        },
        {
          "name": "sellerAddress",
          "type": "address"
        }
      ],
      "payable": false,
      "stateMutability": "view",
      "type": "function"
    },
    {
      "constant": true,
      "inputs": [
        {
          "name": "apiId",
          "type": "uint256"
        }
      ],
      "name": "getApiById",
      "outputs": [
        {
          "name": "pricePerCall",
          "type": "uint256"
        },
        {
          "name": "sellerUsername",
          "type": "bytes32"
        },
        {
          "name": "apiName",
          "type": "bytes32"
        },
        {
          "name": "sellerAddress",
          "type": "address"
        },
        {
          "name": "hostname",
          "type": "string"
        },
        {
          "name": "docsUrl",
          "type": "string"
        }
      ],
      "payable": false,
      "stateMutability": "view",
      "type": "function"
    },
    {
      "constant": true,
      "inputs": [
        {
          "name": "_hostname",
          "type": "string"
        }
      ],
      "name": "getApiByName",
      "outputs": [
        {
          "name": "pricePerCall",
          "type": "uint256"
        },
        {
          "name": "sellerUsername",
          "type": "bytes32"
        },
        {
          "name": "apiName",
          "type": "bytes32"
        },
        {
          "name": "sellerAddress",
          "type": "address"
        },
        {
          "name": "hostname",
          "type": "string"
        },
        {
          "name": "docsUrl",
          "type": "string"
        }
      ],
      "payable": false,
      "stateMutability": "view",
      "type": "function"
    },
    {
      "constant": false,
      "inputs": [
        {
          "name": "apiId",
          "type": "uint256"
        },
        {
          "name": "pricePerCall",
          "type": "uint256"
        },
        {
          "name": "sellerAddress",
          "type": "address"
        },
        {
          "name": "docsUrl",
          "type": "string"
        }
      ],
      "name": "editApi",
      "outputs": [],
      "payable": false,
      "stateMutability": "nonpayable",
      "type": "function"
    }
  ],
  "bytecode": "0x6060604052341561000f57600080fd5b336000806101000a81548173ffffffffffffffffffffffffffffffffffffffff021916908373ffffffffffffffffffffffffffffffffffffffff160217905550600060038190555060016004819055506115e18061006e6000396000f3006060604052600436106100ba576000357c0100000000000000000000000000000000000000000000000000000000900463ffffffff16806307626adb146100bf578063261ac2791461013057806331c0018b146101b857806353f072e31461027b57806354fd4d50146102a45780638a74b45c146102cd5780638da5cb5b1461035b578063a0422d31146103b0578063af6e568914610510578063dc39d06d146106aa578063de13bec614610704578063f2fde38b1461089e575b600080fd5b34156100ca57600080fd5b61011a600480803590602001908201803590602001908080601f016020809104026020016040519081016040528093929190818152602001838380828437820191505050505050919050506108d7565b6040518082815260200191505060405180910390f35b341561013b57600080fd5b610151600480803590602001909190505061094c565b60405180858152602001846000191660001916815260200183600019166000191681526020018273ffffffffffffffffffffffffffffffffffffffff1673ffffffffffffffffffffffffffffffffffffffff16815260200194505050505060405180910390f35b34156101c357600080fd5b6102796004808035906020019091908035600019169060200190919080356000191690602001909190803590602001908201803590602001908080601f0160208091040260200160405190810160405280939291908181526020018383808284378201915050505050509190803590602001908201803590602001908080601f016020809104026020016040519081016040528093929190818152602001838380828437820191505050505050919050506109ad565b005b341561028657600080fd5b61028e610ba2565b6040518082815260200191505060405180910390f35b34156102af57600080fd5b6102b7610ba8565b6040518082815260200191505060405180910390f35b34156102d857600080fd5b610359600480803590602001909190803590602001909190803573ffffffffffffffffffffffffffffffffffffffff1690602001909190803590602001908201803590602001908080601f01602080910402602001604051908101604052809392919081815260200183838082843782019150505050505091905050610bae565b005b341561036657600080fd5b61036e610dfb565b604051808273ffffffffffffffffffffffffffffffffffffffff1673ffffffffffffffffffffffffffffffffffffffff16815260200191505060405180910390f35b34156103bb57600080fd5b6103d16004808035906020019091905050610e20565b60405180878152602001866000191660001916815260200185600019166000191681526020018473ffffffffffffffffffffffffffffffffffffffff1673ffffffffffffffffffffffffffffffffffffffff1681526020018060200180602001838103835285818151815260200191508051906020019080838360005b8381101561046957808201518184015260208101905061044e565b50505050905090810190601f1680156104965780820380516001836020036101000a031916815260200191505b50838103825284818151815260200191508051906020019080838360005b838110156104cf5780820151818401526020810190506104b4565b50505050905090810190601f1680156104fc5780820380516001836020036101000a031916815260200191505b509850505050505050505060405180910390f35b341561051b57600080fd5b6105316004808035906020019091905050610fd1565b60405180878152602001866000191660001916815260200185600019166000191681526020018473ffffffffffffffffffffffffffffffffffffffff1673ffffffffffffffffffffffffffffffffffffffff16815260200180602001806020018381038352858181546001816001161561010002031660029004815260200191508054600181600116156101000203166002900480156106125780601f106105e757610100808354040283529160200191610612565b820191906000526020600020905b8154815290600101906020018083116105f557829003601f168201915b50508381038252848181546001816001161561010002031660029004815260200191508054600181600116156101000203166002900480156106955780601f1061066a57610100808354040283529160200191610695565b820191906000526020600020905b81548152906001019060200180831161067857829003601f168201915b50509850505050505050505060405180910390f35b34156106b557600080fd5b6106ea600480803573ffffffffffffffffffffffffffffffffffffffff1690602001909190803590602001909190505061102b565b604051808215151515815260200191505060405180910390f35b341561070f57600080fd5b61075f600480803590602001908201803590602001908080601f01602080910402602001604051908101604052809392919081815260200183838082843782019150505050505091905050611177565b60405180878152602001866000191660001916815260200185600019166000191681526020018473ffffffffffffffffffffffffffffffffffffffff1673ffffffffffffffffffffffffffffffffffffffff1681526020018060200180602001838103835285818151815260200191508051906020019080838360005b838110156107f75780820151818401526020810190506107dc565b50505050905090810190601f1680156108245780820380516001836020036101000a031916815260200191505b50838103825284818151815260200191508051906020019080838360005b8381101561085d578082015181840152602081019050610842565b50505050905090810190601f16801561088a5780820380516001836020036101000a031916815260200191505b509850505050505050505060405180910390f35b34156108a957600080fd5b6108d5600480803573ffffffffffffffffffffffffffffffffffffffff169060200190919050506113a7565b005b60006001826040518082805190602001908083835b60208310151561091157805182526020820191506020810190506020830392506108ec565b6001836020036101000a0380198251168184511680821785525050505050509050019150509081526020016040518091039020549050919050565b60008060008060006002600087815260200190815260200160002090508060000154945080600101549350806002015492508060030160009054906101000a900473ffffffffffffffffffffffffffffffffffffffff169150509193509193565b60008086141580156109c457506000856000191614155b80156109d557506000846000191614155b80156109e357506000835114155b15156109ee57600080fd5b60006001846040518082805190602001908083835b602083101515610a285780518252602082019150602081019050602083039250610a03565b6001836020036101000a038019825116818451168082178552505050505050905001915050908152602001604051809103902054141515610a6857600080fd5b60016003600082825401925050819055506003546001846040518082805190602001908083835b602083101515610ab45780518252602082019150602081019050602083039250610a8f565b6001836020036101000a03801982511681845116808217855250505050505090500191505090815260200160405180910390208190555060026000600354815260200190815260200160002090508581600001819055508481600101816000191690555083816002018160001916905550338160030160006101000a81548173ffffffffffffffffffffffffffffffffffffffff021916908373ffffffffffffffffffffffffffffffffffffffff16021790555082816004019080519060200190610b809291906114fc565b5081816005019080519060200190610b999291906114fc565b50505050505050565b60035481565b60045481565b6000808514158015610bc1575060008414155b8015610bfa5750600073ffffffffffffffffffffffffffffffffffffffff168373ffffffffffffffffffffffffffffffffffffffff1614155b1515610c0557600080fd5b6002600086815260200190815260200160002090506000816000015414158015610c385750600081600101546000191614155b8015610c4d5750600081600201546000191614155b8015610c72575060008160040180546001816001161561010002031660029004905014155b8015610ccf5750600073ffffffffffffffffffffffffffffffffffffffff168160030160009054906101000a900473ffffffffffffffffffffffffffffffffffffffff1673ffffffffffffffffffffffffffffffffffffffff1614155b1515610cda57600080fd5b8060030160009054906101000a900473ffffffffffffffffffffffffffffffffffffffff1673ffffffffffffffffffffffffffffffffffffffff163373ffffffffffffffffffffffffffffffffffffffff161480610d8457506000809054906101000a900473ffffffffffffffffffffffffffffffffffffffff1673ffffffffffffffffffffffffffffffffffffffff163373ffffffffffffffffffffffffffffffffffffffff16145b1515610d8f57600080fd5b838160000181905550828160030160006101000a81548173ffffffffffffffffffffffffffffffffffffffff021916908373ffffffffffffffffffffffffffffffffffffffff16021790555081816005019080519060200190610df39291906114fc565b505050505050565b6000809054906101000a900473ffffffffffffffffffffffffffffffffffffffff1681565b600080600080610e2e61157c565b610e3661157c565b60006002600089815260200190815260200160002090508060000154965080600101549550806002015494508060030160009054906101000a900473ffffffffffffffffffffffffffffffffffffffff169350806004018054600181600116156101000203166002900480601f016020809104026020016040519081016040528092919081815260200182805460018160011615610100020316600290048015610f215780601f10610ef657610100808354040283529160200191610f21565b820191906000526020600020905b815481529060010190602001808311610f0457829003601f168201915b50505050509250806005018054600181600116156101000203166002900480601f016020809104026020016040519081016040528092919081815260200182805460018160011615610100020316600290048015610fc05780601f10610f9557610100808354040283529160200191610fc0565b820191906000526020600020905b815481529060010190602001808311610fa357829003601f168201915b505050505091505091939550919395565b60026020528060005260406000206000915090508060000154908060010154908060020154908060030160009054906101000a900473ffffffffffffffffffffffffffffffffffffffff1690806004019080600501905086565b60008060009054906101000a900473ffffffffffffffffffffffffffffffffffffffff1673ffffffffffffffffffffffffffffffffffffffff163373ffffffffffffffffffffffffffffffffffffffff1614151561108857600080fd5b8273ffffffffffffffffffffffffffffffffffffffff1663a9059cbb6000809054906101000a900473ffffffffffffffffffffffffffffffffffffffff16846000604051602001526040518363ffffffff167c0100000000000000000000000000000000000000000000000000000000028152600401808373ffffffffffffffffffffffffffffffffffffffff1673ffffffffffffffffffffffffffffffffffffffff16815260200182815260200192505050602060405180830381600087803b151561115457600080fd5b6102c65a03f1151561116557600080fd5b50505060405180519050905092915050565b60008060008061118561157c565b61118d61157c565b6000806001896040518082805190602001908083835b6020831015156111c857805182526020820191506020810190506020830392506111a3565b6001836020036101000a0380198251168184511680821785525050505050509050019150509081526020016040518091039020549150600082141561120c5761139c565b6002600083815260200190815260200160002090508060000154975080600101549650806002015495508060030160009054906101000a900473ffffffffffffffffffffffffffffffffffffffff169450806004018054600181600116156101000203166002900480601f0160208091040260200160405190810160405280929190818152602001828054600181600116156101000203166002900480156112f55780601f106112ca576101008083540402835291602001916112f5565b820191906000526020600020905b8154815290600101906020018083116112d857829003601f168201915b50505050509350806005018054600181600116156101000203166002900480601f0160208091040260200160405190810160405280929190818152602001828054600181600116156101000203166002900480156113945780601f1061136957610100808354040283529160200191611394565b820191906000526020600020905b81548152906001019060200180831161137757829003601f168201915b505050505092505b505091939550919395565b6000809054906101000a900473ffffffffffffffffffffffffffffffffffffffff1673ffffffffffffffffffffffffffffffffffffffff163373ffffffffffffffffffffffffffffffffffffffff1614151561140257600080fd5b600073ffffffffffffffffffffffffffffffffffffffff168173ffffffffffffffffffffffffffffffffffffffff161415151561143e57600080fd5b8073ffffffffffffffffffffffffffffffffffffffff166000809054906101000a900473ffffffffffffffffffffffffffffffffffffffff1673ffffffffffffffffffffffffffffffffffffffff167f8be0079c531659141344cd1fd0a4f28419497f9722a3daafe3b4186f6b6457e060405160405180910390a3806000806101000a81548173ffffffffffffffffffffffffffffffffffffffff021916908373ffffffffffffffffffffffffffffffffffffffff16021790555050565b828054600181600116156101000203166002900490600052602060002090601f016020900481019282601f1061153d57805160ff191683800117855561156b565b8280016001018555821561156b579182015b8281111561156a57825182559160200191906001019061154f565b5b5090506115789190611590565b5090565b602060405190810160405280600081525090565b6115b291905b808211156115ae576000816000905550600101611596565b5090565b905600a165627a7a723058203bc28a1559dc803ea24f83371a4bbd531af2f3506d40009b9ba64a02638078a20029",
  "source": "pragma solidity 0.4.19;\n\nimport \"zeppelin-solidity/contracts/ownership/Ownable.sol\";\nimport \"zeppelin-solidity/contracts/token/ERC20/ERC20.sol\";\n\ncontract APIRegistry is Ownable {\n\n  struct APIForSale {\n    uint pricePerCall;\n    bytes32 sellerUsername;\n    bytes32 apiName;\n    address sellerAddress;\n    string hostname;\n    string docsUrl;\n  }\n\n  mapping(string => uint) internal apiIds;\n  mapping(uint => APIForSale) public apis;\n\n  uint public numApis;\n  uint public version;\n\n  // ------------------------------------------------------------------------\n  // Constructor, establishes ownership because contract is owned\n  // ------------------------------------------------------------------------\n  function APIRegistry() public {\n    numApis = 0;\n    version = 1;\n  }\n\n  // ------------------------------------------------------------------------\n  // Owner can transfer out any accidentally sent ERC20 tokens (just in case)\n  // ------------------------------------------------------------------------\n  function transferAnyERC20Token(address tokenAddress, uint tokens) public onlyOwner returns (bool success) {\n    return ERC20(tokenAddress).transfer(owner, tokens);\n  }\n\n  function listApi(uint pricePerCall, bytes32 sellerUsername, bytes32 apiName, string hostname, string docsUrl) public {\n    // make sure input params are valid\n    require(pricePerCall != 0 && sellerUsername != \"\" && apiName != \"\" && bytes(hostname).length != 0);\n    \n    // make sure the name isn't already taken\n    require(apiIds[hostname] == 0);\n\n    numApis += 1;\n    apiIds[hostname] = numApis;\n\n    APIForSale storage api = apis[numApis];\n\n    api.pricePerCall = pricePerCall;\n    api.sellerUsername = sellerUsername;\n    api.apiName = apiName;\n    api.sellerAddress = msg.sender;\n    api.hostname = hostname;\n    api.docsUrl = docsUrl;\n  }\n\n  function getApiId(string hostname) public view returns (uint) {\n    return apiIds[hostname];\n  }\n\n  function getApiByIdWithoutDynamics(uint apiId) public view returns (uint pricePerCall, bytes32 sellerUsername, bytes32 apiName, address sellerAddress) {\n    APIForSale storage api = apis[apiId];\n\n    pricePerCall = api.pricePerCall;\n    sellerUsername = api.sellerUsername;\n    apiName = api.apiName;\n    sellerAddress = api.sellerAddress;\n  }\n\n  function getApiById(uint apiId) public view returns (uint pricePerCall, bytes32 sellerUsername, bytes32 apiName, address sellerAddress, string hostname, string docsUrl) {\n    APIForSale storage api = apis[apiId];\n\n    pricePerCall = api.pricePerCall;\n    sellerUsername = api.sellerUsername;\n    apiName = api.apiName;\n    sellerAddress = api.sellerAddress;\n    hostname = api.hostname;\n    docsUrl = api.docsUrl;\n  }\n\n  function getApiByName(string _hostname) public view returns (uint pricePerCall, bytes32 sellerUsername, bytes32 apiName, address sellerAddress, string hostname, string docsUrl) {\n    uint apiId = apiIds[_hostname];\n    if (apiId == 0) {\n      return;\n    }\n    APIForSale storage api = apis[apiId];\n\n    pricePerCall = api.pricePerCall;\n    sellerUsername = api.sellerUsername;\n    apiName = api.apiName;\n    sellerAddress = api.sellerAddress;\n    hostname = api.hostname;\n    docsUrl = api.docsUrl;\n  }\n\n  function editApi(uint apiId, uint pricePerCall, address sellerAddress, string docsUrl) public {\n    require(apiId != 0 && pricePerCall != 0 && sellerAddress != address(0));\n\n    APIForSale storage api = apis[apiId];\n\n    // prevent editing an empty api (effectively listing an api)\n    require(api.pricePerCall != 0 && api.sellerUsername != \"\" && api.apiName != \"\" && bytes(api.hostname).length != 0 && api.sellerAddress != address(0));\n\n    // require that sender is the original api lister, or the contract owner\n    // the contract owner clause lets us recover a api listing if a dev loses access to their privkey\n    require(msg.sender == api.sellerAddress || msg.sender == owner);\n\n    api.pricePerCall = pricePerCall;\n    api.sellerAddress = sellerAddress;\n    api.docsUrl = docsUrl;\n  }\n}",
  "sourcePath": "/Users/chris/Documents/WorkStuff/Deconet/Blockchain/DeconetToken/contracts/APIRegistry.sol",
  "compiler": {
    "name": "solc",
    "version": "0.4.19+commit.c4cbbb05.Emscripten.clang"
  },
  "schemaVersion": "2.0.0",
  "updatedAt": "2018-04-03T00:05:23.989Z"
}