{
  "contractName": "APIRegistry",
  "abi": [
    {
      "constant": true,
      "inputs": [],
      "name": "numApis",
      "outputs": [
        {
          "name": "",
          "type": "uint256"
        }
      ],
      "payable": false,
      "stateMutability": "view",
      "type": "function"
    },
    {
      "constant": true,
      "inputs": [],
      "name": "version",
      "outputs": [
        {
          "name": "",
          "type": "uint256"
        }
      ],
      "payable": false,
      "stateMutability": "view",
      "type": "function"
    },
    {
      "constant": false,
      "inputs": [],
      "name": "acceptOwnership",
      "outputs": [],
      "payable": false,
      "stateMutability": "nonpayable",
      "type": "function"
    },
    {
      "constant": true,
      "inputs": [],
      "name": "owner",
      "outputs": [
        {
          "name": "",
          "type": "address"
        }
      ],
      "payable": false,
      "stateMutability": "view",
      "type": "function"
    },
    {
      "constant": true,
      "inputs": [
        {
          "name": "",
          "type": "uint256"
        }
      ],
      "name": "apis",
      "outputs": [
        {
          "name": "pricePerCall",
          "type": "uint256"
        },
        {
          "name": "sellerUsername",
          "type": "bytes32"
        },
        {
          "name": "apiName",
          "type": "bytes32"
        },
        {
          "name": "sellerAddress",
          "type": "address"
        },
        {
          "name": "hostname",
          "type": "string"
        },
        {
          "name": "docsUrl",
          "type": "string"
        }
      ],
      "payable": false,
      "stateMutability": "view",
      "type": "function"
    },
    {
      "constant": true,
      "inputs": [],
      "name": "newOwner",
      "outputs": [
        {
          "name": "",
          "type": "address"
        }
      ],
      "payable": false,
      "stateMutability": "view",
      "type": "function"
    },
    {
      "constant": false,
      "inputs": [
        {
          "name": "_newOwner",
          "type": "address"
        }
      ],
      "name": "transferOwnership",
      "outputs": [],
      "payable": false,
      "stateMutability": "nonpayable",
      "type": "function"
    },
    {
      "inputs": [],
      "payable": false,
      "stateMutability": "nonpayable",
      "type": "constructor"
    },
    {
      "anonymous": false,
      "inputs": [
        {
          "indexed": true,
          "name": "_from",
          "type": "address"
        },
        {
          "indexed": true,
          "name": "_to",
          "type": "address"
        }
      ],
      "name": "OwnershipTransferred",
      "type": "event"
    },
    {
      "constant": false,
      "inputs": [
        {
          "name": "pricePerCall",
          "type": "uint256"
        },
        {
          "name": "sellerUsername",
          "type": "bytes32"
        },
        {
          "name": "apiName",
          "type": "bytes32"
        },
        {
          "name": "hostname",
          "type": "string"
        },
        {
          "name": "docsUrl",
          "type": "string"
        }
      ],
      "name": "listApi",
      "outputs": [],
      "payable": false,
      "stateMutability": "nonpayable",
      "type": "function"
    },
    {
      "constant": true,
      "inputs": [
        {
          "name": "hostname",
          "type": "string"
        }
      ],
      "name": "getApiId",
      "outputs": [
        {
          "name": "",
          "type": "uint256"
        }
      ],
      "payable": false,
      "stateMutability": "view",
      "type": "function"
    },
    {
      "constant": true,
      "inputs": [
        {
          "name": "apiId",
          "type": "uint256"
        }
      ],
      "name": "getApiByIdWithoutDynamics",
      "outputs": [
        {
          "name": "pricePerCall",
          "type": "uint256"
        },
        {
          "name": "sellerUsername",
          "type": "bytes32"
        },
        {
          "name": "apiName",
          "type": "bytes32"
        },
        {
          "name": "sellerAddress",
          "type": "address"
        }
      ],
      "payable": false,
      "stateMutability": "view",
      "type": "function"
    },
    {
      "constant": true,
      "inputs": [
        {
          "name": "apiId",
          "type": "uint256"
        }
      ],
      "name": "getApiById",
      "outputs": [
        {
          "name": "pricePerCall",
          "type": "uint256"
        },
        {
          "name": "sellerUsername",
          "type": "bytes32"
        },
        {
          "name": "apiName",
          "type": "bytes32"
        },
        {
          "name": "sellerAddress",
          "type": "address"
        },
        {
          "name": "hostname",
          "type": "string"
        },
        {
          "name": "docsUrl",
          "type": "string"
        }
      ],
      "payable": false,
      "stateMutability": "view",
      "type": "function"
    },
    {
      "constant": true,
      "inputs": [
        {
          "name": "_hostname",
          "type": "string"
        }
      ],
      "name": "getApiByName",
      "outputs": [
        {
          "name": "pricePerCall",
          "type": "uint256"
        },
        {
          "name": "sellerUsername",
          "type": "bytes32"
        },
        {
          "name": "apiName",
          "type": "bytes32"
        },
        {
          "name": "sellerAddress",
          "type": "address"
        },
        {
          "name": "hostname",
          "type": "string"
        },
        {
          "name": "docsUrl",
          "type": "string"
        }
      ],
      "payable": false,
      "stateMutability": "view",
      "type": "function"
    },
    {
      "constant": false,
      "inputs": [
        {
          "name": "apiId",
          "type": "uint256"
        },
        {
          "name": "pricePerCall",
          "type": "uint256"
        },
        {
          "name": "sellerAddress",
          "type": "address"
        },
        {
          "name": "docsUrl",
          "type": "string"
        }
      ],
      "name": "editApi",
      "outputs": [],
      "payable": false,
      "stateMutability": "nonpayable",
      "type": "function"
    }
  ],
  "bytecode": "0x6060604052341561000f57600080fd5b336000806101000a81548173ffffffffffffffffffffffffffffffffffffffff021916908373ffffffffffffffffffffffffffffffffffffffff1602179055506000600481905550600160058190555061146a8061006e6000396000f3006060604052600436106100c5576000357c0100000000000000000000000000000000000000000000000000000000900463ffffffff16806307626adb146100ca578063261ac2791461013b57806331c0018b146101c357806353f072e31461028657806354fd4d50146102af57806379ba5097146102d85780638a74b45c146102ed5780638da5cb5b1461037b578063a0422d31146103d0578063af6e568914610530578063d4ee1d90146106ca578063de13bec61461071f578063f2fde38b146108b9575b600080fd5b34156100d557600080fd5b610125600480803590602001908201803590602001908080601f016020809104026020016040519081016040528093929190818152602001838380828437820191505050505050919050506108f2565b6040518082815260200191505060405180910390f35b341561014657600080fd5b61015c6004808035906020019091905050610967565b60405180858152602001846000191660001916815260200183600019166000191681526020018273ffffffffffffffffffffffffffffffffffffffff1673ffffffffffffffffffffffffffffffffffffffff16815260200194505050505060405180910390f35b34156101ce57600080fd5b6102846004808035906020019091908035600019169060200190919080356000191690602001909190803590602001908201803590602001908080601f0160208091040260200160405190810160405280939291908181526020018383808284378201915050505050509190803590602001908201803590602001908080601f016020809104026020016040519081016040528093929190818152602001838380828437820191505050505050919050506109c8565b005b341561029157600080fd5b610299610b7d565b6040518082815260200191505060405180910390f35b34156102ba57600080fd5b6102c2610b83565b6040518082815260200191505060405180910390f35b34156102e357600080fd5b6102eb610b89565b005b34156102f857600080fd5b610379600480803590602001909190803590602001909190803573ffffffffffffffffffffffffffffffffffffffff1690602001909190803590602001908201803590602001908080601f01602080910402602001604051908101604052809392919081815260200183838082843782019150505050505091905050610d28565b005b341561038657600080fd5b61038e610e60565b604051808273ffffffffffffffffffffffffffffffffffffffff1673ffffffffffffffffffffffffffffffffffffffff16815260200191505060405180910390f35b34156103db57600080fd5b6103f16004808035906020019091905050610e85565b60405180878152602001866000191660001916815260200185600019166000191681526020018473ffffffffffffffffffffffffffffffffffffffff1673ffffffffffffffffffffffffffffffffffffffff1681526020018060200180602001838103835285818151815260200191508051906020019080838360005b8381101561048957808201518184015260208101905061046e565b50505050905090810190601f1680156104b65780820380516001836020036101000a031916815260200191505b50838103825284818151815260200191508051906020019080838360005b838110156104ef5780820151818401526020810190506104d4565b50505050905090810190601f16801561051c5780820380516001836020036101000a031916815260200191505b509850505050505050505060405180910390f35b341561053b57600080fd5b6105516004808035906020019091905050611036565b60405180878152602001866000191660001916815260200185600019166000191681526020018473ffffffffffffffffffffffffffffffffffffffff1673ffffffffffffffffffffffffffffffffffffffff16815260200180602001806020018381038352858181546001816001161561010002031660029004815260200191508054600181600116156101000203166002900480156106325780601f1061060757610100808354040283529160200191610632565b820191906000526020600020905b81548152906001019060200180831161061557829003601f168201915b50508381038252848181546001816001161561010002031660029004815260200191508054600181600116156101000203166002900480156106b55780601f1061068a576101008083540402835291602001916106b5565b820191906000526020600020905b81548152906001019060200180831161069857829003601f168201915b50509850505050505050505060405180910390f35b34156106d557600080fd5b6106dd611090565b604051808273ffffffffffffffffffffffffffffffffffffffff1673ffffffffffffffffffffffffffffffffffffffff16815260200191505060405180910390f35b341561072a57600080fd5b61077a600480803590602001908201803590602001908080601f016020809104026020016040519081016040528093929190818152602001838380828437820191505050505050919050506110b6565b60405180878152602001866000191660001916815260200185600019166000191681526020018473ffffffffffffffffffffffffffffffffffffffff1673ffffffffffffffffffffffffffffffffffffffff1681526020018060200180602001838103835285818151815260200191508051906020019080838360005b838110156108125780820151818401526020810190506107f7565b50505050905090810190601f16801561083f5780820380516001836020036101000a031916815260200191505b50838103825284818151815260200191508051906020019080838360005b8381101561087857808201518184015260208101905061085d565b50505050905090810190601f1680156108a55780820380516001836020036101000a031916815260200191505b509850505050505050505060405180910390f35b34156108c457600080fd5b6108f0600480803573ffffffffffffffffffffffffffffffffffffffff169060200190919050506112e6565b005b60006002826040518082805190602001908083835b60208310151561092c5780518252602082019150602081019050602083039250610907565b6001836020036101000a0380198251168184511680821785525050505050509050019150509081526020016040518091039020549050919050565b60008060008060006003600087815260200190815260200160002090508060000154945080600101549350806002015492508060030160009054906101000a900473ffffffffffffffffffffffffffffffffffffffff169150509193509193565b6000806002846040518082805190602001908083835b602083101515610a0357805182526020820191506020810190506020830392506109de565b6001836020036101000a038019825116818451168082178552505050505050905001915050908152602001604051809103902054141515610a4357600080fd5b60016004600082825401925050819055506004546002846040518082805190602001908083835b602083101515610a8f5780518252602082019150602081019050602083039250610a6a565b6001836020036101000a03801982511681845116808217855250505050505090500191505090815260200160405180910390208190555060036000600454815260200190815260200160002090508581600001819055508481600101816000191690555083816002018160001916905550338160030160006101000a81548173ffffffffffffffffffffffffffffffffffffffff021916908373ffffffffffffffffffffffffffffffffffffffff16021790555082816004019080519060200190610b5b929190611385565b5081816005019080519060200190610b74929190611385565b50505050505050565b60045481565b60055481565b600160009054906101000a900473ffffffffffffffffffffffffffffffffffffffff1673ffffffffffffffffffffffffffffffffffffffff163373ffffffffffffffffffffffffffffffffffffffff16141515610be557600080fd5b600160009054906101000a900473ffffffffffffffffffffffffffffffffffffffff1673ffffffffffffffffffffffffffffffffffffffff166000809054906101000a900473ffffffffffffffffffffffffffffffffffffffff1673ffffffffffffffffffffffffffffffffffffffff167f8be0079c531659141344cd1fd0a4f28419497f9722a3daafe3b4186f6b6457e060405160405180910390a3600160009054906101000a900473ffffffffffffffffffffffffffffffffffffffff166000806101000a81548173ffffffffffffffffffffffffffffffffffffffff021916908373ffffffffffffffffffffffffffffffffffffffff1602179055506000600160006101000a81548173ffffffffffffffffffffffffffffffffffffffff021916908373ffffffffffffffffffffffffffffffffffffffff160217905550565b60006003600086815260200190815260200160002090508060030160009054906101000a900473ffffffffffffffffffffffffffffffffffffffff1673ffffffffffffffffffffffffffffffffffffffff163373ffffffffffffffffffffffffffffffffffffffff161480610de957506000809054906101000a900473ffffffffffffffffffffffffffffffffffffffff1673ffffffffffffffffffffffffffffffffffffffff163373ffffffffffffffffffffffffffffffffffffffff16145b1515610df457600080fd5b838160000181905550828160030160006101000a81548173ffffffffffffffffffffffffffffffffffffffff021916908373ffffffffffffffffffffffffffffffffffffffff16021790555081816005019080519060200190610e58929190611385565b505050505050565b6000809054906101000a900473ffffffffffffffffffffffffffffffffffffffff1681565b600080600080610e93611405565b610e9b611405565b60006003600089815260200190815260200160002090508060000154965080600101549550806002015494508060030160009054906101000a900473ffffffffffffffffffffffffffffffffffffffff169350806004018054600181600116156101000203166002900480601f016020809104026020016040519081016040528092919081815260200182805460018160011615610100020316600290048015610f865780601f10610f5b57610100808354040283529160200191610f86565b820191906000526020600020905b815481529060010190602001808311610f6957829003601f168201915b50505050509250806005018054600181600116156101000203166002900480601f0160208091040260200160405190810160405280929190818152602001828054600181600116156101000203166002900480156110255780601f10610ffa57610100808354040283529160200191611025565b820191906000526020600020905b81548152906001019060200180831161100857829003601f168201915b505050505091505091939550919395565b60036020528060005260406000206000915090508060000154908060010154908060020154908060030160009054906101000a900473ffffffffffffffffffffffffffffffffffffffff1690806004019080600501905086565b600160009054906101000a900473ffffffffffffffffffffffffffffffffffffffff1681565b6000806000806110c4611405565b6110cc611405565b6000806002896040518082805190602001908083835b60208310151561110757805182526020820191506020810190506020830392506110e2565b6001836020036101000a0380198251168184511680821785525050505050509050019150509081526020016040518091039020549150600082141561114b576112db565b6003600083815260200190815260200160002090508060000154975080600101549650806002015495508060030160009054906101000a900473ffffffffffffffffffffffffffffffffffffffff169450806004018054600181600116156101000203166002900480601f0160208091040260200160405190810160405280929190818152602001828054600181600116156101000203166002900480156112345780601f1061120957610100808354040283529160200191611234565b820191906000526020600020905b81548152906001019060200180831161121757829003601f168201915b50505050509350806005018054600181600116156101000203166002900480601f0160208091040260200160405190810160405280929190818152602001828054600181600116156101000203166002900480156112d35780601f106112a8576101008083540402835291602001916112d3565b820191906000526020600020905b8154815290600101906020018083116112b657829003601f168201915b505050505092505b505091939550919395565b6000809054906101000a900473ffffffffffffffffffffffffffffffffffffffff1673ffffffffffffffffffffffffffffffffffffffff163373ffffffffffffffffffffffffffffffffffffffff1614151561134157600080fd5b80600160006101000a81548173ffffffffffffffffffffffffffffffffffffffff021916908373ffffffffffffffffffffffffffffffffffffffff16021790555050565b828054600181600116156101000203166002900490600052602060002090601f016020900481019282601f106113c657805160ff19168380011785556113f4565b828001600101855582156113f4579182015b828111156113f35782518255916020019190600101906113d8565b5b5090506114019190611419565b5090565b602060405190810160405280600081525090565b61143b91905b8082111561143757600081600090555060010161141f565b5090565b905600a165627a7a723058206470f39745a9aa7582f0893ceaa5e0e6c5579c8042570f3e7e7ea83b42975cb30029",
  "source": "pragma solidity 0.4.19;\n\nimport \"./Owned.sol\";\n\ncontract APIRegistry is Owned {\n\n  struct APIForSale {\n    uint pricePerCall;\n    bytes32 sellerUsername;\n    bytes32 apiName;\n    address sellerAddress;\n    string hostname;\n    string docsUrl;\n  }\n\n  mapping(string => uint) internal apiIds;\n  mapping(uint => APIForSale) public apis;\n\n  uint public numApis;\n  uint public version;\n\n  // ------------------------------------------------------------------------\n  // Constructor, establishes ownership because contract is owned\n  // ------------------------------------------------------------------------\n  function APIRegistry() public {\n    numApis = 0;\n    version = 1;\n  }\n\n  function listApi(uint pricePerCall, bytes32 sellerUsername, bytes32 apiName, string hostname, string docsUrl) public {\n    // make sure the name isn't already taken\n    require(apiIds[hostname] == 0);\n\n    numApis += 1;\n    apiIds[hostname] = numApis;\n\n    APIForSale storage api = apis[numApis];\n\n    api.pricePerCall = pricePerCall;\n    api.sellerUsername = sellerUsername;\n    api.apiName = apiName;\n    api.sellerAddress = msg.sender;\n    api.hostname = hostname;\n    api.docsUrl = docsUrl;\n  }\n\n  function getApiId(string hostname) public view returns (uint) {\n    return apiIds[hostname];\n  }\n\n  function getApiByIdWithoutDynamics(uint apiId) public view returns (uint pricePerCall, bytes32 sellerUsername, bytes32 apiName, address sellerAddress) {\n    APIForSale storage api = apis[apiId];\n\n    pricePerCall = api.pricePerCall;\n    sellerUsername = api.sellerUsername;\n    apiName = api.apiName;\n    sellerAddress = api.sellerAddress;\n  }\n\n  function getApiById(uint apiId) public view returns (uint pricePerCall, bytes32 sellerUsername, bytes32 apiName, address sellerAddress, string hostname, string docsUrl) {\n    APIForSale storage api = apis[apiId];\n\n    pricePerCall = api.pricePerCall;\n    sellerUsername = api.sellerUsername;\n    apiName = api.apiName;\n    sellerAddress = api.sellerAddress;\n    hostname = api.hostname;\n    docsUrl = api.docsUrl;\n  }\n\n  function getApiByName(string _hostname) public view returns (uint pricePerCall, bytes32 sellerUsername, bytes32 apiName, address sellerAddress, string hostname, string docsUrl) {\n    uint apiId = apiIds[_hostname];\n    if (apiId == 0) {\n      return;\n    }\n    APIForSale storage api = apis[apiId];\n\n    pricePerCall = api.pricePerCall;\n    sellerUsername = api.sellerUsername;\n    apiName = api.apiName;\n    sellerAddress = api.sellerAddress;\n    hostname = api.hostname;\n    docsUrl = api.docsUrl;\n  }\n\n  function editApi(uint apiId, uint pricePerCall, address sellerAddress, string docsUrl) public {\n    APIForSale storage api = apis[apiId];\n\n    // require that sender is the original api lister, or the contract owner\n    // the contract owner clause lets us recover a api listing if a dev loses access to their privkey\n    require(msg.sender == api.sellerAddress || msg.sender == owner);\n\n    api.pricePerCall = pricePerCall;\n    api.sellerAddress = sellerAddress;\n    api.docsUrl = docsUrl;\n  }\n}",
  "sourcePath": "/Users/chris/Documents/WorkStuff/Deconet/Blockchain/DeconetToken/contracts/APIRegistry.sol",
  "compiler": {
    "name": "solc",
    "version": "0.4.19+commit.c4cbbb05.Emscripten.clang"
  },
  "schemaVersion": "1.0.1",
  "updatedAt": "2018-03-03T03:35:30.315Z"
}