{
  "contractName": "APIRegistry",
  "abi": [
    {
      "constant": true,
      "inputs": [],
      "name": "numApis",
      "outputs": [
        {
          "name": "",
          "type": "uint256"
        }
      ],
      "payable": false,
      "stateMutability": "view",
      "type": "function"
    },
    {
      "constant": true,
      "inputs": [],
      "name": "version",
      "outputs": [
        {
          "name": "",
          "type": "uint256"
        }
      ],
      "payable": false,
      "stateMutability": "view",
      "type": "function"
    },
    {
      "constant": true,
      "inputs": [],
      "name": "owner",
      "outputs": [
        {
          "name": "",
          "type": "address"
        }
      ],
      "payable": false,
      "stateMutability": "view",
      "type": "function"
    },
    {
      "constant": true,
      "inputs": [
        {
          "name": "",
          "type": "uint256"
        }
      ],
      "name": "apis",
      "outputs": [
        {
          "name": "pricePerCall",
          "type": "uint256"
        },
        {
          "name": "sellerUsername",
          "type": "bytes32"
        },
        {
          "name": "apiName",
          "type": "bytes32"
        },
        {
          "name": "sellerAddress",
          "type": "address"
        },
        {
          "name": "hostname",
          "type": "string"
        },
        {
          "name": "docsUrl",
          "type": "string"
        }
      ],
      "payable": false,
      "stateMutability": "view",
      "type": "function"
    },
    {
      "constant": false,
      "inputs": [
        {
          "name": "newOwner",
          "type": "address"
        }
      ],
      "name": "transferOwnership",
      "outputs": [],
      "payable": false,
      "stateMutability": "nonpayable",
      "type": "function"
    },
    {
      "inputs": [],
      "payable": false,
      "stateMutability": "nonpayable",
      "type": "constructor"
    },
    {
      "anonymous": false,
      "inputs": [
        {
          "indexed": true,
          "name": "previousOwner",
          "type": "address"
        },
        {
          "indexed": true,
          "name": "newOwner",
          "type": "address"
        }
      ],
      "name": "OwnershipTransferred",
      "type": "event"
    },
    {
      "constant": false,
      "inputs": [
        {
          "name": "pricePerCall",
          "type": "uint256"
        },
        {
          "name": "sellerUsername",
          "type": "bytes32"
        },
        {
          "name": "apiName",
          "type": "bytes32"
        },
        {
          "name": "hostname",
          "type": "string"
        },
        {
          "name": "docsUrl",
          "type": "string"
        }
      ],
      "name": "listApi",
      "outputs": [],
      "payable": false,
      "stateMutability": "nonpayable",
      "type": "function"
    },
    {
      "constant": true,
      "inputs": [
        {
          "name": "hostname",
          "type": "string"
        }
      ],
      "name": "getApiId",
      "outputs": [
        {
          "name": "",
          "type": "uint256"
        }
      ],
      "payable": false,
      "stateMutability": "view",
      "type": "function"
    },
    {
      "constant": true,
      "inputs": [
        {
          "name": "apiId",
          "type": "uint256"
        }
      ],
      "name": "getApiByIdWithoutDynamics",
      "outputs": [
        {
          "name": "pricePerCall",
          "type": "uint256"
        },
        {
          "name": "sellerUsername",
          "type": "bytes32"
        },
        {
          "name": "apiName",
          "type": "bytes32"
        },
        {
          "name": "sellerAddress",
          "type": "address"
        }
      ],
      "payable": false,
      "stateMutability": "view",
      "type": "function"
    },
    {
      "constant": true,
      "inputs": [
        {
          "name": "apiId",
          "type": "uint256"
        }
      ],
      "name": "getApiById",
      "outputs": [
        {
          "name": "pricePerCall",
          "type": "uint256"
        },
        {
          "name": "sellerUsername",
          "type": "bytes32"
        },
        {
          "name": "apiName",
          "type": "bytes32"
        },
        {
          "name": "sellerAddress",
          "type": "address"
        },
        {
          "name": "hostname",
          "type": "string"
        },
        {
          "name": "docsUrl",
          "type": "string"
        }
      ],
      "payable": false,
      "stateMutability": "view",
      "type": "function"
    },
    {
      "constant": true,
      "inputs": [
        {
          "name": "_hostname",
          "type": "string"
        }
      ],
      "name": "getApiByName",
      "outputs": [
        {
          "name": "pricePerCall",
          "type": "uint256"
        },
        {
          "name": "sellerUsername",
          "type": "bytes32"
        },
        {
          "name": "apiName",
          "type": "bytes32"
        },
        {
          "name": "sellerAddress",
          "type": "address"
        },
        {
          "name": "hostname",
          "type": "string"
        },
        {
          "name": "docsUrl",
          "type": "string"
        }
      ],
      "payable": false,
      "stateMutability": "view",
      "type": "function"
    },
    {
      "constant": false,
      "inputs": [
        {
          "name": "apiId",
          "type": "uint256"
        },
        {
          "name": "pricePerCall",
          "type": "uint256"
        },
        {
          "name": "sellerAddress",
          "type": "address"
        },
        {
          "name": "docsUrl",
          "type": "string"
        }
      ],
      "name": "editApi",
      "outputs": [],
      "payable": false,
      "stateMutability": "nonpayable",
      "type": "function"
    }
  ],
  "bytecode": "0x6060604052341561000f57600080fd5b336000806101000a81548173ffffffffffffffffffffffffffffffffffffffff021916908373ffffffffffffffffffffffffffffffffffffffff160217905550600060038190555060016004819055506114308061006e6000396000f3006060604052600436106100af576000357c0100000000000000000000000000000000000000000000000000000000900463ffffffff16806307626adb146100b4578063261ac2791461012557806331c0018b146101ad57806353f072e31461027057806354fd4d50146102995780638a74b45c146102c25780638da5cb5b14610350578063a0422d31146103a5578063af6e568914610505578063de13bec61461069f578063f2fde38b14610839575b600080fd5b34156100bf57600080fd5b61010f600480803590602001908201803590602001908080601f01602080910402602001604051908101604052809392919081815260200183838082843782019150505050505091905050610872565b6040518082815260200191505060405180910390f35b341561013057600080fd5b61014660048080359060200190919050506108e7565b60405180858152602001846000191660001916815260200183600019166000191681526020018273ffffffffffffffffffffffffffffffffffffffff1673ffffffffffffffffffffffffffffffffffffffff16815260200194505050505060405180910390f35b34156101b857600080fd5b61026e6004808035906020019091908035600019169060200190919080356000191690602001909190803590602001908201803590602001908080601f0160208091040260200160405190810160405280939291908181526020018383808284378201915050505050509190803590602001908201803590602001908080601f01602080910402602001604051908101604052809392919081815260200183838082843782019150505050505091905050610948565b005b341561027b57600080fd5b610283610b3d565b6040518082815260200191505060405180910390f35b34156102a457600080fd5b6102ac610b43565b6040518082815260200191505060405180910390f35b34156102cd57600080fd5b61034e600480803590602001909190803590602001909190803573ffffffffffffffffffffffffffffffffffffffff1690602001909190803590602001908201803590602001908080601f01602080910402602001604051908101604052809392919081815260200183838082843782019150505050505091905050610b49565b005b341561035b57600080fd5b610363610d96565b604051808273ffffffffffffffffffffffffffffffffffffffff1673ffffffffffffffffffffffffffffffffffffffff16815260200191505060405180910390f35b34156103b057600080fd5b6103c66004808035906020019091905050610dbb565b60405180878152602001866000191660001916815260200185600019166000191681526020018473ffffffffffffffffffffffffffffffffffffffff1673ffffffffffffffffffffffffffffffffffffffff1681526020018060200180602001838103835285818151815260200191508051906020019080838360005b8381101561045e578082015181840152602081019050610443565b50505050905090810190601f16801561048b5780820380516001836020036101000a031916815260200191505b50838103825284818151815260200191508051906020019080838360005b838110156104c45780820151818401526020810190506104a9565b50505050905090810190601f1680156104f15780820380516001836020036101000a031916815260200191505b509850505050505050505060405180910390f35b341561051057600080fd5b6105266004808035906020019091905050610f6c565b60405180878152602001866000191660001916815260200185600019166000191681526020018473ffffffffffffffffffffffffffffffffffffffff1673ffffffffffffffffffffffffffffffffffffffff16815260200180602001806020018381038352858181546001816001161561010002031660029004815260200191508054600181600116156101000203166002900480156106075780601f106105dc57610100808354040283529160200191610607565b820191906000526020600020905b8154815290600101906020018083116105ea57829003601f168201915b505083810382528481815460018160011615610100020316600290048152602001915080546001816001161561010002031660029004801561068a5780601f1061065f5761010080835404028352916020019161068a565b820191906000526020600020905b81548152906001019060200180831161066d57829003601f168201915b50509850505050505050505060405180910390f35b34156106aa57600080fd5b6106fa600480803590602001908201803590602001908080601f01602080910402602001604051908101604052809392919081815260200183838082843782019150505050505091905050610fc6565b60405180878152602001866000191660001916815260200185600019166000191681526020018473ffffffffffffffffffffffffffffffffffffffff1673ffffffffffffffffffffffffffffffffffffffff1681526020018060200180602001838103835285818151815260200191508051906020019080838360005b83811015610792578082015181840152602081019050610777565b50505050905090810190601f1680156107bf5780820380516001836020036101000a031916815260200191505b50838103825284818151815260200191508051906020019080838360005b838110156107f85780820151818401526020810190506107dd565b50505050905090810190601f1680156108255780820380516001836020036101000a031916815260200191505b509850505050505050505060405180910390f35b341561084457600080fd5b610870600480803573ffffffffffffffffffffffffffffffffffffffff169060200190919050506111f6565b005b60006001826040518082805190602001908083835b6020831015156108ac5780518252602082019150602081019050602083039250610887565b6001836020036101000a0380198251168184511680821785525050505050509050019150509081526020016040518091039020549050919050565b60008060008060006002600087815260200190815260200160002090508060000154945080600101549350806002015492508060030160009054906101000a900473ffffffffffffffffffffffffffffffffffffffff169150509193509193565b600080861415801561095f57506000856000191614155b801561097057506000846000191614155b801561097e57506000835114155b151561098957600080fd5b60006001846040518082805190602001908083835b6020831015156109c3578051825260208201915060208101905060208303925061099e565b6001836020036101000a038019825116818451168082178552505050505050905001915050908152602001604051809103902054141515610a0357600080fd5b60016003600082825401925050819055506003546001846040518082805190602001908083835b602083101515610a4f5780518252602082019150602081019050602083039250610a2a565b6001836020036101000a03801982511681845116808217855250505050505090500191505090815260200160405180910390208190555060026000600354815260200190815260200160002090508581600001819055508481600101816000191690555083816002018160001916905550338160030160006101000a81548173ffffffffffffffffffffffffffffffffffffffff021916908373ffffffffffffffffffffffffffffffffffffffff16021790555082816004019080519060200190610b1b92919061134b565b5081816005019080519060200190610b3492919061134b565b50505050505050565b60035481565b60045481565b6000808514158015610b5c575060008414155b8015610b955750600073ffffffffffffffffffffffffffffffffffffffff168373ffffffffffffffffffffffffffffffffffffffff1614155b1515610ba057600080fd5b6002600086815260200190815260200160002090506000816000015414158015610bd35750600081600101546000191614155b8015610be85750600081600201546000191614155b8015610c0d575060008160040180546001816001161561010002031660029004905014155b8015610c6a5750600073ffffffffffffffffffffffffffffffffffffffff168160030160009054906101000a900473ffffffffffffffffffffffffffffffffffffffff1673ffffffffffffffffffffffffffffffffffffffff1614155b1515610c7557600080fd5b8060030160009054906101000a900473ffffffffffffffffffffffffffffffffffffffff1673ffffffffffffffffffffffffffffffffffffffff163373ffffffffffffffffffffffffffffffffffffffff161480610d1f57506000809054906101000a900473ffffffffffffffffffffffffffffffffffffffff1673ffffffffffffffffffffffffffffffffffffffff163373ffffffffffffffffffffffffffffffffffffffff16145b1515610d2a57600080fd5b838160000181905550828160030160006101000a81548173ffffffffffffffffffffffffffffffffffffffff021916908373ffffffffffffffffffffffffffffffffffffffff16021790555081816005019080519060200190610d8e92919061134b565b505050505050565b6000809054906101000a900473ffffffffffffffffffffffffffffffffffffffff1681565b600080600080610dc96113cb565b610dd16113cb565b60006002600089815260200190815260200160002090508060000154965080600101549550806002015494508060030160009054906101000a900473ffffffffffffffffffffffffffffffffffffffff169350806004018054600181600116156101000203166002900480601f016020809104026020016040519081016040528092919081815260200182805460018160011615610100020316600290048015610ebc5780601f10610e9157610100808354040283529160200191610ebc565b820191906000526020600020905b815481529060010190602001808311610e9f57829003601f168201915b50505050509250806005018054600181600116156101000203166002900480601f016020809104026020016040519081016040528092919081815260200182805460018160011615610100020316600290048015610f5b5780601f10610f3057610100808354040283529160200191610f5b565b820191906000526020600020905b815481529060010190602001808311610f3e57829003601f168201915b505050505091505091939550919395565b60026020528060005260406000206000915090508060000154908060010154908060020154908060030160009054906101000a900473ffffffffffffffffffffffffffffffffffffffff1690806004019080600501905086565b600080600080610fd46113cb565b610fdc6113cb565b6000806001896040518082805190602001908083835b6020831015156110175780518252602082019150602081019050602083039250610ff2565b6001836020036101000a0380198251168184511680821785525050505050509050019150509081526020016040518091039020549150600082141561105b576111eb565b6002600083815260200190815260200160002090508060000154975080600101549650806002015495508060030160009054906101000a900473ffffffffffffffffffffffffffffffffffffffff169450806004018054600181600116156101000203166002900480601f0160208091040260200160405190810160405280929190818152602001828054600181600116156101000203166002900480156111445780601f1061111957610100808354040283529160200191611144565b820191906000526020600020905b81548152906001019060200180831161112757829003601f168201915b50505050509350806005018054600181600116156101000203166002900480601f0160208091040260200160405190810160405280929190818152602001828054600181600116156101000203166002900480156111e35780601f106111b8576101008083540402835291602001916111e3565b820191906000526020600020905b8154815290600101906020018083116111c657829003601f168201915b505050505092505b505091939550919395565b6000809054906101000a900473ffffffffffffffffffffffffffffffffffffffff1673ffffffffffffffffffffffffffffffffffffffff163373ffffffffffffffffffffffffffffffffffffffff1614151561125157600080fd5b600073ffffffffffffffffffffffffffffffffffffffff168173ffffffffffffffffffffffffffffffffffffffff161415151561128d57600080fd5b8073ffffffffffffffffffffffffffffffffffffffff166000809054906101000a900473ffffffffffffffffffffffffffffffffffffffff1673ffffffffffffffffffffffffffffffffffffffff167f8be0079c531659141344cd1fd0a4f28419497f9722a3daafe3b4186f6b6457e060405160405180910390a3806000806101000a81548173ffffffffffffffffffffffffffffffffffffffff021916908373ffffffffffffffffffffffffffffffffffffffff16021790555050565b828054600181600116156101000203166002900490600052602060002090601f016020900481019282601f1061138c57805160ff19168380011785556113ba565b828001600101855582156113ba579182015b828111156113b957825182559160200191906001019061139e565b5b5090506113c791906113df565b5090565b602060405190810160405280600081525090565b61140191905b808211156113fd5760008160009055506001016113e5565b5090565b905600a165627a7a72305820ae740e24a59bfb1a9acc9ac022552c968638200c3ddfa07519a12e27c0958fb60029",
  "source": "pragma solidity 0.4.19;\n\nimport \"zeppelin-solidity/contracts/ownership/Ownable.sol\";\n\ncontract APIRegistry is Ownable {\n\n  struct APIForSale {\n    uint pricePerCall;\n    bytes32 sellerUsername;\n    bytes32 apiName;\n    address sellerAddress;\n    string hostname;\n    string docsUrl;\n  }\n\n  mapping(string => uint) internal apiIds;\n  mapping(uint => APIForSale) public apis;\n\n  uint public numApis;\n  uint public version;\n\n  // ------------------------------------------------------------------------\n  // Constructor, establishes ownership because contract is owned\n  // ------------------------------------------------------------------------\n  function APIRegistry() public {\n    numApis = 0;\n    version = 1;\n  }\n\n  function listApi(uint pricePerCall, bytes32 sellerUsername, bytes32 apiName, string hostname, string docsUrl) public {\n    // make sure input params are valid\n    require(pricePerCall != 0 && sellerUsername != \"\" && apiName != \"\" && bytes(hostname).length != 0);\n    \n    // make sure the name isn't already taken\n    require(apiIds[hostname] == 0);\n\n    numApis += 1;\n    apiIds[hostname] = numApis;\n\n    APIForSale storage api = apis[numApis];\n\n    api.pricePerCall = pricePerCall;\n    api.sellerUsername = sellerUsername;\n    api.apiName = apiName;\n    api.sellerAddress = msg.sender;\n    api.hostname = hostname;\n    api.docsUrl = docsUrl;\n  }\n\n  function getApiId(string hostname) public view returns (uint) {\n    return apiIds[hostname];\n  }\n\n  function getApiByIdWithoutDynamics(uint apiId) public view returns (uint pricePerCall, bytes32 sellerUsername, bytes32 apiName, address sellerAddress) {\n    APIForSale storage api = apis[apiId];\n\n    pricePerCall = api.pricePerCall;\n    sellerUsername = api.sellerUsername;\n    apiName = api.apiName;\n    sellerAddress = api.sellerAddress;\n  }\n\n  function getApiById(uint apiId) public view returns (uint pricePerCall, bytes32 sellerUsername, bytes32 apiName, address sellerAddress, string hostname, string docsUrl) {\n    APIForSale storage api = apis[apiId];\n\n    pricePerCall = api.pricePerCall;\n    sellerUsername = api.sellerUsername;\n    apiName = api.apiName;\n    sellerAddress = api.sellerAddress;\n    hostname = api.hostname;\n    docsUrl = api.docsUrl;\n  }\n\n  function getApiByName(string _hostname) public view returns (uint pricePerCall, bytes32 sellerUsername, bytes32 apiName, address sellerAddress, string hostname, string docsUrl) {\n    uint apiId = apiIds[_hostname];\n    if (apiId == 0) {\n      return;\n    }\n    APIForSale storage api = apis[apiId];\n\n    pricePerCall = api.pricePerCall;\n    sellerUsername = api.sellerUsername;\n    apiName = api.apiName;\n    sellerAddress = api.sellerAddress;\n    hostname = api.hostname;\n    docsUrl = api.docsUrl;\n  }\n\n  function editApi(uint apiId, uint pricePerCall, address sellerAddress, string docsUrl) public {\n    require(apiId != 0 && pricePerCall != 0 && sellerAddress != address(0));\n\n    APIForSale storage api = apis[apiId];\n\n    // prevent editing an empty api (effectively listing an api)\n    require(api.pricePerCall != 0 && api.sellerUsername != \"\" && api.apiName != \"\" && bytes(api.hostname).length != 0 && api.sellerAddress != address(0));\n\n    // require that sender is the original api lister, or the contract owner\n    // the contract owner clause lets us recover a api listing if a dev loses access to their privkey\n    require(msg.sender == api.sellerAddress || msg.sender == owner);\n\n    api.pricePerCall = pricePerCall;\n    api.sellerAddress = sellerAddress;\n    api.docsUrl = docsUrl;\n  }\n}",
  "sourcePath": "/Users/chris/Documents/WorkStuff/Deconet/Blockchain/DeconetToken/contracts/APIRegistry.sol",
  "compiler": {
    "name": "solc",
    "version": "0.4.19+commit.c4cbbb05.Emscripten.clang"
  },
  "schemaVersion": "2.0.0",
  "updatedAt": "2018-03-10T01:07:29.423Z"
}