{
  "contractName": "DeconetToken",
  "abi": [
    {
      "constant": true,
      "inputs": [],
      "name": "name",
      "outputs": [
        {
          "name": "",
          "type": "string"
        }
      ],
      "payable": false,
      "stateMutability": "view",
      "type": "function"
    },
    {
      "constant": false,
      "inputs": [
        {
          "name": "spender",
          "type": "address"
        },
        {
          "name": "tokens",
          "type": "uint256"
        }
      ],
      "name": "approve",
      "outputs": [
        {
          "name": "success",
          "type": "bool"
        }
      ],
      "payable": false,
      "stateMutability": "nonpayable",
      "type": "function"
    },
    {
      "constant": false,
      "inputs": [
        {
          "name": "projectName",
          "type": "string"
        },
        {
          "name": "sellerUsername",
          "type": "string"
        },
        {
          "name": "sellerAddress",
          "type": "address"
        }
      ],
      "name": "makeSale",
      "outputs": [],
      "payable": true,
      "stateMutability": "payable",
      "type": "function"
    },
    {
      "constant": true,
      "inputs": [],
      "name": "saleFee",
      "outputs": [
        {
          "name": "",
          "type": "uint256"
        }
      ],
      "payable": false,
      "stateMutability": "view",
      "type": "function"
    },
    {
      "constant": true,
      "inputs": [],
      "name": "totalSupply",
      "outputs": [
        {
          "name": "",
          "type": "uint256"
        }
      ],
      "payable": false,
      "stateMutability": "view",
      "type": "function"
    },
    {
      "constant": false,
      "inputs": [
        {
          "name": "from",
          "type": "address"
        },
        {
          "name": "to",
          "type": "address"
        },
        {
          "name": "tokens",
          "type": "uint256"
        }
      ],
      "name": "transferFrom",
      "outputs": [
        {
          "name": "success",
          "type": "bool"
        }
      ],
      "payable": false,
      "stateMutability": "nonpayable",
      "type": "function"
    },
    {
      "constant": true,
      "inputs": [],
      "name": "decimals",
      "outputs": [
        {
          "name": "",
          "type": "uint8"
        }
      ],
      "payable": false,
      "stateMutability": "view",
      "type": "function"
    },
    {
      "constant": true,
      "inputs": [],
      "name": "_totalSupply",
      "outputs": [
        {
          "name": "",
          "type": "uint256"
        }
      ],
      "payable": false,
      "stateMutability": "view",
      "type": "function"
    },
    {
      "constant": true,
      "inputs": [
        {
          "name": "buyer",
          "type": "address"
        }
      ],
      "name": "getSaleCountForBuyer",
      "outputs": [
        {
          "name": "",
          "type": "uint256"
        }
      ],
      "payable": false,
      "stateMutability": "view",
      "type": "function"
    },
    {
      "constant": true,
      "inputs": [
        {
          "name": "buyer",
          "type": "address"
        },
        {
          "name": "index",
          "type": "uint256"
        }
      ],
      "name": "getSaleForBuyerAtIndex",
      "outputs": [
        {
          "name": "",
          "type": "string"
        },
        {
          "name": "",
          "type": "string"
        },
        {
          "name": "",
          "type": "address"
        },
        {
          "name": "",
          "type": "address"
        },
        {
          "name": "",
          "type": "uint256"
        },
        {
          "name": "",
          "type": "uint256"
        }
      ],
      "payable": false,
      "stateMutability": "view",
      "type": "function"
    },
    {
      "constant": true,
      "inputs": [],
      "name": "tokenReward",
      "outputs": [
        {
          "name": "",
          "type": "uint256"
        }
      ],
      "payable": false,
      "stateMutability": "view",
      "type": "function"
    },
    {
      "constant": true,
      "inputs": [
        {
          "name": "tokenOwner",
          "type": "address"
        }
      ],
      "name": "balanceOf",
      "outputs": [
        {
          "name": "balance",
          "type": "uint256"
        }
      ],
      "payable": false,
      "stateMutability": "view",
      "type": "function"
    },
    {
      "constant": false,
      "inputs": [],
      "name": "acceptOwnership",
      "outputs": [],
      "payable": false,
      "stateMutability": "nonpayable",
      "type": "function"
    },
    {
      "constant": true,
      "inputs": [],
      "name": "owner",
      "outputs": [
        {
          "name": "",
          "type": "address"
        }
      ],
      "payable": false,
      "stateMutability": "view",
      "type": "function"
    },
    {
      "constant": true,
      "inputs": [],
      "name": "symbol",
      "outputs": [
        {
          "name": "",
          "type": "string"
        }
      ],
      "payable": false,
      "stateMutability": "view",
      "type": "function"
    },
    {
      "constant": false,
      "inputs": [
        {
          "name": "to",
          "type": "address"
        },
        {
          "name": "tokens",
          "type": "uint256"
        }
      ],
      "name": "transfer",
      "outputs": [
        {
          "name": "success",
          "type": "bool"
        }
      ],
      "payable": false,
      "stateMutability": "nonpayable",
      "type": "function"
    },
    {
      "constant": false,
      "inputs": [
        {
          "name": "spender",
          "type": "address"
        },
        {
          "name": "tokens",
          "type": "uint256"
        },
        {
          "name": "data",
          "type": "bytes"
        }
      ],
      "name": "approveAndCall",
      "outputs": [
        {
          "name": "success",
          "type": "bool"
        }
      ],
      "payable": false,
      "stateMutability": "nonpayable",
      "type": "function"
    },
    {
      "constant": true,
      "inputs": [
        {
          "name": "seller",
          "type": "address"
        }
      ],
      "name": "getSaleCountForSeller",
      "outputs": [
        {
          "name": "",
          "type": "uint256"
        }
      ],
      "payable": false,
      "stateMutability": "view",
      "type": "function"
    },
    {
      "constant": true,
      "inputs": [],
      "name": "newOwner",
      "outputs": [
        {
          "name": "",
          "type": "address"
        }
      ],
      "payable": false,
      "stateMutability": "view",
      "type": "function"
    },
    {
      "constant": false,
      "inputs": [
        {
          "name": "tokenAddress",
          "type": "address"
        },
        {
          "name": "tokens",
          "type": "uint256"
        }
      ],
      "name": "transferAnyERC20Token",
      "outputs": [
        {
          "name": "success",
          "type": "bool"
        }
      ],
      "payable": false,
      "stateMutability": "nonpayable",
      "type": "function"
    },
    {
      "constant": true,
      "inputs": [
        {
          "name": "tokenOwner",
          "type": "address"
        },
        {
          "name": "spender",
          "type": "address"
        }
      ],
      "name": "allowance",
      "outputs": [
        {
          "name": "remaining",
          "type": "uint256"
        }
      ],
      "payable": false,
      "stateMutability": "view",
      "type": "function"
    },
    {
      "constant": true,
      "inputs": [
        {
          "name": "seller",
          "type": "address"
        },
        {
          "name": "index",
          "type": "uint256"
        }
      ],
      "name": "getSaleForSellerAtIndex",
      "outputs": [
        {
          "name": "",
          "type": "string"
        },
        {
          "name": "",
          "type": "string"
        },
        {
          "name": "",
          "type": "address"
        },
        {
          "name": "",
          "type": "address"
        },
        {
          "name": "",
          "type": "uint256"
        },
        {
          "name": "",
          "type": "uint256"
        }
      ],
      "payable": false,
      "stateMutability": "view",
      "type": "function"
    },
    {
      "constant": false,
      "inputs": [
        {
          "name": "_newOwner",
          "type": "address"
        }
      ],
      "name": "transferOwnership",
      "outputs": [],
      "payable": false,
      "stateMutability": "nonpayable",
      "type": "function"
    },
    {
      "inputs": [],
      "payable": false,
      "stateMutability": "nonpayable",
      "type": "constructor"
    },
    {
      "anonymous": false,
      "inputs": [
        {
          "indexed": true,
          "name": "_from",
          "type": "address"
        },
        {
          "indexed": true,
          "name": "_to",
          "type": "address"
        }
      ],
      "name": "OwnershipTransferred",
      "type": "event"
    },
    {
      "anonymous": false,
      "inputs": [
        {
          "indexed": true,
          "name": "from",
          "type": "address"
        },
        {
          "indexed": true,
          "name": "to",
          "type": "address"
        },
        {
          "indexed": false,
          "name": "tokens",
          "type": "uint256"
        }
      ],
      "name": "Transfer",
      "type": "event"
    },
    {
      "anonymous": false,
      "inputs": [
        {
          "indexed": true,
          "name": "tokenOwner",
          "type": "address"
        },
        {
          "indexed": true,
          "name": "spender",
          "type": "address"
        },
        {
          "indexed": false,
          "name": "tokens",
          "type": "uint256"
        }
      ],
      "name": "Approval",
      "type": "event"
    }
  ],
  "bytecode": "0x606060405234156200001057600080fd5b336000806101000a81548173ffffffffffffffffffffffffffffffffffffffff021916908373ffffffffffffffffffffffffffffffffffffffff1602179055506040805190810160405280600381526020017f44434f0000000000000000000000000000000000000000000000000000000000815250600290805190602001906200009d92919062000230565b506040805190810160405280600d81526020017f4465636f6e657420546f6b656e0000000000000000000000000000000000000081525060039080519060200190620000eb92919062000230565b5060646006819055506012600460006101000a81548160ff021916908360ff160217905550600a600781905550600460009054906101000a900460ff1660ff16600a0a633b9aca0002600581905550600554600860008060009054906101000a900473ffffffffffffffffffffffffffffffffffffffff1673ffffffffffffffffffffffffffffffffffffffff1673ffffffffffffffffffffffffffffffffffffffff168152602001908152602001600020819055506000809054906101000a900473ffffffffffffffffffffffffffffffffffffffff1673ffffffffffffffffffffffffffffffffffffffff16600073ffffffffffffffffffffffffffffffffffffffff167fddf252ad1be2c89b69c2b068fc378daa952ba7f163c4a11628f55a4df523b3ef6005546040518082815260200191505060405180910390a3620002df565b828054600181600116156101000203166002900490600052602060002090601f016020900481019282601f106200027357805160ff1916838001178555620002a4565b82800160010185558215620002a4579182015b82811115620002a357825182559160200191906001019062000286565b5b509050620002b39190620002b7565b5090565b620002dc91905b80821115620002d8576000816000905550600101620002be565b5090565b90565b61254580620002ef6000396000f300606060405260043610610133576000357c0100000000000000000000000000000000000000000000000000000000900463ffffffff16806306fdde0314610138578063095ea7b3146101c65780630dadb0bf14610220578063178021e3146102d457806318160ddd146102fd57806323b872dd14610326578063313ce5671461039f5780633eaaf86b146103ce57806353f1dcb5146103f757806356691404146104445780636e66f6e9146105df57806370a082311461060857806379ba5097146106555780638da5cb5b1461066a57806395d89b41146106bf578063a9059cbb1461074d578063cae9ca51146107a7578063cb8153e214610844578063d4ee1d9014610891578063dc39d06d146108e6578063dd62ed3e14610940578063ec3f678d146109ac578063f2fde38b14610b47575b600080fd5b341561014357600080fd5b61014b610b80565b6040518080602001828103825283818151815260200191508051906020019080838360005b8381101561018b578082015181840152602081019050610170565b50505050905090810190601f1680156101b85780820380516001836020036101000a031916815260200191505b509250505060405180910390f35b34156101d157600080fd5b610206600480803573ffffffffffffffffffffffffffffffffffffffff16906020019091908035906020019091905050610c1e565b604051808215151515815260200191505060405180910390f35b6102d2600480803590602001908201803590602001908080601f0160208091040260200160405190810160405280939291908181526020018383808284378201915050505050509190803590602001908201803590602001908080601f0160208091040260200160405190810160405280939291908181526020018383808284378201915050505050509190803573ffffffffffffffffffffffffffffffffffffffff16906020019091905050610d10565b005b34156102df57600080fd5b6102e76111ba565b6040518082815260200191505060405180910390f35b341561030857600080fd5b6103106111c0565b6040518082815260200191505060405180910390f35b341561033157600080fd5b610385600480803573ffffffffffffffffffffffffffffffffffffffff1690602001909190803573ffffffffffffffffffffffffffffffffffffffff1690602001909190803590602001909190505061120b565b604051808215151515815260200191505060405180910390f35b34156103aa57600080fd5b6103b26114b6565b604051808260ff1660ff16815260200191505060405180910390f35b34156103d957600080fd5b6103e16114c9565b6040518082815260200191505060405180910390f35b341561040257600080fd5b61042e600480803573ffffffffffffffffffffffffffffffffffffffff169060200190919050506114cf565b6040518082815260200191505060405180910390f35b341561044f57600080fd5b610484600480803573ffffffffffffffffffffffffffffffffffffffff1690602001909190803590602001909190505061151b565b6040518080602001806020018773ffffffffffffffffffffffffffffffffffffffff1673ffffffffffffffffffffffffffffffffffffffff1681526020018673ffffffffffffffffffffffffffffffffffffffff1673ffffffffffffffffffffffffffffffffffffffff168152602001858152602001848152602001838103835289818151815260200191508051906020019080838360005b8381101561053857808201518184015260208101905061051d565b50505050905090810190601f1680156105655780820380516001836020036101000a031916815260200191505b50838103825288818151815260200191508051906020019080838360005b8381101561059e578082015181840152602081019050610583565b50505050905090810190601f1680156105cb5780820380516001836020036101000a031916815260200191505b509850505050505050505060405180910390f35b34156105ea57600080fd5b6105f26117a4565b6040518082815260200191505060405180910390f35b341561061357600080fd5b61063f600480803573ffffffffffffffffffffffffffffffffffffffff169060200190919050506117aa565b6040518082815260200191505060405180910390f35b341561066057600080fd5b6106686117f3565b005b341561067557600080fd5b61067d611992565b604051808273ffffffffffffffffffffffffffffffffffffffff1673ffffffffffffffffffffffffffffffffffffffff16815260200191505060405180910390f35b34156106ca57600080fd5b6106d26119b7565b6040518080602001828103825283818151815260200191508051906020019080838360005b838110156107125780820151818401526020810190506106f7565b50505050905090810190601f16801561073f5780820380516001836020036101000a031916815260200191505b509250505060405180910390f35b341561075857600080fd5b61078d600480803573ffffffffffffffffffffffffffffffffffffffff16906020019091908035906020019091905050611a55565b604051808215151515815260200191505060405180910390f35b34156107b257600080fd5b61082a600480803573ffffffffffffffffffffffffffffffffffffffff1690602001909190803590602001909190803590602001908201803590602001908080601f01602080910402602001604051908101604052809392919081815260200183838082843782019150505050505091905050611bf0565b604051808215151515815260200191505060405180910390f35b341561084f57600080fd5b61087b600480803573ffffffffffffffffffffffffffffffffffffffff16906020019091905050611e3a565b6040518082815260200191505060405180910390f35b341561089c57600080fd5b6108a4611e86565b604051808273ffffffffffffffffffffffffffffffffffffffff1673ffffffffffffffffffffffffffffffffffffffff16815260200191505060405180910390f35b34156108f157600080fd5b610926600480803573ffffffffffffffffffffffffffffffffffffffff16906020019091908035906020019091905050611eac565b604051808215151515815260200191505060405180910390f35b341561094b57600080fd5b610996600480803573ffffffffffffffffffffffffffffffffffffffff1690602001909190803573ffffffffffffffffffffffffffffffffffffffff16906020019091905050611ff8565b6040518082815260200191505060405180910390f35b34156109b757600080fd5b6109ec600480803573ffffffffffffffffffffffffffffffffffffffff1690602001909190803590602001909190505061207f565b6040518080602001806020018773ffffffffffffffffffffffffffffffffffffffff1673ffffffffffffffffffffffffffffffffffffffff1681526020018673ffffffffffffffffffffffffffffffffffffffff1673ffffffffffffffffffffffffffffffffffffffff168152602001858152602001848152602001838103835289818151815260200191508051906020019080838360005b83811015610aa0578082015181840152602081019050610a85565b50505050905090810190601f168015610acd5780820380516001836020036101000a031916815260200191505b50838103825288818151815260200191508051906020019080838360005b83811015610b06578082015181840152602081019050610aeb565b50505050905090810190601f168015610b335780820380516001836020036101000a031916815260200191505b509850505050505050505060405180910390f35b3415610b5257600080fd5b610b7e600480803573ffffffffffffffffffffffffffffffffffffffff16906020019091905050612308565b005b60038054600181600116156101000203166002900480601f016020809104026020016040519081016040528092919081815260200182805460018160011615610100020316600290048015610c165780601f10610beb57610100808354040283529160200191610c16565b820191906000526020600020905b815481529060010190602001808311610bf957829003601f168201915b505050505081565b600081600960003373ffffffffffffffffffffffffffffffffffffffff1673ffffffffffffffffffffffffffffffffffffffff16815260200190815260200160002060008573ffffffffffffffffffffffffffffffffffffffff1673ffffffffffffffffffffffffffffffffffffffff168152602001908152602001600020819055508273ffffffffffffffffffffffffffffffffffffffff163373ffffffffffffffffffffffffffffffffffffffff167f8c5be1e5ebec7d5bd14f71427d1e84f3dd0314c0f7b2291e5b200ac8c7c3b925846040518082815260200191505060405180910390a36001905092915050565b600080600a600081548092919060010191905055915060c0604051908101604052808681526020018581526020018473ffffffffffffffffffffffffffffffffffffffff1681526020013373ffffffffffffffffffffffffffffffffffffffff16815260200134815260200142815250600b60008481526020019081526020016000206000820151816000019080519060200190610daf929190612434565b506020820151816001019080519060200190610dcc929190612434565b5060408201518160020160006101000a81548173ffffffffffffffffffffffffffffffffffffffff021916908373ffffffffffffffffffffffffffffffffffffffff16021790555060608201518160030160006101000a81548173ffffffffffffffffffffffffffffffffffffffff021916908373ffffffffffffffffffffffffffffffffffffffff1602179055506080820151816004015560a08201518160050155905050600c60003373ffffffffffffffffffffffffffffffffffffffff1673ffffffffffffffffffffffffffffffffffffffff1681526020019081526020016000208054806001018281610ec391906124b4565b916000526020600020900160008490919091505550600d60008473ffffffffffffffffffffffffffffffffffffffff1673ffffffffffffffffffffffffffffffffffffffff1681526020019081526020016000208054806001018281610f2991906124b4565b916000526020600020900160008490919091505550610f796064610f6b600754610f5d6064346123a790919063ffffffff16565b6123d890919063ffffffff16565b6123d890919063ffffffff16565b90508273ffffffffffffffffffffffffffffffffffffffff166108fc829081150290604051600060405180830381858888f193505050501515610fbb57600080fd5b611030600654600860008060009054906101000a900473ffffffffffffffffffffffffffffffffffffffff1673ffffffffffffffffffffffffffffffffffffffff1673ffffffffffffffffffffffffffffffffffffffff168152602001908152602001600020546123fc90919063ffffffff16565b600860008060009054906101000a900473ffffffffffffffffffffffffffffffffffffffff1673ffffffffffffffffffffffffffffffffffffffff1673ffffffffffffffffffffffffffffffffffffffff168152602001908152602001600020819055506110e8600654600860008673ffffffffffffffffffffffffffffffffffffffff1673ffffffffffffffffffffffffffffffffffffffff1681526020019081526020016000205461241890919063ffffffff16565b600860008573ffffffffffffffffffffffffffffffffffffffff1673ffffffffffffffffffffffffffffffffffffffff168152602001908152602001600020819055508273ffffffffffffffffffffffffffffffffffffffff166000809054906101000a900473ffffffffffffffffffffffffffffffffffffffff1673ffffffffffffffffffffffffffffffffffffffff167fddf252ad1be2c89b69c2b068fc378daa952ba7f163c4a11628f55a4df523b3ef6006546040518082815260200191505060405180910390a35050505050565b60075481565b6000600860008073ffffffffffffffffffffffffffffffffffffffff1673ffffffffffffffffffffffffffffffffffffffff1681526020019081526020016000205460055403905090565b600061125f82600860008773ffffffffffffffffffffffffffffffffffffffff1673ffffffffffffffffffffffffffffffffffffffff168152602001908152602001600020546123fc90919063ffffffff16565b600860008673ffffffffffffffffffffffffffffffffffffffff1673ffffffffffffffffffffffffffffffffffffffff1681526020019081526020016000208190555061133182600960008773ffffffffffffffffffffffffffffffffffffffff1673ffffffffffffffffffffffffffffffffffffffff16815260200190815260200160002060003373ffffffffffffffffffffffffffffffffffffffff1673ffffffffffffffffffffffffffffffffffffffff168152602001908152602001600020546123fc90919063ffffffff16565b600960008673ffffffffffffffffffffffffffffffffffffffff1673ffffffffffffffffffffffffffffffffffffffff16815260200190815260200160002060003373ffffffffffffffffffffffffffffffffffffffff1673ffffffffffffffffffffffffffffffffffffffff1681526020019081526020016000208190555061140382600860008673ffffffffffffffffffffffffffffffffffffffff1673ffffffffffffffffffffffffffffffffffffffff1681526020019081526020016000205461241890919063ffffffff16565b600860008573ffffffffffffffffffffffffffffffffffffffff1673ffffffffffffffffffffffffffffffffffffffff168152602001908152602001600020819055508273ffffffffffffffffffffffffffffffffffffffff168473ffffffffffffffffffffffffffffffffffffffff167fddf252ad1be2c89b69c2b068fc378daa952ba7f163c4a11628f55a4df523b3ef846040518082815260200191505060405180910390a3600190509392505050565b600460009054906101000a900460ff1681565b60055481565b6000600c60008373ffffffffffffffffffffffffffffffffffffffff1673ffffffffffffffffffffffffffffffffffffffff168152602001908152602001600020805490509050919050565b6115236124e0565b61152b6124e0565b6000806000806000600c60008a73ffffffffffffffffffffffffffffffffffffffff1673ffffffffffffffffffffffffffffffffffffffff1681526020019081526020016000208881548110151561157f57fe5b9060005260206000209001549050600b6000828152602001908152602001600020600001600b6000838152602001908152602001600020600101600b600084815260200190815260200160002060020160009054906101000a900473ffffffffffffffffffffffffffffffffffffffff16600b600085815260200190815260200160002060030160009054906101000a900473ffffffffffffffffffffffffffffffffffffffff16600b600086815260200190815260200160002060040154600b600087815260200190815260200160002060050154858054600181600116156101000203166002900480601f0160208091040260200160405190810160405280929190818152602001828054600181600116156101000203166002900480156116ea5780601f106116bf576101008083540402835291602001916116ea565b820191906000526020600020905b8154815290600101906020018083116116cd57829003601f168201915b50505050509550848054600181600116156101000203166002900480601f0160208091040260200160405190810160405280929190818152602001828054600181600116156101000203166002900480156117865780601f1061175b57610100808354040283529160200191611786565b820191906000526020600020905b81548152906001019060200180831161176957829003601f168201915b50505050509450965096509650965096509650509295509295509295565b60065481565b6000600860008373ffffffffffffffffffffffffffffffffffffffff1673ffffffffffffffffffffffffffffffffffffffff168152602001908152602001600020549050919050565b600160009054906101000a900473ffffffffffffffffffffffffffffffffffffffff1673ffffffffffffffffffffffffffffffffffffffff163373ffffffffffffffffffffffffffffffffffffffff1614151561184f57600080fd5b600160009054906101000a900473ffffffffffffffffffffffffffffffffffffffff1673ffffffffffffffffffffffffffffffffffffffff166000809054906101000a900473ffffffffffffffffffffffffffffffffffffffff1673ffffffffffffffffffffffffffffffffffffffff167f8be0079c531659141344cd1fd0a4f28419497f9722a3daafe3b4186f6b6457e060405160405180910390a3600160009054906101000a900473ffffffffffffffffffffffffffffffffffffffff166000806101000a81548173ffffffffffffffffffffffffffffffffffffffff021916908373ffffffffffffffffffffffffffffffffffffffff1602179055506000600160006101000a81548173ffffffffffffffffffffffffffffffffffffffff021916908373ffffffffffffffffffffffffffffffffffffffff160217905550565b6000809054906101000a900473ffffffffffffffffffffffffffffffffffffffff1681565b60028054600181600116156101000203166002900480601f016020809104026020016040519081016040528092919081815260200182805460018160011615610100020316600290048015611a4d5780601f10611a2257610100808354040283529160200191611a4d565b820191906000526020600020905b815481529060010190602001808311611a3057829003601f168201915b505050505081565b6000611aa982600860003373ffffffffffffffffffffffffffffffffffffffff1673ffffffffffffffffffffffffffffffffffffffff168152602001908152602001600020546123fc90919063ffffffff16565b600860003373ffffffffffffffffffffffffffffffffffffffff1673ffffffffffffffffffffffffffffffffffffffff16815260200190815260200160002081905550611b3e82600860008673ffffffffffffffffffffffffffffffffffffffff1673ffffffffffffffffffffffffffffffffffffffff1681526020019081526020016000205461241890919063ffffffff16565b600860008573ffffffffffffffffffffffffffffffffffffffff1673ffffffffffffffffffffffffffffffffffffffff168152602001908152602001600020819055508273ffffffffffffffffffffffffffffffffffffffff163373ffffffffffffffffffffffffffffffffffffffff167fddf252ad1be2c89b69c2b068fc378daa952ba7f163c4a11628f55a4df523b3ef846040518082815260200191505060405180910390a36001905092915050565b600082600960003373ffffffffffffffffffffffffffffffffffffffff1673ffffffffffffffffffffffffffffffffffffffff16815260200190815260200160002060008673ffffffffffffffffffffffffffffffffffffffff1673ffffffffffffffffffffffffffffffffffffffff168152602001908152602001600020819055508373ffffffffffffffffffffffffffffffffffffffff163373ffffffffffffffffffffffffffffffffffffffff167f8c5be1e5ebec7d5bd14f71427d1e84f3dd0314c0f7b2291e5b200ac8c7c3b925856040518082815260200191505060405180910390a38373ffffffffffffffffffffffffffffffffffffffff16638f4ffcb1338530866040518563ffffffff167c0100000000000000000000000000000000000000000000000000000000028152600401808573ffffffffffffffffffffffffffffffffffffffff1673ffffffffffffffffffffffffffffffffffffffff1681526020018481526020018373ffffffffffffffffffffffffffffffffffffffff1673ffffffffffffffffffffffffffffffffffffffff16815260200180602001828103825283818151815260200191508051906020019080838360005b83811015611dcd578082015181840152602081019050611db2565b50505050905090810190601f168015611dfa5780820380516001836020036101000a031916815260200191505b5095505050505050600060405180830381600087803b1515611e1b57600080fd5b6102c65a03f11515611e2c57600080fd5b505050600190509392505050565b6000600d60008373ffffffffffffffffffffffffffffffffffffffff1673ffffffffffffffffffffffffffffffffffffffff168152602001908152602001600020805490509050919050565b600160009054906101000a900473ffffffffffffffffffffffffffffffffffffffff1681565b60008060009054906101000a900473ffffffffffffffffffffffffffffffffffffffff1673ffffffffffffffffffffffffffffffffffffffff163373ffffffffffffffffffffffffffffffffffffffff16141515611f0957600080fd5b8273ffffffffffffffffffffffffffffffffffffffff1663a9059cbb6000809054906101000a900473ffffffffffffffffffffffffffffffffffffffff16846000604051602001526040518363ffffffff167c0100000000000000000000000000000000000000000000000000000000028152600401808373ffffffffffffffffffffffffffffffffffffffff1673ffffffffffffffffffffffffffffffffffffffff16815260200182815260200192505050602060405180830381600087803b1515611fd557600080fd5b6102c65a03f11515611fe657600080fd5b50505060405180519050905092915050565b6000600960008473ffffffffffffffffffffffffffffffffffffffff1673ffffffffffffffffffffffffffffffffffffffff16815260200190815260200160002060008373ffffffffffffffffffffffffffffffffffffffff1673ffffffffffffffffffffffffffffffffffffffff16815260200190815260200160002054905092915050565b6120876124e0565b61208f6124e0565b6000806000806000600d60008a73ffffffffffffffffffffffffffffffffffffffff1673ffffffffffffffffffffffffffffffffffffffff168152602001908152602001600020888154811015156120e357fe5b9060005260206000209001549050600b6000828152602001908152602001600020600001600b6000838152602001908152602001600020600101600b600084815260200190815260200160002060020160009054906101000a900473ffffffffffffffffffffffffffffffffffffffff16600b600085815260200190815260200160002060030160009054906101000a900473ffffffffffffffffffffffffffffffffffffffff16600b600086815260200190815260200160002060040154600b600087815260200190815260200160002060050154858054600181600116156101000203166002900480601f01602080910402602001604051908101604052809291908181526020018280546001816001161561010002031660029004801561224e5780601f106122235761010080835404028352916020019161224e565b820191906000526020600020905b81548152906001019060200180831161223157829003601f168201915b50505050509550848054600181600116156101000203166002900480601f0160208091040260200160405190810160405280929190818152602001828054600181600116156101000203166002900480156122ea5780601f106122bf576101008083540402835291602001916122ea565b820191906000526020600020905b8154815290600101906020018083116122cd57829003601f168201915b50505050509450965096509650965096509650509295509295509295565b6000809054906101000a900473ffffffffffffffffffffffffffffffffffffffff1673ffffffffffffffffffffffffffffffffffffffff163373ffffffffffffffffffffffffffffffffffffffff1614151561236357600080fd5b80600160006101000a81548173ffffffffffffffffffffffffffffffffffffffff021916908373ffffffffffffffffffffffffffffffffffffffff16021790555050565b6000818302905060008314806123c757508183828115156123c457fe5b04145b15156123d257600080fd5b92915050565b600080821115156123e857600080fd5b81838115156123f357fe5b04905092915050565b600082821115151561240d57600080fd5b818303905092915050565b6000818301905082811015151561242e57600080fd5b92915050565b828054600181600116156101000203166002900490600052602060002090601f016020900481019282601f1061247557805160ff19168380011785556124a3565b828001600101855582156124a3579182015b828111156124a2578251825591602001919060010190612487565b5b5090506124b091906124f4565b5090565b8154818355818115116124db578183600052602060002091820191016124da91906124f4565b5b505050565b602060405190810160405280600081525090565b61251691905b808211156125125760008160009055506001016124fa565b5090565b905600a165627a7a72305820ab142187241c7375cdfde3bbf15eac2b34eb53e2ba07a105c7670bb305d107ca0029",
  "source": "pragma solidity ^0.4.19;\n\nimport \"./Owned.sol\";\n\n// this is borrowed from the example fixed supply token contract, licensed below under the MIT License.\n// ----------------------------------------------------------------------------\n// 'FIXED' 'Example Fixed Supply Token' token contract\n//\n// Symbol      : FIXED\n// Name        : Example Fixed Supply Token\n// Total supply: 1,000,000.000000000000000000\n// Decimals    : 18\n//\n// Enjoy.\n//\n// (c) BokkyPooBah / Bok Consulting Pty Ltd 2017. The MIT Licence.\n// ----------------------------------------------------------------------------\n\n// ----------------------------------------------------------------------------\n// Safe maths\n// ----------------------------------------------------------------------------\nlibrary SafeMath {\n    function add(uint a, uint b) internal pure returns (uint c) {\n        c = a + b;\n        require(c >= a);\n    }\n    function sub(uint a, uint b) internal pure returns (uint c) {\n        require(b <= a);\n        c = a - b;\n    }\n    function mul(uint a, uint b) internal pure returns (uint c) {\n        c = a * b;\n        require(a == 0 || c / a == b);\n    }\n    function div(uint a, uint b) internal pure returns (uint c) {\n        require(b > 0);\n        c = a / b;\n    }\n}\n\n// ----------------------------------------------------------------------------\n// ERC Token Standard #20 Interface\n// https://github.com/ethereum/EIPs/blob/master/EIPS/eip-20-token-standard.md\n// ----------------------------------------------------------------------------\ncontract ERC20Interface {\n    function totalSupply() public constant returns (uint);\n    function balanceOf(address tokenOwner) public constant returns (uint balance);\n    function allowance(address tokenOwner, address spender) public constant returns (uint remaining);\n    function transfer(address to, uint tokens) public returns (bool success);\n    function approve(address spender, uint tokens) public returns (bool success);\n    function transferFrom(address from, address to, uint tokens) public returns (bool success);\n\n    event Transfer(address indexed from, address indexed to, uint tokens);\n    event Approval(address indexed tokenOwner, address indexed spender, uint tokens);\n}\n\n\n// ----------------------------------------------------------------------------\n// Contract function to receive approval and execute function in one call\n//\n// Borrowed from MiniMeToken\n// ----------------------------------------------------------------------------\ncontract ApproveAndCallFallBack {\n    function receiveApproval(address from, uint256 tokens, address token, bytes data) public;\n}\n\n// ----------------------------------------------------------------------------\n// ERC20 Token, with the addition of symbol, name and decimals and an\n// initial fixed supply\n// ----------------------------------------------------------------------------\ncontract DeconetToken is ERC20Interface, Owned {\n    using SafeMath for uint;\n\n    struct Sale {\n      string projectName;\n      string sellerUsername;\n      address sellerAddress;\n      address buyerAddress;\n      uint price;\n      uint soldAt;\n    }\n\n    string public symbol;\n    string public  name;\n    uint8 public decimals;\n    uint public _totalSupply;\n\n    // the amount rewarded to a seller for selling a license exception\n    uint public tokenReward;\n\n    // the fee this contract takes from every sale.  expressed as percent.  so a value of 3 indicated a 3% txn fee\n    uint public saleFee;\n\n    mapping(address => uint) balances;\n    mapping(address => mapping(address => uint)) allowed;\n\n    uint numSales;\n    mapping(uint => Sale) sales;\n    mapping(address => uint[]) buyerSales;\n    mapping(address => uint[]) sellerSales;\n\n    // ------------------------------------------------------------------------\n    // Constructor\n    // ------------------------------------------------------------------------\n    function DeconetToken() public {\n        symbol = \"DCO\";\n        name = \"Deconet Token\";\n        tokenReward = 100;\n        decimals = 18;\n        saleFee = 10;\n        _totalSupply = 1000000000 * 10**uint(decimals);\n        balances[owner] = _totalSupply;\n        Transfer(address(0), owner, _totalSupply);\n    }\n\n\n    // ------------------------------------------------------------------------\n    // Total supply\n    // ------------------------------------------------------------------------\n    function totalSupply() public constant returns (uint) {\n        return _totalSupply  - balances[address(0)];\n    }\n\n\n    // ------------------------------------------------------------------------\n    // Get the token balance for account `tokenOwner`\n    // ------------------------------------------------------------------------\n    function balanceOf(address tokenOwner) public constant returns (uint balance) {\n        return balances[tokenOwner];\n    }\n\n\n    // ------------------------------------------------------------------------\n    // Transfer the balance from token owner's account to `to` account\n    // - Owner's account must have sufficient balance to transfer\n    // - 0 value transfers are allowed\n    // ------------------------------------------------------------------------\n    function transfer(address to, uint tokens) public returns (bool success) {\n        balances[msg.sender] = balances[msg.sender].sub(tokens);\n        balances[to] = balances[to].add(tokens);\n        Transfer(msg.sender, to, tokens);\n        return true;\n    }\n\n\n    // ------------------------------------------------------------------------\n    // Token owner can approve for `spender` to transferFrom(...) `tokens`\n    // from the token owner's account\n    //\n    // https://github.com/ethereum/EIPs/blob/master/EIPS/eip-20-token-standard.md\n    // recommends that there are no checks for the approval double-spend attack\n    // as this should be implemented in user interfaces \n    // ------------------------------------------------------------------------\n    function approve(address spender, uint tokens) public returns (bool success) {\n        allowed[msg.sender][spender] = tokens;\n        Approval(msg.sender, spender, tokens);\n        return true;\n    }\n\n\n    // ------------------------------------------------------------------------\n    // Transfer `tokens` from the `from` account to the `to` account\n    // \n    // The calling account must already have sufficient tokens approve(...)-d\n    // for spending from the `from` account and\n    // - From account must have sufficient balance to transfer\n    // - Spender must have sufficient allowance to transfer\n    // - 0 value transfers are allowed\n    // ------------------------------------------------------------------------\n    function transferFrom(address from, address to, uint tokens) public returns (bool success) {\n        balances[from] = balances[from].sub(tokens);\n        allowed[from][msg.sender] = allowed[from][msg.sender].sub(tokens);\n        balances[to] = balances[to].add(tokens);\n        Transfer(from, to, tokens);\n        return true;\n    }\n\n\n    // ------------------------------------------------------------------------\n    // Returns the amount of tokens approved by the owner that can be\n    // transferred to the spender's account\n    // ------------------------------------------------------------------------\n    function allowance(address tokenOwner, address spender) public constant returns (uint remaining) {\n        return allowed[tokenOwner][spender];\n    }\n\n\n    // ------------------------------------------------------------------------\n    // Token owner can approve for `spender` to transferFrom(...) `tokens`\n    // from the token owner's account. The `spender` contract function\n    // `receiveApproval(...)` is then executed\n    // ------------------------------------------------------------------------\n    function approveAndCall(address spender, uint tokens, bytes data) public returns (bool success) {\n        allowed[msg.sender][spender] = tokens;\n        Approval(msg.sender, spender, tokens);\n        ApproveAndCallFallBack(spender).receiveApproval(msg.sender, tokens, this, data);\n        return true;\n    }\n\n    // ------------------------------------------------------------------------\n    // Owner can transfer out any accidentally sent ERC20 tokens\n    // ------------------------------------------------------------------------\n    function transferAnyERC20Token(address tokenAddress, uint tokens) public onlyOwner returns (bool success) {\n        return ERC20Interface(tokenAddress).transfer(owner, tokens);\n    }\n\n    function makeSale(string projectName, string sellerUsername, address sellerAddress) public payable {\n      // log the sale\n      uint saleID = numSales++;\n      sales[saleID] = Sale({\n        projectName: projectName,\n        sellerUsername: sellerUsername,\n        sellerAddress: sellerAddress,\n        buyerAddress: msg.sender,\n        price: msg.value,\n        soldAt: block.timestamp\n      });\n      buyerSales[msg.sender].push(saleID);\n      sellerSales[sellerAddress].push(saleID);\n\n      // pay seller the ETH\n      // fixed point math at 2 decimal places\n      uint payout = msg.value.mul(100).div(saleFee).div(100);\n      sellerAddress.transfer(payout);\n\n      // give seller some tokens for the sale as well\n      balances[owner] = balances[owner].sub(tokenReward);\n      balances[sellerAddress] = balances[sellerAddress].add(tokenReward);\n      Transfer(owner, sellerAddress, tokenReward);\n    }\n\n    function getSaleCountForBuyer(address buyer) public view returns (uint) {\n      return buyerSales[buyer].length;\n    }\n\n    function getSaleForBuyerAtIndex(address buyer, uint index) public view returns (string, string, address, address, uint, uint) {\n      uint saleID = buyerSales[buyer][index];\n      return (\n        sales[saleID].projectName,\n        sales[saleID].sellerUsername,\n        sales[saleID].sellerAddress,\n        sales[saleID].buyerAddress,\n        sales[saleID].price,\n        sales[saleID].soldAt\n      );\n    }\n\n    function getSaleCountForSeller(address seller) public view returns (uint) {\n      return sellerSales[seller].length;\n    }\n\n    function getSaleForSellerAtIndex(address seller, uint index) public view returns (string, string, address, address, uint, uint) {\n      uint saleID = sellerSales[seller][index];\n      return (\n        sales[saleID].projectName,\n        sales[saleID].sellerUsername,\n        sales[saleID].sellerAddress,\n        sales[saleID].buyerAddress,\n        sales[saleID].price,\n        sales[saleID].soldAt\n      );\n    }\n}",
  "sourcePath": "/Users/chris/Documents/WorkStuff/Deconet/Blockchain/ExceptionRegistry/contracts/DeconetToken.sol",
  "compiler": {
    "name": "solc",
    "version": "0.4.19+commit.c4cbbb05.Emscripten.clang"
  },
  "schemaVersion": "1.0.1",
  "updatedAt": "2018-02-06T01:56:55.302Z"
}