{
  "contractName": "DeconetToken",
  "abi": [
    {
      "constant": true,
      "inputs": [],
      "name": "name",
      "outputs": [
        {
          "name": "",
          "type": "string"
        }
      ],
      "payable": false,
      "stateMutability": "view",
      "type": "function"
    },
    {
      "constant": false,
      "inputs": [
        {
          "name": "spender",
          "type": "address"
        },
        {
          "name": "tokens",
          "type": "uint256"
        }
      ],
      "name": "approve",
      "outputs": [
        {
          "name": "success",
          "type": "bool"
        }
      ],
      "payable": false,
      "stateMutability": "nonpayable",
      "type": "function"
    },
    {
      "constant": true,
      "inputs": [],
      "name": "saleFee",
      "outputs": [
        {
          "name": "",
          "type": "uint256"
        }
      ],
      "payable": false,
      "stateMutability": "view",
      "type": "function"
    },
    {
      "constant": true,
      "inputs": [],
      "name": "totalSupply",
      "outputs": [
        {
          "name": "",
          "type": "uint256"
        }
      ],
      "payable": false,
      "stateMutability": "view",
      "type": "function"
    },
    {
      "constant": false,
      "inputs": [
        {
          "name": "from",
          "type": "address"
        },
        {
          "name": "to",
          "type": "address"
        },
        {
          "name": "tokens",
          "type": "uint256"
        }
      ],
      "name": "transferFrom",
      "outputs": [
        {
          "name": "success",
          "type": "bool"
        }
      ],
      "payable": false,
      "stateMutability": "nonpayable",
      "type": "function"
    },
    {
      "constant": true,
      "inputs": [],
      "name": "decimals",
      "outputs": [
        {
          "name": "",
          "type": "uint8"
        }
      ],
      "payable": false,
      "stateMutability": "view",
      "type": "function"
    },
    {
      "constant": true,
      "inputs": [],
      "name": "_totalSupply",
      "outputs": [
        {
          "name": "",
          "type": "uint256"
        }
      ],
      "payable": false,
      "stateMutability": "view",
      "type": "function"
    },
    {
      "constant": false,
      "inputs": [
        {
          "name": "projectName",
          "type": "string"
        },
        {
          "name": "sellerUsername",
          "type": "string"
        },
        {
          "name": "sellerAddress",
          "type": "address"
        },
        {
          "name": "licenseId",
          "type": "bytes4"
        }
      ],
      "name": "makeSale",
      "outputs": [],
      "payable": true,
      "stateMutability": "payable",
      "type": "function"
    },
    {
      "constant": false,
      "inputs": [
        {
          "name": "newReward",
          "type": "uint256"
        }
      ],
      "name": "setTokenReward",
      "outputs": [],
      "payable": false,
      "stateMutability": "nonpayable",
      "type": "function"
    },
    {
      "constant": true,
      "inputs": [],
      "name": "tokenReward",
      "outputs": [
        {
          "name": "",
          "type": "uint256"
        }
      ],
      "payable": false,
      "stateMutability": "view",
      "type": "function"
    },
    {
      "constant": true,
      "inputs": [
        {
          "name": "tokenOwner",
          "type": "address"
        }
      ],
      "name": "balanceOf",
      "outputs": [
        {
          "name": "balance",
          "type": "uint256"
        }
      ],
      "payable": false,
      "stateMutability": "view",
      "type": "function"
    },
    {
      "constant": false,
      "inputs": [],
      "name": "acceptOwnership",
      "outputs": [],
      "payable": false,
      "stateMutability": "nonpayable",
      "type": "function"
    },
    {
      "constant": true,
      "inputs": [],
      "name": "owner",
      "outputs": [
        {
          "name": "",
          "type": "address"
        }
      ],
      "payable": false,
      "stateMutability": "view",
      "type": "function"
    },
    {
      "constant": true,
      "inputs": [],
      "name": "symbol",
      "outputs": [
        {
          "name": "",
          "type": "string"
        }
      ],
      "payable": false,
      "stateMutability": "view",
      "type": "function"
    },
    {
      "constant": false,
      "inputs": [
        {
          "name": "to",
          "type": "address"
        },
        {
          "name": "tokens",
          "type": "uint256"
        }
      ],
      "name": "transfer",
      "outputs": [
        {
          "name": "success",
          "type": "bool"
        }
      ],
      "payable": false,
      "stateMutability": "nonpayable",
      "type": "function"
    },
    {
      "constant": false,
      "inputs": [
        {
          "name": "spender",
          "type": "address"
        },
        {
          "name": "tokens",
          "type": "uint256"
        },
        {
          "name": "data",
          "type": "bytes"
        }
      ],
      "name": "approveAndCall",
      "outputs": [
        {
          "name": "success",
          "type": "bool"
        }
      ],
      "payable": false,
      "stateMutability": "nonpayable",
      "type": "function"
    },
    {
      "constant": true,
      "inputs": [],
      "name": "newOwner",
      "outputs": [
        {
          "name": "",
          "type": "address"
        }
      ],
      "payable": false,
      "stateMutability": "view",
      "type": "function"
    },
    {
      "constant": false,
      "inputs": [
        {
          "name": "tokenAddress",
          "type": "address"
        },
        {
          "name": "tokens",
          "type": "uint256"
        }
      ],
      "name": "transferAnyERC20Token",
      "outputs": [
        {
          "name": "success",
          "type": "bool"
        }
      ],
      "payable": false,
      "stateMutability": "nonpayable",
      "type": "function"
    },
    {
      "constant": true,
      "inputs": [
        {
          "name": "tokenOwner",
          "type": "address"
        },
        {
          "name": "spender",
          "type": "address"
        }
      ],
      "name": "allowance",
      "outputs": [
        {
          "name": "remaining",
          "type": "uint256"
        }
      ],
      "payable": false,
      "stateMutability": "view",
      "type": "function"
    },
    {
      "constant": false,
      "inputs": [
        {
          "name": "_newOwner",
          "type": "address"
        }
      ],
      "name": "transferOwnership",
      "outputs": [],
      "payable": false,
      "stateMutability": "nonpayable",
      "type": "function"
    },
    {
      "inputs": [],
      "payable": false,
      "stateMutability": "nonpayable",
      "type": "constructor"
    },
    {
      "anonymous": false,
      "inputs": [
        {
          "indexed": false,
          "name": "projectName",
          "type": "string"
        },
        {
          "indexed": false,
          "name": "sellerUsername",
          "type": "string"
        },
        {
          "indexed": true,
          "name": "sellerAddress",
          "type": "address"
        },
        {
          "indexed": true,
          "name": "buyerAddress",
          "type": "address"
        },
        {
          "indexed": false,
          "name": "price",
          "type": "uint256"
        },
        {
          "indexed": false,
          "name": "soldAt",
          "type": "uint256"
        },
        {
          "indexed": false,
          "name": "rewardedTokens",
          "type": "uint256"
        },
        {
          "indexed": false,
          "name": "networkFee",
          "type": "uint256"
        },
        {
          "indexed": false,
          "name": "licenseId",
          "type": "bytes4"
        }
      ],
      "name": "LicenseSale",
      "type": "event"
    },
    {
      "anonymous": false,
      "inputs": [
        {
          "indexed": true,
          "name": "_from",
          "type": "address"
        },
        {
          "indexed": true,
          "name": "_to",
          "type": "address"
        }
      ],
      "name": "OwnershipTransferred",
      "type": "event"
    },
    {
      "anonymous": false,
      "inputs": [
        {
          "indexed": true,
          "name": "from",
          "type": "address"
        },
        {
          "indexed": true,
          "name": "to",
          "type": "address"
        },
        {
          "indexed": false,
          "name": "tokens",
          "type": "uint256"
        }
      ],
      "name": "Transfer",
      "type": "event"
    },
    {
      "anonymous": false,
      "inputs": [
        {
          "indexed": true,
          "name": "tokenOwner",
          "type": "address"
        },
        {
          "indexed": true,
          "name": "spender",
          "type": "address"
        },
        {
          "indexed": false,
          "name": "tokens",
          "type": "uint256"
        }
      ],
      "name": "Approval",
      "type": "event"
    }
  ],
  "bytecode": "0x606060405234156200001057600080fd5b336000806101000a81548173ffffffffffffffffffffffffffffffffffffffff021916908373ffffffffffffffffffffffffffffffffffffffff1602179055506040805190810160405280600381526020017f44434f0000000000000000000000000000000000000000000000000000000000815250600290805190602001906200009d92919062000247565b506040805190810160405280600d81526020017f4465636f6e657420546f6b656e0000000000000000000000000000000000000081525060039080519060200190620000eb92919062000247565b506012600460006101000a81548160ff021916908360ff160217905550600a600781905550600460009054906101000a900460ff1660ff16600a0a606402600681905550600460009054906101000a900460ff1660ff16600a0a633b9aca0002600581905550600554600860008060009054906101000a900473ffffffffffffffffffffffffffffffffffffffff1673ffffffffffffffffffffffffffffffffffffffff1673ffffffffffffffffffffffffffffffffffffffff168152602001908152602001600020819055506000809054906101000a900473ffffffffffffffffffffffffffffffffffffffff1673ffffffffffffffffffffffffffffffffffffffff16600073ffffffffffffffffffffffffffffffffffffffff167fddf252ad1be2c89b69c2b068fc378daa952ba7f163c4a11628f55a4df523b3ef6005546040518082815260200191505060405180910390a3620002f6565b828054600181600116156101000203166002900490600052602060002090601f016020900481019282601f106200028a57805160ff1916838001178555620002bb565b82800160010185558215620002bb579182015b82811115620002ba5782518255916020019190600101906200029d565b5b509050620002ca9190620002ce565b5090565b620002f391905b80821115620002ef576000816000905550600101620002d5565b5090565b90565b611aff80620003066000396000f300606060405260043610610112576000357c0100000000000000000000000000000000000000000000000000000000900463ffffffff16806306fdde0314610117578063095ea7b3146101a5578063178021e3146101ff57806318160ddd1461022857806323b872dd14610251578063313ce567146102ca5780633eaaf86b146102f957806346f7ee1e146103225780634fe01d38146103fe5780636e66f6e91461042157806370a082311461044a57806379ba5097146104975780638da5cb5b146104ac57806395d89b4114610501578063a9059cbb1461058f578063cae9ca51146105e9578063d4ee1d9014610686578063dc39d06d146106db578063dd62ed3e14610735578063f2fde38b146107a1575b600080fd5b341561012257600080fd5b61012a6107da565b6040518080602001828103825283818151815260200191508051906020019080838360005b8381101561016a57808201518184015260208101905061014f565b50505050905090810190601f1680156101975780820380516001836020036101000a031916815260200191505b509250505060405180910390f35b34156101b057600080fd5b6101e5600480803573ffffffffffffffffffffffffffffffffffffffff16906020019091908035906020019091905050610878565b604051808215151515815260200191505060405180910390f35b341561020a57600080fd5b61021261096a565b6040518082815260200191505060405180910390f35b341561023357600080fd5b61023b610970565b6040518082815260200191505060405180910390f35b341561025c57600080fd5b6102b0600480803573ffffffffffffffffffffffffffffffffffffffff1690602001909190803573ffffffffffffffffffffffffffffffffffffffff169060200190919080359060200190919050506109bb565b604051808215151515815260200191505060405180910390f35b34156102d557600080fd5b6102dd610c66565b604051808260ff1660ff16815260200191505060405180910390f35b341561030457600080fd5b61030c610c79565b6040518082815260200191505060405180910390f35b6103fc600480803590602001908201803590602001908080601f0160208091040260200160405190810160405280939291908181526020018383808284378201915050505050509190803590602001908201803590602001908080601f0160208091040260200160405190810160405280939291908181526020018383808284378201915050505050509190803573ffffffffffffffffffffffffffffffffffffffff169060200190919080357bffffffffffffffffffffffffffffffffffffffffffffffffffffffff1916906020019091905050610c7f565b005b341561040957600080fd5b61041f60048080359060200190919050506110b3565b005b341561042c57600080fd5b610434611118565b6040518082815260200191505060405180910390f35b341561045557600080fd5b610481600480803573ffffffffffffffffffffffffffffffffffffffff1690602001909190505061111e565b6040518082815260200191505060405180910390f35b34156104a257600080fd5b6104aa611167565b005b34156104b757600080fd5b6104bf611306565b604051808273ffffffffffffffffffffffffffffffffffffffff1673ffffffffffffffffffffffffffffffffffffffff16815260200191505060405180910390f35b341561050c57600080fd5b61051461132b565b6040518080602001828103825283818151815260200191508051906020019080838360005b83811015610554578082015181840152602081019050610539565b50505050905090810190601f1680156105815780820380516001836020036101000a031916815260200191505b509250505060405180910390f35b341561059a57600080fd5b6105cf600480803573ffffffffffffffffffffffffffffffffffffffff169060200190919080359060200190919050506113c9565b604051808215151515815260200191505060405180910390f35b34156105f457600080fd5b61066c600480803573ffffffffffffffffffffffffffffffffffffffff1690602001909190803590602001909190803590602001908201803590602001908080601f01602080910402602001604051908101604052809392919081815260200183838082843782019150505050505091905050611564565b604051808215151515815260200191505060405180910390f35b341561069157600080fd5b6106996117ae565b604051808273ffffffffffffffffffffffffffffffffffffffff1673ffffffffffffffffffffffffffffffffffffffff16815260200191505060405180910390f35b34156106e657600080fd5b61071b600480803573ffffffffffffffffffffffffffffffffffffffff169060200190919080359060200190919050506117d4565b604051808215151515815260200191505060405180910390f35b341561074057600080fd5b61078b600480803573ffffffffffffffffffffffffffffffffffffffff1690602001909190803573ffffffffffffffffffffffffffffffffffffffff16906020019091905050611920565b6040518082815260200191505060405180910390f35b34156107ac57600080fd5b6107d8600480803573ffffffffffffffffffffffffffffffffffffffff169060200190919050506119a7565b005b60038054600181600116156101000203166002900480601f0160208091040260200160405190810160405280929190818152602001828054600181600116156101000203166002900480156108705780601f1061084557610100808354040283529160200191610870565b820191906000526020600020905b81548152906001019060200180831161085357829003601f168201915b505050505081565b600081600960003373ffffffffffffffffffffffffffffffffffffffff1673ffffffffffffffffffffffffffffffffffffffff16815260200190815260200160002060008573ffffffffffffffffffffffffffffffffffffffff1673ffffffffffffffffffffffffffffffffffffffff168152602001908152602001600020819055508273ffffffffffffffffffffffffffffffffffffffff163373ffffffffffffffffffffffffffffffffffffffff167f8c5be1e5ebec7d5bd14f71427d1e84f3dd0314c0f7b2291e5b200ac8c7c3b925846040518082815260200191505060405180910390a36001905092915050565b60075481565b6000600860008073ffffffffffffffffffffffffffffffffffffffff1673ffffffffffffffffffffffffffffffffffffffff1681526020019081526020016000205460055403905090565b6000610a0f82600860008773ffffffffffffffffffffffffffffffffffffffff1673ffffffffffffffffffffffffffffffffffffffff16815260200190815260200160002054611a4690919063ffffffff16565b600860008673ffffffffffffffffffffffffffffffffffffffff1673ffffffffffffffffffffffffffffffffffffffff16815260200190815260200160002081905550610ae182600960008773ffffffffffffffffffffffffffffffffffffffff1673ffffffffffffffffffffffffffffffffffffffff16815260200190815260200160002060003373ffffffffffffffffffffffffffffffffffffffff1673ffffffffffffffffffffffffffffffffffffffff16815260200190815260200160002054611a4690919063ffffffff16565b600960008673ffffffffffffffffffffffffffffffffffffffff1673ffffffffffffffffffffffffffffffffffffffff16815260200190815260200160002060003373ffffffffffffffffffffffffffffffffffffffff1673ffffffffffffffffffffffffffffffffffffffff16815260200190815260200160002081905550610bb382600860008673ffffffffffffffffffffffffffffffffffffffff1673ffffffffffffffffffffffffffffffffffffffff16815260200190815260200160002054611a6290919063ffffffff16565b600860008573ffffffffffffffffffffffffffffffffffffffff1673ffffffffffffffffffffffffffffffffffffffff168152602001908152602001600020819055508273ffffffffffffffffffffffffffffffffffffffff168473ffffffffffffffffffffffffffffffffffffffff167fddf252ad1be2c89b69c2b068fc378daa952ba7f163c4a11628f55a4df523b3ef846040518082815260200191505060405180910390a3600190509392505050565b600460009054906101000a900460ff1681565b60055481565b600080610cbd6064610caf600754610ca1606434611a7e90919063ffffffff16565b611aaf90919063ffffffff16565b611aaf90919063ffffffff16565b9150610cd28234611a4690919063ffffffff16565b90508373ffffffffffffffffffffffffffffffffffffffff166108fc829081150290604051600060405180830381858888f193505050501515610d1457600080fd5b610d89600654600860008060009054906101000a900473ffffffffffffffffffffffffffffffffffffffff1673ffffffffffffffffffffffffffffffffffffffff1673ffffffffffffffffffffffffffffffffffffffff16815260200190815260200160002054611a4690919063ffffffff16565b600860008060009054906101000a900473ffffffffffffffffffffffffffffffffffffffff1673ffffffffffffffffffffffffffffffffffffffff1673ffffffffffffffffffffffffffffffffffffffff16815260200190815260200160002081905550610e41600654600860008773ffffffffffffffffffffffffffffffffffffffff1673ffffffffffffffffffffffffffffffffffffffff16815260200190815260200160002054611a6290919063ffffffff16565b600860008673ffffffffffffffffffffffffffffffffffffffff1673ffffffffffffffffffffffffffffffffffffffff168152602001908152602001600020819055508373ffffffffffffffffffffffffffffffffffffffff166000809054906101000a900473ffffffffffffffffffffffffffffffffffffffff1673ffffffffffffffffffffffffffffffffffffffff167fddf252ad1be2c89b69c2b068fc378daa952ba7f163c4a11628f55a4df523b3ef6006546040518082815260200191505060405180910390a33373ffffffffffffffffffffffffffffffffffffffff168473ffffffffffffffffffffffffffffffffffffffff167fc4b311cb9ad1f97d7b1be9e34edea261a84b6d242302083e6aedb360baf886ef88883442600654898b604051808060200180602001888152602001878152602001868152602001858152602001847bffffffffffffffffffffffffffffffffffffffffffffffffffffffff19167bffffffffffffffffffffffffffffffffffffffffffffffffffffffff1916815260200183810383528a818151815260200191508051906020019080838360005b83811015611004578082015181840152602081019050610fe9565b50505050905090810190601f1680156110315780820380516001836020036101000a031916815260200191505b50838103825289818151815260200191508051906020019080838360005b8381101561106a57808201518184015260208101905061104f565b50505050905090810190601f1680156110975780820380516001836020036101000a031916815260200191505b50995050505050505050505060405180910390a3505050505050565b6000809054906101000a900473ffffffffffffffffffffffffffffffffffffffff1673ffffffffffffffffffffffffffffffffffffffff163373ffffffffffffffffffffffffffffffffffffffff1614151561110e57600080fd5b8060068190555050565b60065481565b6000600860008373ffffffffffffffffffffffffffffffffffffffff1673ffffffffffffffffffffffffffffffffffffffff168152602001908152602001600020549050919050565b600160009054906101000a900473ffffffffffffffffffffffffffffffffffffffff1673ffffffffffffffffffffffffffffffffffffffff163373ffffffffffffffffffffffffffffffffffffffff161415156111c357600080fd5b600160009054906101000a900473ffffffffffffffffffffffffffffffffffffffff1673ffffffffffffffffffffffffffffffffffffffff166000809054906101000a900473ffffffffffffffffffffffffffffffffffffffff1673ffffffffffffffffffffffffffffffffffffffff167f8be0079c531659141344cd1fd0a4f28419497f9722a3daafe3b4186f6b6457e060405160405180910390a3600160009054906101000a900473ffffffffffffffffffffffffffffffffffffffff166000806101000a81548173ffffffffffffffffffffffffffffffffffffffff021916908373ffffffffffffffffffffffffffffffffffffffff1602179055506000600160006101000a81548173ffffffffffffffffffffffffffffffffffffffff021916908373ffffffffffffffffffffffffffffffffffffffff160217905550565b6000809054906101000a900473ffffffffffffffffffffffffffffffffffffffff1681565b60028054600181600116156101000203166002900480601f0160208091040260200160405190810160405280929190818152602001828054600181600116156101000203166002900480156113c15780601f10611396576101008083540402835291602001916113c1565b820191906000526020600020905b8154815290600101906020018083116113a457829003601f168201915b505050505081565b600061141d82600860003373ffffffffffffffffffffffffffffffffffffffff1673ffffffffffffffffffffffffffffffffffffffff16815260200190815260200160002054611a4690919063ffffffff16565b600860003373ffffffffffffffffffffffffffffffffffffffff1673ffffffffffffffffffffffffffffffffffffffff168152602001908152602001600020819055506114b282600860008673ffffffffffffffffffffffffffffffffffffffff1673ffffffffffffffffffffffffffffffffffffffff16815260200190815260200160002054611a6290919063ffffffff16565b600860008573ffffffffffffffffffffffffffffffffffffffff1673ffffffffffffffffffffffffffffffffffffffff168152602001908152602001600020819055508273ffffffffffffffffffffffffffffffffffffffff163373ffffffffffffffffffffffffffffffffffffffff167fddf252ad1be2c89b69c2b068fc378daa952ba7f163c4a11628f55a4df523b3ef846040518082815260200191505060405180910390a36001905092915050565b600082600960003373ffffffffffffffffffffffffffffffffffffffff1673ffffffffffffffffffffffffffffffffffffffff16815260200190815260200160002060008673ffffffffffffffffffffffffffffffffffffffff1673ffffffffffffffffffffffffffffffffffffffff168152602001908152602001600020819055508373ffffffffffffffffffffffffffffffffffffffff163373ffffffffffffffffffffffffffffffffffffffff167f8c5be1e5ebec7d5bd14f71427d1e84f3dd0314c0f7b2291e5b200ac8c7c3b925856040518082815260200191505060405180910390a38373ffffffffffffffffffffffffffffffffffffffff16638f4ffcb1338530866040518563ffffffff167c0100000000000000000000000000000000000000000000000000000000028152600401808573ffffffffffffffffffffffffffffffffffffffff1673ffffffffffffffffffffffffffffffffffffffff1681526020018481526020018373ffffffffffffffffffffffffffffffffffffffff1673ffffffffffffffffffffffffffffffffffffffff16815260200180602001828103825283818151815260200191508051906020019080838360005b83811015611741578082015181840152602081019050611726565b50505050905090810190601f16801561176e5780820380516001836020036101000a031916815260200191505b5095505050505050600060405180830381600087803b151561178f57600080fd5b6102c65a03f115156117a057600080fd5b505050600190509392505050565b600160009054906101000a900473ffffffffffffffffffffffffffffffffffffffff1681565b60008060009054906101000a900473ffffffffffffffffffffffffffffffffffffffff1673ffffffffffffffffffffffffffffffffffffffff163373ffffffffffffffffffffffffffffffffffffffff1614151561183157600080fd5b8273ffffffffffffffffffffffffffffffffffffffff1663a9059cbb6000809054906101000a900473ffffffffffffffffffffffffffffffffffffffff16846000604051602001526040518363ffffffff167c0100000000000000000000000000000000000000000000000000000000028152600401808373ffffffffffffffffffffffffffffffffffffffff1673ffffffffffffffffffffffffffffffffffffffff16815260200182815260200192505050602060405180830381600087803b15156118fd57600080fd5b6102c65a03f1151561190e57600080fd5b50505060405180519050905092915050565b6000600960008473ffffffffffffffffffffffffffffffffffffffff1673ffffffffffffffffffffffffffffffffffffffff16815260200190815260200160002060008373ffffffffffffffffffffffffffffffffffffffff1673ffffffffffffffffffffffffffffffffffffffff16815260200190815260200160002054905092915050565b6000809054906101000a900473ffffffffffffffffffffffffffffffffffffffff1673ffffffffffffffffffffffffffffffffffffffff163373ffffffffffffffffffffffffffffffffffffffff16141515611a0257600080fd5b80600160006101000a81548173ffffffffffffffffffffffffffffffffffffffff021916908373ffffffffffffffffffffffffffffffffffffffff16021790555050565b6000828211151515611a5757600080fd5b818303905092915050565b60008183019050828110151515611a7857600080fd5b92915050565b600081830290506000831480611a9e5750818382811515611a9b57fe5b04145b1515611aa957600080fd5b92915050565b60008082111515611abf57600080fd5b8183811515611aca57fe5b049050929150505600a165627a7a72305820e8a841a5b499e3c1794b9901d2901caf6b4c7242ea42f1ab4ce06a6a889fa1c40029",
  "source": "pragma solidity ^0.4.19;\n\nimport \"./Owned.sol\";\n\n// this is borrowed from the example fixed supply token contract, licensed below under the MIT License.\n// ----------------------------------------------------------------------------\n// 'FIXED' 'Example Fixed Supply Token' token contract\n//\n// Symbol      : FIXED\n// Name        : Example Fixed Supply Token\n// Total supply: 1,000,000.000000000000000000\n// Decimals    : 18\n//\n// Enjoy.\n//\n// (c) BokkyPooBah / Bok Consulting Pty Ltd 2017. The MIT Licence.\n// ----------------------------------------------------------------------------\n\n// ----------------------------------------------------------------------------\n// Safe maths\n// ----------------------------------------------------------------------------\nlibrary SafeMath {\n    function add(uint a, uint b) internal pure returns (uint c) {\n        c = a + b;\n        require(c >= a);\n    }\n    function sub(uint a, uint b) internal pure returns (uint c) {\n        require(b <= a);\n        c = a - b;\n    }\n    function mul(uint a, uint b) internal pure returns (uint c) {\n        c = a * b;\n        require(a == 0 || c / a == b);\n    }\n    function div(uint a, uint b) internal pure returns (uint c) {\n        require(b > 0);\n        c = a / b;\n    }\n}\n\n// ----------------------------------------------------------------------------\n// ERC Token Standard #20 Interface\n// https://github.com/ethereum/EIPs/blob/master/EIPS/eip-20-token-standard.md\n// ----------------------------------------------------------------------------\ncontract ERC20Interface {\n    function totalSupply() public constant returns (uint);\n    function balanceOf(address tokenOwner) public constant returns (uint balance);\n    function allowance(address tokenOwner, address spender) public constant returns (uint remaining);\n    function transfer(address to, uint tokens) public returns (bool success);\n    function approve(address spender, uint tokens) public returns (bool success);\n    function transferFrom(address from, address to, uint tokens) public returns (bool success);\n\n    event Transfer(address indexed from, address indexed to, uint tokens);\n    event Approval(address indexed tokenOwner, address indexed spender, uint tokens);\n}\n\n\n// ----------------------------------------------------------------------------\n// Contract function to receive approval and execute function in one call\n//\n// Borrowed from MiniMeToken\n// ----------------------------------------------------------------------------\ncontract ApproveAndCallFallBack {\n    function receiveApproval(address from, uint256 tokens, address token, bytes data) public;\n}\n\n// ----------------------------------------------------------------------------\n// ERC20 Token, with the addition of symbol, name and decimals and an\n// initial fixed supply\n// ----------------------------------------------------------------------------\ncontract DeconetToken is ERC20Interface, Owned {\n    using SafeMath for uint;\n\n    event LicenseSale(\n      string projectName,\n      string sellerUsername,\n      address indexed sellerAddress,\n      address indexed buyerAddress,\n      uint price,\n      uint soldAt,\n      uint rewardedTokens,\n      uint networkFee,\n      bytes4 licenseId\n    );\n\n    string public symbol;\n    string public name;\n    uint8 public decimals;\n    uint public _totalSupply;\n\n    // the amount rewarded to a seller for selling a license exception\n    uint public tokenReward;\n\n    // the fee this contract takes from every sale.  expressed as percent.  so a value of 3 indicated a 3% txn fee\n    uint public saleFee;\n\n    mapping(address => uint) balances;\n    mapping(address => mapping(address => uint)) allowed;\n\n    // ------------------------------------------------------------------------\n    // Constructor\n    // ------------------------------------------------------------------------\n    function DeconetToken() public {\n        symbol = \"DCO\";\n        name = \"Deconet Token\";\n        decimals = 18;\n        saleFee = 10;\n        tokenReward = 100 * 10**uint(decimals);\n        _totalSupply = 1000000000 * 10**uint(decimals);\n        balances[owner] = _totalSupply;\n        Transfer(address(0), owner, _totalSupply);\n    }\n\n\n    // ------------------------------------------------------------------------\n    // Total supply\n    // ------------------------------------------------------------------------\n    function totalSupply() public constant returns (uint) {\n        return _totalSupply  - balances[address(0)];\n    }\n\n\n    // ------------------------------------------------------------------------\n    // Get the token balance for account `tokenOwner`\n    // ------------------------------------------------------------------------\n    function balanceOf(address tokenOwner) public constant returns (uint balance) {\n        return balances[tokenOwner];\n    }\n\n\n    // ------------------------------------------------------------------------\n    // Transfer the balance from token owner's account to `to` account\n    // - Owner's account must have sufficient balance to transfer\n    // - 0 value transfers are allowed\n    // ------------------------------------------------------------------------\n    function transfer(address to, uint tokens) public returns (bool success) {\n        balances[msg.sender] = balances[msg.sender].sub(tokens);\n        balances[to] = balances[to].add(tokens);\n        Transfer(msg.sender, to, tokens);\n        return true;\n    }\n\n\n    // ------------------------------------------------------------------------\n    // Token owner can approve for `spender` to transferFrom(...) `tokens`\n    // from the token owner's account\n    //\n    // https://github.com/ethereum/EIPs/blob/master/EIPS/eip-20-token-standard.md\n    // recommends that there are no checks for the approval double-spend attack\n    // as this should be implemented in user interfaces \n    // ------------------------------------------------------------------------\n    function approve(address spender, uint tokens) public returns (bool success) {\n        allowed[msg.sender][spender] = tokens;\n        Approval(msg.sender, spender, tokens);\n        return true;\n    }\n\n\n    // ------------------------------------------------------------------------\n    // Transfer `tokens` from the `from` account to the `to` account\n    // \n    // The calling account must already have sufficient tokens approve(...)-d\n    // for spending from the `from` account and\n    // - From account must have sufficient balance to transfer\n    // - Spender must have sufficient allowance to transfer\n    // - 0 value transfers are allowed\n    // ------------------------------------------------------------------------\n    function transferFrom(address from, address to, uint tokens) public returns (bool success) {\n        balances[from] = balances[from].sub(tokens);\n        allowed[from][msg.sender] = allowed[from][msg.sender].sub(tokens);\n        balances[to] = balances[to].add(tokens);\n        Transfer(from, to, tokens);\n        return true;\n    }\n\n\n    // ------------------------------------------------------------------------\n    // Returns the amount of tokens approved by the owner that can be\n    // transferred to the spender's account\n    // ------------------------------------------------------------------------\n    function allowance(address tokenOwner, address spender) public constant returns (uint remaining) {\n        return allowed[tokenOwner][spender];\n    }\n\n\n    // ------------------------------------------------------------------------\n    // Token owner can approve for `spender` to transferFrom(...) `tokens`\n    // from the token owner's account. The `spender` contract function\n    // `receiveApproval(...)` is then executed\n    // ------------------------------------------------------------------------\n    function approveAndCall(address spender, uint tokens, bytes data) public returns (bool success) {\n        allowed[msg.sender][spender] = tokens;\n        Approval(msg.sender, spender, tokens);\n        ApproveAndCallFallBack(spender).receiveApproval(msg.sender, tokens, this, data);\n        return true;\n    }\n\n    // ------------------------------------------------------------------------\n    // Owner can transfer out any accidentally sent ERC20 tokens\n    // ------------------------------------------------------------------------\n    function transferAnyERC20Token(address tokenAddress, uint tokens) public onlyOwner returns (bool success) {\n        return ERC20Interface(tokenAddress).transfer(owner, tokens);\n    }\n\n    function setTokenReward(uint newReward) public onlyOwner {\n        tokenReward = newReward;\n    }\n\n    function makeSale(string projectName, string sellerUsername, address sellerAddress, bytes4 licenseId) public payable {\n      // pay seller the ETH\n      // fixed point math at 2 decimal places\n      uint fee = msg.value.mul(100).div(saleFee).div(100);\n      uint payout = msg.value.sub(fee);\n      sellerAddress.transfer(payout);\n\n\n      // give seller some tokens for the sale as well\n      balances[owner] = balances[owner].sub(tokenReward);\n      balances[sellerAddress] = balances[sellerAddress].add(tokenReward);\n      Transfer(owner, sellerAddress, tokenReward);\n\n      // log the sale\n      LicenseSale(\n        projectName,\n        sellerUsername,\n        sellerAddress,\n        msg.sender,\n        msg.value,\n        block.timestamp,\n        tokenReward,\n        fee,\n        licenseId\n      );\n    }\n}",
  "sourcePath": "/Users/chris/Documents/WorkStuff/Deconet/Blockchain/DeconetToken/contracts/DeconetToken.sol",
  "compiler": {
    "name": "solc",
    "version": "0.4.19+commit.c4cbbb05.Emscripten.clang"
  },
  "schemaVersion": "1.0.1",
  "updatedAt": "2018-02-07T03:03:50.305Z"
}