{
  "contractName": "LicenseSales",
  "abi": [
    {
      "constant": true,
      "inputs": [],
      "name": "saleFee",
      "outputs": [
        {
          "name": "",
          "type": "uint256"
        }
      ],
      "payable": false,
      "stateMutability": "view",
      "type": "function"
    },
    {
      "constant": true,
      "inputs": [],
      "name": "version",
      "outputs": [
        {
          "name": "",
          "type": "uint256"
        }
      ],
      "payable": false,
      "stateMutability": "view",
      "type": "function"
    },
    {
      "constant": true,
      "inputs": [],
      "name": "tokenReward",
      "outputs": [
        {
          "name": "",
          "type": "uint256"
        }
      ],
      "payable": false,
      "stateMutability": "view",
      "type": "function"
    },
    {
      "constant": true,
      "inputs": [],
      "name": "tokenContractAddress",
      "outputs": [
        {
          "name": "",
          "type": "address"
        }
      ],
      "payable": false,
      "stateMutability": "view",
      "type": "function"
    },
    {
      "constant": true,
      "inputs": [],
      "name": "owner",
      "outputs": [
        {
          "name": "",
          "type": "address"
        }
      ],
      "payable": false,
      "stateMutability": "view",
      "type": "function"
    },
    {
      "constant": true,
      "inputs": [],
      "name": "relayContractAddress",
      "outputs": [
        {
          "name": "",
          "type": "address"
        }
      ],
      "payable": false,
      "stateMutability": "view",
      "type": "function"
    },
    {
      "constant": false,
      "inputs": [
        {
          "name": "newOwner",
          "type": "address"
        }
      ],
      "name": "transferOwnership",
      "outputs": [],
      "payable": false,
      "stateMutability": "nonpayable",
      "type": "function"
    },
    {
      "inputs": [],
      "payable": false,
      "stateMutability": "nonpayable",
      "type": "constructor"
    },
    {
      "anonymous": false,
      "inputs": [
        {
          "indexed": false,
          "name": "moduleName",
          "type": "bytes32"
        },
        {
          "indexed": false,
          "name": "sellerUsername",
          "type": "bytes32"
        },
        {
          "indexed": true,
          "name": "sellerAddress",
          "type": "address"
        },
        {
          "indexed": true,
          "name": "buyerAddress",
          "type": "address"
        },
        {
          "indexed": false,
          "name": "price",
          "type": "uint256"
        },
        {
          "indexed": false,
          "name": "soldAt",
          "type": "uint256"
        },
        {
          "indexed": false,
          "name": "rewardedTokens",
          "type": "uint256"
        },
        {
          "indexed": false,
          "name": "networkFee",
          "type": "uint256"
        },
        {
          "indexed": false,
          "name": "licenseId",
          "type": "bytes4"
        }
      ],
      "name": "LicenseSale",
      "type": "event"
    },
    {
      "anonymous": false,
      "inputs": [
        {
          "indexed": true,
          "name": "previousOwner",
          "type": "address"
        },
        {
          "indexed": true,
          "name": "newOwner",
          "type": "address"
        }
      ],
      "name": "OwnershipTransferred",
      "type": "event"
    },
    {
      "constant": false,
      "inputs": [
        {
          "name": "tokenAddress",
          "type": "address"
        },
        {
          "name": "tokens",
          "type": "uint256"
        }
      ],
      "name": "transferAnyERC20Token",
      "outputs": [
        {
          "name": "success",
          "type": "bool"
        }
      ],
      "payable": false,
      "stateMutability": "nonpayable",
      "type": "function"
    },
    {
      "constant": false,
      "inputs": [],
      "name": "withdrawEther",
      "outputs": [],
      "payable": false,
      "stateMutability": "nonpayable",
      "type": "function"
    },
    {
      "constant": false,
      "inputs": [
        {
          "name": "_withdrawAddress",
          "type": "address"
        }
      ],
      "name": "setWithdrawAddress",
      "outputs": [],
      "payable": false,
      "stateMutability": "nonpayable",
      "type": "function"
    },
    {
      "constant": false,
      "inputs": [
        {
          "name": "_relayContractAddress",
          "type": "address"
        }
      ],
      "name": "setRelayContractAddress",
      "outputs": [],
      "payable": false,
      "stateMutability": "nonpayable",
      "type": "function"
    },
    {
      "constant": false,
      "inputs": [
        {
          "name": "_tokenContractAddress",
          "type": "address"
        }
      ],
      "name": "setTokenContractAddress",
      "outputs": [],
      "payable": false,
      "stateMutability": "nonpayable",
      "type": "function"
    },
    {
      "constant": false,
      "inputs": [
        {
          "name": "_tokenReward",
          "type": "uint256"
        }
      ],
      "name": "setTokenReward",
      "outputs": [],
      "payable": false,
      "stateMutability": "nonpayable",
      "type": "function"
    },
    {
      "constant": false,
      "inputs": [
        {
          "name": "_saleFee",
          "type": "uint256"
        }
      ],
      "name": "setSaleFee",
      "outputs": [],
      "payable": false,
      "stateMutability": "nonpayable",
      "type": "function"
    },
    {
      "constant": false,
      "inputs": [
        {
          "name": "moduleId",
          "type": "uint256"
        }
      ],
      "name": "makeSale",
      "outputs": [],
      "payable": true,
      "stateMutability": "payable",
      "type": "function"
    }
  ],
  "bytecode": "0x608060405234801561001057600080fd5b50336000806101000a81548173ffffffffffffffffffffffffffffffffffffffff021916908373ffffffffffffffffffffffffffffffffffffffff160217905550600160058190555068056bc75e2d63100000600181905550600a60028190555033600660006101000a81548173ffffffffffffffffffffffffffffffffffffffff021916908373ffffffffffffffffffffffffffffffffffffffff160217905550611446806100c16000396000f3006080604052600436106100db576000357c0100000000000000000000000000000000000000000000000000000000900463ffffffff168063178021e3146100e05780632d2bcd371461010b578063364083f41461014e5780633ab1a4941461016e5780634fe01d38146101b157806354fd4d50146101de5780636e66f6e9146102095780637362377b1461023457806382edaf941461024b5780638da5cb5b146102a2578063b23d4854146102f9578063bdcafc551461033c578063dc39d06d14610369578063dfa93d64146103ce578063f2fde38b14610425575b600080fd5b3480156100ec57600080fd5b506100f5610468565b6040518082815260200191505060405180910390f35b34801561011757600080fd5b5061014c600480360381019080803573ffffffffffffffffffffffffffffffffffffffff16906020019092919050505061046e565b005b61016c60048036038101908080359060200190929190505050610549565b005b34801561017a57600080fd5b506101af600480360381019080803573ffffffffffffffffffffffffffffffffffffffff169060200190929190505050610931565b005b3480156101bd57600080fd5b506101dc60048036038101908080359060200190929190505050610a0c565b005b3480156101ea57600080fd5b506101f3610a71565b6040518082815260200191505060405180910390f35b34801561021557600080fd5b5061021e610a77565b6040518082815260200191505060405180910390f35b34801561024057600080fd5b50610249610a7d565b005b34801561025757600080fd5b50610260610b5b565b604051808273ffffffffffffffffffffffffffffffffffffffff1673ffffffffffffffffffffffffffffffffffffffff16815260200191505060405180910390f35b3480156102ae57600080fd5b506102b7610b81565b604051808273ffffffffffffffffffffffffffffffffffffffff1673ffffffffffffffffffffffffffffffffffffffff16815260200191505060405180910390f35b34801561030557600080fd5b5061033a600480360381019080803573ffffffffffffffffffffffffffffffffffffffff169060200190929190505050610ba6565b005b34801561034857600080fd5b5061036760048036038101908080359060200190929190505050610c81565b005b34801561037557600080fd5b506103b4600480360381019080803573ffffffffffffffffffffffffffffffffffffffff16906020019092919080359060200190929190505050610ce6565b604051808215151515815260200191505060405180910390f35b3480156103da57600080fd5b506103e3610e4a565b604051808273ffffffffffffffffffffffffffffffffffffffff1673ffffffffffffffffffffffffffffffffffffffff16815260200191505060405180910390f35b34801561043157600080fd5b50610466600480360381019080803573ffffffffffffffffffffffffffffffffffffffff169060200190929190505050610e70565b005b60025481565b6000809054906101000a900473ffffffffffffffffffffffffffffffffffffffff1673ffffffffffffffffffffffffffffffffffffffff163373ffffffffffffffffffffffffffffffffffffffff161415156104c957600080fd5b600073ffffffffffffffffffffffffffffffffffffffff168173ffffffffffffffffffffffffffffffffffffffff161415151561050557600080fd5b80600360006101000a81548173ffffffffffffffffffffffffffffffffffffffff021916908373ffffffffffffffffffffffffffffffffffffffff16021790555050565b60008060008060008060008060008060008b1415151561056857600080fd5b600360009054906101000a900473ffffffffffffffffffffffffffffffffffffffff1699508973ffffffffffffffffffffffffffffffffffffffff16636793d3836040518163ffffffff167c0100000000000000000000000000000000000000000000000000000000028152600401602060405180830381600087803b1580156105f157600080fd5b505af1158015610605573d6000803e3d6000fd5b505050506040513d602081101561061b57600080fd5b810190808051906020019092919050505098508897508773ffffffffffffffffffffffffffffffffffffffff1663720ed6428c6040518263ffffffff167c01000000000000000000000000000000000000000000000000000000000281526004018082815260200191505060a060405180830381600087803b1580156106a057600080fd5b505af11580156106b4573d6000803e3d6000fd5b505050506040513d60a08110156106ca57600080fd5b810190808051906020019092919080519060200190929190805190602001909291908051906020019092919080519060200190929190505050809750819850829950839a50849b50505050505086341015151561072657600080fd5b600086600019161415801561074057506000856000191614155b80156107795750600073ffffffffffffffffffffffffffffffffffffffff168473ffffffffffffffffffffffffffffffffffffffff1614155b80156107a557506000837bffffffffffffffffffffffffffffffffffffffffffffffffffffffff191614155b15156107b057600080fd5b6107d860646107ca60025434610fc590919063ffffffff16565b61100090919063ffffffff16565b91506107ed823461101b90919063ffffffff16565b90503373ffffffffffffffffffffffffffffffffffffffff168473ffffffffffffffffffffffffffffffffffffffff167f4105f8c731aaa84c12d86975966efd88e9c4c8d5df4fa14f4f2d03ee9ed3422a87898b42600154898b6040518088600019166000191681526020018760001916600019168152602001868152602001858152602001848152602001838152602001827bffffffffffffffffffffffffffffffffffffffffffffffffffffffff19167bffffffffffffffffffffffffffffffffffffffffffffffffffffffff1916815260200197505050505050505060405180910390a36108dd84611034565b8373ffffffffffffffffffffffffffffffffffffffff166108fc829081150290604051600060405180830381858888f19350505050158015610923573d6000803e3d6000fd5b505050505050505050505050565b6000809054906101000a900473ffffffffffffffffffffffffffffffffffffffff1673ffffffffffffffffffffffffffffffffffffffff163373ffffffffffffffffffffffffffffffffffffffff1614151561098c57600080fd5b600073ffffffffffffffffffffffffffffffffffffffff168173ffffffffffffffffffffffffffffffffffffffff16141515156109c857600080fd5b80600660006101000a81548173ffffffffffffffffffffffffffffffffffffffff021916908373ffffffffffffffffffffffffffffffffffffffff16021790555050565b6000809054906101000a900473ffffffffffffffffffffffffffffffffffffffff1673ffffffffffffffffffffffffffffffffffffffff163373ffffffffffffffffffffffffffffffffffffffff16141515610a6757600080fd5b8060018190555050565b60055481565b60015481565b600660009054906101000a900473ffffffffffffffffffffffffffffffffffffffff1673ffffffffffffffffffffffffffffffffffffffff163373ffffffffffffffffffffffffffffffffffffffff16141515610ad957600080fd5b600660009054906101000a900473ffffffffffffffffffffffffffffffffffffffff1673ffffffffffffffffffffffffffffffffffffffff166108fc3073ffffffffffffffffffffffffffffffffffffffff16319081150290604051600060405180830381858888f19350505050158015610b58573d6000803e3d6000fd5b50565b600460009054906101000a900473ffffffffffffffffffffffffffffffffffffffff1681565b6000809054906101000a900473ffffffffffffffffffffffffffffffffffffffff1681565b6000809054906101000a900473ffffffffffffffffffffffffffffffffffffffff1673ffffffffffffffffffffffffffffffffffffffff163373ffffffffffffffffffffffffffffffffffffffff16141515610c0157600080fd5b600073ffffffffffffffffffffffffffffffffffffffff168173ffffffffffffffffffffffffffffffffffffffff1614151515610c3d57600080fd5b80600460006101000a81548173ffffffffffffffffffffffffffffffffffffffff021916908373ffffffffffffffffffffffffffffffffffffffff16021790555050565b6000809054906101000a900473ffffffffffffffffffffffffffffffffffffffff1673ffffffffffffffffffffffffffffffffffffffff163373ffffffffffffffffffffffffffffffffffffffff16141515610cdc57600080fd5b8060028190555050565b60008060009054906101000a900473ffffffffffffffffffffffffffffffffffffffff1673ffffffffffffffffffffffffffffffffffffffff163373ffffffffffffffffffffffffffffffffffffffff16141515610d4357600080fd5b8273ffffffffffffffffffffffffffffffffffffffff1663a9059cbb6000809054906101000a900473ffffffffffffffffffffffffffffffffffffffff16846040518363ffffffff167c0100000000000000000000000000000000000000000000000000000000028152600401808373ffffffffffffffffffffffffffffffffffffffff1673ffffffffffffffffffffffffffffffffffffffff16815260200182815260200192505050602060405180830381600087803b158015610e0757600080fd5b505af1158015610e1b573d6000803e3d6000fd5b505050506040513d6020811015610e3157600080fd5b8101908080519060200190929190505050905092915050565b600360009054906101000a900473ffffffffffffffffffffffffffffffffffffffff1681565b6000809054906101000a900473ffffffffffffffffffffffffffffffffffffffff1673ffffffffffffffffffffffffffffffffffffffff163373ffffffffffffffffffffffffffffffffffffffff16141515610ecb57600080fd5b600073ffffffffffffffffffffffffffffffffffffffff168173ffffffffffffffffffffffffffffffffffffffff1614151515610f0757600080fd5b8073ffffffffffffffffffffffffffffffffffffffff166000809054906101000a900473ffffffffffffffffffffffffffffffffffffffff1673ffffffffffffffffffffffffffffffffffffffff167f8be0079c531659141344cd1fd0a4f28419497f9722a3daafe3b4186f6b6457e060405160405180910390a3806000806101000a81548173ffffffffffffffffffffffffffffffffffffffff021916908373ffffffffffffffffffffffffffffffffffffffff16021790555050565b6000806000841415610fda5760009150610ff9565b8284029050828482811515610feb57fe5b04141515610ff557fe5b8091505b5092915050565b600080828481151561100e57fe5b0490508091505092915050565b600082821115151561102957fe5b818303905092915050565b600080600080600460009054906101000a900473ffffffffffffffffffffffffffffffffffffffff1693508373ffffffffffffffffffffffffffffffffffffffff16638da5cb5b6040518163ffffffff167c0100000000000000000000000000000000000000000000000000000000028152600401602060405180830381600087803b1580156110c357600080fd5b505af11580156110d7573d6000803e3d6000fd5b505050506040513d60208110156110ed57600080fd5b810190808051906020019092919050505092508373ffffffffffffffffffffffffffffffffffffffff166370a08231846040518263ffffffff167c0100000000000000000000000000000000000000000000000000000000028152600401808273ffffffffffffffffffffffffffffffffffffffff1673ffffffffffffffffffffffffffffffffffffffff168152602001915050602060405180830381600087803b15801561119b57600080fd5b505af11580156111af573d6000803e3d6000fd5b505050506040513d60208110156111c557600080fd5b810190808051906020019092919050505091508373ffffffffffffffffffffffffffffffffffffffff1663dd62ed3e84306040518363ffffffff167c0100000000000000000000000000000000000000000000000000000000028152600401808373ffffffffffffffffffffffffffffffffffffffff1673ffffffffffffffffffffffffffffffffffffffff1681526020018273ffffffffffffffffffffffffffffffffffffffff1673ffffffffffffffffffffffffffffffffffffffff16815260200192505050602060405180830381600087803b1580156112a757600080fd5b505af11580156112bb573d6000803e3d6000fd5b505050506040513d60208110156112d157600080fd5b8101908080519060200190929190505050905060015482101580156112f857506001548110155b15611413578373ffffffffffffffffffffffffffffffffffffffff166323b872dd84876001546040518463ffffffff167c0100000000000000000000000000000000000000000000000000000000028152600401808473ffffffffffffffffffffffffffffffffffffffff1673ffffffffffffffffffffffffffffffffffffffff1681526020018373ffffffffffffffffffffffffffffffffffffffff1673ffffffffffffffffffffffffffffffffffffffff1681526020018281526020019350505050602060405180830381600087803b1580156113d657600080fd5b505af11580156113ea573d6000803e3d6000fd5b505050506040513d602081101561140057600080fd5b8101908080519060200190929190505050505b50505050505600a165627a7a72305820bfbfdfb816312105f9ec0de3580147a16fad4a20fa5c1ca35b59d528eafbd3200029",
  "source": "pragma solidity 0.4.24;\n\nimport \"../node_modules/zeppelin-solidity/contracts/ownership/Ownable.sol\";\nimport \"./Relay.sol\";\nimport \"./Registry.sol\";\nimport \"./DeconetToken.sol\";\nimport \"../node_modules/zeppelin-solidity/contracts/token/ERC20/ERC20.sol\";\n\n\n// ----------------------------------------------------------------------------\n// Holds the logic behind paying the seller and rewarding them with tokens, and logs the sales\n// ----------------------------------------------------------------------------\ncontract LicenseSales is Ownable {\n    using SafeMath for uint;\n\n    // the amount rewarded to a seller for selling a license\n    uint public tokenReward;\n\n    // the fee this contract takes from every sale.  expressed as percent.  so a value of 3 indicates a 3% txn fee\n    uint public saleFee;\n\n    // address of the relay contract which holds the address of the registry contract.\n    address public relayContractAddress;\n\n    // the token address\n    address public tokenContractAddress;\n\n    // this contract version\n    uint public version;\n\n    // the address that is authorized to withdraw eth\n    address private withdrawAddress;\n\n    event LicenseSale(\n        bytes32 moduleName,\n        bytes32 sellerUsername,\n        address indexed sellerAddress,\n        address indexed buyerAddress,\n        uint price,\n        uint soldAt,\n        uint rewardedTokens,\n        uint networkFee,\n        bytes4 licenseId\n    );\n\n    // ------------------------------------------------------------------------\n    // Constructor\n    // ------------------------------------------------------------------------\n    constructor() public {\n        version = 1;\n\n        // default token reward of 100 tokens.  \n        // token has 18 decimal places so that's why 100 * 10^18\n        tokenReward = 100 * 10**18;\n\n        // default saleFee of 10%\n        saleFee = 10;\n\n        // default withdrawAddress is owner\n        withdrawAddress = msg.sender;\n    }\n\n    // ------------------------------------------------------------------------\n    // Owner can transfer out any accidentally sent ERC20 tokens (just in case)\n    // ------------------------------------------------------------------------\n    function transferAnyERC20Token(address tokenAddress, uint tokens) public onlyOwner returns (bool success) {\n        return ERC20(tokenAddress).transfer(owner, tokens);\n    }\n\n    // ------------------------------------------------------------------------\n    // Owner can transfer out any ETH\n    // ------------------------------------------------------------------------\n    function withdrawEther() public {\n        require(msg.sender == withdrawAddress);\n        withdrawAddress.transfer(this.balance);\n    }\n\n    // ------------------------------------------------------------------------\n    // Owner can set address of who can withdraw\n    // ------------------------------------------------------------------------\n    function setWithdrawAddress(address _withdrawAddress) public onlyOwner {\n        require(_withdrawAddress != address(0));\n        withdrawAddress = _withdrawAddress;\n    }\n\n    // ------------------------------------------------------------------------\n    // Owner can set address of relay contract\n    // ------------------------------------------------------------------------\n    function setRelayContractAddress(address _relayContractAddress) public onlyOwner {\n        require(_relayContractAddress != address(0));\n        relayContractAddress = _relayContractAddress;\n    }\n\n    // ------------------------------------------------------------------------\n    // Owner can set address of token contract\n    // ------------------------------------------------------------------------\n    function setTokenContractAddress(address _tokenContractAddress) public onlyOwner {\n        require(_tokenContractAddress != address(0));\n        tokenContractAddress = _tokenContractAddress;\n    }\n\n    // ------------------------------------------------------------------------\n    // Owner can set token reward\n    // ------------------------------------------------------------------------\n    function setTokenReward(uint _tokenReward) public onlyOwner {\n        tokenReward = _tokenReward;\n    }\n\n    // ------------------------------------------------------------------------\n    // Owner can set the sale fee\n    // ------------------------------------------------------------------------\n    function setSaleFee(uint _saleFee) public onlyOwner {\n        saleFee = _saleFee;\n    }\n\n    // ------------------------------------------------------------------------\n    // Anyone can make a sale if they provide a moduleId\n    // ------------------------------------------------------------------------\n    function makeSale(uint moduleId) public payable {\n        require(moduleId != 0);\n\n        // look up the registry address from relay token\n        Relay relay = Relay(relayContractAddress);\n        address registryAddress = relay.registryContractAddress();\n\n        // get the module info from registry\n        Registry registry = Registry(registryAddress);\n\n        uint price;\n        bytes32 sellerUsername;\n        bytes32 moduleName;\n        address sellerAddress;\n        bytes4 licenseId;\n\n        (price, sellerUsername, moduleName, sellerAddress, licenseId) = registry.getModuleById(moduleId);\n\n        // make sure the customer has sent enough eth\n        require(msg.value >= price);\n\n        // make sure the module is actually valid\n        require(sellerUsername != \"\" && moduleName != \"\" && sellerAddress != address(0) && licenseId != \"\");\n\n        // calculate fee and payout\n        uint fee = msg.value.mul(saleFee).div(100); \n        uint payout = msg.value.sub(fee);\n\n        // log the sale\n        emit LicenseSale(\n            moduleName,\n            sellerUsername,\n            sellerAddress,\n            msg.sender,\n            price,\n            block.timestamp,\n            tokenReward,\n            fee,\n            licenseId\n        );\n\n        // give seller some tokens for the sale\n        rewardTokens(sellerAddress);\n        \n        // pay seller the ETH\n        sellerAddress.transfer(payout);\n    }\n\n    // ------------------------------------------------------------------------\n    // Reward user with tokens IF the contract has them in it's allowance\n    // ------------------------------------------------------------------------\n    function rewardTokens(address toReward) private {\n        DeconetToken token = DeconetToken(tokenContractAddress);\n        address tokenOwner = token.owner();\n\n        // check balance of tokenOwner\n        uint tokenOwnerBalance = token.balanceOf(tokenOwner);\n        uint tokenOwnerAllowance = token.allowance(tokenOwner, address(this));\n        if (tokenOwnerBalance >= tokenReward && tokenOwnerAllowance >= tokenReward) {\n            token.transferFrom(tokenOwner, toReward, tokenReward);\n        }\n    }\n}\n",
  "sourcePath": "/Users/chris/Documents/WorkStuff/Deconet/Blockchain/DeconetToken/contracts/LicenseSales.sol",
  "compiler": {
    "name": "solc",
    "version": "0.4.24+commit.e67f0147.Emscripten.clang"
  },
  "schemaVersion": "2.0.1",
  "updatedAt": "2018-09-04T04:27:39.606Z"
}