{
  "contractName": "LicenseSales",
  "abi": [
    {
      "constant": true,
      "inputs": [],
      "name": "saleFee",
      "outputs": [
        {
          "name": "",
          "type": "uint256"
        }
      ],
      "payable": false,
      "stateMutability": "view",
      "type": "function"
    },
    {
      "constant": true,
      "inputs": [],
      "name": "version",
      "outputs": [
        {
          "name": "",
          "type": "uint256"
        }
      ],
      "payable": false,
      "stateMutability": "view",
      "type": "function"
    },
    {
      "constant": true,
      "inputs": [],
      "name": "tokenReward",
      "outputs": [
        {
          "name": "",
          "type": "uint256"
        }
      ],
      "payable": false,
      "stateMutability": "view",
      "type": "function"
    },
    {
      "constant": false,
      "inputs": [],
      "name": "acceptOwnership",
      "outputs": [],
      "payable": false,
      "stateMutability": "nonpayable",
      "type": "function"
    },
    {
      "constant": true,
      "inputs": [],
      "name": "tokenContractAddress",
      "outputs": [
        {
          "name": "",
          "type": "address"
        }
      ],
      "payable": false,
      "stateMutability": "view",
      "type": "function"
    },
    {
      "constant": true,
      "inputs": [],
      "name": "owner",
      "outputs": [
        {
          "name": "",
          "type": "address"
        }
      ],
      "payable": false,
      "stateMutability": "view",
      "type": "function"
    },
    {
      "constant": true,
      "inputs": [],
      "name": "newOwner",
      "outputs": [
        {
          "name": "",
          "type": "address"
        }
      ],
      "payable": false,
      "stateMutability": "view",
      "type": "function"
    },
    {
      "constant": true,
      "inputs": [],
      "name": "relayContractAddress",
      "outputs": [
        {
          "name": "",
          "type": "address"
        }
      ],
      "payable": false,
      "stateMutability": "view",
      "type": "function"
    },
    {
      "constant": false,
      "inputs": [
        {
          "name": "_newOwner",
          "type": "address"
        }
      ],
      "name": "transferOwnership",
      "outputs": [],
      "payable": false,
      "stateMutability": "nonpayable",
      "type": "function"
    },
    {
      "inputs": [],
      "payable": false,
      "stateMutability": "nonpayable",
      "type": "constructor"
    },
    {
      "payable": true,
      "stateMutability": "payable",
      "type": "fallback"
    },
    {
      "anonymous": false,
      "inputs": [
        {
          "indexed": false,
          "name": "moduleName",
          "type": "bytes32"
        },
        {
          "indexed": false,
          "name": "sellerUsername",
          "type": "bytes32"
        },
        {
          "indexed": true,
          "name": "sellerAddress",
          "type": "address"
        },
        {
          "indexed": true,
          "name": "buyerAddress",
          "type": "address"
        },
        {
          "indexed": false,
          "name": "price",
          "type": "uint256"
        },
        {
          "indexed": false,
          "name": "soldAt",
          "type": "uint256"
        },
        {
          "indexed": false,
          "name": "rewardedTokens",
          "type": "uint256"
        },
        {
          "indexed": false,
          "name": "networkFee",
          "type": "uint256"
        },
        {
          "indexed": false,
          "name": "licenseId",
          "type": "bytes4"
        }
      ],
      "name": "LicenseSale",
      "type": "event"
    },
    {
      "anonymous": false,
      "inputs": [
        {
          "indexed": true,
          "name": "_from",
          "type": "address"
        },
        {
          "indexed": true,
          "name": "_to",
          "type": "address"
        }
      ],
      "name": "OwnershipTransferred",
      "type": "event"
    },
    {
      "constant": false,
      "inputs": [
        {
          "name": "tokenAddress",
          "type": "address"
        },
        {
          "name": "tokens",
          "type": "uint256"
        }
      ],
      "name": "transferAnyERC20Token",
      "outputs": [
        {
          "name": "success",
          "type": "bool"
        }
      ],
      "payable": false,
      "stateMutability": "nonpayable",
      "type": "function"
    },
    {
      "constant": false,
      "inputs": [],
      "name": "withdrawEther",
      "outputs": [],
      "payable": false,
      "stateMutability": "nonpayable",
      "type": "function"
    },
    {
      "constant": false,
      "inputs": [
        {
          "name": "_withdrawlAddress",
          "type": "address"
        }
      ],
      "name": "setWithdrawlAddress",
      "outputs": [],
      "payable": false,
      "stateMutability": "nonpayable",
      "type": "function"
    },
    {
      "constant": false,
      "inputs": [
        {
          "name": "_relayContractAddress",
          "type": "address"
        }
      ],
      "name": "setRelayContractAddress",
      "outputs": [],
      "payable": false,
      "stateMutability": "nonpayable",
      "type": "function"
    },
    {
      "constant": false,
      "inputs": [
        {
          "name": "_tokenContractAddress",
          "type": "address"
        }
      ],
      "name": "setTokenContractAddress",
      "outputs": [],
      "payable": false,
      "stateMutability": "nonpayable",
      "type": "function"
    },
    {
      "constant": false,
      "inputs": [
        {
          "name": "_tokenReward",
          "type": "uint256"
        }
      ],
      "name": "setTokenReward",
      "outputs": [],
      "payable": false,
      "stateMutability": "nonpayable",
      "type": "function"
    },
    {
      "constant": false,
      "inputs": [
        {
          "name": "_saleFee",
          "type": "uint256"
        }
      ],
      "name": "setSaleFee",
      "outputs": [],
      "payable": false,
      "stateMutability": "nonpayable",
      "type": "function"
    },
    {
      "constant": false,
      "inputs": [
        {
          "name": "moduleId",
          "type": "uint256"
        }
      ],
      "name": "makeSale",
      "outputs": [],
      "payable": true,
      "stateMutability": "payable",
      "type": "function"
    }
  ],
  "bytecode": "0x6060604052341561000f57600080fd5b336000806101000a81548173ffffffffffffffffffffffffffffffffffffffff021916908373ffffffffffffffffffffffffffffffffffffffff160217905550600160068190555068056bc75e2d63100000600281905550600a60038190555033600760006101000a81548173ffffffffffffffffffffffffffffffffffffffff021916908373ffffffffffffffffffffffffffffffffffffffff160217905550611165806100bf6000396000f3006060604052600436106100f1576000357c0100000000000000000000000000000000000000000000000000000000900463ffffffff168063178021e3146100f65780632d2bcd371461011f578063364083f4146101585780634fe01d381461017057806354fd4d50146101935780636e66f6e9146101bc5780637362377b146101e557806379ba5097146101fa57806382edaf941461020f5780638da5cb5b14610264578063b23d4854146102b9578063bdcafc55146102f2578063d4ee1d9014610315578063dc39d06d1461036a578063dfa93d64146103c4578063f2fde38b14610419578063f4efa3e614610452575b600080fd5b341561010157600080fd5b61010961048b565b6040518082815260200191505060405180910390f35b341561012a57600080fd5b610156600480803573ffffffffffffffffffffffffffffffffffffffff16906020019091905050610491565b005b61016e6004808035906020019091905050610530565b005b341561017b57600080fd5b61019160048080359060200190919050506109bc565b005b341561019e57600080fd5b6101a6610a21565b6040518082815260200191505060405180910390f35b34156101c757600080fd5b6101cf610a27565b6040518082815260200191505060405180910390f35b34156101f057600080fd5b6101f8610a2d565b005b341561020557600080fd5b61020d610b04565b005b341561021a57600080fd5b610222610ca3565b604051808273ffffffffffffffffffffffffffffffffffffffff1673ffffffffffffffffffffffffffffffffffffffff16815260200191505060405180910390f35b341561026f57600080fd5b610277610cc9565b604051808273ffffffffffffffffffffffffffffffffffffffff1673ffffffffffffffffffffffffffffffffffffffff16815260200191505060405180910390f35b34156102c457600080fd5b6102f0600480803573ffffffffffffffffffffffffffffffffffffffff16906020019091905050610cee565b005b34156102fd57600080fd5b6103136004808035906020019091905050610d8d565b005b341561032057600080fd5b610328610df2565b604051808273ffffffffffffffffffffffffffffffffffffffff1673ffffffffffffffffffffffffffffffffffffffff16815260200191505060405180910390f35b341561037557600080fd5b6103aa600480803573ffffffffffffffffffffffffffffffffffffffff16906020019091908035906020019091905050610e18565b604051808215151515815260200191505060405180910390f35b34156103cf57600080fd5b6103d7610f64565b604051808273ffffffffffffffffffffffffffffffffffffffff1673ffffffffffffffffffffffffffffffffffffffff16815260200191505060405180910390f35b341561042457600080fd5b610450600480803573ffffffffffffffffffffffffffffffffffffffff16906020019091905050610f8a565b005b341561045d57600080fd5b610489600480803573ffffffffffffffffffffffffffffffffffffffff16906020019091905050611029565b005b60035481565b6000809054906101000a900473ffffffffffffffffffffffffffffffffffffffff1673ffffffffffffffffffffffffffffffffffffffff163373ffffffffffffffffffffffffffffffffffffffff161415156104ec57600080fd5b80600460006101000a81548173ffffffffffffffffffffffffffffffffffffffff021916908373ffffffffffffffffffffffffffffffffffffffff16021790555050565b6000806000806000806000806000806000600460009054906101000a900473ffffffffffffffffffffffffffffffffffffffff169a508a73ffffffffffffffffffffffffffffffffffffffff16636793d3836000604051602001526040518163ffffffff167c0100000000000000000000000000000000000000000000000000000000028152600401602060405180830381600087803b15156105d257600080fd5b6102c65a03f115156105e357600080fd5b5050506040518051905099508998508873ffffffffffffffffffffffffffffffffffffffff1663720ed6428d600060405160a001526040518263ffffffff167c01000000000000000000000000000000000000000000000000000000000281526004018082815260200191505060a060405180830381600087803b151561066957600080fd5b6102c65a03f1151561067a57600080fd5b50505060405180519060200180519060200180519060200180519060200180519050809850819950829a50839b50849c5050505050508734101515156106bf57600080fd5b60008760001916141580156106d957506000866000191614155b80156107125750600073ffffffffffffffffffffffffffffffffffffffff168573ffffffffffffffffffffffffffffffffffffffff1614155b801561073e57506000847bffffffffffffffffffffffffffffffffffffffffffffffffffffffff191614155b151561074957600080fd5b61078460646107766003546107686064346110c890919063ffffffff16565b6110f990919063ffffffff16565b6110f990919063ffffffff16565b9250610799833461111d90919063ffffffff16565b9150600560009054906101000a900473ffffffffffffffffffffffffffffffffffffffff1690508073ffffffffffffffffffffffffffffffffffffffff1663a9059cbb866002546000604051602001526040518363ffffffff167c0100000000000000000000000000000000000000000000000000000000028152600401808373ffffffffffffffffffffffffffffffffffffffff1673ffffffffffffffffffffffffffffffffffffffff16815260200182815260200192505050602060405180830381600087803b151561086d57600080fd5b6102c65a03f1151561087e57600080fd5b50505060405180519050508473ffffffffffffffffffffffffffffffffffffffff166108fc839081150290604051600060405180830381858888f1935050505015156108c957600080fd5b3373ffffffffffffffffffffffffffffffffffffffff168573ffffffffffffffffffffffffffffffffffffffff167f4105f8c731aaa84c12d86975966efd88e9c4c8d5df4fa14f4f2d03ee9ed3422a888a8c426002548a8c6040518088600019166000191681526020018760001916600019168152602001868152602001858152602001848152602001838152602001827bffffffffffffffffffffffffffffffffffffffffffffffffffffffff19167bffffffffffffffffffffffffffffffffffffffffffffffffffffffff1916815260200197505050505050505060405180910390a3505050505050505050505050565b6000809054906101000a900473ffffffffffffffffffffffffffffffffffffffff1673ffffffffffffffffffffffffffffffffffffffff163373ffffffffffffffffffffffffffffffffffffffff16141515610a1757600080fd5b8060028190555050565b60065481565b60025481565b600760009054906101000a900473ffffffffffffffffffffffffffffffffffffffff1673ffffffffffffffffffffffffffffffffffffffff163373ffffffffffffffffffffffffffffffffffffffff16141515610a8957600080fd5b600760009054906101000a900473ffffffffffffffffffffffffffffffffffffffff1673ffffffffffffffffffffffffffffffffffffffff166108fc3073ffffffffffffffffffffffffffffffffffffffff16319081150290604051600060405180830381858888f193505050501515610b0257600080fd5b565b600160009054906101000a900473ffffffffffffffffffffffffffffffffffffffff1673ffffffffffffffffffffffffffffffffffffffff163373ffffffffffffffffffffffffffffffffffffffff16141515610b6057600080fd5b600160009054906101000a900473ffffffffffffffffffffffffffffffffffffffff1673ffffffffffffffffffffffffffffffffffffffff166000809054906101000a900473ffffffffffffffffffffffffffffffffffffffff1673ffffffffffffffffffffffffffffffffffffffff167f8be0079c531659141344cd1fd0a4f28419497f9722a3daafe3b4186f6b6457e060405160405180910390a3600160009054906101000a900473ffffffffffffffffffffffffffffffffffffffff166000806101000a81548173ffffffffffffffffffffffffffffffffffffffff021916908373ffffffffffffffffffffffffffffffffffffffff1602179055506000600160006101000a81548173ffffffffffffffffffffffffffffffffffffffff021916908373ffffffffffffffffffffffffffffffffffffffff160217905550565b600560009054906101000a900473ffffffffffffffffffffffffffffffffffffffff1681565b6000809054906101000a900473ffffffffffffffffffffffffffffffffffffffff1681565b6000809054906101000a900473ffffffffffffffffffffffffffffffffffffffff1673ffffffffffffffffffffffffffffffffffffffff163373ffffffffffffffffffffffffffffffffffffffff16141515610d4957600080fd5b80600560006101000a81548173ffffffffffffffffffffffffffffffffffffffff021916908373ffffffffffffffffffffffffffffffffffffffff16021790555050565b6000809054906101000a900473ffffffffffffffffffffffffffffffffffffffff1673ffffffffffffffffffffffffffffffffffffffff163373ffffffffffffffffffffffffffffffffffffffff16141515610de857600080fd5b8060038190555050565b600160009054906101000a900473ffffffffffffffffffffffffffffffffffffffff1681565b60008060009054906101000a900473ffffffffffffffffffffffffffffffffffffffff1673ffffffffffffffffffffffffffffffffffffffff163373ffffffffffffffffffffffffffffffffffffffff16141515610e7557600080fd5b8273ffffffffffffffffffffffffffffffffffffffff1663a9059cbb6000809054906101000a900473ffffffffffffffffffffffffffffffffffffffff16846000604051602001526040518363ffffffff167c0100000000000000000000000000000000000000000000000000000000028152600401808373ffffffffffffffffffffffffffffffffffffffff1673ffffffffffffffffffffffffffffffffffffffff16815260200182815260200192505050602060405180830381600087803b1515610f4157600080fd5b6102c65a03f11515610f5257600080fd5b50505060405180519050905092915050565b600460009054906101000a900473ffffffffffffffffffffffffffffffffffffffff1681565b6000809054906101000a900473ffffffffffffffffffffffffffffffffffffffff1673ffffffffffffffffffffffffffffffffffffffff163373ffffffffffffffffffffffffffffffffffffffff16141515610fe557600080fd5b80600160006101000a81548173ffffffffffffffffffffffffffffffffffffffff021916908373ffffffffffffffffffffffffffffffffffffffff16021790555050565b6000809054906101000a900473ffffffffffffffffffffffffffffffffffffffff1673ffffffffffffffffffffffffffffffffffffffff163373ffffffffffffffffffffffffffffffffffffffff1614151561108457600080fd5b80600760006101000a81548173ffffffffffffffffffffffffffffffffffffffff021916908373ffffffffffffffffffffffffffffffffffffffff16021790555050565b6000818302905060008314806110e857508183828115156110e557fe5b04145b15156110f357600080fd5b92915050565b6000808211151561110957600080fd5b818381151561111457fe5b04905092915050565b600082821115151561112e57600080fd5b8183039050929150505600a165627a7a723058203c18d6103dfa7542b563243e8b9bc69d1f00bf016b90e3bf6524b0369a60b11b0029",
  "source": "pragma solidity ^0.4.19;\n\nimport \"./Owned.sol\";\nimport \"./Relay.sol\";\nimport \"./Registry.sol\";\nimport \"./DeconetToken.sol\";\n\n\n// ----------------------------------------------------------------------------\n// Holds the logic behind paying the seller and rewarding them with tokens, and logs the sales\n// ----------------------------------------------------------------------------\ncontract LicenseSales is Owned {\n    using SafeMath for uint;\n\n    // the amount rewarded to a seller for selling a license\n    uint public tokenReward;\n\n    // the fee this contract takes from every sale.  expressed as percent.  so a value of 3 indicates a 3% txn fee\n    uint public saleFee;\n\n    // address of the relay contract which holds the address of the registry contract.\n    address public relayContractAddress;\n\n    // the token address\n    address public tokenContractAddress;\n\n    // this contract version\n    uint public version;\n\n    // the address that is authorized to withdraw eth\n    address private withdrawlAddress;\n\n    event LicenseSale(\n        bytes32 moduleName,\n        bytes32 sellerUsername,\n        address indexed sellerAddress,\n        address indexed buyerAddress,\n        uint price,\n        uint soldAt,\n        uint rewardedTokens,\n        uint networkFee,\n        bytes4 licenseId\n    );\n\n\n    // ------------------------------------------------------------------------\n    // Constructor\n    // ------------------------------------------------------------------------\n    function LicenseSales() public {\n        version = 1;\n\n        // default token reward of 100 tokens.  \n        // token has 18 decimal places so that's why 100 * 10^18\n        tokenReward = 100 * 10**18;\n\n        // default saleFee of 10%\n        saleFee = 10;\n\n        // default withdrawlAddress is owner\n        withdrawlAddress = msg.sender;\n    }\n\n    // ------------------------------------------------------------------------\n    // Don't accept ethers (just in case)\n    // ------------------------------------------------------------------------\n    function () public payable {\n        revert();\n    }\n\n    // ------------------------------------------------------------------------\n    // Owner can transfer out any accidentally sent ERC20 tokens (just in case)\n    // ------------------------------------------------------------------------\n    function transferAnyERC20Token(address tokenAddress, uint tokens) public onlyOwner returns (bool success) {\n        return ERC20Interface(tokenAddress).transfer(owner, tokens);\n    }\n\n    // ------------------------------------------------------------------------\n    // Owner can transfer out any ETH\n    // ------------------------------------------------------------------------\n    function withdrawEther() public {\n        require(msg.sender == withdrawlAddress);\n        withdrawlAddress.transfer(this.balance);\n    }\n\n    // ------------------------------------------------------------------------\n    // Owner can set address of who can withdraw\n    // ------------------------------------------------------------------------\n    function setWithdrawlAddress(address _withdrawlAddress) public onlyOwner {\n        withdrawlAddress = _withdrawlAddress;\n    }\n\n    // ------------------------------------------------------------------------\n    // Owner can set address of relay contract\n    // ------------------------------------------------------------------------\n    function setRelayContractAddress(address _relayContractAddress) public onlyOwner {\n        relayContractAddress = _relayContractAddress;\n    }\n\n    // ------------------------------------------------------------------------\n    // Owner can set address of token contract\n    // ------------------------------------------------------------------------\n    function setTokenContractAddress(address _tokenContractAddress) public onlyOwner {\n        tokenContractAddress = _tokenContractAddress;\n    }\n\n    // ------------------------------------------------------------------------\n    // Owner can set token reward\n    // ------------------------------------------------------------------------\n    function setTokenReward(uint _tokenReward) public onlyOwner {\n        tokenReward = _tokenReward;\n    }\n\n    // ------------------------------------------------------------------------\n    // Owner can set the sale fee\n    // ------------------------------------------------------------------------\n    function setSaleFee(uint _saleFee) public onlyOwner {\n        saleFee = _saleFee;\n    }\n\n    // ------------------------------------------------------------------------\n    // Anyone can make a sale if they provide a moduleId\n    // ------------------------------------------------------------------------\n    function makeSale(uint moduleId) public payable {\n        // look up the registry address from relay token\n        Relay relay = Relay(relayContractAddress);\n        address registryAddress = relay.registryContractAddress();\n\n        // get the module info from registry\n        Registry registry = Registry(registryAddress);\n\n        uint price;\n        bytes32 sellerUsername;\n        bytes32 moduleName;\n        address sellerAddress;\n        bytes4 licenseId;\n\n        (price, sellerUsername, moduleName, sellerAddress, licenseId) = registry.getModuleById(moduleId);\n\n        // make sure the customer has sent enough eth\n        require(msg.value >= price);\n\n        // make sure the module is actually valid\n        require(sellerUsername != \"\" && moduleName != \"\" && sellerAddress != address(0) && licenseId != \"\");\n\n        // calculate fee and payout\n        // fixed point math at 2 decimal places\n        uint fee = msg.value.mul(100).div(saleFee).div(100);\n        uint payout = msg.value.sub(fee);\n        \n        // give seller some tokens for the sale as well\n        DeconetToken token = DeconetToken(tokenContractAddress);\n        token.transfer(sellerAddress, tokenReward);\n        \n        // pay seller the ETH\n        sellerAddress.transfer(payout);\n\n        // log the sale\n        LicenseSale(\n            moduleName,\n            sellerUsername,\n            sellerAddress,\n            msg.sender,\n            price,\n            block.timestamp,\n            tokenReward,\n            fee,\n            licenseId\n        );\n    }\n}\n",
  "sourcePath": "/Users/chris/Documents/WorkStuff/Deconet/Blockchain/DeconetToken/contracts/LicenseSales.sol",
  "compiler": {
    "name": "solc",
    "version": "0.4.19+commit.c4cbbb05.Emscripten.clang"
  },
  "schemaVersion": "1.0.1",
  "updatedAt": "2018-02-28T02:46:11.412Z"
}