{
  "contractName": "LicenseSales",
  "abi": [
    {
      "constant": true,
      "inputs": [],
      "name": "saleFee",
      "outputs": [
        {
          "name": "",
          "type": "uint256"
        }
      ],
      "payable": false,
      "stateMutability": "view",
      "type": "function"
    },
    {
      "constant": true,
      "inputs": [],
      "name": "version",
      "outputs": [
        {
          "name": "",
          "type": "uint256"
        }
      ],
      "payable": false,
      "stateMutability": "view",
      "type": "function"
    },
    {
      "constant": true,
      "inputs": [],
      "name": "tokenReward",
      "outputs": [
        {
          "name": "",
          "type": "uint256"
        }
      ],
      "payable": false,
      "stateMutability": "view",
      "type": "function"
    },
    {
      "constant": true,
      "inputs": [],
      "name": "tokenContractAddress",
      "outputs": [
        {
          "name": "",
          "type": "address"
        }
      ],
      "payable": false,
      "stateMutability": "view",
      "type": "function"
    },
    {
      "constant": true,
      "inputs": [],
      "name": "owner",
      "outputs": [
        {
          "name": "",
          "type": "address"
        }
      ],
      "payable": false,
      "stateMutability": "view",
      "type": "function"
    },
    {
      "constant": true,
      "inputs": [],
      "name": "relayContractAddress",
      "outputs": [
        {
          "name": "",
          "type": "address"
        }
      ],
      "payable": false,
      "stateMutability": "view",
      "type": "function"
    },
    {
      "constant": false,
      "inputs": [
        {
          "name": "newOwner",
          "type": "address"
        }
      ],
      "name": "transferOwnership",
      "outputs": [],
      "payable": false,
      "stateMutability": "nonpayable",
      "type": "function"
    },
    {
      "inputs": [],
      "payable": false,
      "stateMutability": "nonpayable",
      "type": "constructor"
    },
    {
      "anonymous": false,
      "inputs": [
        {
          "indexed": false,
          "name": "moduleName",
          "type": "bytes32"
        },
        {
          "indexed": false,
          "name": "sellerUsername",
          "type": "bytes32"
        },
        {
          "indexed": true,
          "name": "sellerAddress",
          "type": "address"
        },
        {
          "indexed": true,
          "name": "buyerAddress",
          "type": "address"
        },
        {
          "indexed": false,
          "name": "price",
          "type": "uint256"
        },
        {
          "indexed": false,
          "name": "soldAt",
          "type": "uint256"
        },
        {
          "indexed": false,
          "name": "rewardedTokens",
          "type": "uint256"
        },
        {
          "indexed": false,
          "name": "networkFee",
          "type": "uint256"
        },
        {
          "indexed": false,
          "name": "licenseId",
          "type": "bytes4"
        }
      ],
      "name": "LicenseSale",
      "type": "event"
    },
    {
      "anonymous": false,
      "inputs": [
        {
          "indexed": true,
          "name": "previousOwner",
          "type": "address"
        },
        {
          "indexed": true,
          "name": "newOwner",
          "type": "address"
        }
      ],
      "name": "OwnershipTransferred",
      "type": "event"
    },
    {
      "constant": false,
      "inputs": [
        {
          "name": "tokenAddress",
          "type": "address"
        },
        {
          "name": "tokens",
          "type": "uint256"
        }
      ],
      "name": "transferAnyERC20Token",
      "outputs": [
        {
          "name": "success",
          "type": "bool"
        }
      ],
      "payable": false,
      "stateMutability": "nonpayable",
      "type": "function"
    },
    {
      "constant": false,
      "inputs": [],
      "name": "withdrawEther",
      "outputs": [],
      "payable": false,
      "stateMutability": "nonpayable",
      "type": "function"
    },
    {
      "constant": false,
      "inputs": [
        {
          "name": "_withdrawlAddress",
          "type": "address"
        }
      ],
      "name": "setWithdrawlAddress",
      "outputs": [],
      "payable": false,
      "stateMutability": "nonpayable",
      "type": "function"
    },
    {
      "constant": false,
      "inputs": [
        {
          "name": "_relayContractAddress",
          "type": "address"
        }
      ],
      "name": "setRelayContractAddress",
      "outputs": [],
      "payable": false,
      "stateMutability": "nonpayable",
      "type": "function"
    },
    {
      "constant": false,
      "inputs": [
        {
          "name": "_tokenContractAddress",
          "type": "address"
        }
      ],
      "name": "setTokenContractAddress",
      "outputs": [],
      "payable": false,
      "stateMutability": "nonpayable",
      "type": "function"
    },
    {
      "constant": false,
      "inputs": [
        {
          "name": "_tokenReward",
          "type": "uint256"
        }
      ],
      "name": "setTokenReward",
      "outputs": [],
      "payable": false,
      "stateMutability": "nonpayable",
      "type": "function"
    },
    {
      "constant": false,
      "inputs": [
        {
          "name": "_saleFee",
          "type": "uint256"
        }
      ],
      "name": "setSaleFee",
      "outputs": [],
      "payable": false,
      "stateMutability": "nonpayable",
      "type": "function"
    },
    {
      "constant": false,
      "inputs": [
        {
          "name": "moduleId",
          "type": "uint256"
        }
      ],
      "name": "makeSale",
      "outputs": [],
      "payable": true,
      "stateMutability": "payable",
      "type": "function"
    }
  ],
  "bytecode": "0x6060604052341561000f57600080fd5b336000806101000a81548173ffffffffffffffffffffffffffffffffffffffff021916908373ffffffffffffffffffffffffffffffffffffffff160217905550600160058190555068056bc75e2d63100000600181905550600a60028190555033600660006101000a81548173ffffffffffffffffffffffffffffffffffffffff021916908373ffffffffffffffffffffffffffffffffffffffff160217905550611345806100bf6000396000f3006060604052600436106100db576000357c0100000000000000000000000000000000000000000000000000000000900463ffffffff168063178021e3146100e05780632d2bcd3714610109578063364083f4146101425780634fe01d381461015a57806354fd4d501461017d5780636e66f6e9146101a65780637362377b146101cf57806382edaf94146101e45780638da5cb5b14610239578063b23d48541461028e578063bdcafc55146102c7578063dc39d06d146102ea578063dfa93d6414610344578063f2fde38b14610399578063f4efa3e6146103d2575b600080fd5b34156100eb57600080fd5b6100f361040b565b6040518082815260200191505060405180910390f35b341561011457600080fd5b610140600480803573ffffffffffffffffffffffffffffffffffffffff16906020019091905050610411565b005b61015860048080359060200190919050506104ec565b005b341561016557600080fd5b61017b60048080359060200190919050506108a0565b005b341561018857600080fd5b610190610905565b6040518082815260200191505060405180910390f35b34156101b157600080fd5b6101b961090b565b6040518082815260200191505060405180910390f35b34156101da57600080fd5b6101e2610911565b005b34156101ef57600080fd5b6101f76109e8565b604051808273ffffffffffffffffffffffffffffffffffffffff1673ffffffffffffffffffffffffffffffffffffffff16815260200191505060405180910390f35b341561024457600080fd5b61024c610a0e565b604051808273ffffffffffffffffffffffffffffffffffffffff1673ffffffffffffffffffffffffffffffffffffffff16815260200191505060405180910390f35b341561029957600080fd5b6102c5600480803573ffffffffffffffffffffffffffffffffffffffff16906020019091905050610a33565b005b34156102d257600080fd5b6102e86004808035906020019091905050610b0e565b005b34156102f557600080fd5b61032a600480803573ffffffffffffffffffffffffffffffffffffffff16906020019091908035906020019091905050610b82565b604051808215151515815260200191505060405180910390f35b341561034f57600080fd5b610357610cce565b604051808273ffffffffffffffffffffffffffffffffffffffff1673ffffffffffffffffffffffffffffffffffffffff16815260200191505060405180910390f35b34156103a457600080fd5b6103d0600480803573ffffffffffffffffffffffffffffffffffffffff16906020019091905050610cf4565b005b34156103dd57600080fd5b610409600480803573ffffffffffffffffffffffffffffffffffffffff16906020019091905050610e49565b005b60025481565b6000809054906101000a900473ffffffffffffffffffffffffffffffffffffffff1673ffffffffffffffffffffffffffffffffffffffff163373ffffffffffffffffffffffffffffffffffffffff1614151561046c57600080fd5b600073ffffffffffffffffffffffffffffffffffffffff168173ffffffffffffffffffffffffffffffffffffffff16141515156104a857600080fd5b80600360006101000a81548173ffffffffffffffffffffffffffffffffffffffff021916908373ffffffffffffffffffffffffffffffffffffffff16021790555050565b60008060008060008060008060008060008b1415151561050b57600080fd5b600360009054906101000a900473ffffffffffffffffffffffffffffffffffffffff1699508973ffffffffffffffffffffffffffffffffffffffff16636793d3836000604051602001526040518163ffffffff167c0100000000000000000000000000000000000000000000000000000000028152600401602060405180830381600087803b151561059c57600080fd5b6102c65a03f115156105ad57600080fd5b5050506040518051905098508897508773ffffffffffffffffffffffffffffffffffffffff1663720ed6428c600060405160a001526040518263ffffffff167c01000000000000000000000000000000000000000000000000000000000281526004018082815260200191505060a060405180830381600087803b151561063357600080fd5b6102c65a03f1151561064457600080fd5b50505060405180519060200180519060200180519060200180519060200180519050809750819850829950839a50849b50505050505086341015151561068957600080fd5b60008660001916141580156106a357506000856000191614155b80156106dc5750600073ffffffffffffffffffffffffffffffffffffffff168473ffffffffffffffffffffffffffffffffffffffff1614155b801561070857506000837bffffffffffffffffffffffffffffffffffffffffffffffffffffffff191614155b151561071357600080fd5b61074e6064610740600254610732606434610f2490919063ffffffff16565b610f5f90919063ffffffff16565b610f5f90919063ffffffff16565b91506107638234610f7a90919063ffffffff16565b90503373ffffffffffffffffffffffffffffffffffffffff168473ffffffffffffffffffffffffffffffffffffffff167f4105f8c731aaa84c12d86975966efd88e9c4c8d5df4fa14f4f2d03ee9ed3422a87898b42600154898b6040518088600019166000191681526020018760001916600019168152602001868152602001858152602001848152602001838152602001827bffffffffffffffffffffffffffffffffffffffffffffffffffffffff19167bffffffffffffffffffffffffffffffffffffffffffffffffffffffff1916815260200197505050505050505060405180910390a361085384610f93565b8373ffffffffffffffffffffffffffffffffffffffff166108fc829081150290604051600060405180830381858888f19350505050151561089357600080fd5b5050505050505050505050565b6000809054906101000a900473ffffffffffffffffffffffffffffffffffffffff1673ffffffffffffffffffffffffffffffffffffffff163373ffffffffffffffffffffffffffffffffffffffff161415156108fb57600080fd5b8060018190555050565b60055481565b60015481565b600660009054906101000a900473ffffffffffffffffffffffffffffffffffffffff1673ffffffffffffffffffffffffffffffffffffffff163373ffffffffffffffffffffffffffffffffffffffff1614151561096d57600080fd5b600660009054906101000a900473ffffffffffffffffffffffffffffffffffffffff1673ffffffffffffffffffffffffffffffffffffffff166108fc3073ffffffffffffffffffffffffffffffffffffffff16319081150290604051600060405180830381858888f1935050505015156109e657600080fd5b565b600460009054906101000a900473ffffffffffffffffffffffffffffffffffffffff1681565b6000809054906101000a900473ffffffffffffffffffffffffffffffffffffffff1681565b6000809054906101000a900473ffffffffffffffffffffffffffffffffffffffff1673ffffffffffffffffffffffffffffffffffffffff163373ffffffffffffffffffffffffffffffffffffffff16141515610a8e57600080fd5b600073ffffffffffffffffffffffffffffffffffffffff168173ffffffffffffffffffffffffffffffffffffffff1614151515610aca57600080fd5b80600460006101000a81548173ffffffffffffffffffffffffffffffffffffffff021916908373ffffffffffffffffffffffffffffffffffffffff16021790555050565b6000809054906101000a900473ffffffffffffffffffffffffffffffffffffffff1673ffffffffffffffffffffffffffffffffffffffff163373ffffffffffffffffffffffffffffffffffffffff16141515610b6957600080fd5b600081111515610b7857600080fd5b8060028190555050565b60008060009054906101000a900473ffffffffffffffffffffffffffffffffffffffff1673ffffffffffffffffffffffffffffffffffffffff163373ffffffffffffffffffffffffffffffffffffffff16141515610bdf57600080fd5b8273ffffffffffffffffffffffffffffffffffffffff1663a9059cbb6000809054906101000a900473ffffffffffffffffffffffffffffffffffffffff16846000604051602001526040518363ffffffff167c0100000000000000000000000000000000000000000000000000000000028152600401808373ffffffffffffffffffffffffffffffffffffffff1673ffffffffffffffffffffffffffffffffffffffff16815260200182815260200192505050602060405180830381600087803b1515610cab57600080fd5b6102c65a03f11515610cbc57600080fd5b50505060405180519050905092915050565b600360009054906101000a900473ffffffffffffffffffffffffffffffffffffffff1681565b6000809054906101000a900473ffffffffffffffffffffffffffffffffffffffff1673ffffffffffffffffffffffffffffffffffffffff163373ffffffffffffffffffffffffffffffffffffffff16141515610d4f57600080fd5b600073ffffffffffffffffffffffffffffffffffffffff168173ffffffffffffffffffffffffffffffffffffffff1614151515610d8b57600080fd5b8073ffffffffffffffffffffffffffffffffffffffff166000809054906101000a900473ffffffffffffffffffffffffffffffffffffffff1673ffffffffffffffffffffffffffffffffffffffff167f8be0079c531659141344cd1fd0a4f28419497f9722a3daafe3b4186f6b6457e060405160405180910390a3806000806101000a81548173ffffffffffffffffffffffffffffffffffffffff021916908373ffffffffffffffffffffffffffffffffffffffff16021790555050565b6000809054906101000a900473ffffffffffffffffffffffffffffffffffffffff1673ffffffffffffffffffffffffffffffffffffffff163373ffffffffffffffffffffffffffffffffffffffff16141515610ea457600080fd5b600073ffffffffffffffffffffffffffffffffffffffff168173ffffffffffffffffffffffffffffffffffffffff1614151515610ee057600080fd5b80600660006101000a81548173ffffffffffffffffffffffffffffffffffffffff021916908373ffffffffffffffffffffffffffffffffffffffff16021790555050565b6000806000841415610f395760009150610f58565b8284029050828482811515610f4a57fe5b04141515610f5457fe5b8091505b5092915050565b6000808284811515610f6d57fe5b0490508091505092915050565b6000828211151515610f8857fe5b818303905092915050565b600080600080600460009054906101000a900473ffffffffffffffffffffffffffffffffffffffff1693508373ffffffffffffffffffffffffffffffffffffffff16638da5cb5b6000604051602001526040518163ffffffff167c0100000000000000000000000000000000000000000000000000000000028152600401602060405180830381600087803b151561102a57600080fd5b6102c65a03f1151561103b57600080fd5b5050506040518051905092508373ffffffffffffffffffffffffffffffffffffffff166370a08231846000604051602001526040518263ffffffff167c0100000000000000000000000000000000000000000000000000000000028152600401808273ffffffffffffffffffffffffffffffffffffffff1673ffffffffffffffffffffffffffffffffffffffff168152602001915050602060405180830381600087803b15156110ea57600080fd5b6102c65a03f115156110fb57600080fd5b5050506040518051905091508373ffffffffffffffffffffffffffffffffffffffff1663dd62ed3e84306000604051602001526040518363ffffffff167c0100000000000000000000000000000000000000000000000000000000028152600401808373ffffffffffffffffffffffffffffffffffffffff1673ffffffffffffffffffffffffffffffffffffffff1681526020018273ffffffffffffffffffffffffffffffffffffffff1673ffffffffffffffffffffffffffffffffffffffff16815260200192505050602060405180830381600087803b15156111de57600080fd5b6102c65a03f115156111ef57600080fd5b505050604051805190509050600154821015801561120f57506001548110155b15611312578373ffffffffffffffffffffffffffffffffffffffff166323b872dd84876001546000604051602001526040518463ffffffff167c0100000000000000000000000000000000000000000000000000000000028152600401808473ffffffffffffffffffffffffffffffffffffffff1673ffffffffffffffffffffffffffffffffffffffff1681526020018373ffffffffffffffffffffffffffffffffffffffff1673ffffffffffffffffffffffffffffffffffffffff1681526020018281526020019350505050602060405180830381600087803b15156112f557600080fd5b6102c65a03f1151561130657600080fd5b50505060405180519050505b50505050505600a165627a7a72305820cc9d3063c4d6c585b13a878ac3b79c311541c1df6b58b91f05409ac99738469b0029",
  "source": "pragma solidity 0.4.19;\n\nimport \"zeppelin-solidity/contracts/ownership/Ownable.sol\";\nimport \"./Relay.sol\";\nimport \"./Registry.sol\";\nimport \"./DeconetToken.sol\";\nimport \"zeppelin-solidity/contracts/token/ERC20/ERC20.sol\";\n\n\n// ----------------------------------------------------------------------------\n// Holds the logic behind paying the seller and rewarding them with tokens, and logs the sales\n// ----------------------------------------------------------------------------\ncontract LicenseSales is Ownable {\n  using SafeMath for uint;\n\n  // the amount rewarded to a seller for selling a license\n  uint public tokenReward;\n\n  // the fee this contract takes from every sale.  expressed as percent.  so a value of 3 indicates a 3% txn fee\n  uint public saleFee;\n\n  // address of the relay contract which holds the address of the registry contract.\n  address public relayContractAddress;\n\n  // the token address\n  address public tokenContractAddress;\n\n  // this contract version\n  uint public version;\n\n  // the address that is authorized to withdraw eth\n  address private withdrawlAddress;\n\n  event LicenseSale(\n      bytes32 moduleName,\n      bytes32 sellerUsername,\n      address indexed sellerAddress,\n      address indexed buyerAddress,\n      uint price,\n      uint soldAt,\n      uint rewardedTokens,\n      uint networkFee,\n      bytes4 licenseId\n  );\n\n  // ------------------------------------------------------------------------\n  // Constructor\n  // ------------------------------------------------------------------------\n  function LicenseSales() public {\n    version = 1;\n\n    // default token reward of 100 tokens.  \n    // token has 18 decimal places so that's why 100 * 10^18\n    tokenReward = 100 * 10**18;\n\n    // default saleFee of 10%\n    saleFee = 10;\n\n    // default withdrawlAddress is owner\n    withdrawlAddress = msg.sender;\n  }\n\n  // ------------------------------------------------------------------------\n  // Owner can transfer out any accidentally sent ERC20 tokens (just in case)\n  // ------------------------------------------------------------------------\n  function transferAnyERC20Token(address tokenAddress, uint tokens) public onlyOwner returns (bool success) {\n    return ERC20(tokenAddress).transfer(owner, tokens);\n  }\n\n  // ------------------------------------------------------------------------\n  // Owner can transfer out any ETH\n  // ------------------------------------------------------------------------\n  function withdrawEther() public {\n    require(msg.sender == withdrawlAddress);\n    withdrawlAddress.transfer(this.balance);\n  }\n\n  // ------------------------------------------------------------------------\n  // Owner can set address of who can withdraw\n  // ------------------------------------------------------------------------\n  function setWithdrawlAddress(address _withdrawlAddress) public onlyOwner {\n    require(_withdrawlAddress != address(0));\n    withdrawlAddress = _withdrawlAddress;\n  }\n\n  // ------------------------------------------------------------------------\n  // Owner can set address of relay contract\n  // ------------------------------------------------------------------------\n  function setRelayContractAddress(address _relayContractAddress) public onlyOwner {\n    require(_relayContractAddress != address(0));\n    relayContractAddress = _relayContractAddress;\n  }\n\n  // ------------------------------------------------------------------------\n  // Owner can set address of token contract\n  // ------------------------------------------------------------------------\n  function setTokenContractAddress(address _tokenContractAddress) public onlyOwner {\n    require(_tokenContractAddress != address(0));\n    tokenContractAddress = _tokenContractAddress;\n  }\n\n  // ------------------------------------------------------------------------\n  // Owner can set token reward\n  // ------------------------------------------------------------------------\n  function setTokenReward(uint _tokenReward) public onlyOwner {\n    tokenReward = _tokenReward;\n  }\n\n  // ------------------------------------------------------------------------\n  // Owner can set the sale fee\n  // ------------------------------------------------------------------------\n  function setSaleFee(uint _saleFee) public onlyOwner {\n    require(_saleFee > 0);\n    saleFee = _saleFee;\n  }\n\n  // ------------------------------------------------------------------------\n  // Anyone can make a sale if they provide a moduleId\n  // ------------------------------------------------------------------------\n  function makeSale(uint moduleId) public payable {\n    require(moduleId != 0);\n\n    // look up the registry address from relay token\n    Relay relay = Relay(relayContractAddress);\n    address registryAddress = relay.registryContractAddress();\n\n    // get the module info from registry\n    Registry registry = Registry(registryAddress);\n\n    uint price;\n    bytes32 sellerUsername;\n    bytes32 moduleName;\n    address sellerAddress;\n    bytes4 licenseId;\n\n    (price, sellerUsername, moduleName, sellerAddress, licenseId) = registry.getModuleById(moduleId);\n\n    // make sure the customer has sent enough eth\n    require(msg.value >= price);\n\n    // make sure the module is actually valid\n    require(sellerUsername != \"\" && moduleName != \"\" && sellerAddress != address(0) && licenseId != \"\");\n\n    // calculate fee and payout\n    // fixed point math at 2 decimal places\n    uint fee = msg.value.mul(100).div(saleFee).div(100);\n    uint payout = msg.value.sub(fee);\n\n    // log the sale\n    LicenseSale(\n      moduleName,\n      sellerUsername,\n      sellerAddress,\n      msg.sender,\n      price,\n      block.timestamp,\n      tokenReward,\n      fee,\n      licenseId\n    );\n\n    // give seller some tokens for the sale\n    rewardTokens(sellerAddress);\n    \n    // pay seller the ETH\n    sellerAddress.transfer(payout);\n  }\n\n  function rewardTokens(address toReward) private {\n    DeconetToken token = DeconetToken(tokenContractAddress);\n    address tokenOwner = token.owner();\n\n    // check balance of tokenOwner\n    uint tokenOwnerBalance = token.balanceOf(tokenOwner);\n    uint tokenOwnerAllowance = token.allowance(tokenOwner, address(this));\n    if (tokenOwnerBalance >= tokenReward && tokenOwnerAllowance >= tokenReward) {\n      token.transferFrom(tokenOwner, toReward, tokenReward);\n    }\n  }\n}\n",
  "sourcePath": "/Users/chris/Documents/WorkStuff/Deconet/Blockchain/DeconetToken/contracts/LicenseSales.sol",
  "compiler": {
    "name": "solc",
    "version": "0.4.19+commit.c4cbbb05.Emscripten.clang"
  },
  "schemaVersion": "2.0.0",
  "updatedAt": "2018-03-08T03:52:51.398Z"
}