{
  "contractName": "Registry",
  "abi": [
    {
      "constant": false,
      "inputs": [],
      "name": "acceptOwnership",
      "outputs": [],
      "payable": false,
      "stateMutability": "nonpayable",
      "type": "function"
    },
    {
      "constant": true,
      "inputs": [],
      "name": "numModules",
      "outputs": [
        {
          "name": "",
          "type": "uint256"
        }
      ],
      "payable": false,
      "stateMutability": "view",
      "type": "function"
    },
    {
      "constant": true,
      "inputs": [],
      "name": "owner",
      "outputs": [
        {
          "name": "",
          "type": "address"
        }
      ],
      "payable": false,
      "stateMutability": "view",
      "type": "function"
    },
    {
      "constant": true,
      "inputs": [],
      "name": "newOwner",
      "outputs": [
        {
          "name": "",
          "type": "address"
        }
      ],
      "payable": false,
      "stateMutability": "view",
      "type": "function"
    },
    {
      "constant": false,
      "inputs": [
        {
          "name": "_newOwner",
          "type": "address"
        }
      ],
      "name": "transferOwnership",
      "outputs": [],
      "payable": false,
      "stateMutability": "nonpayable",
      "type": "function"
    },
    {
      "inputs": [],
      "payable": false,
      "stateMutability": "nonpayable",
      "type": "constructor"
    },
    {
      "anonymous": false,
      "inputs": [
        {
          "indexed": true,
          "name": "_from",
          "type": "address"
        },
        {
          "indexed": true,
          "name": "_to",
          "type": "address"
        }
      ],
      "name": "OwnershipTransferred",
      "type": "event"
    },
    {
      "constant": false,
      "inputs": [
        {
          "name": "price",
          "type": "uint256"
        },
        {
          "name": "sellerUsername",
          "type": "bytes32"
        },
        {
          "name": "moduleName",
          "type": "bytes32"
        },
        {
          "name": "usernameAndProjectName",
          "type": "string"
        },
        {
          "name": "licenseId",
          "type": "bytes4"
        }
      ],
      "name": "listModule",
      "outputs": [],
      "payable": false,
      "stateMutability": "nonpayable",
      "type": "function"
    },
    {
      "constant": true,
      "inputs": [
        {
          "name": "usernameAndProjectName",
          "type": "string"
        }
      ],
      "name": "getModuleId",
      "outputs": [
        {
          "name": "",
          "type": "uint256"
        }
      ],
      "payable": false,
      "stateMutability": "view",
      "type": "function"
    },
    {
      "constant": true,
      "inputs": [
        {
          "name": "moduleId",
          "type": "uint256"
        }
      ],
      "name": "getModuleById",
      "outputs": [
        {
          "name": "price",
          "type": "uint256"
        },
        {
          "name": "sellerUsername",
          "type": "bytes32"
        },
        {
          "name": "moduleName",
          "type": "bytes32"
        },
        {
          "name": "sellerAddress",
          "type": "address"
        },
        {
          "name": "licenseId",
          "type": "bytes4"
        }
      ],
      "payable": false,
      "stateMutability": "view",
      "type": "function"
    },
    {
      "constant": true,
      "inputs": [
        {
          "name": "usernameAndProjectName",
          "type": "string"
        }
      ],
      "name": "getModuleByName",
      "outputs": [
        {
          "name": "price",
          "type": "uint256"
        },
        {
          "name": "sellerUsername",
          "type": "bytes32"
        },
        {
          "name": "moduleName",
          "type": "bytes32"
        },
        {
          "name": "sellerAddress",
          "type": "address"
        },
        {
          "name": "licenseId",
          "type": "bytes4"
        }
      ],
      "payable": false,
      "stateMutability": "view",
      "type": "function"
    },
    {
      "constant": false,
      "inputs": [
        {
          "name": "moduleId",
          "type": "uint256"
        },
        {
          "name": "price",
          "type": "uint256"
        },
        {
          "name": "sellerAddress",
          "type": "address"
        },
        {
          "name": "licenseId",
          "type": "bytes4"
        }
      ],
      "name": "editModule",
      "outputs": [],
      "payable": false,
      "stateMutability": "nonpayable",
      "type": "function"
    }
  ],
  "bytecode": "0x6060604052341561000f57600080fd5b336000806101000a81548173ffffffffffffffffffffffffffffffffffffffff021916908373ffffffffffffffffffffffffffffffffffffffff1602179055506000600481905550610cc4806100666000396000f3006060604052600436106100a4576000357c0100000000000000000000000000000000000000000000000000000000900463ffffffff168063720ed642146100a957806376e83bcb1461017657806377913fbc1461021e57806379ba50971461028f5780638ac341c6146102a45780638da5cb5b146102cd578063944da65414610322578063d4ee1d9014610395578063f13d22c1146103ea578063f2fde38b146104f1575b600080fd5b34156100b457600080fd5b6100ca600480803590602001909190505061052a565b60405180868152602001856000191660001916815260200184600019166000191681526020018373ffffffffffffffffffffffffffffffffffffffff1673ffffffffffffffffffffffffffffffffffffffff168152602001827bffffffffffffffffffffffffffffffffffffffffffffffffffffffff19167bffffffffffffffffffffffffffffffffffffffffffffffffffffffff191681526020019550505050505060405180910390f35b341561018157600080fd5b61021c6004808035906020019091908035600019169060200190919080356000191690602001909190803590602001908201803590602001908080601f016020809104026020016040519081016040528093929190818152602001838380828437820191505050505050919080357bffffffffffffffffffffffffffffffffffffffffffffffffffffffff19169060200190919050506105be565b005b341561022957600080fd5b610279600480803590602001908201803590602001908080601f0160208091040260200160405190810160405280939291908181526020018383808284378201915050505050509190505061077e565b6040518082815260200191505060405180910390f35b341561029a57600080fd5b6102a26107f3565b005b34156102af57600080fd5b6102b7610992565b6040518082815260200191505060405180910390f35b34156102d857600080fd5b6102e0610998565b604051808273ffffffffffffffffffffffffffffffffffffffff1673ffffffffffffffffffffffffffffffffffffffff16815260200191505060405180910390f35b341561032d57600080fd5b610393600480803590602001909190803590602001909190803573ffffffffffffffffffffffffffffffffffffffff169060200190919080357bffffffffffffffffffffffffffffffffffffffffffffffffffffffff19169060200190919050506109bd565b005b34156103a057600080fd5b6103a8610abf565b604051808273ffffffffffffffffffffffffffffffffffffffff1673ffffffffffffffffffffffffffffffffffffffff16815260200191505060405180910390f35b34156103f557600080fd5b610445600480803590602001908201803590602001908080601f01602080910402602001604051908101604052809392919081815260200183838082843782019150505050505091905050610ae5565b60405180868152602001856000191660001916815260200184600019166000191681526020018373ffffffffffffffffffffffffffffffffffffffff1673ffffffffffffffffffffffffffffffffffffffff168152602001827bffffffffffffffffffffffffffffffffffffffffffffffffffffffff19167bffffffffffffffffffffffffffffffffffffffffffffffffffffffff191681526020019550505050505060405180910390f35b34156104fc57600080fd5b610528600480803573ffffffffffffffffffffffffffffffffffffffff16906020019091905050610bf9565b005b6000806000806000806003600088815260200190815260200160002090508060000154955080600101549450806002015493508060030160009054906101000a900473ffffffffffffffffffffffffffffffffffffffff1692508060030160149054906101000a90047c01000000000000000000000000000000000000000000000000000000000291505091939590929450565b6000806002846040518082805190602001908083835b6020831015156105f957805182526020820191506020810190506020830392506105d4565b6001836020036101000a03801982511681845116808217855250505050505090500191505090815260200160405180910390205414151561063957600080fd5b60016004600082825401925050819055506004546002846040518082805190602001908083835b6020831015156106855780518252602082019150602081019050602083039250610660565b6001836020036101000a03801982511681845116808217855250505050505090500191505090815260200160405180910390208190555060036000600454815260200190815260200160002090508581600001819055508481600101816000191690555083816002018160001916905550338160030160006101000a81548173ffffffffffffffffffffffffffffffffffffffff021916908373ffffffffffffffffffffffffffffffffffffffff160217905550818160030160146101000a81548163ffffffff02191690837c010000000000000000000000000000000000000000000000000000000090040217905550505050505050565b60006002826040518082805190602001908083835b6020831015156107b85780518252602082019150602081019050602083039250610793565b6001836020036101000a0380198251168184511680821785525050505050509050019150509081526020016040518091039020549050919050565b600160009054906101000a900473ffffffffffffffffffffffffffffffffffffffff1673ffffffffffffffffffffffffffffffffffffffff163373ffffffffffffffffffffffffffffffffffffffff1614151561084f57600080fd5b600160009054906101000a900473ffffffffffffffffffffffffffffffffffffffff1673ffffffffffffffffffffffffffffffffffffffff166000809054906101000a900473ffffffffffffffffffffffffffffffffffffffff1673ffffffffffffffffffffffffffffffffffffffff167f8be0079c531659141344cd1fd0a4f28419497f9722a3daafe3b4186f6b6457e060405160405180910390a3600160009054906101000a900473ffffffffffffffffffffffffffffffffffffffff166000806101000a81548173ffffffffffffffffffffffffffffffffffffffff021916908373ffffffffffffffffffffffffffffffffffffffff1602179055506000600160006101000a81548173ffffffffffffffffffffffffffffffffffffffff021916908373ffffffffffffffffffffffffffffffffffffffff160217905550565b60045481565b6000809054906101000a900473ffffffffffffffffffffffffffffffffffffffff1681565b60008060009054906101000a900473ffffffffffffffffffffffffffffffffffffffff1673ffffffffffffffffffffffffffffffffffffffff163373ffffffffffffffffffffffffffffffffffffffff16141515610a1a57600080fd5b600360008681526020019081526020016000209050838160000181905550828160030160006101000a81548173ffffffffffffffffffffffffffffffffffffffff021916908373ffffffffffffffffffffffffffffffffffffffff160217905550818160030160146101000a81548163ffffffff02191690837c0100000000000000000000000000000000000000000000000000000000900402179055505050505050565b600160009054906101000a900473ffffffffffffffffffffffffffffffffffffffff1681565b60008060008060008060006002886040518082805190602001908083835b602083101515610b285780518252602082019150602081019050602083039250610b03565b6001836020036101000a03801982511681845116808217855250505050505090500191505090815260200160405180910390205491506000821415610b6c57610bee565b6003600083815260200190815260200160002090508060000154965080600101549550806002015494508060030160009054906101000a900473ffffffffffffffffffffffffffffffffffffffff1693508060030160149054906101000a90047c01000000000000000000000000000000000000000000000000000000000292505b505091939590929450565b6000809054906101000a900473ffffffffffffffffffffffffffffffffffffffff1673ffffffffffffffffffffffffffffffffffffffff163373ffffffffffffffffffffffffffffffffffffffff16141515610c5457600080fd5b80600160006101000a81548173ffffffffffffffffffffffffffffffffffffffff021916908373ffffffffffffffffffffffffffffffffffffffff160217905550505600a165627a7a72305820d1791067bb8aed08f74ed95173bf0cb25e128c56465132127b9673b22ce7ef150029",
  "source": "pragma solidity ^0.4.19;\n\nimport \"./Owned.sol\";\n\ncontract Registry is Owned {\n\n  struct ModuleForSale {\n      uint price;\n      bytes32 sellerUsername;\n      bytes32 moduleName;\n      address sellerAddress;\n      bytes4 licenseId;\n  }\n\n  mapping(string => uint) moduleIds;\n  mapping(uint => ModuleForSale) modules;\n\n  uint public numModules;\n\n  // ------------------------------------------------------------------------\n  // Constructor, establishes ownership because contract is owned\n  // ------------------------------------------------------------------------\n  function Registry() public {\n    numModules = 0;\n  }\n\n  function listModule(uint price, bytes32 sellerUsername, bytes32 moduleName, string usernameAndProjectName, bytes4 licenseId) public {\n    // make sure the name isn't already taken\n    require(moduleIds[usernameAndProjectName] == 0);\n\n    numModules += 1;\n    moduleIds[usernameAndProjectName] = numModules;\n\n    var module = modules[numModules];\n\n    module.price = price;\n    module.sellerUsername = sellerUsername;\n    module.moduleName = moduleName;\n    module.sellerAddress = msg.sender;\n    module.licenseId = licenseId;\n  }\n\n  function getModuleId(string usernameAndProjectName) public view returns (uint) {\n    return moduleIds[usernameAndProjectName];\n  }\n\n  function getModuleById(uint moduleId) public view returns (uint price, bytes32 sellerUsername, bytes32 moduleName, address sellerAddress, bytes4 licenseId) {\n    var module = modules[moduleId];\n\n    price = module.price;\n    sellerUsername = module.sellerUsername;\n    moduleName = module.moduleName;\n    sellerAddress = module.sellerAddress;\n    licenseId = module.licenseId;\n  }\n\n  function getModuleByName(string usernameAndProjectName) public view returns (uint price, bytes32 sellerUsername, bytes32 moduleName, address sellerAddress, bytes4 licenseId) {\n    var moduleId = moduleIds[usernameAndProjectName];\n    if (moduleId == 0) {\n      return;\n    }\n    var module = modules[moduleId];\n\n    price = module.price;\n    sellerUsername = module.sellerUsername;\n    moduleName = module.moduleName;\n    sellerAddress = module.sellerAddress;\n    licenseId = module.licenseId;\n  }\n\n\n  function editModule(uint moduleId, uint price, address sellerAddress, bytes4 licenseId) public onlyOwner {\n    var module = modules[moduleId];\n\n    module.price = price;\n    module.sellerAddress = sellerAddress;\n    module.licenseId = licenseId;\n  }\n}",
  "sourcePath": "/Users/chris/Documents/WorkStuff/Deconet/Blockchain/DeconetToken/contracts/Registry.sol",
  "compiler": {
    "name": "solc",
    "version": "0.4.19+commit.c4cbbb05.Emscripten.clang"
  },
  "schemaVersion": "1.0.1",
  "updatedAt": "2018-02-22T03:23:34.151Z"
}