{
  "contractName": "Registry",
  "abi": [
    {
      "constant": true,
      "inputs": [],
      "name": "version",
      "outputs": [
        {
          "name": "",
          "type": "uint256"
        }
      ],
      "payable": false,
      "stateMutability": "view",
      "type": "function"
    },
    {
      "constant": false,
      "inputs": [],
      "name": "acceptOwnership",
      "outputs": [],
      "payable": false,
      "stateMutability": "nonpayable",
      "type": "function"
    },
    {
      "constant": true,
      "inputs": [],
      "name": "numModules",
      "outputs": [
        {
          "name": "",
          "type": "uint256"
        }
      ],
      "payable": false,
      "stateMutability": "view",
      "type": "function"
    },
    {
      "constant": true,
      "inputs": [],
      "name": "owner",
      "outputs": [
        {
          "name": "",
          "type": "address"
        }
      ],
      "payable": false,
      "stateMutability": "view",
      "type": "function"
    },
    {
      "constant": true,
      "inputs": [],
      "name": "newOwner",
      "outputs": [
        {
          "name": "",
          "type": "address"
        }
      ],
      "payable": false,
      "stateMutability": "view",
      "type": "function"
    },
    {
      "constant": false,
      "inputs": [
        {
          "name": "_newOwner",
          "type": "address"
        }
      ],
      "name": "transferOwnership",
      "outputs": [],
      "payable": false,
      "stateMutability": "nonpayable",
      "type": "function"
    },
    {
      "inputs": [],
      "payable": false,
      "stateMutability": "nonpayable",
      "type": "constructor"
    },
    {
      "anonymous": false,
      "inputs": [
        {
          "indexed": true,
          "name": "_from",
          "type": "address"
        },
        {
          "indexed": true,
          "name": "_to",
          "type": "address"
        }
      ],
      "name": "OwnershipTransferred",
      "type": "event"
    },
    {
      "constant": false,
      "inputs": [
        {
          "name": "price",
          "type": "uint256"
        },
        {
          "name": "sellerUsername",
          "type": "bytes32"
        },
        {
          "name": "moduleName",
          "type": "bytes32"
        },
        {
          "name": "usernameAndProjectName",
          "type": "string"
        },
        {
          "name": "licenseId",
          "type": "bytes4"
        }
      ],
      "name": "listModule",
      "outputs": [],
      "payable": false,
      "stateMutability": "nonpayable",
      "type": "function"
    },
    {
      "constant": true,
      "inputs": [
        {
          "name": "usernameAndProjectName",
          "type": "string"
        }
      ],
      "name": "getModuleId",
      "outputs": [
        {
          "name": "",
          "type": "uint256"
        }
      ],
      "payable": false,
      "stateMutability": "view",
      "type": "function"
    },
    {
      "constant": true,
      "inputs": [
        {
          "name": "moduleId",
          "type": "uint256"
        }
      ],
      "name": "getModuleById",
      "outputs": [
        {
          "name": "price",
          "type": "uint256"
        },
        {
          "name": "sellerUsername",
          "type": "bytes32"
        },
        {
          "name": "moduleName",
          "type": "bytes32"
        },
        {
          "name": "sellerAddress",
          "type": "address"
        },
        {
          "name": "licenseId",
          "type": "bytes4"
        }
      ],
      "payable": false,
      "stateMutability": "view",
      "type": "function"
    },
    {
      "constant": true,
      "inputs": [
        {
          "name": "usernameAndProjectName",
          "type": "string"
        }
      ],
      "name": "getModuleByName",
      "outputs": [
        {
          "name": "price",
          "type": "uint256"
        },
        {
          "name": "sellerUsername",
          "type": "bytes32"
        },
        {
          "name": "moduleName",
          "type": "bytes32"
        },
        {
          "name": "sellerAddress",
          "type": "address"
        },
        {
          "name": "licenseId",
          "type": "bytes4"
        }
      ],
      "payable": false,
      "stateMutability": "view",
      "type": "function"
    },
    {
      "constant": false,
      "inputs": [
        {
          "name": "moduleId",
          "type": "uint256"
        },
        {
          "name": "price",
          "type": "uint256"
        },
        {
          "name": "sellerAddress",
          "type": "address"
        },
        {
          "name": "licenseId",
          "type": "bytes4"
        }
      ],
      "name": "editModule",
      "outputs": [],
      "payable": false,
      "stateMutability": "nonpayable",
      "type": "function"
    }
  ],
  "bytecode": "0x6060604052341561000f57600080fd5b336000806101000a81548173ffffffffffffffffffffffffffffffffffffffff021916908373ffffffffffffffffffffffffffffffffffffffff16021790555060006004819055506001600581905550610d668061006e6000396000f3006060604052600436106100af576000357c0100000000000000000000000000000000000000000000000000000000900463ffffffff16806354fd4d50146100b4578063720ed642146100dd57806376e83bcb146101aa57806377913fbc1461025257806379ba5097146102c35780638ac341c6146102d85780638da5cb5b14610301578063944da65414610356578063d4ee1d90146103c9578063f13d22c11461041e578063f2fde38b14610525575b600080fd5b34156100bf57600080fd5b6100c761055e565b6040518082815260200191505060405180910390f35b34156100e857600080fd5b6100fe6004808035906020019091905050610564565b60405180868152602001856000191660001916815260200184600019166000191681526020018373ffffffffffffffffffffffffffffffffffffffff1673ffffffffffffffffffffffffffffffffffffffff168152602001827bffffffffffffffffffffffffffffffffffffffffffffffffffffffff19167bffffffffffffffffffffffffffffffffffffffffffffffffffffffff191681526020019550505050505060405180910390f35b34156101b557600080fd5b6102506004808035906020019091908035600019169060200190919080356000191690602001909190803590602001908201803590602001908080601f016020809104026020016040519081016040528093929190818152602001838380828437820191505050505050919080357bffffffffffffffffffffffffffffffffffffffffffffffffffffffff19169060200190919050506105f8565b005b341561025d57600080fd5b6102ad600480803590602001908201803590602001908080601f016020809104026020016040519081016040528093929190818152602001838380828437820191505050505050919050506107b8565b6040518082815260200191505060405180910390f35b34156102ce57600080fd5b6102d661082d565b005b34156102e357600080fd5b6102eb6109cc565b6040518082815260200191505060405180910390f35b341561030c57600080fd5b6103146109d2565b604051808273ffffffffffffffffffffffffffffffffffffffff1673ffffffffffffffffffffffffffffffffffffffff16815260200191505060405180910390f35b341561036157600080fd5b6103c7600480803590602001909190803590602001909190803573ffffffffffffffffffffffffffffffffffffffff169060200190919080357bffffffffffffffffffffffffffffffffffffffffffffffffffffffff19169060200190919050506109f7565b005b34156103d457600080fd5b6103dc610b61565b604051808273ffffffffffffffffffffffffffffffffffffffff1673ffffffffffffffffffffffffffffffffffffffff16815260200191505060405180910390f35b341561042957600080fd5b610479600480803590602001908201803590602001908080601f01602080910402602001604051908101604052809392919081815260200183838082843782019150505050505091905050610b87565b60405180868152602001856000191660001916815260200184600019166000191681526020018373ffffffffffffffffffffffffffffffffffffffff1673ffffffffffffffffffffffffffffffffffffffff168152602001827bffffffffffffffffffffffffffffffffffffffffffffffffffffffff19167bffffffffffffffffffffffffffffffffffffffffffffffffffffffff191681526020019550505050505060405180910390f35b341561053057600080fd5b61055c600480803573ffffffffffffffffffffffffffffffffffffffff16906020019091905050610c9b565b005b60055481565b6000806000806000806003600088815260200190815260200160002090508060000154955080600101549450806002015493508060030160009054906101000a900473ffffffffffffffffffffffffffffffffffffffff1692508060030160149054906101000a90047c01000000000000000000000000000000000000000000000000000000000291505091939590929450565b6000806002846040518082805190602001908083835b602083101515610633578051825260208201915060208101905060208303925061060e565b6001836020036101000a03801982511681845116808217855250505050505090500191505090815260200160405180910390205414151561067357600080fd5b60016004600082825401925050819055506004546002846040518082805190602001908083835b6020831015156106bf578051825260208201915060208101905060208303925061069a565b6001836020036101000a03801982511681845116808217855250505050505090500191505090815260200160405180910390208190555060036000600454815260200190815260200160002090508581600001819055508481600101816000191690555083816002018160001916905550338160030160006101000a81548173ffffffffffffffffffffffffffffffffffffffff021916908373ffffffffffffffffffffffffffffffffffffffff160217905550818160030160146101000a81548163ffffffff02191690837c010000000000000000000000000000000000000000000000000000000090040217905550505050505050565b60006002826040518082805190602001908083835b6020831015156107f257805182526020820191506020810190506020830392506107cd565b6001836020036101000a0380198251168184511680821785525050505050509050019150509081526020016040518091039020549050919050565b600160009054906101000a900473ffffffffffffffffffffffffffffffffffffffff1673ffffffffffffffffffffffffffffffffffffffff163373ffffffffffffffffffffffffffffffffffffffff1614151561088957600080fd5b600160009054906101000a900473ffffffffffffffffffffffffffffffffffffffff1673ffffffffffffffffffffffffffffffffffffffff166000809054906101000a900473ffffffffffffffffffffffffffffffffffffffff1673ffffffffffffffffffffffffffffffffffffffff167f8be0079c531659141344cd1fd0a4f28419497f9722a3daafe3b4186f6b6457e060405160405180910390a3600160009054906101000a900473ffffffffffffffffffffffffffffffffffffffff166000806101000a81548173ffffffffffffffffffffffffffffffffffffffff021916908373ffffffffffffffffffffffffffffffffffffffff1602179055506000600160006101000a81548173ffffffffffffffffffffffffffffffffffffffff021916908373ffffffffffffffffffffffffffffffffffffffff160217905550565b60045481565b6000809054906101000a900473ffffffffffffffffffffffffffffffffffffffff1681565b60008085111515610a0757600080fd5b6003600086815260200190815260200160002090508060030160009054906101000a900473ffffffffffffffffffffffffffffffffffffffff1673ffffffffffffffffffffffffffffffffffffffff163373ffffffffffffffffffffffffffffffffffffffff161480610ac657506000809054906101000a900473ffffffffffffffffffffffffffffffffffffffff1673ffffffffffffffffffffffffffffffffffffffff163373ffffffffffffffffffffffffffffffffffffffff16145b1515610ad157600080fd5b838160000181905550828160030160006101000a81548173ffffffffffffffffffffffffffffffffffffffff021916908373ffffffffffffffffffffffffffffffffffffffff160217905550818160030160146101000a81548163ffffffff02191690837c0100000000000000000000000000000000000000000000000000000000900402179055505050505050565b600160009054906101000a900473ffffffffffffffffffffffffffffffffffffffff1681565b60008060008060008060006002886040518082805190602001908083835b602083101515610bca5780518252602082019150602081019050602083039250610ba5565b6001836020036101000a03801982511681845116808217855250505050505090500191505090815260200160405180910390205491506000821415610c0e57610c90565b6003600083815260200190815260200160002090508060000154965080600101549550806002015494508060030160009054906101000a900473ffffffffffffffffffffffffffffffffffffffff1693508060030160149054906101000a90047c01000000000000000000000000000000000000000000000000000000000292505b505091939590929450565b6000809054906101000a900473ffffffffffffffffffffffffffffffffffffffff1673ffffffffffffffffffffffffffffffffffffffff163373ffffffffffffffffffffffffffffffffffffffff16141515610cf657600080fd5b80600160006101000a81548173ffffffffffffffffffffffffffffffffffffffff021916908373ffffffffffffffffffffffffffffffffffffffff160217905550505600a165627a7a72305820ffcb1c4b9df018af163a4a265dba2d14b896436f52bd49f72c53500c9abe91950029",
  "source": "pragma solidity ^0.4.19;\n\nimport \"./Owned.sol\";\n\ncontract Registry is Owned {\n\n  struct ModuleForSale {\n      uint price;\n      bytes32 sellerUsername;\n      bytes32 moduleName;\n      address sellerAddress;\n      bytes4 licenseId;\n  }\n\n  mapping(string => uint) moduleIds;\n  mapping(uint => ModuleForSale) modules;\n\n  uint public numModules;\n  uint public version;\n\n  // ------------------------------------------------------------------------\n  // Constructor, establishes ownership because contract is owned\n  // ------------------------------------------------------------------------\n  function Registry() public {\n    numModules = 0;\n    version = 1;\n  }\n\n  function listModule(uint price, bytes32 sellerUsername, bytes32 moduleName, string usernameAndProjectName, bytes4 licenseId) public {\n    // make sure the name isn't already taken\n    require(moduleIds[usernameAndProjectName] == 0);\n\n    numModules += 1;\n    moduleIds[usernameAndProjectName] = numModules;\n\n    var module = modules[numModules];\n\n    module.price = price;\n    module.sellerUsername = sellerUsername;\n    module.moduleName = moduleName;\n    module.sellerAddress = msg.sender;\n    module.licenseId = licenseId;\n  }\n\n  function getModuleId(string usernameAndProjectName) public view returns (uint) {\n    return moduleIds[usernameAndProjectName];\n  }\n\n  function getModuleById(uint moduleId) public view returns (uint price, bytes32 sellerUsername, bytes32 moduleName, address sellerAddress, bytes4 licenseId) {\n    var module = modules[moduleId];\n\n    price = module.price;\n    sellerUsername = module.sellerUsername;\n    moduleName = module.moduleName;\n    sellerAddress = module.sellerAddress;\n    licenseId = module.licenseId;\n  }\n\n  function getModuleByName(string usernameAndProjectName) public view returns (uint price, bytes32 sellerUsername, bytes32 moduleName, address sellerAddress, bytes4 licenseId) {\n    var moduleId = moduleIds[usernameAndProjectName];\n    if (moduleId == 0) {\n      return;\n    }\n    var module = modules[moduleId];\n\n    price = module.price;\n    sellerUsername = module.sellerUsername;\n    moduleName = module.moduleName;\n    sellerAddress = module.sellerAddress;\n    licenseId = module.licenseId;\n  }\n\n\n  function editModule(uint moduleId, uint price, address sellerAddress, bytes4 licenseId) public {\n    require(moduleId > 0);\n\n    var module = modules[moduleId];\n\n    // require that sender is the original module lister, or the contract owner\n    // the contract owner clause lets us recover a module listing if a dev loses access to their privkey\n    require(msg.sender == module.sellerAddress || msg.sender == owner);\n\n    module.price = price;\n    module.sellerAddress = sellerAddress;\n    module.licenseId = licenseId;\n  }\n}",
  "sourcePath": "/Users/chris/Documents/WorkStuff/Deconet/Blockchain/DeconetToken/contracts/Registry.sol",
  "compiler": {
    "name": "solc",
    "version": "0.4.19+commit.c4cbbb05.Emscripten.clang"
  },
  "schemaVersion": "1.0.1",
  "updatedAt": "2018-02-26T20:14:54.664Z"
}