{
  "contractName": "Registry",
  "abi": [
    {
      "constant": true,
      "inputs": [],
      "name": "version",
      "outputs": [
        {
          "name": "",
          "type": "uint256"
        }
      ],
      "payable": false,
      "stateMutability": "view",
      "type": "function"
    },
    {
      "constant": true,
      "inputs": [
        {
          "name": "",
          "type": "uint256"
        }
      ],
      "name": "modules",
      "outputs": [
        {
          "name": "price",
          "type": "uint256"
        },
        {
          "name": "sellerUsername",
          "type": "bytes32"
        },
        {
          "name": "moduleName",
          "type": "bytes32"
        },
        {
          "name": "sellerAddress",
          "type": "address"
        },
        {
          "name": "licenseId",
          "type": "bytes4"
        }
      ],
      "payable": false,
      "stateMutability": "view",
      "type": "function"
    },
    {
      "constant": true,
      "inputs": [],
      "name": "numModules",
      "outputs": [
        {
          "name": "",
          "type": "uint256"
        }
      ],
      "payable": false,
      "stateMutability": "view",
      "type": "function"
    },
    {
      "constant": true,
      "inputs": [],
      "name": "owner",
      "outputs": [
        {
          "name": "",
          "type": "address"
        }
      ],
      "payable": false,
      "stateMutability": "view",
      "type": "function"
    },
    {
      "constant": false,
      "inputs": [
        {
          "name": "newOwner",
          "type": "address"
        }
      ],
      "name": "transferOwnership",
      "outputs": [],
      "payable": false,
      "stateMutability": "nonpayable",
      "type": "function"
    },
    {
      "inputs": [],
      "payable": false,
      "stateMutability": "nonpayable",
      "type": "constructor"
    },
    {
      "anonymous": false,
      "inputs": [
        {
          "indexed": true,
          "name": "previousOwner",
          "type": "address"
        },
        {
          "indexed": true,
          "name": "newOwner",
          "type": "address"
        }
      ],
      "name": "OwnershipTransferred",
      "type": "event"
    },
    {
      "constant": false,
      "inputs": [
        {
          "name": "tokenAddress",
          "type": "address"
        },
        {
          "name": "tokens",
          "type": "uint256"
        }
      ],
      "name": "transferAnyERC20Token",
      "outputs": [
        {
          "name": "success",
          "type": "bool"
        }
      ],
      "payable": false,
      "stateMutability": "nonpayable",
      "type": "function"
    },
    {
      "constant": false,
      "inputs": [
        {
          "name": "price",
          "type": "uint256"
        },
        {
          "name": "sellerUsername",
          "type": "bytes32"
        },
        {
          "name": "moduleName",
          "type": "bytes32"
        },
        {
          "name": "usernameAndProjectName",
          "type": "string"
        },
        {
          "name": "licenseId",
          "type": "bytes4"
        }
      ],
      "name": "listModule",
      "outputs": [],
      "payable": false,
      "stateMutability": "nonpayable",
      "type": "function"
    },
    {
      "constant": true,
      "inputs": [
        {
          "name": "usernameAndProjectName",
          "type": "string"
        }
      ],
      "name": "getModuleId",
      "outputs": [
        {
          "name": "",
          "type": "uint256"
        }
      ],
      "payable": false,
      "stateMutability": "view",
      "type": "function"
    },
    {
      "constant": true,
      "inputs": [
        {
          "name": "moduleId",
          "type": "uint256"
        }
      ],
      "name": "getModuleById",
      "outputs": [
        {
          "name": "price",
          "type": "uint256"
        },
        {
          "name": "sellerUsername",
          "type": "bytes32"
        },
        {
          "name": "moduleName",
          "type": "bytes32"
        },
        {
          "name": "sellerAddress",
          "type": "address"
        },
        {
          "name": "licenseId",
          "type": "bytes4"
        }
      ],
      "payable": false,
      "stateMutability": "view",
      "type": "function"
    },
    {
      "constant": true,
      "inputs": [
        {
          "name": "usernameAndProjectName",
          "type": "string"
        }
      ],
      "name": "getModuleByName",
      "outputs": [
        {
          "name": "price",
          "type": "uint256"
        },
        {
          "name": "sellerUsername",
          "type": "bytes32"
        },
        {
          "name": "moduleName",
          "type": "bytes32"
        },
        {
          "name": "sellerAddress",
          "type": "address"
        },
        {
          "name": "licenseId",
          "type": "bytes4"
        }
      ],
      "payable": false,
      "stateMutability": "view",
      "type": "function"
    },
    {
      "constant": false,
      "inputs": [
        {
          "name": "moduleId",
          "type": "uint256"
        },
        {
          "name": "price",
          "type": "uint256"
        },
        {
          "name": "sellerAddress",
          "type": "address"
        },
        {
          "name": "licenseId",
          "type": "bytes4"
        }
      ],
      "name": "editModule",
      "outputs": [],
      "payable": false,
      "stateMutability": "nonpayable",
      "type": "function"
    }
  ],
  "bytecode": "0x6060604052341561000f57600080fd5b336000806101000a81548173ffffffffffffffffffffffffffffffffffffffff021916908373ffffffffffffffffffffffffffffffffffffffff1602179055506000600381905550600160048190555061116e8061006e6000396000f3006060604052600436106100af576000357c0100000000000000000000000000000000000000000000000000000000900463ffffffff16806354fd4d50146100b4578063720ed642146100dd57806376e83bcb146101aa57806377913fbc1461025257806381b2248a146102c35780638ac341c6146103905780638da5cb5b146103b9578063944da6541461040e578063dc39d06d14610481578063f13d22c1146104db578063f2fde38b146105e2575b600080fd5b34156100bf57600080fd5b6100c761061b565b6040518082815260200191505060405180910390f35b34156100e857600080fd5b6100fe6004808035906020019091905050610621565b60405180868152602001856000191660001916815260200184600019166000191681526020018373ffffffffffffffffffffffffffffffffffffffff1673ffffffffffffffffffffffffffffffffffffffff168152602001827bffffffffffffffffffffffffffffffffffffffffffffffffffffffff19167bffffffffffffffffffffffffffffffffffffffffffffffffffffffff191681526020019550505050505060405180910390f35b34156101b557600080fd5b6102506004808035906020019091908035600019169060200190919080356000191690602001909190803590602001908201803590602001908080601f016020809104026020016040519081016040528093929190818152602001838380828437820191505050505050919080357bffffffffffffffffffffffffffffffffffffffffffffffffffffffff1916906020019091905050610714565b005b341561025d57600080fd5b6102ad600480803590602001908201803590602001908080601f0160208091040260200160405190810160405280939291908181526020018383808284378201915050505050509190505061095f565b6040518082815260200191505060405180910390f35b34156102ce57600080fd5b6102e460048080359060200190919050506109d4565b60405180868152602001856000191660001916815260200184600019166000191681526020018373ffffffffffffffffffffffffffffffffffffffff1673ffffffffffffffffffffffffffffffffffffffff168152602001827bffffffffffffffffffffffffffffffffffffffffffffffffffffffff19167bffffffffffffffffffffffffffffffffffffffffffffffffffffffff191681526020019550505050505060405180910390f35b341561039b57600080fd5b6103a3610a53565b6040518082815260200191505060405180910390f35b34156103c457600080fd5b6103cc610a59565b604051808273ffffffffffffffffffffffffffffffffffffffff1673ffffffffffffffffffffffffffffffffffffffff16815260200191505060405180910390f35b341561041957600080fd5b61047f600480803590602001909190803590602001909190803573ffffffffffffffffffffffffffffffffffffffff169060200190919080357bffffffffffffffffffffffffffffffffffffffffffffffffffffffff1916906020019091905050610a7e565b005b341561048c57600080fd5b6104c1600480803573ffffffffffffffffffffffffffffffffffffffff16906020019091908035906020019091905050610d8d565b604051808215151515815260200191505060405180910390f35b34156104e657600080fd5b610536600480803590602001908201803590602001908080601f01602080910402602001604051908101604052809392919081815260200183838082843782019150505050505091905050610ed9565b60405180868152602001856000191660001916815260200184600019166000191681526020018373ffffffffffffffffffffffffffffffffffffffff1673ffffffffffffffffffffffffffffffffffffffff168152602001827bffffffffffffffffffffffffffffffffffffffffffffffffffffffff19167bffffffffffffffffffffffffffffffffffffffffffffffffffffffff191681526020019550505050505060405180910390f35b34156105ed57600080fd5b610619600480803573ffffffffffffffffffffffffffffffffffffffff16906020019091905050610fed565b005b60045481565b600080600080600080600260008881526020019081526020016000209050600073ffffffffffffffffffffffffffffffffffffffff168160030160009054906101000a900473ffffffffffffffffffffffffffffffffffffffff1673ffffffffffffffffffffffffffffffffffffffff16141561069d5761070a565b8060000154955080600101549450806002015493508060030160009054906101000a900473ffffffffffffffffffffffffffffffffffffffff1692508060030160149054906101000a90047c01000000000000000000000000000000000000000000000000000000000291505b5091939590929450565b600080861415801561072b57506000856000191614155b801561073c57506000846000191614155b801561074a57506000835114155b8015610795575060007c010000000000000000000000000000000000000000000000000000000002827bffffffffffffffffffffffffffffffffffffffffffffffffffffffff191614155b15156107a057600080fd5b60006001846040518082805190602001908083835b6020831015156107da57805182526020820191506020810190506020830392506107b5565b6001836020036101000a03801982511681845116808217855250505050505090500191505090815260200160405180910390205414151561081a57600080fd5b60016003600082825401925050819055506003546001846040518082805190602001908083835b6020831015156108665780518252602082019150602081019050602083039250610841565b6001836020036101000a03801982511681845116808217855250505050505090500191505090815260200160405180910390208190555060026000600354815260200190815260200160002090508581600001819055508481600101816000191690555083816002018160001916905550338160030160006101000a81548173ffffffffffffffffffffffffffffffffffffffff021916908373ffffffffffffffffffffffffffffffffffffffff160217905550818160030160146101000a81548163ffffffff02191690837c010000000000000000000000000000000000000000000000000000000090040217905550505050505050565b60006001826040518082805190602001908083835b6020831015156109995780518252602082019150602081019050602083039250610974565b6001836020036101000a0380198251168184511680821785525050505050509050019150509081526020016040518091039020549050919050565b60026020528060005260406000206000915090508060000154908060010154908060020154908060030160009054906101000a900473ffffffffffffffffffffffffffffffffffffffff16908060030160149054906101000a90047c010000000000000000000000000000000000000000000000000000000002905085565b60035481565b6000809054906101000a900473ffffffffffffffffffffffffffffffffffffffff1681565b6000808514158015610a91575060008414155b8015610aca5750600073ffffffffffffffffffffffffffffffffffffffff168373ffffffffffffffffffffffffffffffffffffffff1614155b8015610b15575060007c010000000000000000000000000000000000000000000000000000000002827bffffffffffffffffffffffffffffffffffffffffffffffffffffffff191614155b1515610b2057600080fd5b6002600086815260200190815260200160002090506000816000015414158015610b535750600081600101546000191614155b8015610b685750600081600201546000191614155b8015610be0575060007c0100000000000000000000000000000000000000000000000000000000028160030160149054906101000a90047c0100000000000000000000000000000000000000000000000000000000027bffffffffffffffffffffffffffffffffffffffffffffffffffffffff191614155b8015610c3d5750600073ffffffffffffffffffffffffffffffffffffffff168160030160009054906101000a900473ffffffffffffffffffffffffffffffffffffffff1673ffffffffffffffffffffffffffffffffffffffff1614155b1515610c4857600080fd5b8060030160009054906101000a900473ffffffffffffffffffffffffffffffffffffffff1673ffffffffffffffffffffffffffffffffffffffff163373ffffffffffffffffffffffffffffffffffffffff161480610cf257506000809054906101000a900473ffffffffffffffffffffffffffffffffffffffff1673ffffffffffffffffffffffffffffffffffffffff163373ffffffffffffffffffffffffffffffffffffffff16145b1515610cfd57600080fd5b838160000181905550828160030160006101000a81548173ffffffffffffffffffffffffffffffffffffffff021916908373ffffffffffffffffffffffffffffffffffffffff160217905550818160030160146101000a81548163ffffffff02191690837c0100000000000000000000000000000000000000000000000000000000900402179055505050505050565b60008060009054906101000a900473ffffffffffffffffffffffffffffffffffffffff1673ffffffffffffffffffffffffffffffffffffffff163373ffffffffffffffffffffffffffffffffffffffff16141515610dea57600080fd5b8273ffffffffffffffffffffffffffffffffffffffff1663a9059cbb6000809054906101000a900473ffffffffffffffffffffffffffffffffffffffff16846000604051602001526040518363ffffffff167c0100000000000000000000000000000000000000000000000000000000028152600401808373ffffffffffffffffffffffffffffffffffffffff1673ffffffffffffffffffffffffffffffffffffffff16815260200182815260200192505050602060405180830381600087803b1515610eb657600080fd5b6102c65a03f11515610ec757600080fd5b50505060405180519050905092915050565b60008060008060008060006001886040518082805190602001908083835b602083101515610f1c5780518252602082019150602081019050602083039250610ef7565b6001836020036101000a03801982511681845116808217855250505050505090500191505090815260200160405180910390205491506000821415610f6057610fe2565b6002600083815260200190815260200160002090508060000154965080600101549550806002015494508060030160009054906101000a900473ffffffffffffffffffffffffffffffffffffffff1693508060030160149054906101000a90047c01000000000000000000000000000000000000000000000000000000000292505b505091939590929450565b6000809054906101000a900473ffffffffffffffffffffffffffffffffffffffff1673ffffffffffffffffffffffffffffffffffffffff163373ffffffffffffffffffffffffffffffffffffffff1614151561104857600080fd5b600073ffffffffffffffffffffffffffffffffffffffff168173ffffffffffffffffffffffffffffffffffffffff161415151561108457600080fd5b8073ffffffffffffffffffffffffffffffffffffffff166000809054906101000a900473ffffffffffffffffffffffffffffffffffffffff1673ffffffffffffffffffffffffffffffffffffffff167f8be0079c531659141344cd1fd0a4f28419497f9722a3daafe3b4186f6b6457e060405160405180910390a3806000806101000a81548173ffffffffffffffffffffffffffffffffffffffff021916908373ffffffffffffffffffffffffffffffffffffffff160217905550505600a165627a7a723058208d5b7a1fbd9377522bebaaf25d54b0dadb6c10174b06b7fb76702ea92f640df90029",
  "source": "pragma solidity 0.4.19;\n\nimport \"zeppelin-solidity/contracts/ownership/Ownable.sol\";\nimport \"zeppelin-solidity/contracts/token/ERC20/ERC20.sol\";\n\ncontract Registry is Ownable {\n\n  struct ModuleForSale {\n    uint price;\n    bytes32 sellerUsername;\n    bytes32 moduleName;\n    address sellerAddress;\n    bytes4 licenseId;\n  }\n\n  mapping(string => uint) internal moduleIds;\n  mapping(uint => ModuleForSale) public modules;\n\n  uint public numModules;\n  uint public version;\n\n  // ------------------------------------------------------------------------\n  // Constructor, establishes ownership because contract is owned\n  // ------------------------------------------------------------------------\n  function Registry() public {\n    numModules = 0;\n    version = 1;\n  }\n\n  // ------------------------------------------------------------------------\n  // Owner can transfer out any accidentally sent ERC20 tokens (just in case)\n  // ------------------------------------------------------------------------\n  function transferAnyERC20Token(address tokenAddress, uint tokens) public onlyOwner returns (bool success) {\n    return ERC20(tokenAddress).transfer(owner, tokens);\n  }\n\n  function listModule(uint price, bytes32 sellerUsername, bytes32 moduleName, string usernameAndProjectName, bytes4 licenseId) public {\n    // make sure input params are valid\n    require(price != 0 && sellerUsername != \"\" && moduleName != \"\" && bytes(usernameAndProjectName).length != 0 && licenseId != 0);\n\n    // make sure the name isn't already taken\n    require(moduleIds[usernameAndProjectName] == 0);\n\n    numModules += 1;\n    moduleIds[usernameAndProjectName] = numModules;\n\n    ModuleForSale storage module = modules[numModules];\n\n    module.price = price;\n    module.sellerUsername = sellerUsername;\n    module.moduleName = moduleName;\n    module.sellerAddress = msg.sender;\n    module.licenseId = licenseId;\n  }\n\n  function getModuleId(string usernameAndProjectName) public view returns (uint) {\n    return moduleIds[usernameAndProjectName];\n  }\n\n  function getModuleById(uint moduleId) public view returns (uint price, bytes32 sellerUsername, bytes32 moduleName, address sellerAddress, bytes4 licenseId) {\n    ModuleForSale storage module = modules[moduleId];\n    \n\n    if (module.sellerAddress == address(0)) {\n      return;\n    }\n\n    price = module.price;\n    sellerUsername = module.sellerUsername;\n    moduleName = module.moduleName;\n    sellerAddress = module.sellerAddress;\n    licenseId = module.licenseId;\n  }\n\n  function getModuleByName(string usernameAndProjectName) public view returns (uint price, bytes32 sellerUsername, bytes32 moduleName, address sellerAddress, bytes4 licenseId) {\n    uint moduleId = moduleIds[usernameAndProjectName];\n    if (moduleId == 0) {\n      return;\n    }\n    ModuleForSale storage module = modules[moduleId];\n\n    price = module.price;\n    sellerUsername = module.sellerUsername;\n    moduleName = module.moduleName;\n    sellerAddress = module.sellerAddress;\n    licenseId = module.licenseId;\n  }\n\n  function editModule(uint moduleId, uint price, address sellerAddress, bytes4 licenseId) public {\n    // Make sure input params are valid\n    require(moduleId != 0 && price != 0 && sellerAddress != address(0) && licenseId != 0);\n\n    ModuleForSale storage module = modules[moduleId];\n\n    // prevent editing an empty module (effectively listing a module)\n    require(module.price != 0 && module.sellerUsername != \"\" && module.moduleName != \"\" && module.licenseId != 0 && module.sellerAddress != address(0));\n\n    // require that sender is the original module lister, or the contract owner\n    // the contract owner clause lets us recover a module listing if a dev loses access to their privkey\n    require(msg.sender == module.sellerAddress || msg.sender == owner);\n\n    module.price = price;\n    module.sellerAddress = sellerAddress;\n    module.licenseId = licenseId;\n  }\n}",
  "sourcePath": "/Users/chris/Documents/WorkStuff/Deconet/Blockchain/DeconetToken/contracts/Registry.sol",
  "compiler": {
    "name": "solc",
    "version": "0.4.19+commit.c4cbbb05.Emscripten.clang"
  },
  "schemaVersion": "2.0.0",
  "updatedAt": "2018-03-31T00:33:49.740Z"
}