{
  "contractName": "Registry",
  "abi": [
    {
      "constant": false,
      "inputs": [],
      "name": "acceptOwnership",
      "outputs": [],
      "payable": false,
      "stateMutability": "nonpayable",
      "type": "function"
    },
    {
      "constant": true,
      "inputs": [],
      "name": "numModules",
      "outputs": [
        {
          "name": "",
          "type": "uint256"
        }
      ],
      "payable": false,
      "stateMutability": "view",
      "type": "function"
    },
    {
      "constant": true,
      "inputs": [],
      "name": "owner",
      "outputs": [
        {
          "name": "",
          "type": "address"
        }
      ],
      "payable": false,
      "stateMutability": "view",
      "type": "function"
    },
    {
      "constant": true,
      "inputs": [],
      "name": "newOwner",
      "outputs": [
        {
          "name": "",
          "type": "address"
        }
      ],
      "payable": false,
      "stateMutability": "view",
      "type": "function"
    },
    {
      "constant": false,
      "inputs": [
        {
          "name": "_newOwner",
          "type": "address"
        }
      ],
      "name": "transferOwnership",
      "outputs": [],
      "payable": false,
      "stateMutability": "nonpayable",
      "type": "function"
    },
    {
      "inputs": [],
      "payable": false,
      "stateMutability": "nonpayable",
      "type": "constructor"
    },
    {
      "anonymous": false,
      "inputs": [
        {
          "indexed": true,
          "name": "_from",
          "type": "address"
        },
        {
          "indexed": true,
          "name": "_to",
          "type": "address"
        }
      ],
      "name": "OwnershipTransferred",
      "type": "event"
    },
    {
      "constant": false,
      "inputs": [
        {
          "name": "price",
          "type": "uint256"
        },
        {
          "name": "sellerUsername",
          "type": "string"
        },
        {
          "name": "moduleName",
          "type": "string"
        },
        {
          "name": "usernameAndProjectName",
          "type": "string"
        }
      ],
      "name": "listModule",
      "outputs": [],
      "payable": false,
      "stateMutability": "nonpayable",
      "type": "function"
    },
    {
      "constant": true,
      "inputs": [
        {
          "name": "usernameAndProjectName",
          "type": "string"
        }
      ],
      "name": "getModuleId",
      "outputs": [
        {
          "name": "",
          "type": "uint256"
        }
      ],
      "payable": false,
      "stateMutability": "view",
      "type": "function"
    },
    {
      "constant": true,
      "inputs": [
        {
          "name": "moduleId",
          "type": "uint256"
        }
      ],
      "name": "getModule",
      "outputs": [
        {
          "name": "price",
          "type": "uint256"
        },
        {
          "name": "sellerUsername",
          "type": "string"
        },
        {
          "name": "moduleName",
          "type": "string"
        },
        {
          "name": "sellerAddress",
          "type": "address"
        }
      ],
      "payable": false,
      "stateMutability": "view",
      "type": "function"
    },
    {
      "constant": false,
      "inputs": [
        {
          "name": "moduleId",
          "type": "uint256"
        },
        {
          "name": "price",
          "type": "uint256"
        },
        {
          "name": "sellerAddress",
          "type": "address"
        }
      ],
      "name": "editModule",
      "outputs": [],
      "payable": false,
      "stateMutability": "nonpayable",
      "type": "function"
    }
  ],
  "bytecode": "0x6060604052341561000f57600080fd5b336000806101000a81548173ffffffffffffffffffffffffffffffffffffffff021916908373ffffffffffffffffffffffffffffffffffffffff1602179055506000600481905550610c8e806100666000396000f300606060405260043610610099576000357c0100000000000000000000000000000000000000000000000000000000900463ffffffff16806355f916b61461009e57806377913fbc146101e057806379ba5097146102515780638ac341c6146102665780638da5cb5b1461028f578063aae17d59146102e4578063c3c3be4d1461032f578063d4ee1d901461041b578063f2fde38b14610470575b600080fd5b34156100a957600080fd5b6100bf60048080359060200190919050506104a9565b6040518085815260200180602001806020018473ffffffffffffffffffffffffffffffffffffffff1673ffffffffffffffffffffffffffffffffffffffff168152602001838103835286818151815260200191508051906020019080838360005b8381101561013b578082015181840152602081019050610120565b50505050905090810190601f1680156101685780820380516001836020036101000a031916815260200191505b50838103825285818151815260200191508051906020019080838360005b838110156101a1578082015181840152602081019050610186565b50505050905090810190601f1680156101ce5780820380516001836020036101000a031916815260200191505b50965050505050505060405180910390f35b34156101eb57600080fd5b61023b600480803590602001908201803590602001908080601f01602080910402602001604051908101604052809392919081815260200183838082843782019150505050505091905050610647565b6040518082815260200191505060405180910390f35b341561025c57600080fd5b6102646106bc565b005b341561027157600080fd5b61027961085b565b6040518082815260200191505060405180910390f35b341561029a57600080fd5b6102a2610861565b604051808273ffffffffffffffffffffffffffffffffffffffff1673ffffffffffffffffffffffffffffffffffffffff16815260200191505060405180910390f35b34156102ef57600080fd5b61032d600480803590602001909190803590602001909190803573ffffffffffffffffffffffffffffffffffffffff16906020019091905050610886565b005b341561033a57600080fd5b610419600480803590602001909190803590602001908201803590602001908080601f0160208091040260200160405190810160405280939291908181526020018383808284378201915050505050509190803590602001908201803590602001908080601f0160208091040260200160405190810160405280939291908181526020018383808284378201915050505050509190803590602001908201803590602001908080601f0160208091040260200160405190810160405280939291908181526020018383808284378201915050505050509190505061094a565b005b341561042657600080fd5b61042e610ae4565b604051808273ffffffffffffffffffffffffffffffffffffffff1673ffffffffffffffffffffffffffffffffffffffff16815260200191505060405180910390f35b341561047b57600080fd5b6104a7600480803573ffffffffffffffffffffffffffffffffffffffff16906020019091905050610b0a565b005b60006104b3610ba9565b6104bb610ba9565b60008060036000878152602001908152602001600020905080600001549450806001018054600181600116156101000203166002900480601f0160208091040260200160405190810160405280929190818152602001828054600181600116156101000203166002900480156105725780601f1061054757610100808354040283529160200191610572565b820191906000526020600020905b81548152906001019060200180831161055557829003601f168201915b50505050509350806002018054600181600116156101000203166002900480601f0160208091040260200160405190810160405280929190818152602001828054600181600116156101000203166002900480156106115780601f106105e657610100808354040283529160200191610611565b820191906000526020600020905b8154815290600101906020018083116105f457829003601f168201915b505050505092508060030160009054906101000a900473ffffffffffffffffffffffffffffffffffffffff169150509193509193565b60006002826040518082805190602001908083835b602083101515610681578051825260208201915060208101905060208303925061065c565b6001836020036101000a0380198251168184511680821785525050505050509050019150509081526020016040518091039020549050919050565b600160009054906101000a900473ffffffffffffffffffffffffffffffffffffffff1673ffffffffffffffffffffffffffffffffffffffff163373ffffffffffffffffffffffffffffffffffffffff1614151561071857600080fd5b600160009054906101000a900473ffffffffffffffffffffffffffffffffffffffff1673ffffffffffffffffffffffffffffffffffffffff166000809054906101000a900473ffffffffffffffffffffffffffffffffffffffff1673ffffffffffffffffffffffffffffffffffffffff167f8be0079c531659141344cd1fd0a4f28419497f9722a3daafe3b4186f6b6457e060405160405180910390a3600160009054906101000a900473ffffffffffffffffffffffffffffffffffffffff166000806101000a81548173ffffffffffffffffffffffffffffffffffffffff021916908373ffffffffffffffffffffffffffffffffffffffff1602179055506000600160006101000a81548173ffffffffffffffffffffffffffffffffffffffff021916908373ffffffffffffffffffffffffffffffffffffffff160217905550565b60045481565b6000809054906101000a900473ffffffffffffffffffffffffffffffffffffffff1681565b60008060009054906101000a900473ffffffffffffffffffffffffffffffffffffffff1673ffffffffffffffffffffffffffffffffffffffff163373ffffffffffffffffffffffffffffffffffffffff161415156108e357600080fd5b600360008581526020019081526020016000209050828160000181905550818160030160006101000a81548173ffffffffffffffffffffffffffffffffffffffff021916908373ffffffffffffffffffffffffffffffffffffffff16021790555050505050565b6000806002836040518082805190602001908083835b6020831015156109855780518252602082019150602081019050602083039250610960565b6001836020036101000a0380198251168184511680821785525050505050509050019150509081526020016040518091039020541415156109c557600080fd5b60016004600082825401925050819055506004546002836040518082805190602001908083835b602083101515610a1157805182526020820191506020810190506020830392506109ec565b6001836020036101000a038019825116818451168082178552505050505050905001915050908152602001604051809103902081905550600360006004548152602001908152602001600020905084816000018190555083816001019080519060200190610a80929190610bbd565b5082816002019080519060200190610a99929190610bbd565b50338160030160006101000a81548173ffffffffffffffffffffffffffffffffffffffff021916908373ffffffffffffffffffffffffffffffffffffffff1602179055505050505050565b600160009054906101000a900473ffffffffffffffffffffffffffffffffffffffff1681565b6000809054906101000a900473ffffffffffffffffffffffffffffffffffffffff1673ffffffffffffffffffffffffffffffffffffffff163373ffffffffffffffffffffffffffffffffffffffff16141515610b6557600080fd5b80600160006101000a81548173ffffffffffffffffffffffffffffffffffffffff021916908373ffffffffffffffffffffffffffffffffffffffff16021790555050565b602060405190810160405280600081525090565b828054600181600116156101000203166002900490600052602060002090601f016020900481019282601f10610bfe57805160ff1916838001178555610c2c565b82800160010185558215610c2c579182015b82811115610c2b578251825591602001919060010190610c10565b5b509050610c399190610c3d565b5090565b610c5f91905b80821115610c5b576000816000905550600101610c43565b5090565b905600a165627a7a72305820bddc916e65e549fae973ca8b21c572777aad621d2e36d83b427a86f9957ffd8b0029",
  "source": "pragma solidity ^0.4.19;\n\nimport \"./Owned.sol\";\n\ncontract Registry is Owned {\n\n  struct ModuleForSale {\n      uint price;\n      string sellerUsername;\n      string moduleName;\n      address sellerAddress;\n  }\n\n  mapping(string => uint) moduleIds;\n  mapping(uint => ModuleForSale) modules;\n\n  uint public numModules;\n\n  // ------------------------------------------------------------------------\n  // Constructor, establishes ownership because contract is owned\n  // ------------------------------------------------------------------------\n  function Registry() public {\n    numModules = 0;\n  }\n\n  function listModule(uint price, string sellerUsername, string moduleName, string usernameAndProjectName) public {\n    // make sure the name isn't already taken\n    require(moduleIds[usernameAndProjectName] == 0);\n\n    numModules += 1;\n    moduleIds[usernameAndProjectName] = numModules;\n\n    var module = modules[numModules];\n\n    module.price = price;\n    module.sellerUsername = sellerUsername;\n    module.moduleName = moduleName;\n    module.sellerAddress = msg.sender;\n  }\n\n  function getModuleId(string usernameAndProjectName) public view returns (uint) {\n    return moduleIds[usernameAndProjectName];\n  }\n\n  function getModule(uint moduleId) public view returns (uint price, string sellerUsername, string moduleName, address sellerAddress) {\n    var module = modules[moduleId];\n\n    price = module.price;\n    sellerUsername = module.sellerUsername;\n    moduleName = module.moduleName;\n    sellerAddress = module.sellerAddress;\n  }\n\n  function editModule(uint moduleId, uint price, address sellerAddress) public onlyOwner {\n    var module = modules[moduleId];\n\n    module.price = price;\n    module.sellerAddress = sellerAddress;\n  }\n}",
  "sourcePath": "/Users/chris/Documents/WorkStuff/Deconet/Blockchain/DeconetToken/contracts/Registry.sol",
  "compiler": {
    "name": "solc",
    "version": "0.4.19+commit.c4cbbb05.Emscripten.clang"
  },
  "schemaVersion": "1.0.1",
  "updatedAt": "2018-02-21T01:08:08.520Z"
}