{
  "contractName": "Registry",
  "abi": [
    {
      "constant": true,
      "inputs": [],
      "name": "version",
      "outputs": [
        {
          "name": "",
          "type": "uint256"
        }
      ],
      "payable": false,
      "stateMutability": "view",
      "type": "function"
    },
    {
      "constant": true,
      "inputs": [
        {
          "name": "",
          "type": "uint256"
        }
      ],
      "name": "modules",
      "outputs": [
        {
          "name": "price",
          "type": "uint256"
        },
        {
          "name": "sellerUsername",
          "type": "bytes32"
        },
        {
          "name": "moduleName",
          "type": "bytes32"
        },
        {
          "name": "sellerAddress",
          "type": "address"
        },
        {
          "name": "licenseId",
          "type": "bytes4"
        }
      ],
      "payable": false,
      "stateMutability": "view",
      "type": "function"
    },
    {
      "constant": true,
      "inputs": [],
      "name": "numModules",
      "outputs": [
        {
          "name": "",
          "type": "uint256"
        }
      ],
      "payable": false,
      "stateMutability": "view",
      "type": "function"
    },
    {
      "constant": true,
      "inputs": [],
      "name": "owner",
      "outputs": [
        {
          "name": "",
          "type": "address"
        }
      ],
      "payable": false,
      "stateMutability": "view",
      "type": "function"
    },
    {
      "constant": false,
      "inputs": [
        {
          "name": "newOwner",
          "type": "address"
        }
      ],
      "name": "transferOwnership",
      "outputs": [],
      "payable": false,
      "stateMutability": "nonpayable",
      "type": "function"
    },
    {
      "inputs": [],
      "payable": false,
      "stateMutability": "nonpayable",
      "type": "constructor"
    },
    {
      "anonymous": false,
      "inputs": [
        {
          "indexed": true,
          "name": "previousOwner",
          "type": "address"
        },
        {
          "indexed": true,
          "name": "newOwner",
          "type": "address"
        }
      ],
      "name": "OwnershipTransferred",
      "type": "event"
    },
    {
      "constant": false,
      "inputs": [
        {
          "name": "tokenAddress",
          "type": "address"
        },
        {
          "name": "tokens",
          "type": "uint256"
        }
      ],
      "name": "transferAnyERC20Token",
      "outputs": [
        {
          "name": "success",
          "type": "bool"
        }
      ],
      "payable": false,
      "stateMutability": "nonpayable",
      "type": "function"
    },
    {
      "constant": false,
      "inputs": [
        {
          "name": "price",
          "type": "uint256"
        },
        {
          "name": "sellerUsername",
          "type": "bytes32"
        },
        {
          "name": "moduleName",
          "type": "bytes32"
        },
        {
          "name": "usernameAndProjectName",
          "type": "string"
        },
        {
          "name": "licenseId",
          "type": "bytes4"
        }
      ],
      "name": "listModule",
      "outputs": [],
      "payable": false,
      "stateMutability": "nonpayable",
      "type": "function"
    },
    {
      "constant": true,
      "inputs": [
        {
          "name": "usernameAndProjectName",
          "type": "string"
        }
      ],
      "name": "getModuleId",
      "outputs": [
        {
          "name": "",
          "type": "uint256"
        }
      ],
      "payable": false,
      "stateMutability": "view",
      "type": "function"
    },
    {
      "constant": true,
      "inputs": [
        {
          "name": "moduleId",
          "type": "uint256"
        }
      ],
      "name": "getModuleById",
      "outputs": [
        {
          "name": "price",
          "type": "uint256"
        },
        {
          "name": "sellerUsername",
          "type": "bytes32"
        },
        {
          "name": "moduleName",
          "type": "bytes32"
        },
        {
          "name": "sellerAddress",
          "type": "address"
        },
        {
          "name": "licenseId",
          "type": "bytes4"
        }
      ],
      "payable": false,
      "stateMutability": "view",
      "type": "function"
    },
    {
      "constant": true,
      "inputs": [
        {
          "name": "usernameAndProjectName",
          "type": "string"
        }
      ],
      "name": "getModuleByName",
      "outputs": [
        {
          "name": "price",
          "type": "uint256"
        },
        {
          "name": "sellerUsername",
          "type": "bytes32"
        },
        {
          "name": "moduleName",
          "type": "bytes32"
        },
        {
          "name": "sellerAddress",
          "type": "address"
        },
        {
          "name": "licenseId",
          "type": "bytes4"
        }
      ],
      "payable": false,
      "stateMutability": "view",
      "type": "function"
    },
    {
      "constant": false,
      "inputs": [
        {
          "name": "moduleId",
          "type": "uint256"
        },
        {
          "name": "price",
          "type": "uint256"
        },
        {
          "name": "sellerAddress",
          "type": "address"
        },
        {
          "name": "licenseId",
          "type": "bytes4"
        }
      ],
      "name": "editModule",
      "outputs": [],
      "payable": false,
      "stateMutability": "nonpayable",
      "type": "function"
    }
  ],
  "bytecode": "0x608060405234801561001057600080fd5b50336000806101000a81548173ffffffffffffffffffffffffffffffffffffffff021916908373ffffffffffffffffffffffffffffffffffffffff160217905550600060038190555060016004819055506111ea806100706000396000f3006080604052600436106100af576000357c0100000000000000000000000000000000000000000000000000000000900463ffffffff16806354fd4d50146100b4578063720ed642146100df57806376e83bcb146101b657806377913fbc1461026e57806381b2248a146102eb5780638ac341c6146103c25780638da5cb5b146103ed578063944da65414610444578063dc39d06d146104c4578063f13d22c114610529578063f2fde38b1461063c575b600080fd5b3480156100c057600080fd5b506100c961067f565b6040518082815260200191505060405180910390f35b3480156100eb57600080fd5b5061010a60048036038101908080359060200190929190505050610685565b60405180868152602001856000191660001916815260200184600019166000191681526020018373ffffffffffffffffffffffffffffffffffffffff1673ffffffffffffffffffffffffffffffffffffffff168152602001827bffffffffffffffffffffffffffffffffffffffffffffffffffffffff19167bffffffffffffffffffffffffffffffffffffffffffffffffffffffff191681526020019550505050505060405180910390f35b3480156101c257600080fd5b5061026c6004803603810190808035906020019092919080356000191690602001909291908035600019169060200190929190803590602001908201803590602001908080601f016020809104026020016040519081016040528093929190818152602001838380828437820191505050505050919291929080357bffffffffffffffffffffffffffffffffffffffffffffffffffffffff19169060200190929190505050610778565b005b34801561027a57600080fd5b506102d5600480360381019080803590602001908201803590602001908080601f01602080910402602001604051908101604052809392919081815260200183838082843782019150505050505091929192905050506109c3565b6040518082815260200191505060405180910390f35b3480156102f757600080fd5b5061031660048036038101908080359060200190929190505050610a38565b60405180868152602001856000191660001916815260200184600019166000191681526020018373ffffffffffffffffffffffffffffffffffffffff1673ffffffffffffffffffffffffffffffffffffffff168152602001827bffffffffffffffffffffffffffffffffffffffffffffffffffffffff19167bffffffffffffffffffffffffffffffffffffffffffffffffffffffff191681526020019550505050505060405180910390f35b3480156103ce57600080fd5b506103d7610ab7565b6040518082815260200191505060405180910390f35b3480156103f957600080fd5b50610402610abd565b604051808273ffffffffffffffffffffffffffffffffffffffff1673ffffffffffffffffffffffffffffffffffffffff16815260200191505060405180910390f35b34801561045057600080fd5b506104c26004803603810190808035906020019092919080359060200190929190803573ffffffffffffffffffffffffffffffffffffffff16906020019092919080357bffffffffffffffffffffffffffffffffffffffffffffffffffffffff19169060200190929190505050610ae2565b005b3480156104d057600080fd5b5061050f600480360381019080803573ffffffffffffffffffffffffffffffffffffffff16906020019092919080359060200190929190505050610df1565b604051808215151515815260200191505060405180910390f35b34801561053557600080fd5b50610590600480360381019080803590602001908201803590602001908080601f0160208091040260200160405190810160405280939291908181526020018383808284378201915050505050509192919290505050610f55565b60405180868152602001856000191660001916815260200184600019166000191681526020018373ffffffffffffffffffffffffffffffffffffffff1673ffffffffffffffffffffffffffffffffffffffff168152602001827bffffffffffffffffffffffffffffffffffffffffffffffffffffffff19167bffffffffffffffffffffffffffffffffffffffffffffffffffffffff191681526020019550505050505060405180910390f35b34801561064857600080fd5b5061067d600480360381019080803573ffffffffffffffffffffffffffffffffffffffff169060200190929190505050611069565b005b60045481565b600080600080600080600260008881526020019081526020016000209050600073ffffffffffffffffffffffffffffffffffffffff168160030160009054906101000a900473ffffffffffffffffffffffffffffffffffffffff1673ffffffffffffffffffffffffffffffffffffffff1614156107015761076e565b8060000154955080600101549450806002015493508060030160009054906101000a900473ffffffffffffffffffffffffffffffffffffffff1692508060030160149054906101000a90047c01000000000000000000000000000000000000000000000000000000000291505b5091939590929450565b600080861415801561078f57506000856000191614155b80156107a057506000846000191614155b80156107ae57506000835114155b80156107f9575060007c010000000000000000000000000000000000000000000000000000000002827bffffffffffffffffffffffffffffffffffffffffffffffffffffffff191614155b151561080457600080fd5b60006001846040518082805190602001908083835b60208310151561083e5780518252602082019150602081019050602083039250610819565b6001836020036101000a03801982511681845116808217855250505050505090500191505090815260200160405180910390205414151561087e57600080fd5b60016003600082825401925050819055506003546001846040518082805190602001908083835b6020831015156108ca57805182526020820191506020810190506020830392506108a5565b6001836020036101000a03801982511681845116808217855250505050505090500191505090815260200160405180910390208190555060026000600354815260200190815260200160002090508581600001819055508481600101816000191690555083816002018160001916905550338160030160006101000a81548173ffffffffffffffffffffffffffffffffffffffff021916908373ffffffffffffffffffffffffffffffffffffffff160217905550818160030160146101000a81548163ffffffff02191690837c010000000000000000000000000000000000000000000000000000000090040217905550505050505050565b60006001826040518082805190602001908083835b6020831015156109fd57805182526020820191506020810190506020830392506109d8565b6001836020036101000a0380198251168184511680821785525050505050509050019150509081526020016040518091039020549050919050565b60026020528060005260406000206000915090508060000154908060010154908060020154908060030160009054906101000a900473ffffffffffffffffffffffffffffffffffffffff16908060030160149054906101000a90047c010000000000000000000000000000000000000000000000000000000002905085565b60035481565b6000809054906101000a900473ffffffffffffffffffffffffffffffffffffffff1681565b6000808514158015610af5575060008414155b8015610b2e5750600073ffffffffffffffffffffffffffffffffffffffff168373ffffffffffffffffffffffffffffffffffffffff1614155b8015610b79575060007c010000000000000000000000000000000000000000000000000000000002827bffffffffffffffffffffffffffffffffffffffffffffffffffffffff191614155b1515610b8457600080fd5b6002600086815260200190815260200160002090506000816000015414158015610bb75750600081600101546000191614155b8015610bcc5750600081600201546000191614155b8015610c44575060007c0100000000000000000000000000000000000000000000000000000000028160030160149054906101000a90047c0100000000000000000000000000000000000000000000000000000000027bffffffffffffffffffffffffffffffffffffffffffffffffffffffff191614155b8015610ca15750600073ffffffffffffffffffffffffffffffffffffffff168160030160009054906101000a900473ffffffffffffffffffffffffffffffffffffffff1673ffffffffffffffffffffffffffffffffffffffff1614155b1515610cac57600080fd5b8060030160009054906101000a900473ffffffffffffffffffffffffffffffffffffffff1673ffffffffffffffffffffffffffffffffffffffff163373ffffffffffffffffffffffffffffffffffffffff161480610d5657506000809054906101000a900473ffffffffffffffffffffffffffffffffffffffff1673ffffffffffffffffffffffffffffffffffffffff163373ffffffffffffffffffffffffffffffffffffffff16145b1515610d6157600080fd5b838160000181905550828160030160006101000a81548173ffffffffffffffffffffffffffffffffffffffff021916908373ffffffffffffffffffffffffffffffffffffffff160217905550818160030160146101000a81548163ffffffff02191690837c0100000000000000000000000000000000000000000000000000000000900402179055505050505050565b60008060009054906101000a900473ffffffffffffffffffffffffffffffffffffffff1673ffffffffffffffffffffffffffffffffffffffff163373ffffffffffffffffffffffffffffffffffffffff16141515610e4e57600080fd5b8273ffffffffffffffffffffffffffffffffffffffff1663a9059cbb6000809054906101000a900473ffffffffffffffffffffffffffffffffffffffff16846040518363ffffffff167c0100000000000000000000000000000000000000000000000000000000028152600401808373ffffffffffffffffffffffffffffffffffffffff1673ffffffffffffffffffffffffffffffffffffffff16815260200182815260200192505050602060405180830381600087803b158015610f1257600080fd5b505af1158015610f26573d6000803e3d6000fd5b505050506040513d6020811015610f3c57600080fd5b8101908080519060200190929190505050905092915050565b60008060008060008060006001886040518082805190602001908083835b602083101515610f985780518252602082019150602081019050602083039250610f73565b6001836020036101000a03801982511681845116808217855250505050505090500191505090815260200160405180910390205491506000821415610fdc5761105e565b6002600083815260200190815260200160002090508060000154965080600101549550806002015494508060030160009054906101000a900473ffffffffffffffffffffffffffffffffffffffff1693508060030160149054906101000a90047c01000000000000000000000000000000000000000000000000000000000292505b505091939590929450565b6000809054906101000a900473ffffffffffffffffffffffffffffffffffffffff1673ffffffffffffffffffffffffffffffffffffffff163373ffffffffffffffffffffffffffffffffffffffff161415156110c457600080fd5b600073ffffffffffffffffffffffffffffffffffffffff168173ffffffffffffffffffffffffffffffffffffffff161415151561110057600080fd5b8073ffffffffffffffffffffffffffffffffffffffff166000809054906101000a900473ffffffffffffffffffffffffffffffffffffffff1673ffffffffffffffffffffffffffffffffffffffff167f8be0079c531659141344cd1fd0a4f28419497f9722a3daafe3b4186f6b6457e060405160405180910390a3806000806101000a81548173ffffffffffffffffffffffffffffffffffffffff021916908373ffffffffffffffffffffffffffffffffffffffff160217905550505600a165627a7a72305820077b390b966456c73f2ff4fdc5be821e4c0a14348c045254fb6dccd64b70a0040029",
  "source": "pragma solidity 0.4.24;\n\nimport \"zeppelin-solidity/contracts/ownership/Ownable.sol\";\nimport \"zeppelin-solidity/contracts/token/ERC20/ERC20.sol\";\n\ncontract Registry is Ownable {\n\n    struct ModuleForSale {\n        uint price;\n        bytes32 sellerUsername;\n        bytes32 moduleName;\n        address sellerAddress;\n        bytes4 licenseId;\n    }\n\n    mapping(string => uint) internal moduleIds;\n    mapping(uint => ModuleForSale) public modules;\n\n    uint public numModules;\n    uint public version;\n\n    // ------------------------------------------------------------------------\n    // Constructor, establishes ownership because contract is owned\n    // ------------------------------------------------------------------------\n    constructor() public {\n        numModules = 0;\n        version = 1;\n    }\n\n    // ------------------------------------------------------------------------\n    // Owner can transfer out any accidentally sent ERC20 tokens (just in case)\n    // ------------------------------------------------------------------------\n    function transferAnyERC20Token(address tokenAddress, uint tokens) public onlyOwner returns (bool success) {\n        return ERC20(tokenAddress).transfer(owner, tokens);\n    }\n\n    // ------------------------------------------------------------------------\n    // Lets a user list a software module for sale in this registry\n    // ------------------------------------------------------------------------\n    function listModule(uint price, bytes32 sellerUsername, bytes32 moduleName, string usernameAndProjectName, bytes4 licenseId) public {\n        // make sure input params are valid\n        require(price != 0 && sellerUsername != \"\" && moduleName != \"\" && bytes(usernameAndProjectName).length != 0 && licenseId != 0);\n\n        // make sure the name isn't already taken\n        require(moduleIds[usernameAndProjectName] == 0);\n\n        numModules += 1;\n        moduleIds[usernameAndProjectName] = numModules;\n\n        ModuleForSale storage module = modules[numModules];\n\n        module.price = price;\n        module.sellerUsername = sellerUsername;\n        module.moduleName = moduleName;\n        module.sellerAddress = msg.sender;\n        module.licenseId = licenseId;\n    }\n\n    // ------------------------------------------------------------------------\n    // Get the ID number of a module given the username and project name of that module\n    // ------------------------------------------------------------------------\n    function getModuleId(string usernameAndProjectName) public view returns (uint) {\n        return moduleIds[usernameAndProjectName];\n    }\n\n    // ------------------------------------------------------------------------\n    // Get info stored for a module by id\n    // ------------------------------------------------------------------------\n    function getModuleById(\n        uint moduleId\n    ) \n        public \n        view \n        returns (\n            uint price, \n            bytes32 sellerUsername, \n            bytes32 moduleName, \n            address sellerAddress, \n            bytes4 licenseId\n        ) \n    {\n        ModuleForSale storage module = modules[moduleId];\n        \n\n        if (module.sellerAddress == address(0)) {\n            return;\n        }\n\n        price = module.price;\n        sellerUsername = module.sellerUsername;\n        moduleName = module.moduleName;\n        sellerAddress = module.sellerAddress;\n        licenseId = module.licenseId;\n    }\n\n    // ------------------------------------------------------------------------\n    // get info stored for a module by name\n    // ------------------------------------------------------------------------\n    function getModuleByName(\n        string usernameAndProjectName\n    ) \n        public \n        view\n        returns (\n            uint price, \n            bytes32 sellerUsername, \n            bytes32 moduleName, \n            address sellerAddress, \n            bytes4 licenseId\n        ) \n    {\n        uint moduleId = moduleIds[usernameAndProjectName];\n        if (moduleId == 0) {\n            return;\n        }\n        ModuleForSale storage module = modules[moduleId];\n\n        price = module.price;\n        sellerUsername = module.sellerUsername;\n        moduleName = module.moduleName;\n        sellerAddress = module.sellerAddress;\n        licenseId = module.licenseId;\n    }\n\n    // ------------------------------------------------------------------------\n    // Edit a module listing\n    // ------------------------------------------------------------------------\n    function editModule(uint moduleId, uint price, address sellerAddress, bytes4 licenseId) public {\n        // Make sure input params are valid\n        require(moduleId != 0 && price != 0 && sellerAddress != address(0) && licenseId != 0);\n\n        ModuleForSale storage module = modules[moduleId];\n\n        // prevent editing an empty module (effectively listing a module)\n        require(\n            module.price != 0 && module.sellerUsername != \"\" && module.moduleName != \"\" && module.licenseId != 0 && module.sellerAddress != address(0)\n        );\n\n        // require that sender is the original module lister, or the contract owner\n        // the contract owner clause lets us recover a module listing if a dev loses access to their privkey\n        require(msg.sender == module.sellerAddress || msg.sender == owner);\n\n        module.price = price;\n        module.sellerAddress = sellerAddress;\n        module.licenseId = licenseId;\n    }\n}",
  "sourcePath": "/Users/chris/Documents/WorkStuff/Deconet/Blockchain/DeconetToken/contracts/Registry.sol",
  "compiler": {
    "name": "solc",
    "version": "0.4.24+commit.e67f0147.Emscripten.clang"
  },
  "schemaVersion": "2.0.1",
  "updatedAt": "2018-07-21T01:38:51.743Z"
}