{
  "contractName": "Relay",
  "abi": [
    {
      "constant": true,
      "inputs": [],
      "name": "version",
      "outputs": [
        {
          "name": "",
          "type": "uint256"
        }
      ],
      "payable": false,
      "stateMutability": "view",
      "type": "function"
    },
    {
      "constant": true,
      "inputs": [],
      "name": "registryContractAddress",
      "outputs": [
        {
          "name": "",
          "type": "address"
        }
      ],
      "payable": false,
      "stateMutability": "view",
      "type": "function"
    },
    {
      "constant": true,
      "inputs": [],
      "name": "apiRegistryContractAddress",
      "outputs": [
        {
          "name": "",
          "type": "address"
        }
      ],
      "payable": false,
      "stateMutability": "view",
      "type": "function"
    },
    {
      "constant": true,
      "inputs": [],
      "name": "owner",
      "outputs": [
        {
          "name": "",
          "type": "address"
        }
      ],
      "payable": false,
      "stateMutability": "view",
      "type": "function"
    },
    {
      "constant": true,
      "inputs": [],
      "name": "licenseSalesContractAddress",
      "outputs": [
        {
          "name": "",
          "type": "address"
        }
      ],
      "payable": false,
      "stateMutability": "view",
      "type": "function"
    },
    {
      "constant": true,
      "inputs": [],
      "name": "apiCallsContractAddress",
      "outputs": [
        {
          "name": "",
          "type": "address"
        }
      ],
      "payable": false,
      "stateMutability": "view",
      "type": "function"
    },
    {
      "constant": false,
      "inputs": [
        {
          "name": "newOwner",
          "type": "address"
        }
      ],
      "name": "transferOwnership",
      "outputs": [],
      "payable": false,
      "stateMutability": "nonpayable",
      "type": "function"
    },
    {
      "inputs": [],
      "payable": false,
      "stateMutability": "nonpayable",
      "type": "constructor"
    },
    {
      "anonymous": false,
      "inputs": [
        {
          "indexed": true,
          "name": "previousOwner",
          "type": "address"
        },
        {
          "indexed": true,
          "name": "newOwner",
          "type": "address"
        }
      ],
      "name": "OwnershipTransferred",
      "type": "event"
    },
    {
      "constant": false,
      "inputs": [
        {
          "name": "tokenAddress",
          "type": "address"
        },
        {
          "name": "tokens",
          "type": "uint256"
        }
      ],
      "name": "transferAnyERC20Token",
      "outputs": [
        {
          "name": "success",
          "type": "bool"
        }
      ],
      "payable": false,
      "stateMutability": "nonpayable",
      "type": "function"
    },
    {
      "constant": false,
      "inputs": [
        {
          "name": "newAddress",
          "type": "address"
        }
      ],
      "name": "setLicenseSalesContractAddress",
      "outputs": [],
      "payable": false,
      "stateMutability": "nonpayable",
      "type": "function"
    },
    {
      "constant": false,
      "inputs": [
        {
          "name": "newAddress",
          "type": "address"
        }
      ],
      "name": "setRegistryContractAddress",
      "outputs": [],
      "payable": false,
      "stateMutability": "nonpayable",
      "type": "function"
    },
    {
      "constant": false,
      "inputs": [
        {
          "name": "newAddress",
          "type": "address"
        }
      ],
      "name": "setApiRegistryContractAddress",
      "outputs": [],
      "payable": false,
      "stateMutability": "nonpayable",
      "type": "function"
    },
    {
      "constant": false,
      "inputs": [
        {
          "name": "newAddress",
          "type": "address"
        }
      ],
      "name": "setApiCallsContractAddress",
      "outputs": [],
      "payable": false,
      "stateMutability": "nonpayable",
      "type": "function"
    }
  ],
  "bytecode": "0x6060604052341561000f57600080fd5b336000806101000a81548173ffffffffffffffffffffffffffffffffffffffff021916908373ffffffffffffffffffffffffffffffffffffffff1602179055506004600581905550610b04806100666000396000f3006060604052600436106100ba576000357c0100000000000000000000000000000000000000000000000000000000900463ffffffff1680632c6f39fd146100bf57806354fd4d50146100f85780636793d383146101215780636ebd9d7f1461017657806376b69d77146101af5780638da5cb5b146102045780639216cf1314610259578063b5d0c747146102ae578063d20838f4146102e7578063dc39d06d14610320578063e080b60c1461037a578063f2fde38b146103cf575b600080fd5b34156100ca57600080fd5b6100f6600480803573ffffffffffffffffffffffffffffffffffffffff16906020019091905050610408565b005b341561010357600080fd5b61010b6104e3565b6040518082815260200191505060405180910390f35b341561012c57600080fd5b6101346104e9565b604051808273ffffffffffffffffffffffffffffffffffffffff1673ffffffffffffffffffffffffffffffffffffffff16815260200191505060405180910390f35b341561018157600080fd5b6101ad600480803573ffffffffffffffffffffffffffffffffffffffff1690602001909190505061050f565b005b34156101ba57600080fd5b6101c26105ea565b604051808273ffffffffffffffffffffffffffffffffffffffff1673ffffffffffffffffffffffffffffffffffffffff16815260200191505060405180910390f35b341561020f57600080fd5b610217610610565b604051808273ffffffffffffffffffffffffffffffffffffffff1673ffffffffffffffffffffffffffffffffffffffff16815260200191505060405180910390f35b341561026457600080fd5b61026c610635565b604051808273ffffffffffffffffffffffffffffffffffffffff1673ffffffffffffffffffffffffffffffffffffffff16815260200191505060405180910390f35b34156102b957600080fd5b6102e5600480803573ffffffffffffffffffffffffffffffffffffffff1690602001909190505061065b565b005b34156102f257600080fd5b61031e600480803573ffffffffffffffffffffffffffffffffffffffff16906020019091905050610736565b005b341561032b57600080fd5b610360600480803573ffffffffffffffffffffffffffffffffffffffff16906020019091908035906020019091905050610811565b604051808215151515815260200191505060405180910390f35b341561038557600080fd5b61038d61095d565b604051808273ffffffffffffffffffffffffffffffffffffffff1673ffffffffffffffffffffffffffffffffffffffff16815260200191505060405180910390f35b34156103da57600080fd5b610406600480803573ffffffffffffffffffffffffffffffffffffffff16906020019091905050610983565b005b6000809054906101000a900473ffffffffffffffffffffffffffffffffffffffff1673ffffffffffffffffffffffffffffffffffffffff163373ffffffffffffffffffffffffffffffffffffffff1614151561046357600080fd5b600073ffffffffffffffffffffffffffffffffffffffff168173ffffffffffffffffffffffffffffffffffffffff161415151561049f57600080fd5b80600160006101000a81548173ffffffffffffffffffffffffffffffffffffffff021916908373ffffffffffffffffffffffffffffffffffffffff16021790555050565b60055481565b600260009054906101000a900473ffffffffffffffffffffffffffffffffffffffff1681565b6000809054906101000a900473ffffffffffffffffffffffffffffffffffffffff1673ffffffffffffffffffffffffffffffffffffffff163373ffffffffffffffffffffffffffffffffffffffff1614151561056a57600080fd5b600073ffffffffffffffffffffffffffffffffffffffff168173ffffffffffffffffffffffffffffffffffffffff16141515156105a657600080fd5b80600360006101000a81548173ffffffffffffffffffffffffffffffffffffffff021916908373ffffffffffffffffffffffffffffffffffffffff16021790555050565b600360009054906101000a900473ffffffffffffffffffffffffffffffffffffffff1681565b6000809054906101000a900473ffffffffffffffffffffffffffffffffffffffff1681565b600160009054906101000a900473ffffffffffffffffffffffffffffffffffffffff1681565b6000809054906101000a900473ffffffffffffffffffffffffffffffffffffffff1673ffffffffffffffffffffffffffffffffffffffff163373ffffffffffffffffffffffffffffffffffffffff161415156106b657600080fd5b600073ffffffffffffffffffffffffffffffffffffffff168173ffffffffffffffffffffffffffffffffffffffff16141515156106f257600080fd5b80600460006101000a81548173ffffffffffffffffffffffffffffffffffffffff021916908373ffffffffffffffffffffffffffffffffffffffff16021790555050565b6000809054906101000a900473ffffffffffffffffffffffffffffffffffffffff1673ffffffffffffffffffffffffffffffffffffffff163373ffffffffffffffffffffffffffffffffffffffff1614151561079157600080fd5b600073ffffffffffffffffffffffffffffffffffffffff168173ffffffffffffffffffffffffffffffffffffffff16141515156107cd57600080fd5b80600260006101000a81548173ffffffffffffffffffffffffffffffffffffffff021916908373ffffffffffffffffffffffffffffffffffffffff16021790555050565b60008060009054906101000a900473ffffffffffffffffffffffffffffffffffffffff1673ffffffffffffffffffffffffffffffffffffffff163373ffffffffffffffffffffffffffffffffffffffff1614151561086e57600080fd5b8273ffffffffffffffffffffffffffffffffffffffff1663a9059cbb6000809054906101000a900473ffffffffffffffffffffffffffffffffffffffff16846000604051602001526040518363ffffffff167c0100000000000000000000000000000000000000000000000000000000028152600401808373ffffffffffffffffffffffffffffffffffffffff1673ffffffffffffffffffffffffffffffffffffffff16815260200182815260200192505050602060405180830381600087803b151561093a57600080fd5b6102c65a03f1151561094b57600080fd5b50505060405180519050905092915050565b600460009054906101000a900473ffffffffffffffffffffffffffffffffffffffff1681565b6000809054906101000a900473ffffffffffffffffffffffffffffffffffffffff1673ffffffffffffffffffffffffffffffffffffffff163373ffffffffffffffffffffffffffffffffffffffff161415156109de57600080fd5b600073ffffffffffffffffffffffffffffffffffffffff168173ffffffffffffffffffffffffffffffffffffffff1614151515610a1a57600080fd5b8073ffffffffffffffffffffffffffffffffffffffff166000809054906101000a900473ffffffffffffffffffffffffffffffffffffffff1673ffffffffffffffffffffffffffffffffffffffff167f8be0079c531659141344cd1fd0a4f28419497f9722a3daafe3b4186f6b6457e060405160405180910390a3806000806101000a81548173ffffffffffffffffffffffffffffffffffffffff021916908373ffffffffffffffffffffffffffffffffffffffff160217905550505600a165627a7a7230582029ff74c33bd9b441b660d92708d194183d775e3f193d1aa32256b9194de6f53c0029",
  "source": "pragma solidity 0.4.19;\n\nimport \"zeppelin-solidity/contracts/ownership/Ownable.sol\";\nimport \"zeppelin-solidity/contracts/token/ERC20/ERC20.sol\";\n\ncontract Relay is Ownable {\n  address public licenseSalesContractAddress;\n  address public registryContractAddress;\n  address public apiRegistryContractAddress;\n  address public apiCallsContractAddress;\n  uint public version;\n\n  // ------------------------------------------------------------------------\n  // Constructor, establishes ownership because contract is owned\n  // ------------------------------------------------------------------------\n  function Relay() public {\n    version = 4;\n  }\n\n  // ------------------------------------------------------------------------\n  // Owner can transfer out any accidentally sent ERC20 tokens (just in case)\n  // ------------------------------------------------------------------------\n  function transferAnyERC20Token(address tokenAddress, uint tokens) public onlyOwner returns (bool success) {\n    return ERC20(tokenAddress).transfer(owner, tokens);\n  }\n\n  function setLicenseSalesContractAddress(address newAddress) public onlyOwner {\n    require(newAddress != address(0));\n    licenseSalesContractAddress = newAddress;\n  }\n\n  function setRegistryContractAddress(address newAddress) public onlyOwner {\n    require(newAddress != address(0));\n    registryContractAddress = newAddress;\n  }\n\n  function setApiRegistryContractAddress(address newAddress) public onlyOwner {\n    require(newAddress != address(0));\n    apiRegistryContractAddress = newAddress;\n  }\n\n  function setApiCallsContractAddress(address newAddress) public onlyOwner {\n    require(newAddress != address(0));\n    apiCallsContractAddress = newAddress;\n  }\n}",
  "sourcePath": "/Users/chris/Documents/WorkStuff/Deconet/Blockchain/DeconetToken/contracts/Relay.sol",
  "compiler": {
    "name": "solc",
    "version": "0.4.19+commit.c4cbbb05.Emscripten.clang"
  },
  "schemaVersion": "2.0.0",
  "updatedAt": "2018-04-04T18:42:10.910Z"
}